:020000040800F2
:10000000880400209901000831140008ED1300084D
:100010002D140008650900082121000800000000D7
:10002000000000000000000000000000851800082B
:10003000690900080000000011150008511A0008A5
:10004000B3010008B3010008B3010008B3010008C0
:10005000B3010008B3010008B10A0008B3010008A9
:10006000B3010008B3010008B3010008B3010008A0
:10007000B3010008B3010008B3010008B301000890
:10008000B3010008B3010008B3010008B301000880
:10009000B3010008B3010008B3010008B301000870
:1000A000B3010008B3010008B3010008B301000860
:1000B000B3010008B3010008B3010008F3130008FE
:1000C000F1130008B3010008B3010008B3010008F0
:1000D000B3010008B3010008B3010008B301000830
:1000E0003D0B0008B3010008B3010008B30100088C
:1000F000B3010008B3010008B3010008B301000810
:10010000B3010008B3010008B3010008B3010008FF
:10011000B3010008B3010008B3010008B3010008EF
:10012000B3010008B3010008B3010008B3010008DF
:10013000B3010008B3010008B3010008B3010008CF
:1001400000000000000000000000000000000000AF
:10015000B3010008B3010008B3010008B3010008AF
:10016000B3010008B3010008B3010008B30100089F
:10017000B3010008B3010008B3010008B30100088F
:10018000B3010008DFF80CD000F008FB004800477E
:10019000AD2B000888040020064880470648004729
:1001A000FEE7FEE7FEE7FEE7FEE7FEE7FEE7FEE727
:1001B000FEE7FEE7551A0008850100082DE9FE4F0D
:1001C000804681EA0300C00F0C46009021F00041F8
:1001D00023F00045B8EB0200A94105D24046214674
:1001E00090461C460B46024623F00040104347D081
:1001F000270DC7F30A00C3F30A510290401A019079
:1002000040286BDAC3F3130040F4801B0098924639
:1002100020B10023D2EB030A63EB0B0B0198594684
:10022000C0F14002504600F0D4F906460D46504653
:100230005946019A00F0DCF910EB080061410024F6
:1002400087EA115284EAE7731A4340D0009A62B3F6
:10025000019A012A4FEA075215DC001B61EB0201EB
:100260004FF0004202EA0752CDE90042001C41F57E
:10027000801132462B4600F013FA03B0BDE8F08F30
:1002800040462146F9E7001B61EB0201001C41F5E5
:10029000801300185B412018A2F5001747EB0301FB
:1002A00040EAD570B6196D4111E06D084FEA360687
:1002B00045EAC0754FEA0752001B61EB0201001CC2
:1002C00041F5801149084FEA30000019514132468A
:1002D0002B4603B0BDE8F04F00F0D3B900980122DF
:1002E00040000023D0EB020263EBE073009821464C
:1002F0004FEAE074B8EB000061EB0401E9E783F03A
:1003000000435BE781F0004158E72DE9FE4F81EAA9
:10031000030404F0004421F0004100944FF0000B6E
:1003200023F0004350EA01045ED052EA03045BD09C
:10033000C3F30A54C1F30A552C44A4F2F3340194D4
:10034000A0FB0254C1F3130141F48011C3F3130362
:1003500043F4801301FB024400FB034E840A970A16
:1003600044EA815447EA8357A4FB076802958D0A43
:1003700005FB07854FEA932C04FB0C542705029DCF
:100380004FEA065847EA1637B5EB08056EEB070C3F
:10039000870E920E47EA811742EA8312A7FB0201F9
:1003A000B6EB0B0164EB00042B0D43EA0C335E1833
:1003B00044EB1C50DA465146E7FB0201C5F3130437
:1003C0004FEA0B3343EA14534FEA0432019C43EAE9
:1003D0000603A4F10C040294009CCDE900B400F0E3
:1003E0005FF903B0BDE8F08F00200146F9E72DE981
:1003F000F04D81EA030404F0004B21F0004514465F
:100400004FF0000A23F0004150EA050220D054EAE0
:1004100001021DD0C5F30A570246C5F31303C1F309
:100420001300C1F30A5640F4801543F48013A7EB80
:100430000608101BD64608F2FD3873EB050002D300
:1004400008F1010801E092185B41B8F1000F03DAEE
:1004500000200146BDE8F08D00204FF480110646D3
:1004600084460EE0171B73EB050705D3121B63EBE5
:10047000050306434CEA010C49084FEA3000921884
:100480005B4150EA0107EDD152EA030012D082EA43
:10049000040083EA0501084305D0101BAB4106D2D6
:1004A0000122002306E000224FF0004302E06FF03B
:1004B000010253101AEB06004CEB085110EB0A0036
:1004C00041EB0B01BDE8F04D00F0DBB80EB540F29A
:1004D000334102910021CDE900110A460B4600F09C
:1004E000DFF803B000BD00F0004230F000400AD059
:1004F000C10D01F56071C0F3160042EA0151C20856
:1005000040071143704700200146704701F0004347
:1005100030B421F0004150EA010206D00A0DA2F5E4
:100520006072C1F31301002A02DC30BC0020704766
:10053000440F44EAC104C100E01830BC00EBC250D3
:1005400000F068B830B50B46014600202022012497
:1005500009E021FA02F59D4205D303FA02F5491B91
:1005600004FA02F52844151EA2F10102F1DC30BDA7
:100570002DE9F05F0546002092469B4688460646D8
:10058000814640241BE0284641464746224600F06B
:1005900017F953465A46C01A914110D311461846CE
:1005A000224600F016F82D1A67EB01084F46224646
:1005B0000120002100F00DF817EB00094E41201E2C
:1005C000A4F10104DFDC484631462A464346BDE833
:1005D000F09F202A04DB203A00FA02F10020704745
:1005E0009140C2F1200320FA03F319439040704771
:1005F000202A06DBCB17203A41FA02F043EAE073E7
:1006000006E041FA02F3D040C2F1200291400843D3
:10061000194670470029A8BF7047401C490008BF11
:1006200020F00100704710B4B0FA80FC00FA0CF022
:1006300050EA010404BF10BC704749B1CCF120045A
:1006400021FA04F411FA0CF118BF012121430843E7
:10065000A3EB0C01CB1D4FEA00614FEA102042BF13
:10066000002010BC704700EBC35010440029A4BF09
:1006700010BC7047401C490008BF20F0010010BCAE
:10068000704710B5141E73F1000408DA401C41F1E4
:10069000000192185B411A4301D120F0010010BD06
:1006A0002DE9F04D92469B4611B1B1FA81F202E07C
:1006B000B0FA80F220329046FFF78BFF04460F46D7
:1006C00040EA0A0041EA0B0153465A46084313D058
:1006D000114653EA010019D0C8F14002504600F01B
:1006E0006FF805460E46504659464246FFF771FFE1
:1006F000084305D0012004E020463946BDE8F08DCE
:100700000020054346EAE0762C4337430A98630508
:10071000E40AA0EB08000022FD0A44EA47540A302C
:1007200002D500200146E9E7010510196941DDE91C
:10073000084500196941BDE8F04DA2E7C1F30A522E
:10074000C1F3130140F2FF3341F480119A4202DAFF
:1007500000200146704740F233439A42A2F23342EE
:1007600002DC524200F02CB8FFF733BF30B5041E54
:1007700071F1000404DB4FF00044404264EB0101DE
:10078000141E73F1000405DB1C464FF00043524277
:1007900063EB0403994208BF904230BD064C074DFD
:1007A00006E0E06840F0010394E807009847103441
:1007B000AC42F6D3FFF7EAFCB82F0008D82F0008A8
:1007C000202A04DB203A21FA02F00021704721FAA6
:1007D00002F3D040C2F1200291400843194670470D
:1007E00038B504460B4951F82400012100F092FE6F
:1007F000684600F04FFD084830F81400ADF80000DE
:1008000028208DF80300054951F82400694600F0BE
:1008100019FB38BD48000020440000203C000020A7
:1008200010B500F0A3F8012000F016F8022000F047
:1008300013F8032000F010F8012000F031F8022036
:1008400000F02EF8032000F02BF80020FFF7C8FF7F
:100850000120FFF7C5FF10BD38B504460D4951F81A
:100860002400012100F056FE684600F013FD0A48FE
:1008700030F81400ADF8000010208DF803000220BD
:100880008DF80200054951F82400694600F0DAFAB3
:1008900038BD00002C00002024000020140000209F
:1008A000032800DD7047064931F8101031B10449C2
:1008B00031F81010034A52F82020116100BFF1E70F
:1008C0002400002014000020032800DD704709499F
:1008D00031F8101059B1084951F82010C968054A7B
:1008E00032F810205140044A52F82020D16000BF55
:1008F000ECE7000024000020140000203EB5044670
:10090000144A115D144A105D00F026FA01A800F0A7
:100910001BFA124830F81400019000208DF80800EE
:1009200001208DF80A0008208DF8090001A800F0C8
:1009300077F90B4810F814008DF8000001208DF8AD
:1009400003008DF801008DF80200684600F072FD8A
:100950003EBD00000A00002008000020000000202A
:100960000400002000BFFEE77047000010B56FF0E4
:10097000040001F035F80B4890ED000AB8EE400A8B
:10098000DFED090A80EE201A084880ED001A90ED8C
:10099000000ADFED070A20EE200A064880ED000A73
:1009A00010BD00006C0000200024F44A500000201C
:1009B00000007A445400002043E0B0F5FA7F11DDD6
:1009C000214A92ED000ADFED210A20EE200ABCEE5A
:1009D000C00A10EE102A4FF0E0235A61A0F5FA7217
:1009E00090B210E000EE100AB8EE400A164AD2EDBE
:1009F000000A20EE200ABCEEC00A10EE102A4FF0CA
:100A0000E0235A61002000224FF0E0239A611A4649
:100A1000126942F001021A6100BF4FF0E022116931
:100A200001F001021AB101F48032002AF5D04FF032
:100A3000E022126922F001024FF0E0231A61002245
:100A40009A610028B9D17047540000200000FA4391
:100A500000EE100AB8EE400A144AD2ED000A20EE69
:100A6000200ABCEEC00A10EE102A4FF0E0235A61B3
:100A700000229A611A46126942F001021A6100BF0F
:100A80004FF0E022116901F001021AB101F4803245
:100A9000002AF5D04FF0E022126922F001024FF057
:100AA000E0231A6100229A61704700005000002084
:100AB00010B50520FFF780FF1549164A127831F866
:100AC000120000F081F81449124A127851F82200FD
:100AD00000F096FA11490F4A127831F812100840C6
:100AE0000E490C4A127831F8121088420AD10C488B
:100AF0000078042803D101200949087002E004208D
:100B000007490870074908A001F00CFB10BD000060
:100B100000000020100000203C00002044000020C5
:100B200011000020902F00084920616D2068657237
:100B300065203A202573200A0000000010B505202A
:100B4000FFF73AFF1549164A127831F8120000F003
:100B50003BF81449124A127851F8220000F050FA7A
:100B600011490F4A127831F8121008400E490C4A08
:100B7000127831F8121088420AD10C480078042803
:100B800003D101200949087002E0042007490870D8
:100B9000074908A001F0C6FA10BD000000000020BF
:100BA000100000203C000020440000201100002024
:100BB000A12F00084920616D2068657265203A20E8
:100BC0002573200A0000000010B50446200D000522
:100BD00008B904B103E0F42102A001F01CFF0F48A2
:100BE000046010BD4C69627261726965735C415446
:100BF0003332463478785F53746450657269706834
:100C00005F4472697665725C7372635C61743332DF
:100C1000663478785F657874692E63001404014047
:100C200070B504460025207910B12079042800D140
:100C300003E05F2135A001F0EEFE6079082805D0C1
:100C400060790C2802D06079102800D103E060217F
:100C50002EA001F0E0FE20686FF3130010B92068A9
:100C600000B103E0612129A001F0D5FEA07910B107
:100C7000A079012800D103E0622124A001F0CBFE7D
:100C8000304DA07990B328460068216888432946F2
:100C90000860081D006821688843291D08602079C4
:100CA0000544286821680843286026480830006801
:100CB00021688843234908310860081D00682168BD
:100CC000884320490C310860607910280FD1081F33
:100CD0000068216808431B4908310860081D006846
:100CE0002168084317490C3108600EE007E0154DF4
:100CF00060790544286821680843286005E0207968
:100D00000544286821688843286070BD4C69627278
:100D100061726965735C41543332463478785F534D
:100D200074645065726970685F4472697665725C5C
:100D30007372635C61743332663478785F6578749B
:100D4000692E6300000401400021016001710C2143
:100D5000417100218171704770B505460C4600262F
:100D60005DB1012D09D0022D07D0032D05D0042D32
:100D700003D0052D01D0062D00D104E040F26A41D8
:100D800021A001F048FEECB1012C1BD0022C19D09F
:100D9000032C17D0042C15D0052C13D0062C11D001
:100DA000072C0FD0082C0DD0092C0BD00A2C09D001
:100DB0000B2C07D00C2C05D00D2C03D00E2C01D001
:100DC0000F2C00D104E040F26B410FA001F023FE94
:100DD000A007010F0F2000FA01F61948A11050F8E2
:100DE0002100B0431649A21041F822000846A11084
:100DF00050F82100A107090F05FA01F10843104935
:100E0000A21041F8220070BD4C696272617269657E
:100E1000735C41543332463478785F537464506560
:100E2000726970685F4472697665725C7372635C44
:100E300061743332663478785F6770696F2E63004F
:100E4000080001402DE9F05F05460C464FF000090F
:100E5000CA4600260027B046B346564885420BD006
:100E60005548854208D05548854205D054488542AA
:100E700002D05448854200D103E0AC2152A001F0D9
:100E8000CAFDE078A0B1E078042811D0E0782828E5
:100E90000ED0E07848280BD0E078142808D0E0780D
:100EA000102805D0E0781C2802D0E078182800D15E
:100EB00003E0AD2144A001F0AEFD002010B9208870
:100EC00000B103E0AE2140A001F0A5FDE07800F004
:100ED0000F09E07800F0100080B1A078012805D05B
:100EE000A078022802D0A078022800D103E0B62121
:100EF00035A001F090FDA07840EA0909207838B3C8
:100F0000D5F8008000261FE0012000FA06F72088AF
:100F100000EA070ABA4516D1B7000F2000FA07FB0E
:100F200028EA0B0809FA07F040EA0808E0782828C0
:100F300003D10120B040686105E0E078482802D183
:100F40000120B0402861761C082EDDD3C5F8008052
:100F50002088FF282BDDD5F80480002623E006F149
:100F60000800012101FA00F7208800EA070ABA45C3
:100F700018D1B7000F2000FA07FB28EA0B0809FA7E
:100F800007F040EA0808E078282803D106F10800B5
:100F900081406961E078482804D106F10800012108
:100FA00081402961761C082ED9D3C5F80480BDE89C
:100FB000F09F000000080140000C014000100140BB
:100FC00000140140001801404C6962726172696549
:100FD000735C41543332463478785F53746450659F
:100FE000726970685F4472697665725C7372635C83
:100FF00061743332663478785F6770696F2E63008E
:1010000010B504460B4884420BD00B48844208D0EC
:101010000A48844205D00A48844202D009488442E2
:1010200000D104E040F23B1107A001F0F4FCA068FD
:1010300080B210BD00080140000C014000100140CA
:1010400000140140001801404C69627261726965C8
:10105000735C41543332463478785F53746450651E
:10106000726970685F4472697665725C7372635C02
:1010700061743332663478785F6770696F2E63000D
:1010800070B505460C460026254885420BD02548FC
:10109000854208D02448854205D02448854202D0A4
:1010A0002348854200D104E04FF4927121A001F061
:1010B000B2FC012C25D0022C23D0042C21D0082CEA
:1010C0001FD0102C1DD0202C1BD0402C19D0802CD0
:1010D00017D0B4F5807F14D0B4F5007F11D0B4F5EB
:1010E000806F0ED0B4F5006F0BD0B4F5805F08D0E0
:1010F000B4F5005F05D0B4F5804F02D0B4F5004FD1
:1011000000D104E040F225110AA001F084FCA86897
:10111000204008B1012600E00026304670BD0000E6
:1011200000080140000C0140001001400014014083
:10113000001801404C69627261726965735C4154C8
:101140003332463478785F537464506572697068DE
:101150005F4472697665725C7372635C617433328A
:10116000663478785F6770696F2E630070B50446E7
:101170000D46104884420BD00F48844208D00F48D7
:10118000844205D00E48844202D00E48844200D1E9
:1011900004E040F281110CA001F03DFC002008B9F0
:1011A00005B104E04FF4C17107A001F034FC6561A2
:1011B00070BD000000080140000C0140001001401B
:1011C00000140140001801404C6962726172696547
:1011D000735C41543332463478785F53746450659D
:1011E000726970685F4472697665725C7372635C81
:1011F00061743332663478785F6770696F2E63008C
:1012000070B504460D46104884420BD00F48844206
:1012100008D00F48844205D00E48844202D00E48C0
:10122000844200D104E040F271110CA001F0F3FB04
:10123000002008B905B104E04FF4B97107A001F02E
:10124000EAFB256170BD000000080140000C014070
:101250000010014000140140001801404C69627206
:1012600061726965735C41543332463478785F53F8
:1012700074645065726970685F4472697665725C07
:101280007372635C61743332663478785F67706957
:101290006F2E63004FF6FF710180022181700421DF
:1012A000C170704710B500240520FFF785FB01F0E1
:1012B00029FC802001F018FE044624B924A000F087
:1012C00031FF002010BD0E2001F00EFE044624B9AF
:1012D00028A000F027FF0020F4E7502001F004FED2
:1012E000044624B92DA000F01DFF0020EAE701F01C
:1012F0002BFC044601F006FC802001F0F5FD0446BD
:1013000024B913A000F00EFF0020DBE70F2001F04E
:10131000EBFD044624B917A000F004FF0020D1E73C
:10132000012001F0E1FD044624B91CA000F0FAFE02
:101330000020C7E701F008FC04461CB120A000F023
:10134000F1FE02E024A000F0EDFE2046BAE7000026
:101350004552524F523A2073656E6420736C617629
:10136000652061646472657373206E6F2041434B26
:1013700020210A004552524F523A2073656E642074
:1013800072656769737465722061646472657373F2
:10139000206E6F2041434B20210A00004552524FDE
:1013A000523A2073656E6420726567697374657262
:1013B0002064617461206E6F2041434B20210A003C
:1013C0004844433230383020696E69742073756345
:1013D0006573730A000000004844433230383020FF
:1013E000696E6974206661696C0A000000BFFEE7DF
:1013F0007047704708B50121042000F08BF84FF4C6
:101400008070ADF8000002208DF8020018208DF8E1
:10141000030069460448FFF715FD4FF080514FF077
:10142000A05000F0BBF808BD0008014000BFFEE777
:10143000704700002DE9F0410446002500270F26E3
:10144000E07810B1E078012800D103E0692121A003
:1014500001F0E1FA6078102800DA03E06A211DA0AB
:1014600001F0D9FAA078102800DA03E06B2119A066
:1014700001F0D1FAE07800B32248006800F4E0609F
:10148000C0F5E060050AC5F10407EE40607800FA97
:1014900007F5A078304005432D011B48227885547C
:1014A000207800F01F01012088402178491189002F
:1014B00001F1E021C1F8000109E0207800F01F01EE
:1014C0000120884011492278521141F82200BDE8DC
:1014D000F08100004C69627261726965735C41540D
:1014E0003332463478785F5374645065726970683B
:1014F0005F4472697665725C7372635C6D69736375
:101500002E6300000CED00E000E400E080E100E06C
:101510007047000070B504460D461048204008B9D9
:1015200004B104E040F25D310DA001F074FA0DB198
:10153000012D00D104E040F25E3109A001F06BFA08
:101540002DB11548806920431349886104E0124891
:101550008069A0431049886170BD0000820107F8CE
:101560004C69627261726965735C4154333246340E
:1015700078785F5374645065726970685F4472690B
:101580007665725C7372635C61743332663478784A
:101590005F7263632E6300000010024070B5044662
:1015A0000D460026D4B1B4F1A06F17D0B4F1806F0E
:1015B00014D0B4F1C06F11D0B4F1E06F0ED0B4F11B
:1015C000A05F0BD0B4F1A85F08D0B4F1B05F05D034
:1015D000B4F1007F02D0B4F1407F00D104E040F2CA
:1015E00054412AA001F017FAB5F1805F17D0B5F188
:1015F000004F14D0B5F1104F11D0B5F1204F0ED0DF
:10160000B5F1304F0BD0B5F1404F08D0B5F1504F88
:1016100005D0B5F1604F02D0B5F1704F00D104E0B4
:1016200040F2554119A001F0F6F92648006B20F070
:101630007040244908630846006B28430863200F64
:1016400058B90846006B20F48030086308464668A5
:1016500026F0E0662643466017E00120B0EB147FD9
:1016600013D11848006B20F48030164908630846EF
:10167000006B40F4803008630846466826F0E06658
:1016800024F0704006430846466070BD4C696272A3
:1016900061726965735C41543332463478785F53C4
:1016A00074645065726970685F4472697665725CD3
:1016B0007372635C61743332663478785F7263632B
:1016C0002E63000000100240F0B50022002100242B
:1016D0000023484D6D6805F00C0222B1042A05D0A4
:1016E000082A3ED105E0444D05603DE0424D0560CD
:1016F0003AE0404D6D68414E05EA06013D4D6D688A
:1017000005F4803401F0C04535B901F47015B5F524
:10171000701F01D0022500E0012501F0C046C1F391
:10172000834747EA5666A9191CB9354D4D430560F4
:101730000BE0304D6D6805F400351DB1304D4D4363
:10174000056002E02C4D4D4305602A4D6D6805F0A3
:1017500000452DB92B4E0568B54201D935460560C7
:1017600002E0254D056000BF00BF224D6D68C5F346
:101770000212204D6D6805F0800515B1224DAD5C5B
:1017800000E000252B460568DD404560194D6D6879
:10179000C5F30122174D6D6805F4806515B11A4D2A
:1017A000AD5C00E000252B464568DD408560114DAD
:1017B0006D68C5F3C1220F4D6D6805F4005515B174
:1017C000114DAD5C00E000252B464568DD40C5604D
:1017D000084D6D68C5F38132064D6D6805F0805582
:1017E0000DB142F00402094DAB5CC568B5FBF3F5E1
:1017F0000561F0BD0010024000127A0000003C605C
:1018000000093D0000A24A045900002061000020A8
:1018100010B504460CB1012C00D104E04FF4A261D4
:1018200009A001F0F8F8012C06D11548406D40F0F0
:1018300030001349486505E01148406D20F0300044
:101840000F49486510BD00004C696272617269659C
:10185000735C41543332463478785F537464506516
:10186000726970685F4472697665725C7372635CFA
:1018700061743332663478785F7263632E6300007C
:10188000001002407047000008B501210820FFF752
:1018900041FE4FF44070ADF8000002208DF80200C8
:1018A00014208DF8030069460948FFF7CBFA4FF47E
:1018B00000710748FFF7A4FC4FF480710448FFF75C
:1018C0009FFC1420FFF7C4F802A000F02BFC08BD19
:1018D000000C014048444332303830204932432024
:1018E000696E697420646F6E650A000010B500F0BF
:1018F00001F810BD1CB5002001900090354800682B
:1019000040F480303349086000BF3248006800F47A
:10191000003000900198401C0190009818B901987F
:10192000B0F5405FF1D12B48006800F4003010B1F1
:101930000120009001E0002000900098012847D18C
:1019400024484068234948600846406820F46050B5
:1019500048600846406840F40050486008464068C7
:1019600020F4E06048600846406840F480604860C9
:1019700008464068184908401649486008464068CB
:1019800016490843134948600846006840F08070D3
:10199000086000BF0F48006800F000700028F9D010
:1019A0000120FFF735FF0B48406820F0030009498C
:1019B00048600846406840F00200486000BF0548A3
:1019C000406800F00C000828F9D10020FFF720FF44
:1019D0001CBD000000100240FFFFC01F000035A02A
:1019E00010B50446042C01D0601D00B903E0BE21EF
:1019F0000BA001F010F8042C08D14FF0E020006992
:101A000040F004004FF0E021086107E04FF0E020D3
:101A1000006920F004004FF0E021086110BD0000D3
:101A20004C69627261726965735C41543332463449
:101A300078785F5374645065726970685F44726946
:101A40007665725C7372635C6D6973632E6300000C
:101A50007047000010B51A48006840F4700018493B
:101A600008601848006840F0010016490860084600
:101A70004068154908401349486008460068134902
:101A80000840104908600846006820F4802008607B
:101A9000084640680E4908400A4948600846006BFD
:101AA0000C490840074908634FF41F008860FFF79E
:101AB0001DFF4FF0006002498039086010BD000032
:101AC00088ED00E0001002400C00FFE8FFFFF6FE8A
:101AD000FFFF001700FFFEFE10B586B0044601218F
:101AE0000420FFF717FD01218803FFF713FD05A868
:101AF000FFF7D0FB4FF40070ADF8140002208DF812
:101B0000160018208DF8170005A91748FFF79AF955
:101B10004FF48060ADF8140004208DF8170005A97B
:101B20001148FFF78FF901A800F0EEFA01940020A8
:101B3000ADF80800ADF80A00ADF80C00ADF81000E3
:101B40000C20ADF80E0001A9084800F083F901222D
:101B500040F22551054800F0D9F80121034800F072
:101B600007F806B010BD0000000801400038014031
:101B700070B504460D46154884420BD01448844283
:101B800008D01448844205D01348844202D0134838
:101B9000844200D104E040F2571111A000F03BFF55
:101BA0000DB1012D00D104E04FF4AC710CA000F098
:101BB00032FF25B1A08940F40050A08104E0A08943
:101BC0004DF6FF710840A08170BD00000038014053
:101BD0000044004000480040004C004000500040DD
:101BE0004C69627261726965735C41543332463488
:101BF00078785F5374645065726970685F44726985
:101C00007665725C7372635C6174333266347878C3
:101C10005F75736172742E630000000070B5054635
:101C20000C460026254885420BD02548854208D021
:101C30002448854205D02448854202D02348854265
:101C400000D104E040F2663121A000F0E4FE012C56
:101C500013D0802C11D0402C0FD0202C0DD0102C64
:101C60000BD0B4F5807F08D0B4F5007F05D0082CE8
:101C700003D0042C01D0022C00D104E040F26731E3
:101C800013A000F0C8FEB4F5007F0ED10B488542CA
:101C900005D00B48854202D00A48854200D104E0B5
:101CA0004FF45B710AA000F0B6FE2888204008B10E
:101CB000012600E00026304670BD000000380140DB
:101CC0000044004000480040004C004000500040EC
:101CD0004C69627261726965735C41543332463497
:101CE00078785F5374645065726970685F44726994
:101CF0007665725C7372635C6174333266347878D3
:101D00005F75736172742E63000000002DE9F04767
:101D100005460C4617464FF00008C246C14600264D
:101D2000384885420BD03848854208D0374885422C
:101D300005D03748854202D03648854200D104E0BC
:101D40004FF4BF7134A000F066FE282C19D040F289
:101D50002770844215D040F22660844211D040F2B0
:101D6000255084420DD040F22440844209D040F6F0
:101D70004600844205D040F66A10844201D0602CAF
:101D800000D104E040F27F1123A000F044FE0FB127
:101D9000012F00D104E04FF4C0711FA000F03BFE02
:101DA00040F66A1084420ED11648854205D0164886
:101DB000854202D01548854200D104E040F28511E9
:101DC00015A000F028FE2E46C4F3421804F01F0AA6
:101DD000012000FA0AF9B8F1010F01D10C3605E033
:101DE000B8F1020F01D1103600E0143627B1306887
:101DF00040EA0900306003E0306820EA0900306002
:101E0000BDE8F08700380140004400400048004031
:101E1000004C0040005000404C696272617269657C
:101E2000735C41543332463478785F537464506540
:101E3000726970685F4472697665725C7372635C24
:101E400061743332663478785F75736172742E63AF
:101E5000000000002DE9F04786B005460C4600263C
:101E6000B24600BFB14600276B4885420BD06B4895
:101E7000854208D06A48854205D06A48854202D02A
:101E80006948854200D103E0AA2168A000F0C3FDA3
:101E9000206820B174492068884200D203E0AB2159
:101EA00062A000F0B8FDA08818B1A088B0F5805FEE
:101EB00000D103E0AC215DA000F0ADFDE08858B199
:101EC000E088B0F5805F07D0E088B0F5005F03D010
:101ED000E088B0F5405F00D103E0AD2153A000F0F1
:101EE0009AFD208938B12089B0F5806F03D0208910
:101EF000B0F5C06F00D103E0AE214CA000F08BFD27
:101F000060894FF6F371084010B9608900B103E0B1
:101F1000AF2146A000F07FFDA08958B1A089B0F59F
:101F2000807F07D0A089B0F5007F03D0A089B0F5ED
:101F3000407F00D103E0B0213CA000F06CFDA089FF
:101F400068B13548854205D03448854202D03448CE
:101F5000854200D103E0B52134A000F05CFD2F469E
:101F60002E8A4CF6FF700640E08806432E82AE892A
:101F70004EF6F3100640A088218908436189084382
:101F80000643AE81AE8A4FF6FF400640A089064365
:101F9000AE8201A8FFF798FB1F48874202D1DDF807
:101FA00010A001E0DDF80CA0A88900F4004040B1C9
:101FB0000AEBCA0000EB0A1021684900B0FBF1F8F7
:101FC00007E00AEBCA0000EB0A1021688900B0FBA9
:101FD000F1F86420B8FBF0F006013009642101FB40
:101FE0001089A88900F4004040B1322000EBC900FC
:101FF000B0FBF1F000F00700064308E0322000EBF0
:1020000009106421B0FBF1F000F00F0006432E81AF
:1020100006B0BDE8F08700000038014000440040F1
:1020200000480040004C0040005000404C69627283
:1020300061726965735C41543332463478785F531A
:1020400074645065726970685F4472697665725C29
:102050007372635C61743332663478785F75736170
:1020600072742E630000000021AA440070B504467B
:102070000D46114884420BD01048844208D01048C5
:10208000844205D00F48844202D00F48844200D1D8
:1020900004E040F249210DA000F0BDFCB5F5007F41
:1020A00000DA04E040F24A2108A000F0B4FCC5F3D5
:1020B0000800A08070BD00000038014000440040CE
:1020C00000480040004C0040005000404C696272E3
:1020D00061726965735C41543332463478785F537A
:1020E00074645065726970685F4472697665725C89
:1020F0007372635C61743332663478785F757361D0
:1021000072742E63000000004FF41651016000212C
:102110008180C18001810C21418100218181704732
:1021200000BFFEE70FB4054B10B503A9044A02989F
:1021300000F0DAF810BC5DF814FB0000E12A00089A
:102140008000002002E008C8121F08C1002AFAD14E
:1021500070477047002001E001C1121F002AFBD127
:10216000704700002DE9FF5F82B00021DDE90430F7
:10217000020DDDF840B0034318D044F61050A2F22F
:10218000FF3242431514119801281FD0A5EB0B0014
:10219000401C5FEA000A4FF000064E4FDFF838910E
:1021A000B046504615D5CAF1000413E01198012439
:1021B0004AA3012801D16FEA0B010298119AC0E9E4
:1021C0000031C0E9024206B0BDE8F09FCBF100004B
:1021D000DFE704460021404A491842EB0450CDE9AC
:1021E000001012E0E00707D032463B464046494621
:1021F000FEF78BF88046894632463B461046194624
:10220000FEF783F806460F466410002CEAD1DDE99C
:102210000401DDE90023BAF1000F06DAFEF775F8D4
:1022200042464B46FEF771F805E0FEF7E0F84246FD
:102230004B46FEF7DCF804460E460022284BFEF71C
:1022400095FA03D84FF0FF30014607E00022254BF6
:1022500020463146FDF7B2FFFEF770FA102409E080
:10226000002C0ADB0A220023FEF782F9039B30329E
:102270001A55641E50EA0102F2D1641C039AC4F19B
:1022800011031444119A012A03D0012208430DD1ED
:102290000AE0084304D000204FF0110B119072E7C0
:1022A000A3EB0B056D1E0DE05B4504DD4FF0000256
:1022B00005F1010504E003DA4FF00002A5F1010584
:1022C000002AECD002981199C0E90231C0E900451A
:1022D00079E70000000014400000F03F30000000EB
:1022E0000000F0430000E03F2DE9FF4F95B09B4612
:1022F0008946064600250FE2252877D10024274687
:10230000F84A0121059400E0044316F8013F203B00
:1023100001FA03F01042F7D130782A2811D06FF07B
:102320002F033078A0F13002092A16D8059A44F01C
:10233000020402EB820203EB42021044761C059079
:10234000EFE759F8042B0592002A03DA504244F4CF
:102350000054059044F00204761C30782E2816D1E3
:1023600016F8010F44F004042A280DD06FF02F0254
:102370003078A0F13003092B09D807EB870302EB73
:102380004303C718761CF3E759F8047B761C3078B2
:102390006C280FD006DC4C2817D068280DD06A288E
:1023A00014D104E0742810D07A280FD10DE044F441
:1023B00000140AE044F4801401E044F440147278FC
:1023C000824202D104F58014761C761C307866288F
:1023D0000BD013DC582877D009DC002875D04528AD
:1023E000F6D04628F4D047281AD19DE118E063289A
:1023F00035D0642879D0652812D195E1702873D042
:1024000008DC6728F1D069286FD06E280DD06F28BE
:1024100006D1B5E073282CD0752875D0782874D0F3
:102420005A46179990476D1C75E1C4F30250022873
:1024300009D003280DD0D9F8001004280DD00D6064
:1024400009F1040967E1D9F80010EA17C1E900525F
:10245000F6E7D9F800100D80F2E70D70F0E719F8F3
:10246000041B8DF8001000208DF80100EA460120C1
:1024700003E059F804AB4FF0FF3061074FF0000163
:1024800002D40DE008F101018846B9420FDA804517
:10249000F8DB1AF808100029F4D108E008F101016E
:1024A00088468142FADB1AF808100029F6D105980F
:1024B0005B46A0EB080721463846179A00F094FACD
:1024C000284400EB080507E04DE029E10DE01AF88B
:1024D000010B5A4617999047B8F10108F7D25B46AD
:1024E00021463846179A13E142E00A220092C4F3CB
:1024F00002524FF0000A022A08D059F804CB032AEE
:102500004FEAEC710AD00DE029E02AE009F1070159
:1025100021F00702F2E802C1914609E00FFA8CFCB3
:102520004FEAEC71042A03D14FFA8CFC4FEAEC71AC
:10253000002907DA0A460021DCF1000C61EB0201F8
:102540002D2202E0220504D52B228DF80420012241
:1025500003E0E20701D02022F7E7904659E00A2184
:1025600002E010220DE010214FF0000A00910BE074
:1025700010224FF0000A44F004040827009203E000
:1025800008224FF0000A0092C4F30252022A05D03A
:1025900059F804CB0021032A08D009E009F107010A
:1025A00021F00702F2E802C1914605E01FFA8CFC17
:1025B000042A01D10CF0FF0C4FF00008220728D5A7
:1025C000702806D0009B83F0100353EA0A0305D05D
:1025D0000EE040228DF80420012208E05CEA0102AE
:1025E00006D030228DF804208DF805000222904696
:1025F000009B83F0080353EA0A030AD15CEA010254
:1026000001D1620705D530228DF804204FF0010872
:102610007F1E582804D034A003900EA802900DE02D
:1026200036A0F9E753466046009AFDF7A1FF8446BD
:102630000398825C0298401E029002705CEA0100DE
:10264000F0D1029806A9081A00F1200A600702D505
:1026500024F4803400E00127574502DDA7EB0A008F
:1026600000E0002000EB0A01009005984144401A68
:102670000590E00306D45B462146179A059800F0C2
:10268000B3F90544002706E001A85A46C05D179932
:1026900090476D1C7F1C4745F6DBE0030CD55B467D
:1026A0002146179A059800F09FF9054404E0302070
:1026B0005A46179990476D1C0099481E00900029B2
:1026C000F5DC08E0029802995A460078491C02910C
:1026D000179990476D1CBAF10001AAF1010AF1DCCB
:1026E00065E10000092801003031323334353637D6
:1026F000383961626364656600000000303132334E
:1027000034353637383941424344454600000000ED
:1027100000F058F90544761C307800287FF4ECADC1
:1027200019B02846BDE8F08F620700D4062709F1EA
:10273000070222F0070CFCE80223E14603F0004800
:102740005FEA080C02D00FF2702C0DE05FEA045C27
:1027500002D50FF2682C07E05FEAC47C02D00FF2CA
:10276000602C01E0AFF2700C4FF0FF3823F0004313
:10277000CDF850C065280CD006DC452809D0462885
:102780001DD047283DD13DE0662818D067287ED16E
:1027900038E00021112F01DB112000E0781CCDE989
:1027A000000106A90EA8FFF7DDFCDDE90F010E9A76
:1027B00003910021009207F1010A04914DE04FF0CE
:1027C00000400097CDE9011006A90EA8FFF7CAFC4A
:1027D000DDE90F0203920E9B11990022DDF80CA097
:1027E0000093049211B9791C00EB010AB7EB0A00BF
:1027F00004D4C0F1FF3007F1010A0490AAEB0700EE
:10280000019044E0012F00DA01270021112F01DDA2
:10281000112000E03846CDE9000106A90EA8FFF717
:10282000A1FCDDE90F010E9A0391002104910092B1
:10283000BA4621070CD40399514500DA8A46BAF109
:10284000010F05DD009AAAF10101515C302908D081
:10285000B84202DA10F1040F06DA0121CDE90110C5
:1028600015E0AAF10101E9E7002805DC049901441B
:102870000491AAEB000102E0411C514500DD8A46AB
:102880000499401A401C01904FF00040029020072C
:1028900004D40198504501DBCDF8048000208DF868
:1028A0004F0002980DF14F07B0F1004F25D02B20BB
:1028B0000E9002984FF0020800280CDA4042029075
:1028C0002D200E9007E00A210298FDF73BFE3031E3
:1028D000029007F8011DB8F10001A8F10108F2DC2F
:1028E00002980028EFD1791E0E980870307800F019
:1028F000200040F0450007F8020D12A8C01B00F1AF
:1029000007081498007800B1012000EB0A01019833
:1029100001EBE07105984144401A401E0590E00328
:1029200006D45B462146179A059800F05DF80544E9
:102930001498007818B15A46179990476D1CE00317
:1029400024D55B462146179A059800F04DF80544BA
:102950001CE00498002807DBDDE90301884203DD61
:102960000098405C179901E0179930205A4690472B
:10297000049805F10105401C04900198401E019047
:1029800004D12E205A46179990476D1CBAF10001C8
:10299000AAF1010ADDDC05E017F8010B5A46179988
:1029A00090476D1CB8F10001A8F10108F4DC5B460A
:1029B0002146179A0598ABE62D0000002B00000079
:1029C000200000002DE9F041044600251E46174670
:1029D000880404D405E039462020B0476D1C641EED
:1029E000F9D52846BDE8F0812DE9F04104460025DF
:1029F0001E469046C80301D5302700E020278804F2
:102A000004D505E041463846B0476D1C641EF9D533
:102A10002846BDE8F08100BFFEE700002DE9F04147
:102A20002DED088B04460D461646207861784FF44C
:102A30007F4202EA012140EA0107A078E17802EA38
:102A4000012140EA01083846FDF740FD41EC1B0B2F
:102A50009FED1B0B53EC102BFDF757FC41EC1A0BB1
:102A60009FED190B53EC102BFDF7C1FC41EC190B3A
:102A70009FED170B53EC102BFDF741FC41EC180BAD
:102A8000FDF744FD28604046FDF720FD41EC1A0BA0
:102A90009FED110B53EC102BFDF737FC41EC190B9C
:102AA0009FED090B53EC102BFDF7A1FC41EC180B2B
:102AB000FDF72CFD3060BDEC088BBDE8F081000017
:102AC0000000000000A06440000000000000F04092
:102AD00000000000000044400000000000005940D9
:102AE00070B504460D46A1B20548FFF7BFFA00BF16
:102AF00040210348FFF792F80028F9D0204670BD26
:102B00000038014010B54FF400710E48FEF778FB15
:102B10004FF480710B48FEF773FB0420FDF798FF1C
:102B20004FF400710748FEF721FB0420FDF790FFEA
:102B30004FF480710348FEF719FB0820FDF788FF6A
:102B400010BD0000000C014010B500244FF40071CE
:102B50001548FEF795FA04465CB94FF40071124827
:102B6000FEF74EFB4FF480710F48FEF749FB002043
:102B700010BD4FF400710C48FEF7F8FA0420FDF781
:102B800067FF4FF480710848FEF73AFB0420FDF719
:102B90005FFF4FF400710448FEF732FB0C20FDF795
:102BA00057FF2046E4E70000000C01402DED048BA8
:102BB00084B000BF00203249087001210846FEF7AA
:102BC000A9FCFDF72DFEFEF715FC2D480078FDF75A
:102BD00095FE4FF4E130FEF77FFFFEF755FEFEF75E
:102BE00061FB0221274800F0CDF8264842780178A1
:102BF00025A0FFF797FA41E00120FDF765FE254982
:102C00000978642211FB02F0FDF7D6FE0220FDF7E1
:102C10005BFE20490978642211FB02F0FDF7CCFE2F
:102C20000320FDF751FE1B490978642211FB02F0D5
:102C3000FDF7C2FE0421134800F048F804461CB911
:102C400015A0FFF76FFA15E002AA03A90D48FFF7D8
:102C5000E5FE0298FDF747FC41EC180B0398FDF7E1
:102C600042FC41EC190B8DED008B53EC192B0FA09E
:102C7000FFF758FA4FF4FA70FDF79EFEBCE700002C
:102C8000100000200C0000204944205B25782C25F2
:102C9000785D0A0011000020646174612072656132
:102CA00064206572726F727E21200A0074656D70F7
:102CB000657261747572653D25662C092068756DB5
:102CC00069646974793D25660A0000002DE9F041C8
:102CD00005460F460026FFF715FF802000F004F997
:102CE00006462EB914A0FFF71DFA0020BDE8F081BA
:102CF000002000F0F9F8064626B918A0FFF712FAEE
:102D00000020F3E7FFF7FEFE812000F0EDF8064615
:102D1000002405E0012000F091F82855601C84B2E1
:102D2000781EA042F6DC002000F088F82855FFF756
:102D30000BFF06463046D9E74552524F523A2073B0
:102D4000656E6420736C617665206164647265737E
:102D500073206E6F2041434B20210A004552524F91
:102D6000523A2073656E6420726567697374657288
:102D70002061646472657373206E6F2041434B2041
:102D8000210A00002DE9F04105460F460026FFF715
:102D9000B9FE802000F0A8F806462EB914A0FFF76F
:102DA000C1F90020BDE8F081FE2000F09DF8064644
:102DB00026B918A0FFF7B6F90020F3E7FFF7A2FE47
:102DC000812000F091F80646002405E0012000F083
:102DD00035F82855601C84B2781EA042F6DC00202D
:102DE00000F02CF82855FFF7AFFE06463046D9E72D
:102DF0004552524F523A2073656E6420736C61766F
:102E0000652061646472657373206E6F2041434B6B
:102E100020210A004552524F523A2073656E6420B9
:102E20007265676973746572206164647265737337
:102E3000206E6F2041434B20210A00002DE9F04114
:102E4000054600240027002627E04FF4007125489E
:102E5000FEF7D6F90420FDF7FBFD4FF48071214801
:102E6000FEF7CEF90420FDF7F3FD4FF400711D4885
:102E7000FEF706F907463C434FF6FF7000EA4404AC
:102E80000420FDF7E5FD4FF480711648FEF76EF95A
:102E90000420FDF7DDFD701CC6B2082ED5DB6410E2
:102EA0002DB14FF400710F48FEF760F904E04FF4C4
:102EB00000710C48FEF7A4F90420FDF7C9FD4FF49A
:102EC00080710848FEF79CF90420FDF7C1FD4FF41E
:102ED00080710448FEF74AF90420FDF7B9FDE0B21D
:102EE000BDE8F081000C01402DE9F0410446802648
:102EF0000027002523E006EA040028B14FF4007102
:102F00002248FEF77DF904E04FF400711F48FEF7F8
:102F10002DF90420FDF79CFD4FF480711B48FEF74E
:102F20006FF90820FDF794FD4FF480711748FEF704
:102F30001DF976100420FDF78BFD681CC5B2082D25
:102F4000D9DB4FF400711148FEF75AF90820FDF75C
:102F50007FFD4FF480710D48FEF752F90420FDF714
:102F600077FD4FF400710948FEF78AF807464FF4E1
:102F700080710648FEF7FAF80420FDF769FD17B1E5
:102F80000020BDE8F0810120FBE70000000C0140BB
:102F900045585449305F49525148616E646C6572BE
:102FA000004558544931355F31305F4952514861CD
:102FB0006E646C6572000000D82F000800000020CD
:102FC00084000000442100085C30000884000020D8
:102FD000040400005421000801000020060028001D
:102FE0000002000D000000000001000000000000D1
:102FF00000140140001401400014014000000020B2
:1030000000400080000000002000000020000000C0
:1030100020000000000801400010014001000020D5
:10302000040000001000000000000000000000008C
:1030300001010203040607080902040608020C083D
:1030400010000000001C4E0E0000000000000000F8
:0C3050000102030406070809000000004C
:040000050800018569
:00000001FF
