:020000040800F2
:1000000088040020990100088D0E0008490E0008A0
:10001000890E0008090400087D1B0008000000008C
:10002000000000000000000000000000E1120008D5
:100030000D040008000000006D0F0008AD1400085A
:10004000B3010008B3010008B3010008B3010008C0
:10005000B3010008B301000855050008B30100080A
:10006000B3010008B3010008B3010008B3010008A0
:10007000B3010008B3010008B3010008B301000890
:10008000B3010008B3010008B3010008B301000880
:10009000B3010008B3010008B3010008B301000870
:1000A000B3010008B3010008B3010008B301000860
:1000B000B3010008B3010008B30100084F0E0008A7
:1000C0004D0E0008B3010008B3010008B301000899
:1000D000B3010008B3010008B3010008B301000830
:1000E000E1050008B3010008B3010008B3010008EE
:1000F000B3010008B3010008B3010008B301000810
:10010000B3010008B3010008B3010008B3010008FF
:10011000B3010008B3010008B3010008B3010008EF
:10012000B3010008B3010008B3010008B3010008DF
:10013000B3010008B3010008B3010008B3010008CF
:1001400000000000000000000000000000000000AF
:10015000B3010008B3010008B3010008B3010008AF
:10016000B3010008B3010008B3010008B30100089F
:10017000B3010008B3010008B3010008B30100088F
:10018000B3010008DFF80CD000F04AF8004800473F
:10019000A51F00088804002006488047064800473D
:1001A000FEE7FEE7FEE7FEE7FEE7FEE7FEE7FEE727
:1001B000FEE7FEE7B1140008850100082DE9F05FB5
:1001C0000546002092469B468846064681464024C6
:1001D0001BE0284641464746224600F042F8534677
:1001E0005A46C01A914110D311461846224600F0D3
:1001F00029F82D1A67EB01084F46224601200021FD
:1002000000F020F817EB00094E41201EA4F1010474
:10021000DFDC484631462A464346BDE8F09F0000F1
:10022000064C074D06E0E06840F0010394E8070043
:1002300098471034AC42F6D3FFF7A8FF60230008BC
:1002400080230008202A04DB203A00FA02F1002073
:1002500070479140C2F1200320FA03F31943904004
:100260007047202A04DB203A21FA02F0002170476F
:1002700021FA02F3D040C2F120029140084319460E
:100280007047000038B504460B4951F8240001219D
:1002900000F06EFE684600F04FFD084830F814008C
:1002A000ADF8000028208DF80300054951F824001E
:1002B000694600F019FB38BD4800002044000020CA
:1002C0003C00002010B500F0A3F8012000F016F863
:1002D000022000F013F8032000F010F8012000F0D5
:1002E00031F8022000F02EF8032000F02BF8002057
:1002F000FFF7C8FF0120FFF7C5FF10BD38B5044662
:100300000D4951F82400012100F032FE684600F04A
:1003100013FD0A4830F81400ADF8000010208DF8E5
:10032000030002208DF80200054951F824006946B7
:1003300000F0DAFA38BD00002C0000202400002074
:1003400014000020032800DD7047064931F8101022
:1003500031B1044931F81010034A52F820201161DC
:1003600000BFF1E72400002014000020032800DD76
:100370007047094931F8101059B1084951F8201057
:10038000C968054A32F810205140044A52F820202A
:10039000D16000BFECE70000240000201400002022
:1003A0003EB50446144A115D144A105D00F026FA69
:1003B00001A800F01BFA124830F814000190002048
:1003C0008DF8080001208DF80A0008208DF809003A
:1003D00001A800F077F90B4810F814008DF8000020
:1003E00001208DF803008DF801008DF802006846A9
:1003F00000F04EFD3EBD00000A0000200800002075
:10040000000000200400002000BFFEE7704700004D
:1004100010B56FF0040001F011F80B4890ED000AE0
:10042000B8EE400ADFED090A80EE201A084880ED98
:10043000001A90ED000ADFED070A20EE200A0648B8
:1004400080ED000A10BD00006C0000200024F44A7A
:100450005000002000007A445400002043E0B0F532
:10046000FA7F11DD214A92ED000ADFED210A20EE2C
:10047000200ABCEEC00A10EE102A4FF0E0235A61A9
:10048000A0F5FA7290B210E000EE100AB8EE400A41
:10049000164AD2ED000A20EE200ABCEEC00A10EE89
:1004A000102A4FF0E0235A61002000224FF0E02391
:1004B0009A611A46126942F001021A6100BF4FF0B8
:1004C000E022116901F001021AB101F48032002A20
:1004D000F5D04FF0E022126922F001024FF0E02344
:1004E0001A6100229A610028B9D170475400002097
:1004F0000000FA4300EE100AB8EE400A144AD2EDAA
:10050000000A20EE200ABCEEC00A10EE102A4FF0BE
:10051000E0235A6100229A611A46126942F00102F0
:100520001A6100BF4FF0E022116901F001021AB117
:1005300001F48032002AF5D04FF0E022126922F057
:1005400001024FF0E0231A6100229A617047000017
:100550005000002010B50520FFF780FF1549164A0E
:10056000127831F8120000F081F81449124A12781A
:1005700051F8220000F096FA11490F4A127831F82A
:10058000121008400E490C4A127831F812108842B5
:100590000AD10C480078042803D1012009490870C9
:1005A00002E0042007490870074908A001F0E8FAB2
:1005B00010BD000000000020100000203C000020C2
:1005C0004400002011000020382300084920616DFC
:1005D0002068657265203A202573200A000000001B
:1005E00010B50520FFF73AFF1549164A127831F881
:1005F000120000F03BF81449124A127851F8220018
:1006000000F050FA11490F4A127831F812100840E0
:100610000E490C4A127831F8121088420AD10C485F
:100620000078042803D101200949087002E0042061
:1006300007490870074908A001F0A2FA10BD0000A0
:1006400000000020100000203C000020440000209A
:1006500011000020492300084920616D206865725F
:1006600065203A202573200A0000000010B50446DA
:10067000200D000508B904B103E0F42102A001F047
:10068000FFFB0F48046010BD4C69627261726965BE
:10069000735C41543332463478785F5374645065E8
:1006A000726970685F4472697665725C7372635CCC
:1006B00061743332663478785F657874692E6300CC
:1006C0001404014070B504460025207910B120794A
:1006D000042800D103E05F2135A001F0D1FB60794F
:1006E000082805D060790C2802D06079102800D144
:1006F00003E060212EA001F0C3FB20686FF313001C
:1007000010B9206800B103E0612129A001F0B8FB15
:10071000A07910B1A079012800D103E0622124A0C2
:1007200001F0AEFB304DA07990B3284600682168F7
:10073000884329460860081D006821688843291DF0
:100740000860207905442868216808432860264805
:100750000830006821688843234908310860081D73
:1007600000682168884320490C31086060791028AE
:100770000FD1081F0068216808431B490831086031
:10078000081D00682168084317490C3108600EE015
:1007900007E0154D60790544286821680843286002
:1007A00005E020790544286821688843286070BDE9
:1007B0004C69627261726965735C415433324634CC
:1007C00078785F5374645065726970685F447269C9
:1007D0007665725C7372635C617433326634787808
:1007E0005F657874692E6300000401400021016098
:1007F00001710C21417100218171704770B505466E
:100800000C4600265DB1012D09D0022D07D0032D25
:1008100005D0042D03D0052D01D0062D00D104E014
:1008200040F26A4121A001F02BFBECB1012C1BD05E
:10083000022C19D0032C17D0042C15D0052C13D062
:10084000062C11D0072C0FD0082C0DD0092C0BD062
:100850000A2C09D00B2C07D00C2C05D00D2C03D062
:100860000E2C01D00F2C00D104E040F26B410FA000
:1008700001F006FBA007010F0F2000FA01F619484E
:10088000A11050F82100B0431649A21041F82200EF
:100890000846A11050F82100A107090F05FA01F13F
:1008A00008431049A21041F8220070BD4C696272E1
:1008B00061726965735C41543332463478785F53B2
:1008C00074645065726970685F4472697665725CC1
:1008D0007372635C61743332663478785F67706911
:1008E0006F2E6300080001402DE9F05F05460C46BD
:1008F0004FF00009CA4600260027B046B3465648C6
:1009000085420BD05548854208D05548854205D0D0
:100910005448854202D05448854200D103E0AC21BE
:1009200052A001F0ADFAE078A0B1E078042811D02F
:10093000E07828280ED0E07848280BD0E0781428FA
:1009400008D0E078102805D0E0781C2802D0E078A4
:10095000182800D103E0AD2144A001F091FA002055
:1009600010B9208800B103E0AE2140A001F088FA60
:10097000E07800F00F09E07800F0100080B1A07876
:10098000012805D0A078022802D0A078022800D142
:1009900003E0B62135A001F073FAA07840EA090916
:1009A000207838B3D5F8008000261FE0012000FA37
:1009B00006F7208800EA070ABA4516D1B7000F20CB
:1009C00000FA07FB28EA0B0809FA07F040EA0808D2
:1009D000E078282803D10120B040686105E0E07884
:1009E000482802D10120B0402861761C082EDDD3B2
:1009F000C5F800802088FF282BDDD5F8048000266C
:100A000023E006F10800012101FA00F7208800EA3E
:100A1000070ABA4518D1B7000F2000FA07FB28EAE9
:100A20000B0809FA07F040EA0808E078282803D103
:100A300006F1080081406961E078482804D106F198
:100A40000800012181402961761C082ED9D3C5F800
:100A50000480BDE8F09F000000080140000C014048
:100A60000010014000140140001801404C696272FE
:100A700061726965735C41543332463478785F53F0
:100A800074645065726970685F4472697665725CFF
:100A90007372635C61743332663478785F6770694F
:100AA0006F2E630010B504460B4884420BD00B48F0
:100AB000844208D00A48844205D00A48844202D0C1
:100AC0000948844200D104E040F23B1107A001F044
:100AD000D7F9A06880B210BD00080140000C0140A9
:100AE0000010014000140140001801404C6962727E
:100AF00061726965735C41543332463478785F5370
:100B000074645065726970685F4472697665725C7E
:100B10007372635C61743332663478785F677069CE
:100B20006F2E630070B505460C46002625488542A9
:100B30000BD02548854208D02448854205D024485A
:100B4000854202D02348854200D104E04FF49271DF
:100B500021A001F095F9012C25D0022C23D0042CE2
:100B600021D0082C1FD0102C1DD0202C1BD0402CA5
:100B700019D0802C17D0B4F5807F14D0B4F5007F45
:100B800011D0B4F5806F0ED0B4F5006F0BD0B4F572
:100B9000805F08D0B4F5005F05D0B4F5804F02D077
:100BA000B4F5004F00D104E040F225110AA001F095
:100BB00067F9A868204008B1012600E00026304609
:100BC00070BD000000080140000C01400010014011
:100BD00000140140001801404C696272617269653D
:100BE000735C41543332463478785F537464506593
:100BF000726970685F4472697665725C7372635C77
:100C000061743332663478785F6770696F2E630081
:100C100070B504460D46104884420BD00F488442FC
:100C200008D00F48844205D00E48844202D00E48B6
:100C3000844200D104E040F281110CA001F020F9BF
:100C4000002008B905B104E04FF4C17107A001F01C
:100C500017F9656170BD000000080140000C0140FB
:100C60000010014000140140001801404C696272FC
:100C700061726965735C41543332463478785F53EE
:100C800074645065726970685F4472697665725CFD
:100C90007372635C61743332663478785F6770694D
:100CA0006F2E630070B504460D46104884420BD089
:100CB0000F48844208D00F48844205D00E48844231
:100CC00002D00E48844200D104E040F271110CA021
:100CD00001F0D6F8002008B905B104E04FF4B9716D
:100CE00007A001F0CDF8256170BD000000080140AB
:100CF000000C0140001001400014014000180140A8
:100D00004C69627261726965735C41543332463476
:100D100078785F5374645065726970685F44726973
:100D20007665725C7372635C6174333266347878B2
:100D30005F6770696F2E63004FF6FF7101800221BB
:100D400081700421C170704710B500240520FFF7A1
:100D500085FB01F0D3F8802001F09AFA044624B90B
:100D600012A000F00DFF002010BD0E2001F090FA3F
:100D7000044624B916A000F003FF0020F4E7502039
:100D800001F086FA044624B91BA000F0F9FE002009
:100D9000EAE701F0D5F804461CB120A000F0F0FE0F
:100DA00002E024A000F0ECFE2046DDE74552524F61
:100DB000523A2073656E6420736C617665206164BD
:100DC0006472657373206E6F2041434B20210A00CB
:100DD0004552524F523A2073656E642072656769BE
:100DE000737465722061646472657373206E6F2022
:100DF00041434B20210A00004552524F523A207382
:100E0000656E6420726567697374657220646174CD
:100E100061206E6F2041434B20210A004844433239
:100E200030383020696E6974207375636573730A96
:100E3000000000004844433230383020696E697445
:100E4000206661696C0A000000BFFEE770477047CA
:100E500008B50121042000F08BF84FF48070ADF844
:100E6000000002208DF8020018208DF8030069466A
:100E70000448FFF739FD4FF080514FF0A05000F0CB
:100E8000BBF808BD0008014000BFFEE77047000046
:100E90002DE9F0410446002500270F26E07810B127
:100EA000E078012800D103E0692121A000F0E8FFEB
:100EB0006078102800DA03E06A211DA000F0E0FF4E
:100EC000A078102800DA03E06B2119A000F0D8FF09
:100ED000E07800B32248006800F4E060C0F5E0600C
:100EE000050AC5F10407EE40607800FA07F5A0781E
:100EF000304005432D011B4822788554207800F0AE
:100F00001F010120884021784911890001F1E02169
:100F1000C1F8000109E0207800F01F01012088409D
:100F200011492278521141F82200BDE8F0810000F9
:100F30004C69627261726965735C41543332463444
:100F400078785F5374645065726970685F44726941
:100F50007665725C7372635C6D6973632E63000007
:100F60000CED00E000E400E080E100E070470000EC
:100F700070B504460D461048204008B904B104E09D
:100F800040F25D310DA000F07BFF0DB1012D00D1CD
:100F900004E040F25E3109A000F072FF2DB1154867
:100FA000806920431349886104E012488069A043A6
:100FB0001049886170BD0000820107F84C696272B7
:100FC00061726965735C41543332463478785F539B
:100FD00074645065726970685F4472697665725CAA
:100FE0007372635C61743332663478785F72636302
:100FF0002E6300000010024070B504460D46002626
:10100000D4B1B4F1A06F17D0B4F1806F14D0B4F1A3
:10101000C06F11D0B4F1E06F0ED0B4F1A05F0BD06F
:10102000B4F1A85F08D0B4F1B05F05D0B4F1007F8F
:1010300002D0B4F1407F00D104E040F254412AA034
:1010400000F01EFFB5F1805F17D0B5F1004F14D04E
:10105000B5F1104F11D0B5F1204F0ED0B5F1304F92
:101060000BD0B5F1404F08D0B5F1504F05D0B5F1D8
:10107000604F02D0B5F1704F00D104E040F255410D
:1010800019A000F0FDFE2648006B20F070402449B6
:1010900008630846006B28430863200F58B90846C8
:1010A000006B20F4803008630846466826F0E0664E
:1010B0002643466017E00120B0EB147F13D1184897
:1010C000006B20F48030164908630846006B40F43A
:1010D000803008630846466826F0E06624F07040D9
:1010E00006430846466070BD4C696272617269656C
:1010F000735C41543332463478785F53746450657E
:10110000726970685F4472697665725C7372635C61
:1011100061743332663478785F7263632E630000E3
:1011200000100240F0B50022002100240023484DA9
:101130006D6805F00C0222B1042A05D0082A3ED1C0
:1011400005E0444D05603DE0424D05603AE0404D0C
:101150006D68414E05EA06013D4D6D6805F4803429
:1011600001F0C04535B901F47015B5F5701F01D017
:10117000022500E0012501F0C046C1F3834747EA9C
:101180005666A9191CB9354D4D4305600BE0304D2D
:101190006D6805F400351DB1304D4D43056002E02A
:1011A0002C4D4D4305602A4D6D6805F000452DB965
:1011B0002B4E0568B54201D93546056002E0254D44
:1011C000056000BF00BF224D6D68C5F30212204DBF
:1011D0006D6805F0800515B1224DAD5C00E000257D
:1011E0002B460568DD404560194D6D68C5F3012249
:1011F000174D6D6805F4806515B11A4DAD5C00E0C2
:1012000000252B464568DD408560114D6D68C5F3AE
:10121000C1220F4D6D6805F4005515B1114DAD5C3F
:1012200000E000252B464568DD40C560084D6D682F
:10123000C5F38132064D6D6805F080550DB142F061
:101240000402094DAB5CC568B5FBF3F50561F0BD63
:101250000010024000127A0000003C6000093D00CE
:1012600000A24A04590000206100002010B5044685
:101270000CB1012C00D104E04FF4A26109A000F0F0
:10128000FFFD012C06D11548406D40F03000134998
:10129000486505E01148406D20F030000F49486571
:1012A00010BD00004C69627261726965735C4154E3
:1012B0003332463478785F5374645065726970686D
:1012C0005F4472697665725C7372635C6174333219
:1012D000663478785F7263632E630000001002400A
:1012E0007047000008B501210820FFF741FE4FF4C8
:1012F0004070ADF8000002208DF8020014208DF837
:10130000030069460948FFF7EFFA4FF400710748F8
:10131000FFF7C8FC4FF480710448FFF7C3FC1420AA
:10132000FFF7E8F802A000F02BFC08BD000C01401C
:10133000484443323038302049324320696E697462
:1013400020646F6E650A000010B500F001F810BD52
:101350001CB50020019000903548006840F48030B2
:101360003349086000BF3248006800F40030009044
:101370000198401C0190009818B90198B0F5405FA1
:10138000F1D12B48006800F4003010B1012000902A
:1013900001E0002000900098012847D124484068CF
:1013A000234948600846406820F460504860084679
:1013B000406840F4005048600846406820F4E0600F
:1013C00048600846406840F48060486008464068CD
:1013D00018490840164948600846406816490843BD
:1013E000134948600846006840F08070086000BFFC
:1013F0000F48006800F000700028F9D00120FFF7C6
:1014000035FF0B48406820F0030009494860084652
:10141000406840F00200486000BF0548406800F0A6
:101420000C000828F9D10020FFF720FF1CBD0000A8
:1014300000100240FFFFC01F000035A010B5044699
:10144000042C01D0601D00B903E0BE210BA000F008
:1014500017FD042C08D14FF0E020006940F0040093
:101460004FF0E021086107E04FF0E020006920F034
:1014700004004FF0E021086110BD00004C69627269
:1014800061726965735C41543332463478785F53D6
:1014900074645065726970685F4472697665725CE5
:1014A0007372635C6D6973632E63000070470000A4
:1014B00010B51A48006840F47000184908601848D0
:1014C000006840F001001649086008464068154968
:1014D000084013494860084600681349084010490D
:1014E00008600846006820F48020086008464068CC
:1014F0000E4908400A4948600846006B0C490840FC
:10150000074908634FF41F008860FFF71DFF4FF085
:10151000006002498039086010BD000088ED00E0DD
:10152000001002400C00FFE8FFFFF6FEFFFF00176F
:1015300000FFFEFE10B586B0044601210420FFF72F
:1015400017FD01218803FFF713FD05A8FFF7F4FB42
:101550004FF40070ADF8140002208DF8160018202A
:101560008DF8170005A91748FFF7BEF94FF4806002
:10157000ADF8140004208DF8170005A91148FFF7F5
:10158000B3F901A800F0EEFA01940020ADF80800CC
:10159000ADF80A00ADF80C00ADF810000C20ADF865
:1015A0000E0001A9084800F083F9012240F22551FC
:1015B000054800F0D9F80121034800F007F806B00B
:1015C00010BD0000000801400038014070B504461D
:1015D0000D46154884420BD01448844208D0144864
:1015E000844205D01348844202D01348844200D17B
:1015F00004E040F2571111A000F042FC0DB1012DA2
:1016000000D104E04FF4AC710CA000F039FC25B11E
:10161000A08940F40050A08104E0A0894DF6FF713C
:101620000840A08170BD0000003801400044004027
:1016300000480040004C0040005000404C6962727D
:1016400061726965735C41543332463478785F5314
:1016500074645065726970685F4472697665725C23
:101660007372635C61743332663478785F7573616A
:1016700072742E630000000070B505460C4600260B
:10168000254885420BD02548854208D0244885420C
:1016900005D02448854202D02348854200D104E089
:1016A00040F2663121A000F0EBFB012C13D0802C1E
:1016B00011D0402C0FD0202C0DD0102C0BD0B4F515
:1016C000807F08D0B4F5007F05D0082C03D0042C0F
:1016D00001D0022C00D104E040F2673113A000F0E9
:1016E000CFFBB4F5007F0ED10B48854205D00B48E7
:1016F000854202D00A48854200D104E04FF45B7174
:101700000AA000F0BDFB2888204008B1012600E0B7
:101710000026304670BD0000003801400044004003
:1017200000480040004C0040005000404C6962728C
:1017300061726965735C41543332463478785F5323
:1017400074645065726970685F4472697665725C32
:101750007372635C61743332663478785F75736179
:1017600072742E63000000002DE9F04705460C4618
:1017700017464FF00008C246C14600263848854249
:101780000BD03848854208D03748854205D03748C5
:10179000854202D03648854200D104E04FF4BF7143
:1017A00034A000F06DFB282C19D040F22770844241
:1017B00015D040F22660844211D040F22550844278
:1017C0000DD040F22440844209D040F646008442C5
:1017D00005D040F66A10844201D0602C00D104E0AC
:1017E00040F27F1123A000F04BFB0FB1012F00D17D
:1017F00004E04FF4C0711FA000F042FB40F66A10F5
:1018000084420ED11648854205D01648854202D042
:101810001548854200D104E040F2851115A000F082
:101820002FFB2E46C4F3421804F01F0A012000FAD1
:101830000AF9B8F1010F01D10C3605E0B8F1020F39
:1018400001D1103600E0143627B1306840EA0900B3
:10185000306003E0306820EA09003060BDE8F087BE
:10186000003801400044004000480040004C004067
:10187000005000404C69627261726965735C41544A
:101880003332463478785F53746450657269706897
:101890005F4472697665725C7372635C6174333243
:1018A000663478785F75736172742E63000000008F
:1018B0002DE9F04786B005460C460026B24600BF2B
:1018C000B14600276B4885420BD06B48854208D053
:1018D0006A48854205D06A48854202D069488542F7
:1018E00000D103E0AA2168A000F0CAFA206820B164
:1018F00074492068884200D203E0AB2162A000F066
:10190000BFFAA08818B1A088B0F5805F00D103E0CD
:10191000AC215DA000F0B4FAE08858B1E088B0F5E1
:10192000805F07D0E088B0F5005F03D0E088B0F5B5
:10193000405F00D103E0AD2153A000F0A1FA20895F
:1019400038B12089B0F5806F03D02089B0F5C06F21
:1019500000D103E0AE214CA000F092FA60894FF66E
:10196000F371084010B9608900B103E0AF2146A0CF
:1019700000F086FAA08958B1A089B0F5807F07D021
:10198000A089B0F5007F03D0A089B0F5407F00D1D9
:1019900003E0B0213CA000F073FAA08968B135489B
:1019A000854205D03448854202D03448854200D172
:1019B00003E0B52134A000F063FA2F462E8A4CF6DE
:1019C000FF700640E08806432E82AE894EF6F31083
:1019D0000640A08821890843618908430643AE81F7
:1019E000AE8A4FF6FF400640A0890643AE8201A8AA
:1019F000FFF798FB1F48874202D1DDF810A001E0F5
:101A0000DDF80CA0A88900F4004040B10AEBCA0040
:101A100000EB0A1021684900B0FBF1F807E00AEB7F
:101A2000CA0000EB0A1021688900B0FBF1F86420BD
:101A3000B8FBF0F006013009642101FB1089A88988
:101A400000F4004040B1322000EBC900B0FBF1F0DF
:101A500000F00700064308E0322000EB0910642183
:101A6000B0FBF1F000F00F0006432E8106B0BDE898
:101A7000F08700000038014000440040004800406A
:101A8000004C0040005000404C6962726172696510
:101A9000735C41543332463478785F5374645065D4
:101AA000726970685F4472697665725C7372635CB8
:101AB00061743332663478785F75736172742E6343
:101AC0000000000021AA440070B504460D461148EC
:101AD00084420BD01048844208D01048844205D07C
:101AE0000F48844202D00F48844200D104E040F203
:101AF00049210DA000F0C4F9B5F5007F00DA04E03B
:101B000040F24A2108A000F0BBF9C5F30800A0800C
:101B100070BD000000380140004400400048004013
:101B2000004C0040005000404C696272617269656F
:101B3000735C41543332463478785F537464506533
:101B4000726970685F4472697665725C7372635C17
:101B500061743332663478785F75736172742E63A2
:101B6000000000004FF41651016000218180C18007
:101B700001810C21418100218181704700BFFEE776
:101B80000FB4054B10B503A9044A029800F018F8E9
:101B900010BC5DF814FB0000D91E00088000002076
:101BA00002E008C8121F08C1002AFAD17047704726
:101BB000002001E001C1121F002AFBD17047000084
:101BC0002DE9FF4F8DB09B460F460446002606E0E8
:101BD00025280BD05A460F999047641C761C207814
:101BE0000028F5D111B03046BDE8F08F0025A84699
:101BF0000122984900E0054314F8013F203B02FA16
:101C000003F00842F7D120782E2817D114F8010FDD
:101C100045F004052A280ED06FF02F022078A0F19D
:101C2000300109290AD808EB880102EB410100EBD9
:101C30000108641CF2E757F8048B641C20786C28B8
:101C40000DD004DC4C2812D06A2811D104E074288D
:101C50000DD07A280CD10AE045F4001507E0617830
:101C600045F48015814202D1641C05F58015641C81
:101C70002278692A45D008DC002AB3D0582A69D0D6
:101C8000632A10D0642A08D13BE0702A67D0732AF7
:101C900013D0752A5CD0782A5CD010465A460F992A
:101CA0009047761CD3E017F8040B8DF80000002055
:101CB0008DF80100E946012003E057F8049B4FF03E
:101CC000FF3069074FF0000501D40AE06D1C45455F
:101CD0000DDA8542FADB19F805100029F6D106E085
:101CE0006D1C8542FCDB19F805100029F8D12E4443
:101CF00004E019F8010B5A460F9990476D1EF8D26F
:101D0000A5E00A200021CDE90801C5F30250022810
:101D10000DD001CFC117031E71F100030DDA4FF092
:101D2000000CD0EB0C006CEB01012D2308E0FF1D33
:101D300027F00707F7E80201EDE72B0504D52B2371
:101D40008DF8283001233BE0EB0739D02023F7E75B
:101D50000A2000E010200021CDE9080107E0102052
:101D6000002145F00405CDE908014FF00808C5F34E
:101D7000025002280FD001CF00214FF0000A2B079C
:101D80001FD5702A0DD0DDE908C38CF0100C5CEA79
:101D9000030C0CD015E0FF1D27F00707F7E8020140
:101DA000EBE740228DF828204FF0010A0BE050EAC3
:101DB000010306D030238DF828308DF82920022326
:101DC0009A46582A04D024A20DF120090B9209E06A
:101DD00026A2F9E7DDE90823FEF7F0F90B9B9B5CEF
:101DE00009F8013D50EA0102F4D1ADEB09002030C1
:101DF0000890680701D44FF001080899884502DD72
:101E0000A8EB010000E000208046002506E00AA8BB
:101E10005A46405D0F9990476D1C761C5545F6DB80
:101E200004E030205A460F999047761CB8F1000123
:101E3000A8F10108F5DC05E019F8010B5A460F99E5
:101E40009047761C0899481E08900029F4DC641C11
:101E5000C5E6000009280100303132333435363709
:101E600038396162636465660000000030313233E6
:101E70003435363738394142434445460000000086
:101E800000BFFEE770B54678037866F31F2303F4BE
:101E90007F44C678837866F31F2303F47F4504EB01
:101EA000441606EB8603DE1703EB16463614283E6F
:101EB00000EE106AB8EEC00A81ED000A642605FB48
:101EC00006F3DE1703EB1646361400EE106AB8EE82
:101ED000C00A82ED000A70BD70B504460D46A1B27D
:101EE0000548FFF7F1FD00BF40210348FFF7C4FBA1
:101EF0000028F9D0204670BD0038014010B54FF4DD
:101F000000710E48FEF7CEFE4FF480710B48FEF7CD
:101F1000C9FE0420FEF7EEFA4FF400710748FEF701
:101F200077FE0420FEF7E6FA4FF480710348FEF7CF
:101F30006FFE0820FEF7DEFA10BD0000000C014025
:101F400010B500244FF400711548FEF7EBFD044670
:101F50005CB94FF400711248FEF7A4FE4FF4807193
:101F60000F48FEF79FFE002010BD4FF400710C4893
:101F7000FEF74EFE0420FEF7BDFA4FF480710848CC
:101F8000FEF790FE0420FEF7B5FA4FF40071044806
:101F9000FEF788FE0C20FEF7ADFA2046E4E70000CD
:101FA000000C01401CB500BF00202749087001212A
:101FB0000846FEF7DDFFFEF785F9FEF749FF2248E8
:101FC0000078FEF7EDF94FF4E130FFF7B3FAFFF7D1
:101FD00089F9FEF7B9FE02211C4800F0A7F81B485A
:101FE000427801781AA0FFF7CBFD2CE00120FEF724
:101FF000BDF91A490978642211FB02F0FEF72EFAA6
:102000000220FEF7B3F915490978642211FB02F0AA
:10201000FEF724FA0320FEF7A9F910490978642293
:1020200011FB02F0FEF71AFA0421084800F022F82A
:1020300004461CB90AA0FFF7A3FD04E06A4601A903
:102040000248FFF71FFFD1E7100000200C0000201E
:102050004944205B25782C25785D0A00110000207A
:10206000646174612072656164206572726F727E52
:1020700021200A002DE9F04105460F460026FFF712
:102080003DFF802000F004F906462EB914A0FFF7AA
:1020900077FD0020BDE8F081002000F0F9F8064649
:1020A00026B918A0FFF76CFD0020F3E7FFF726FF25
:1020B000812000F0EDF80646002405E0012000F044
:1020C00091F82855601C84B2781EA042F6DC0020EE
:1020D00000F088F82855FFF733FF06463046D9E769
:1020E0004552524F523A2073656E6420736C61768C
:1020F000652061646472657373206E6F2041434B89
:1021000020210A004552524F523A2073656E6420D6
:102110007265676973746572206164647265737354
:10212000206E6F2041434B20210A00002DE9F04131
:1021300005460F460026FFF7E1FE802000F0A8F8D4
:1021400006462EB914A0FFF71BFD0020BDE8F08164
:10215000FE2000F09DF8064626B918A0FFF710FDF6
:102160000020F3E7FFF7CAFE812000F091F8064651
:10217000002405E0012000F035F82855601C84B2E9
:10218000781EA042F6DC002000F02CF82855FFF75E
:10219000D7FE06463046D9E74552524F523A207391
:1021A000656E6420736C617665206164647265732A
:1021B00073206E6F2041434B20210A004552524F3D
:1021C000523A2073656E6420726567697374657234
:1021D0002061646472657373206E6F2041434B20ED
:1021E000210A00002DE9F0410546002400270026C1
:1021F00027E04FF400712548FEF754FD0420FEF758
:1022000079F94FF480712148FEF74CFD0420FEF768
:1022100071F94FF400711D48FEF784FC07463C43FA
:102220004FF6FF7000EA44040420FEF763F94FF410
:1022300080711648FEF7ECFC0420FEF75BF9701C79
:10224000C6B2082ED5DB64102DB14FF400710F48D3
:10225000FEF7DEFC04E04FF400710C48FEF722FDAF
:102260000420FEF747F94FF480710848FEF71AFD85
:102270000420FEF73FF94FF480710448FEF7C8FCD4
:102280000420FEF737F9E0B2BDE8F081000C014010
:102290002DE9F041044680260027002523E006EAC8
:1022A000040028B14FF400712248FEF7FBFC04E063
:1022B0004FF400711F48FEF7ABFC0420FEF71AF93B
:1022C0004FF480711B48FEF7EDFC0820FEF712F971
:1022D0004FF480711748FEF79BFC76100420FEF740
:1022E00009F9681CC5B2082DD9DB4FF400711148FB
:1022F000FEF7D8FC0820FEF7FDF84FF480710D487A
:10230000FEF7D0FC0420FEF7F5F84FF40071094801
:10231000FEF708FC07464FF480710648FEF778FC8C
:102320000420FEF7E7F817B10020BDE8F081012096
:10233000FBE70000000C014045585449305F49520A
:102340005148616E646C6572004558544931355F7F
:1023500031305F49525148616E646C657200000013
:10236000802300080000002084000000A01B00085B
:10237000042400088400002004040000B01B0008AE
:1023800001000020060028000002000D00000000EF
:102390000001000000000000001401400014014092
:1023A00000140140000000200040008000000000F8
:1023B0002000000020000000200000000008014074
:1023C0000010014001000020040000001000000087
:1023D00000000000000000000101020304060708DD
:1023E0000902040608020C0810000000001C4E0E32
:1023F00000000000000000000102030406070809B5
:0424000000000000D8
:040000050800018569
:00000001FF
