:020000040800F2
:100000003007002025020008730600086B06000870
:100010006F060008DF0200083B090008000000002E
:1000200000000000000000000000000021070008A0
:1000300035050008000000007506000819080008D2
:100040003F0200083F0200083F0200083F0200088C
:100050003F0200083F0200083F0200083F0200087C
:100060003F0200083F0200083F0200083F0200086C
:100070003F0200083F0200083F0200083F0200085C
:100080003F0200083F0200083F0200083F0200084C
:100090003F0200083F0200083F0200083F0200083C
:1000A0003F0200083F0200083F0200083F0200082C
:1000B0003F0200083F0200083F0200083F0200081C
:1000C0003F0200083F0200083F0200083F0200080C
:1000D0003F0200083F0200083F0200083F020008FC
:1000E0003F0200083F0200083F0200083F020008EC
:1000F0003F0200083F0200083F0200083F020008DC
:100100003F0200083F0200083F0200083F020008CB
:100110003F0200083F0200083F0200083F020008BB
:100120003F0200083F0200083F0200083F020008AB
:100130003F0200083F0200083F0200083F0200089B
:1001400000000000000000000000000000000000AF
:100150003F0200083F0200083F0200083F0200087B
:100160003F0200083F0200083F0200083F0200086B
:100170003F0200083F0200083F0200083F0200085B
:100180003F02000800F002F800F03CF80AA090E8F6
:10019000000C82448344AAF10107DA4501D100F042
:1001A00031F8AFF2090EBAE80F0013F0010F18BFD3
:1001B000FB1A43F001031847E008000000090000A3
:1001C000103A24BF78C878C1FAD8520724BF30C883
:1001D00030C144BF04680C60704700000023002455
:1001E00000250026103A28BF78C1FBD8520728BF47
:1001F00030C148BF0B6070471FB500F027FC1FBD22
:1002000010B510BD00F031F81146FFF7F5FF00F012
:1002100097FB00F04FF803B4FFF7F2FF03BC00F0C8
:1002200057F800000948804709480047FEE7FEE705
:10023000FEE7FEE7FEE7FEE7FEE7FEE7FEE7FEE796
:1002400004480549054A064B704700001D08000890
:100250008501000830010020300700203003002015
:1002600030030020704770477047754600F02CF847
:10027000AE4605006946534620F00700854618B093
:1002800020B5FFF7DDFFBDE820404FF000064FF03E
:1002900000074FF000084FF0000B21F00701AC46BB
:1002A000ACE8C009ACE8C009ACE8C009ACE8C009DA
:1002B0008D46704710B50446AFF300802046BDE878
:1002C0001040FFF7A8BF000000487047D000002092
:1002D00001491820ABBEFEE726000200704700BFB0
:1002E000FEE7000039B1084A1268012383401A432F
:1002F000054B1A6006E0044A1268012383409A43C2
:10030000014B1A60704700000074004041B1094A77
:1003100012684FF4805383401A43064B1A6007E07B
:10032000044A12684FF4805383409A43014B1A6089
:10033000704700000074004030B5002200230A4CD2
:10034000226840F6FE748440A243D1E900452C4364
:100350008D682C43CD6844EA050303FA00F4224378
:10036000014C226030BD000000740040002101609B
:1003700041608160C160704721B1026842F00102B2
:10038000026004E002684FF6FE731A400260704794
:100390000021016041608160C16001614161816152
:1003A000C161016241628162704710B5002202683A
:1003B00047F6F0739A430C6A8B6823430C69234316
:1003C0004C6923438C692343CC6923434C6A234300
:1003D0008C6A23431A430260CB6843600B688360D6
:1003E0004B68C36010BD000001684FF6FE721140FB
:1003F00001600021016041608160C1604B49884219
:1004000008D14A490839496841F00F01474A083A7A
:1004100051608AE045491431884208D1434908397E
:10042000496841F0F001414A083A51607DE03F4996
:100430002831884208D13D490839496841F4706142
:100440003A4A083A516070E038493C31884208D154
:1004500036490839496841F47041344A083A5160D4
:1004600063E032495031884208D13049083949683F
:1004700041F470212D4A083A516056E02B4964310D
:10048000884208D129490839496841F47001274A4E
:10049000083A516049E025497831884208D123491A
:1004A0000839496841F07061204A083A51603CE0DF
:1004B0001F49884206D1011F096841F00F01021F40
:1004C000116032E01A491431884208D11849091FD5
:1004D000096841F0F001164A121F116025E0144925
:1004E0002831884208D11249091F096841F4706116
:1004F0000F4A121F116018E00D493C31884208D1A3
:100500000B49091F096841F47041094A121F116023
:100510000BE007495031884207D10549091F096896
:1005200041F47021024A121F116070470800024016
:10053000080402407047000008B53020ADF8000004
:1005400000208DF803006946014800F003F808BD5B
:10055000000801402DE9F041024600250026002058
:1005600000230024002791F803C00CF00F0591F838
:1005700003C00CF0100CBCF1000F03D091F802C0C6
:100580004CEA050591F800C0BCF1000F31D01468A9
:1005900000202BE04FF0010C0CFA00F3B1F800C082
:1005A0000CEA03069E4220D183004FF00F0C0CFA98
:1005B00003F7BC4305FA03FC4CEA040491F803C0BA
:1005C000BCF1280F06D14FF0010C0CFA00FCC2F868
:1005D00014C00AE091F803C0BCF1480F05D14FF0F8
:1005E000010C0CFA00FCC2F810C0401C0828D1D342
:1005F0001460B1F800C0BCF1FF0F34DD5468002076
:100600002EE000F1080C4FF0010808FA0CF3B1F8E5
:1006100000C00CEA03069E4221D183004FF00F0C6C
:100620000CFA03F7BC4305FA03FC4CEA040491F806
:1006300003C0BCF1280F05D100F1080C08FA0CF832
:10064000C2F8148091F803C0BCF1480F07D100F143
:10065000080C4FF0010808FA0CF8C2F81080401C92
:100660000828CED35460BDE8F08100BFFEE700BF8C
:10067000FEE770477047000029B1064A52690243FD
:10068000044B5A6104E0034A52698243014B5A61A8
:10069000704700000010024029B1064AD2690243A7
:1006A000044BDA6104E0034AD2698243014BDA6108
:1006B000704700000010024029B1064A92690243C7
:1006C000044B9A6104E0034A92698243014B9A61A8
:1006D000704700000010024010B501210220FFF712
:1006E000CBFF01210420FFF7E7FF01214807FFF7B7
:1006F000D3FF01210846FFF7CFFF10BD012806D127
:100700000649496D41F03001044A516505E003494D
:10071000496D21F03001014A5165704700100240D7
:10072000704710B500F002F810BD00001CB50020A5
:10073000019000903548006840F4803033490860EB
:1007400000BF3248006800F4003000900198401C5F
:100750000190009818B90198B0F5405FF1D12B488D
:10076000006800F4003010B10120009001E000208A
:1007700000900098012847D12448406823494860E8
:100780000846406820F4605048600846406840F4DD
:10079000005048600846406820F4E0604860084621
:1007A000406840F480604860084640681849084046
:1007B000164948600846406816490843134948608E
:1007C0000846006840F08070086000BF0F4800686D
:1007D00000F000700028F9D00120FFF78FFF0B48D0
:1007E000406820F00300094948600846406840F02E
:1007F0000200486000BF0548406800F00C0008286F
:10080000F9D10020FFF77AFF1CBD00000010024064
:10081000FFFFC01F000035A07047000010B51A4848
:10082000006840F47000184908601848006840F0FB
:1008300001001649086008464068154908401349F8
:100840004860084600681349084010490860084697
:10085000006820F480200860084640680E4908407F
:100860000A4948600846006B0C490840074908637C
:100870004FF41F008860FFF754FF4FF000600249FB
:100880008039086010BD000088ED00E000100240D3
:100890000C00FFE8FFFFF6FEFFFF001700FFFEFE63
:1008A00021B1028842F00102028004E002884FF682
:1008B000FE731A400280704782884FF68F731A4089
:1008C000828082880A43828070470000002202886A
:1008D000104B98420ED0B0F1804F0BD00E4B984287
:1008E00008D00E4B984205D00D4B984202D00D4BCC
:1008F000984205D14FF68F731A408B8813439AB2F2
:1009000002808B68C3620B8803858B7B038601237F
:1009100083827047002C01400034014000040040F5
:1009200000080040000C00404FF6FF71816000217C
:100930000180818141608173704700BFFEE7000044
:10094000FFF7CAFEFFF7F8FD3848FFF7EDFF192063
:100950003649886000200880888148604FF08040D8
:10096000FFF7B4FF20214806FFF7A6FF3048FFF746
:10097000FDFC24202E490860002048600220C86049
:100980000020FFF7D9FC2A491020FFF7D5FC0020F2
:100990002849086010E028482649096830F8110005
:1009A00000EB00402549234A126841F82200214803
:1009B0000068401C1F4908601E4800682028EAD3D0
:1009C0001F48FFF711FD1F48FFF7E2FC1E481D49B5
:1009D00008601A484860102088602020C860002005
:1009E000086180204861800088618000C861202003
:1009F000086200024862002088621148FFF7D5FCB7
:100A000001210F48FFF7B8FC01210020FFF76AFC25
:100A100001211020FFF766FC01211020FFF776FC72
:100A200001218807FFF73CFF00BFFEE740000020E0
:100A30000400002000000020560A0008500000209A
:100A40004404024014000020207400404FF0407025
:100A5000E1EE100A7047FF078F090F0B710CAA0D0A
:100A6000A60E630FD80FFF0FD80F630FA60EA70DAA
:100A7000710C0F0B8F09FF076F06EF048D035702F0
:100A800058019B002600000026009B0058015702D9
:100A90008D03EF046F060000B80A00080000002074
:100AA00004000000C0010008BC0A00080400002087
:0C0AB0002C070000DC0100080000000022
:040000050800018569
:00000001FF
