:020000040800F2
:1000000080E40020593200085D0900085F090008FB
:1000100063090008670900086B0900080000000078
:100020000000000000000000000000006F09000850
:100030007109000800000000730900087509000834
:1000400073320008733200087332000873320008FC
:1000500073320008733200087332000873320008EC
:1000600073320008733200087332000873320008DC
:1000700073320008733200087332000873320008CC
:1000800073320008733200087332000873320008BC
:1000900073320008733200087332000873320008AC
:1000A000733200087332000873320008733200089C
:1000B000733200087332000873320008733200088C
:1000C000733200087332000873320008733200087C
:1000D000733200087332000873320008733200086C
:1000E000733200087332000873320008733200085C
:1000F000733200087332000873320008733200084C
:10010000733200087332000873320008733200083B
:10011000733200087332000873320008733200082B
:10012000733200087332000873320008733200081B
:10013000733200087332000873320008733200080B
:1001400000000000000000000000000000000000AF
:1001500073320008733200087332000873320008EB
:1001600073320008733200087332000873320008DB
:1001700073320008733200087332000873320008CB
:10018000733200084B1C012B98BF70472DE9F00318
:10019000911C9B08B1F80480B1F802900A8831F8EC
:1001A00002CC8044814402448444D9F80070D8F8D9
:1001B00000601568DCF80040C9F80060C8F80070FD
:1001C000CCF800501460D9F80470D8F80460556871
:1001D000DCF80440C9F80460C8F80470CCF8045096
:1001E000546008315B1ED5D1BDE8F00370474B1C4D
:1001F000012B98BF70472DE9F003911C9B08B1F8C3
:100200000480B1F802900A8831F802CC00EB58085B
:1002100000EB590900EB520200EB5C0CD9F80070BE
:10022000D8F800601568DCF80040C9F80060C8F82C
:100230000070CCF80050146008315B1EDFD1BDE8BF
:10024000F0037047DFF80CD004F0FCF900480047D9
:100250000104000880E4002010B5884801F01FFA6E
:100260000121084601F0E1FA0121042001F0EAFA37
:1002700001214FF4047001F0E5FA0121022001F0A0
:10028000EEFA10BD08B5684600F0F5FD1020ADF897
:10029000000000208DF803006946794800F060FDF9
:1002A00008BD08B50121042001F0CCFA4FF480709C
:1002B000ADF8000002208DF8020018208DF8030030
:1002C0006946704800F04CFD4FF080514FF0B0503F
:1002D00001F01CFB08BD1FB5684601F011FF43F695
:1002E000972002900020ADF80000ADF80C000190BE
:1002F0006946654801F013FC2021634802F0A8F923
:100300001FBD00B591B0614800F054FB06A800F095
:1003100074FC5F4806905F480790002008904FF4F7
:100320008050099000200A9080200B9040000C9093
:1003300080000D9020200E9000020F900020109061
:1003400006A9524800F0D8FB01A802F092FC002058
:1003500001908DF808008DF809004FF400200390FB
:100360000020049001208DF8140001A948484C3861
:1003700002F05CFC032301220E2145484C3802F0B8
:10038000EDFC012142484C3802F087FC0121404835
:100390004C3802F077FC3E484C3802F095FC00BF28
:1003A0003B484C3802F095FC0028F9D138484C38CD
:1003B00002F099FC00BF36484C3802F099FC002846
:1003C000F9D111B000BD10B50121304800F022FC78
:1003D00001212D4801F0B9FE01212D484C3802F0D1
:1003E00091FC10BD10B5002406E02A4830F8141026
:1003F00029A004F0C7F9641CB4F5805FF5D310BDE3
:1004000000F0C8F8FFF728FFFFF74BFFFFF73AFFB0
:10041000FFF761FF4FF4612000F09BF9FFF771FFD8
:100420001EA004F0AFF9FFF7CEFF00BF022000F0DE
:100430000CFC0028FAD00021144800F0EBFB02F07D
:100440007CFF022000F015FC0121104800F0E2FBC7
:1004500013E000BF022000F0F8FB0028FAD00120D2
:1004600000F062F90021094800F0D4FB022000F0FE
:1004700000FC0121054800F0CDFBEAE700C00010B8
:100480000010014000080140000400400800024044
:100490004C2401408000002025642C00414443206E
:1004A000696E697469616C697A6564207E210A00ED
:1004B00070B504460D46A1B2F84802F0D5FA00BF67
:1004C0004021F64802F03EFB0028F9D0204670BDDE
:1004D00038B50446F24951F82400012101F0B2F97F
:1004E000684600F0C8FCEF4830F81400ADF8000092
:1004F00028208DF80300EC4951F82400694600F0EB
:100500002FFC38BD032800DD7047E84931F8101092
:1005100031B1E64931F81010E54A52F82020116156
:1005200000BFF1E738B50446E24951F82400012143
:1005300001F088F9684600F09EFCDC4830F81400B1
:10054000ADF8000010208DF8030002208DF80200A5
:10055000D74951F82400694600F002FC38BD10B5B7
:100560006FF0040002F025F9D34890ED000AB8EED0
:10057000400ADFEDD20A80EE201AD14880ED001A41
:1005800090ED000ADFEDCF0A20EE200ACE4880ED84
:10059000000A10BD10B5FFF7E2FF0120FFF7C2FF10
:1005A0000220FFF7BFFF0320FFF7BCFF0120FFF78A
:1005B000A9FF0220FFF7A6FF0320FFF7A3FF0020FB
:1005C000FFF786FF0120FFF783FF10BD08B501216B
:1005D000042001F037F9684600F04DFC4FF4C0509C
:1005E000ADF8000010208DF8030002208DF8020005
:1005F0006946B64800F0B4FB4FF48051B34800F0B0
:100600005EFC08BD10B50446A64A32F81410A64A8E
:1006100052F8240000F037FC10BD43E0B0F5FA7F3B
:1006200011DDA94A92ED000ADFEDA90A20EE200AA9
:10063000BCEEC00A10EE102A4FF0E0235A61A0F57C
:10064000FA7290B210E000EE100AB8EE400A9E4A2C
:10065000D2ED000A20EE200ABCEEC00A10EE102AED
:100660004FF0E0235A61002000224FF0E0239A610E
:100670001A46126942F001021A6100BF4FF0E022EF
:10068000116901F001021AB101F48032002AF5D09B
:100690004FF0E022126922F001024FF0E0231A61CC
:1006A00000229A610028B9D1704710B589480078B6
:1006B00001281CD10020FFF7A5FF012804D001204C
:1006C000FFF7A0FF012812D10020824908700A20FC
:1006D000FFF7A3FF0020FFF795FF012801D10020BD
:1006E00010BD0120FFF78EFF01280BD1F8E7012094
:1006F000FFF788FF30B90020FFF784FF10B9012011
:10070000744908700420EBE7032800DD704767494F
:1007100031F8101031B1654931F81010644A52F8BF
:100720002020516100BFF1E7032800DD70475F49D9
:1007300031F8101059B15E4951F82010C9685B4A70
:1007400032F8102051405A4A52F82020D16000BFA0
:10075000ECE710B586B004460121042001F072F8E0
:100760000121880301F06EF805A800F084FB4FF426
:100770000070ADF8140002208DF8160018208DF8D6
:10078000170005A9514800F0EBFA4FF48060ADF86E
:10079000140004208DF8170005A94C4800F0E0FA79
:1007A00001A802F0D1F801940020ADF80800ADF8DE
:1007B0000A00ADF80C00ADF810000C20ADF80E00EA
:1007C00001A9364802F057F8012240F2255133487A
:1007D00002F0E9F80121314802F0D9F806B010BD65
:1007E00000EE100AB8EE400A354AD2ED000A20EEBB
:1007F000200ABCEEC00A10EE102A4FF0E0235A6126
:1008000000229A611A46126942F001021A6100BF81
:100810004FF0E022116901F001021AB101F48032B7
:10082000002AF5D04FF0E022126922F001024FF0C9
:10083000E0231A6100229A61704730B50446002512
:1008400009E04FF4FA70FFF7E8FE4FF4FA70FFF793
:10085000E4FE681C85B2A542F3DB30BD30B5002054
:100860001D4908601D490860134800681C4AB0FB18
:10087000F2F1481EB0F1807F00D341E0481E4FF0F6
:10088000E022506150170F2200282DDA13071D0EA9
:10089000144B00F00F04241F1D5529E000380140BF
:1008A000340000203000002028000020100000202C
:1008B0000000002018000020640000200024F44AFA
:1008C0003C00002000007A44400000200008014065
:1008D0000000FA4344000020480000204C000020A3
:1008E00040420F0018ED00E013071C0E184B1C547B
:1008F00000BF00204FF0E02290610720106100BF90
:1009000030BD014629B1134A10680022114B1A600C
:1009100004E0114A106800220F4B1A60704701462C
:1009200029B10C4A106800220A4B1A6004E00A4AF6
:1009300010680022084B1A604FF0E022126922F082
:1009400001024FF0E0231A6100229A617047000013
:1009500000E400E0480000204C000020704700BF89
:10096000FEE700BFFEE700BFFEE700BFFEE77047FF
:10097000704770474FF0E02108690B490968491E2C
:10098000094A116009490968491C084A1160064969
:10099000096841B906490968491C054A11604FF4C4
:1009A0007A71014A11607047500000204800002011
:1009B0004C00002001684FF6FE72114001600021DA
:1009C000016041608160C160BF49884208D1BE4971
:1009D0000839496841F00F01BB4A083A51608AE082
:1009E000B9491431884208D1B7490839496841F0FA
:1009F000F001B54A083A51607DE0B3492831884298
:100A000008D1B1490839496841F47061AE4A083AE1
:100A1000516070E0AC493C31884208D1AA4908399C
:100A2000496841F47041A84A083A516063E0A64918
:100A30005031884208D1A4490839496841F47021ED
:100A4000A14A083A516056E09F496431884208D172
:100A50009D490839496841F470019B4A083A516040
:100A600049E099497831884208D19749083949685D
:100A700041F07061944A083A51603CE093498842E1
:100A800006D1011F096841F00F01021F116032E019
:100A90008E491431884208D18C49091F096841F0F8
:100AA000F0018A4A121F116025E0884928318842E6
:100AB00008D18649091F096841F47061834A121FF1
:100AC000116018E081493C31884208D17F49091FF3
:100AD000096841F470417D4A121F11600BE07B49A7
:100AE0005031884207D17949091F096841F47021C2
:100AF000764A121F1160704710B50022026847F64F
:100B0000F0739A430C6A8B6823430C6923434C6946
:100B100023438C692343CC6923434C6A23438C6A67
:100B200023431A430260CB6843600B6883604B68C1
:100B3000C36010BD50F8A43F23F0807303600368C6
:100B400043F0807340F8A439012909D150F8A03F3F
:100B500023F0FF0303600368134340F8A0394BE020
:100B600002290AD150F8A03F23F47F4303600368B1
:100B700043EA022340F8A0393EE003290AD150F8A5
:100B8000A03F23F47F030360036843EA024340F875
:100B9000A03931E004290AD150F8A03F23F07F4367
:100BA0000360036843EA026340F8A03924E00529A2
:100BB00009D150F8A43F23F0FF03036003681343F7
:100BC00040F8A43918E006290AD150F8A43F23F4CC
:100BD0007F430360036843EA022340F8A4390BE033
:100BE000072909D150F8A43F23F47F030360036869
:100BF00043EA024340F8A439704700210160416094
:100C00008160C160016141618161C16101624162D4
:100C10008162704721B1026842F00102026004E083
:100C200002684FF6FE731A40026070471AB10368FB
:100C30000B43036002E003688B430360704741602D
:100C400070470146486880B2704701460020002284
:100C500001F080531BB11D4B083B1A6802E01A4B90
:100C6000083B1A6802EA01030BB1012000E00020F2
:100C7000704700F0805119B11449091F086002E063
:100C8000114908394860704701460020002201F0F0
:100C900080531BB10D4B083B1A6802E00A4B083B1E
:100CA0001A6802EA01030BB1012000E0002070473E
:100CB00000F0805119B10549091F086002E002499E
:100CC00008394860704700000800024008040240EC
:100CD00010B50446FE48844208D10121042000F0EA
:100CE000F5FD0021042000F0F1FD2EE0F9488442DA
:100CF00008D10121082000F0E9FD0021082000F0C2
:100D0000E5FD22E0F448844208D10121102000F0E2
:100D1000DDFD0021102000F0D9FD16E0EF488442EF
:100D200008D10121202000F0D1FD0021202000F079
:100D3000CDFD0AE0EA48844207D10121402000F0BD
:100D4000C5FD0021402000F0C1FD10BD10B50121FE
:100D5000084600F0BBFD0021012000F0B7FD10BDEA
:100D60002DE9F04102460025002600200023002442
:100D7000002791F803C00CF00F0591F803C00CF0A8
:100D8000100CBCF1000F03D091F802C04CEA05052D
:100D900091F800C0BCF1000F31D0146800202BE0A6
:100DA0004FF0010C0CFA00F3B1F800C00CEA030696
:100DB0009E4220D183004FF00F0C0CFA03F7BC4386
:100DC00005FA03FC4CEA040491F803C0BCF1280FB7
:100DD00006D14FF0010C0CFA00FCC2F814C00AE076
:100DE00091F803C0BCF1480F05D14FF0010C0CFA8B
:100DF00000FCC2F810C0401C0828D1D31460B1F820
:100E000000C0BCF1FF0F34DD546800202EE000F17B
:100E1000080C4FF0010808FA0CF3B1F800C00CEA16
:100E200003069E4221D183004FF00F0C0CFA03F70A
:100E3000BC4305FA03FC4CEA040491F803C0BCF17E
:100E4000280F05D100F1080C08FA0CF8C2F814803C
:100E500091F803C0BCF1480F07D100F1080C4FF026
:100E6000010808FA0CF8C2F81080401C0828CED3FC
:100E70005460BDE8F0814FF6FF710180022181705E
:100E80000421C17070470246002093680B400BB1EB
:100E9000012000E0002070470146886880B270475A
:100EA00002460020D3680B400BB1012000E0002077
:100EB00070470146C86880B2704701617047416160
:100EC00070470AB1016100E041617047C16070473D
:100ED0004FF480320A438261816182618269826952
:100EE0007047024600207F4B18684FF68073184009
:100EF00040EA021008437B4B186070477A49C8618A
:100F00007047F0B50346B3F1004F72D900250022B7
:100F100023F00044E50904F07F04220904F00F04E3
:100F2000970004FA07F6062D16D2DFE805F003064F
:100F3000090C0F126B4820300FE06A4824300CE097
:100F40006848283009E067482C3006E065483030B2
:100F500003E06448343000E000BF00BF22B90768F6
:100F600027F00F0707603DE0012A12D1012D0BD1B8
:100F7000042C04D9076827F0C007076032E007682F
:100F800027F0300707602DE0076827F0F0070760BB
:100F900028E0022A04D1076827F47067076021E07F
:100FA000032A04D1076827F4704707601AE0042A6F
:100FB00004D1076827F47027076013E0052A04D1DD
:100FC000076827F4700707600CE0062A04D1076859
:100FD00027F07067076005E0072A03D1076827F04C
:100FE00070470760012902D10768374307602BE289
:100FF000FFE7B3F5802F7BD037DCB3F5007F78D0E7
:1010000015DC102B76D008DC012B74D0022B73D0AA
:10101000042B72D0082B71D193E0302B6FD0402B72
:101020006ED0C02B6DD0B3F5807FF4D1EBE0B3F57B
:10103000804F67D00CDCB3F5407F76D0B3F5006FFE
:1010400074D0B3F5406F72D0B3F5805FE3D179E02F
:10105000B3F5C04F6CD0B3F5004F6ED0B3F5803F01
:101060006CD0B3F5003FD6D169E0B3F1005F77D023
:101070001DDCB3F5000F74D00CDCB3F5002F62D08B
:10108000B3F5801F60D0B3F5001F6BD0B3F5800FB0
:10109000C1D17CE1B3F1807F73D0B3F1007F71D017
:1010A000B3F1806F6FD0B3F1805FB4D153E10F4AD9
:1010B000981A934268D02BDCB3F1804F73D0A3F120
:1010C0008040203800286FD0B0F5787F6DD01AE0CE
:1010D00000080140000C01400010014000140140D4
:1010E00000180140000001400000204200000440C0
:1010F00026E096E049E036E01DE01DE0A2E155E083
:1011000062E06FE0C5E0E34A104400288DD15CE165
:10111000B0F5802F74D0B0F5402F72D0B0F5A01F7D
:1011200070D0B0F5E01F91D151E188E095E0A2E0E8
:10113000BDE002E002E000BF00BF00BF00BF00BF93
:1011400000BF00BF00BF00BFD34840689843D24AE9
:101150005060012903D1104640681843506072E185
:10116000EBE006E121E1CC484068CC4A1040CA4A95
:101170005060012904D11046406840F001005060E1
:1011800061E1A2E0AFE0BCE020E1C348406820F0AC
:101190003000C14A5060012904D11046406840F037
:1011A000100050604FE1BAE00DE10DE1BA4840682F
:1011B00020F03000B84A5060012904D11046406840
:1011C00040F0300050603EE1B348406820F0C0007D
:1011D000B14A5060012904D11046406840F04000F7
:1011E000506030E1AC48406820F0C000AA4A50602E
:1011F000012904D11046406840F0C000506022E14F
:10120000F6E003E110E1A448406820F44070A24AEF
:101210005060012904D11046406840F4807050604D
:1012200011E19D48406820F440709B4A50600129BC
:1012300004D11046406840F40070506003E19648C5
:10124000406820F44070944A5060012904D110464F
:10125000406840F440705060F5E08F48406820F4EA
:1012600040608D4A5060012904D11046406840F426
:1012700000605060E7E08848406820F44060864A9B
:101280005060012904D11046406840F4406050602D
:10129000D9E08148406820F4C0407F4A506001296D
:1012A00004D11046406840F480405060CBE07A485A
:1012B000406820F4C040784A5060012904D11046AB
:1012C000406840F4C0405060BDE07348406820F082
:1012D000E060714A5060012904D11046406840F036
:1012E00080705060AFE06C48406820F0E0606A4A6F
:1012F0005060012904D11046406840F000705060F1
:10130000A1E06548406820F0E060634A5060012930
:1013100004D11046406840F08060506093E05E4821
:10132000406820F080405C4A5060012904D110469A
:10133000406840F08040506085E05748406820F0A9
:101340000050554A5060012904D11046406840F0D1
:101350000050506077E05048406820F080504E4A7E
:101360005060012904D11046406840F08050506020
:1013700069E04948406820F40000474A506001296C
:1013800004D11046406840F4000050605BE04248E1
:10139000406820F48000404A5060012904D1104682
:1013A000406840F4800050604DE03B48406820F4C5
:1013B0000010394A5060012904D11046406840F4B9
:1013C000001050603FE000BF00BF00BF00BF3248C8
:1013D000C069C3F3150290432F4AD061012906D199
:1013E0001046C069C3F3150210432B4AD0612AE0AE
:1013F0002948C06920F4C010274AD061012904D1CE
:101400001046C06940F40020D0611CE02248C06949
:1014100020F4C010204AD061012904D11046C069CF
:1014200040F48010D0610EE01B48C06920F4C01069
:10143000194AD061012904D11046C06940F4C01096
:10144000D06100E000BF00BFF0BD30B500228B07C7
:101450001C0F0F2303FA04F20F4B08338C1053F8C0
:10146000243093430C4C08348D1044F82530234627
:101470008C1053F824308C07240F00FA04F4234313
:10148000054C08348D1044F8253030BD04490860FF
:10149000704700002000FEFF00000140FEFFFF7FBC
:1014A000DC002042F848006840F00100F64908607E
:1014B00008464068F5490840F34948600846006816
:1014C000F3490840F04908600846006820F480208D
:1014D000086008464068ED49C9430840EA49486049
:1014E0004FF41F0088600846006BEA490840E6494F
:1014F00008637047E449096821F48031E24A1160C9
:101500001146096821F480211160B0F5803F03D0B5
:10151000B0F5802F0ED106E0DB49096841F4803137
:10152000D94A116007E0D849096841F4A021D64A98
:10153000116000E000BF00BF704710B501460022F7
:10154000002300204A11012A02D1CF4C236806E073
:10155000022A02D1CC4C236A01E0CB4C636A01F031
:101560001F02012494401C400CB1012000E0002027
:1015700010BD002100E0491C8142FCD3704738B502
:10158000002000900024002500BF3120FFF7D5FF88
:1015900005460098401C00900098B0F5405F01D0CF
:1015A000002DF2D041F28830FFF7E3FF3120FFF742
:1015B000C4FF08B1012400E00024204638BD0146E4
:1015C0000020B14A106820F0FE0040EA810010605F
:1015D000704700215A22AC4B30331A70AA4A126865
:1015E00022F47F4141EA0021A74A11600022A64B64
:1015F00083F830207047A8490860704710B503464B
:101600000020A14C6068A54C204043EA010414432B
:1016100020439D4C606010BD9F490866704701469D
:101620000020994A506820F003000843506070473A
:101630009548406800F00C00704701460020924A2F
:10164000506820F0F00008435060704701460020C9
:101650008D4A506820F4E0600843506070470146AE
:101660000020894A506820F4605040EAC100506070
:10167000704729B1844A527A0243834B5A7204E07C
:10168000814A527A8243804B5A7270470146002049
:101690007D4A506820F00C60084350607047014656
:1016A0000020794A50687E4A10400843764A5060CC
:1016B00070470021744A20321170734A82F820105A
:1016C000012802D004280AD104E001216E4A203208
:1016D000117005E005216C4A2032117000E000BF56
:1016E00000BF70476F49086070476749096A014346
:1016F000654A116270476B49443908607047F0B51C
:1017000000220021002400235F4D6D6805F00C02CB
:1017100022B1042A05D0082A3ED105E0624D0560B9
:101720003DE0614D05603AE0574D6D685F4E05EA5A
:101730000601554D6D6805F4803401F0C04535B99A
:1017400001F47015B5F5701F01D0022500E00125E8
:1017500001F0C046C1F3834747EA5666A9191CB990
:10176000534D4D4305600BE0474D6D6805F4003562
:101770001DB14F4D4D43056002E04B4D4D4305609B
:10178000414D6D6805F000452DB94A4E0568B542DA
:1017900001D93546056002E0434D056000BF00BF3A
:1017A000394D6D68C5F30212374D6D6805F080053F
:1017B00015B1414DAD5C00E000252B460568DD40CC
:1017C0004560314D6D68C5F301222F4D6D6805F4FC
:1017D000806515B1384DAD5C00E000252B464568AD
:1017E000DD408560284D6D68C5F3C122264D6D68CA
:1017F00005F4005515B1304DAD5C00E000252B46D9
:101800004568DD40C560204D6D68C5F381321E4DD1
:101810006D6805F080550DB142F00402274DAB5CB8
:10182000C568B5FBF3F50561F0BD29B1164A5269EB
:101830000243154B5A6104E0134A52698243124B2A
:101840005A61704729B1104A926902430E4B9A615E
:1018500004E00D4A926982430B4B9A61704729B1AB
:10186000094AD2690243084BDA6104E0064AD269A8
:101870008243054BDA61704729B1034A926A0243F9
:10188000014B9A6221E01BE0001002400000FFE8DB
:10189000FFFFF6FE00FFFEFE00004242FFFFC01FFA
:1018A000FF3FFFEF8004424200127A0000003C60DC
:1018B00000093D0000A24A04540000205C00002002
:1018C000614A926A8243604B9A62704729B15E4ACC
:1018D000D26802435C4BDA6004E05B4AD268824320
:1018E000594BDA60704729B1574A12690243564B87
:1018F0001A6104E0544A12698243534B1A617047DB
:101900005249086070475249C864704710B5024692
:1019100000204D4B1B6B23F070434B4C236323463D
:101920001B6B0B432363130F5BB923461B6B23F421
:10193000803323632346586820F0E06010435860EA
:1019400017E00123B3EB127F13D13F4B1B6B23F442
:1019500080333D4C236323461B6B43F48033236366
:101960002346586820F0E06022F070431843234675
:10197000586010BD3448406A40F080703249486277
:10198000704701460020304A92680A400AB101209F
:1019900000E0002070472C4988727047012806D16A
:1019A0002949496D41F03001274A516505E0264932
:1019B000496D21F03001244A5165704701280BD14F
:1019C0002149096B41F000711F4A11631146496DAD
:1019D00041F4807151650AE01B49096B21F00071E7
:1019E000194A11631146496D21F4807151657047A0
:1019F0001549496D21F44051134A51651146496D0D
:101A0000014351657047012806D10F49C96D41F066
:101A100001010D4AD16505E00B49C96D21F00101B5
:101A2000094AD1657047012806D10749096D41F47B
:101A30008031054A116505E00349096D21F48031C3
:101A4000014A116570470000001002404004424204
:101A50000000424210B50446FE48844208D10121EC
:101A6000C014FFF733FF0021E014FFF72FFF55E00C
:101A7000B4F1804F08D101210846FFF734FF00215F
:101A80000120FFF730FF49E0F348844208D10121EB
:101A90000220FFF728FF00210220FFF724FF3DE08E
:101AA000EE48844208D101210420FFF71CFF0021E9
:101AB0000420FFF718FF31E0E948844208D10121F2
:101AC0000820FFF710FF00210820FFF70CFF25E09A
:101AD000E448844209D10121C804FFF7F7FE002140
:101AE0004FF40020FFF7F2FE18E0DF48844209D1EE
:101AF00001210805FFF7EAFE00214FF48010FFF7EF
:101B0000E5FE0BE0D948844208D101214805FFF7E2
:101B1000DDFE00214FF40010FFF7D8FE10BD0022BB
:101B20000288CC4B98420ED0B0F1804F0BD0D04BF6
:101B3000984208D0C84B984205D0C84B984202D072
:101B4000C74B984205D14FF68F731A408B881343C9
:101B50009AB202808B68C3620B8803858B7B0386F5
:101B6000012383827047B0F1804F02D0BC4A90427B
:101B700011D141B102884FF6FF331A40028002882A
:101B80000A43028007E002884FF6FF331A400280C2
:101B900002880A430280704770B5002400220023A7
:101BA000058C4FF6FE7635400584028C8388048BC5
:101BB0004FF68F752C40B51E2C400D882C43751E9A
:101BC0002A408D892A434D882A43F51F2A40CD8912
:101BD0002A43F51E2A408D882A434FF6FF652B4085
:101BE0004FF6FF552B400D8A2B434D8A2B438380A4
:101BF00004838D684563028470BD70B500240022A3
:101C00000023058C4FF6EF7635400584028C8388DF
:101C1000048B48F6FF752C404FF6FF452C400D888D
:101C20004FF6FF7606EA05252C434FF6DF752A406E
:101C30008D8906EA05152A434D8806EA05152A43CB
:101C40004FF67F752A40CD8906EA05152A434FF6DF
:101C5000BF752A408D8806EA05152A434FF6FF35E1
:101C60002B404FF2FF752B400D8A06EA85052B436A
:101C70004D8A06EA85052B43838004838D6885633E
:101C8000028470BD70B5002400220023058C4FF63D
:101C9000FF6635400584028C8388848B4FF68F75F0
:101CA0002C404FF6FC752C400D882C434FF6FF5509
:101CB0002A408D894FF6FF7606EA05252A434D888E
:101CC00006EA05252A434FF2FF752A40CD8906EA28
:101CD00005252A434FF6FF352A408D8806EA05255B
:101CE0002A434EF6FF752B404DF6FF752B400D8AAB
:101CF00006EA05152B434D8A06EA05152B4383801A
:101D000084838D68C563028470BD70B50022002392
:101D10000024058C4EF6FF7635400584038C8488BC
:101D2000828B48F6FF752A404FF6FF452A400D8802
:101D30004FF6FF7606EA05252A434DF6FF752B4040
:101D40008D8906EA05352B434D8806EA05352B4378
:101D50004BF6FF752C400D8A06EA85152C438480CE
:101D600082838D680564038470BD828B4FF2FF33DC
:101D70001A408283828B4FF6FF7303EA01231A43D2
:101D800082837047F0B50C461546002200210026DC
:101D9000078C4EF6FF7C07EA0C070784828B018CC8
:101DA0004FF6FF7707EA043640F6FF473A404FF612
:101DB000FF7707EA05273A434FF6FF7707EA03372D
:101DC0003A43244FB8420ED0B0F1804F0BD0284F89
:101DD000B84208D0204FB84205D0204FB84202D0B8
:101DE0001F4FB84206D14DF6FF77394046F4805771
:101DF000394305E047F6FF57394046F480573943E9
:101E000082830184F0BD828B4FF6F3731A40828384
:101E1000828B0A4382837047F0B50C461546002238
:101E200000210026078C4FF6FF6C07EA0C07078499
:101E3000828B018C4FF6FF7707EA04264FF60C776A
:101E40003A404FF6FF7707EA03172F433A43014F13
:101E5000B8420FE0002C01400004004000080040A0
:101E6000000C0040004C0140005001400054014073
:101E7000003401400ED0B0F1804F0BD0FE4FB8427D
:101E800008D0FE4FB84205D0FD4FB84202D0FD4FFA
:101E9000B84206D14FF6FF57394046F480773943B0
:101EA00005E04FF2FF57394046F48077394382838B
:101EB0000184F0BD028B4FF2FF331A400283028B84
:101EC0004FF6FF7303EA01231A4302837047F0B50C
:101ED0000C461546002200210026078C4FF6EF7CA9
:101EE00007EA0C070784028B018C4FF6FF7707EA9D
:101EF000041640F6FF473A404FF6FF7707EA0337EC
:101F00003A434FF6FF7707EA05273A43DE4FB842D8
:101F10000ED0B0F1804F0BD0D74FB84208D0D74F7A
:101F2000B84205D0D64FB84202D0D64FB84206D1FB
:101F30004FF6DF77394046F01007394305E04FF69A
:101F40005F77394046F01007394302830184F0BDC2
:101F5000028B4FF6F3731A400283028B0A4302830B
:101F60007047F0B50C46154600220021068C4FF64E
:101F7000FE773E400684028B018C4FF60C76324091
:101F80007E1C06EA03162E433243BF4EB0420ED0EB
:101F9000B0F1804F0BD0B84EB04208D0B74EB0422F
:101FA00005D0B74EB04202D0B64EB04206D14FF681
:101FB000FD76314044F00106314305E04FF6F576F9
:101FC000314044F00106314302830184F0BD70B515
:101FD00005460C46AC4885420ED0B5F1804F0BD07B
:101FE000A548854208D0A548854205D0A448854229
:101FF00002D0A448854200D100E000BF208850B93B
:102000002389A28861882846FFF7ABFFE18828462C
:10201000FFF79EFF25E0208804280AD12389A288A3
:1020200061882846FFF753FFE1882846FFF742FF03
:1020300017E0208808280AD12389A28861882846C9
:10204000FFF7EAFEE1882846FFF7DDFE09E0238975
:10205000A28861882846FFF795FEE1882846FFF7A9
:1020600084FE70BD2DE9F04105460C46002601278F
:10207000608808B9022600E00026A088012801D166
:10208000022700E001272088A0B92389A28861885F
:102090002846FFF766FFE1882846FFF759FF2389A6
:1020A0003A4631462846FFF712FFE1882846FFF7F7
:1020B00001FF13E02389A28861882846FFF707FF04
:1020C000E1882846FFF7F6FE23893A46314628463E
:1020D000FFF747FFE1882846FFF73AFFBDE8F081A8
:1020E0000A884B881A438B881A43CB881A430B897A
:1020F0001A434B891A438B891A43A0F8442070472E
:102100004FF6FF7181600021018081814160817300
:102110007047002101804180818081608181C1817F
:10212000018241827047002101804180012181802C
:102130000021C180018170470021018041808180A0
:10214000C180018141818181704721B1028842F0C3
:102150000102028004E002884FF6FE731A400280FA
:10216000704731B1B0F8442042F40042A0F8442056
:1021700005E0B0F84420C2F30E02A0F844207047F6
:102180001AB183890B43838102E083898B43838166
:1021900070478182704741EA0203A0F848307047D7
:1021A0001AB183890B43838102E083898B43838146
:1021B000704701894FF6F8721140018170470A4655
:1021C000002101894FF68F73194011430181704737
:1021D00030B504460D4629462046FFF7F0FF20891A
:1021E00040F00700208130BD2DE9F04104460D4646
:1021F00016461F46602D06D13B4601223146204639
:10220000FFF765FE05E03B46012231462046FFF719
:10221000A8FE29462046FFF7D2FF208940F007009C
:102220002081BDE8F08130B50C4600210189C9B29A
:102230004FF6FF7505EA0325154325432943018120
:1022400030BD2DE9F04105460E461746984600245C
:1022500043463A4631462846FFF7E5FF2C894FF6BC
:10226000F870044044F007044FF68F70044044F0C7
:1022700070042C81BDE8F08100340140000400406E
:1022800000080040000C0040002C0140F0B504465E
:102290000D4616461F463B46324629462046FFF766
:1022A000C2FF208940F480402081F0BD01858282F8
:1022B00070470A46002101884FF68F731940114379
:1022C00001807047F0B50C4615461E4600210022DD
:1022D00000230189028B038C4FF6F87739402143A4
:1022E0004FF6FC473A4040F201173A434FF6DD778C
:1022F0003B404FF6FF7707EA06172F433B43018128
:1023000002830384F0BD0A460021018B4FF68F73D0
:1023100019401143018370470A460021018B48F69A
:10232000FF7319404FF6FF7303EA02231943018339
:1023300070470A460021818B4FF68F731940114375
:10234000818370470A460021818B48F6FF7319404C
:102350004FF6FF7303EA022319438183704721B1CB
:10236000028842F08002028004E002884FF67F7308
:102370001A400280704721B1828842F004028280B4
:1023800004E082884FF6FB731A408280704721B1C7
:10239000828842F00802828004E082884FF6F77358
:1023A0001A408280704721B1828842F00102828007
:1023B00004E082884FF6FE731A40828070470A4616
:1023C0000021018B4FF6F7731940114301837047C9
:1023D0000A460021018B4FF2FF7319404FF6FF733D
:1023E00003EA02231943018370470A460021818BC7
:1023F0004FF6F77319401143818370470A46002155
:10240000818B4FF2FF7319404FF6FF7303EA0223EB
:102410001943818370470A460021018B4FF6FB73F5
:1024200019401143018370470A460021018B4FF682
:10243000FF3319404FF6FF7303EA02231943018368
:1024400070470A460021818B4FF6FB7319401143F8
:10245000818370470A460021818B4FF6FF33194074
:102460004FF6FF7303EA02231943818370470A463C
:102470000021018B4FF67F73194011430183704790
:102480000A460021018BC1F30E014FF6FF7303EAE8
:1024900002231943018370470A460021818B4FF6BE
:1024A0007F7319401143818370470A460021818B55
:1024B000C1F30E014FF6FF7303EA02231943818330
:1024C00070470A460021018C4FF6FD7319401143F5
:1024D000018470470A460021018C4FF6F7731940BA
:1024E0001143018470470A460021018C4FF6DF73C7
:1024F00019404FF6FF7303EA021319430184704732
:102500000A460021018C4FF67F7319404FF6FF7386
:1025100003EA02131943018470470A460021018C23
:102520004FF6FF5319404FF6FF7303EA0223194396
:10253000018470470A460021018C4FF2FF73194055
:102540004FF6FF7303EA02231943018470470A46DA
:102550000021018C4DF6FF7319404FF6FF7303EA1B
:10256000023319430184704730B5002301248C40A5
:10257000A3B2048C9C430484048C02FA01F5ADB22E
:102580002C43048430BD30B5002304248C40A3B216
:10259000048C9C430484048C02FA01F5ADB22C43F4
:1025A000048430BD70B5034600200024184618305E
:1025B00001258D40ACB21D8CA5431D8409B10829AD
:1025C00009D100EB6100056825F07005056005681C
:1025D000154305600EE00D1FC5F34E052844056840
:1025E00025F4E045056005684FF6FF7606EA022609
:1025F0003543056070BD21B1028842F002020280BD
:1026000004E002884FF6FD731A400280704721B142
:10261000028842F00402028004E002884FF6FB7355
:102620001A400280704721B1828842F08002828085
:1026300004E082884FF67F731A40828070470288D8
:102640004FF6F7731A40028002880A4302807047EF
:1026500082884FF68F731A40828082880A43828074
:10266000704702894FF6F8731A40028102890A43C3
:102670000281704702894FF67F731A4002810289F6
:102680000A430281704741627047C16270474163EB
:10269000704781637047C163704701647047028867
:1026A0004FF6FF431A40028002880A4302807047B7
:1026B0000146486B70470146886B70470146C86BFE
:1026C00070470146086C70470146486A70470146EA
:1026D000088D704702460020138A0B400BB1012081
:1026E00000E000207047CA430282704730B50246BE
:1026F000002000230024158A05EA0103958905EAD4
:10270000010413B10CB1012000E0002030BDCA4328
:102710000282704731490143314A1160704770B5F8
:10272000002100230F22C47804B32D4C246804F444
:10273000E064C4F5E064210AC1F10403CA404478AE
:1027400004FA03F18478144021430901254C0678EA
:10275000A155047804F01F050124AC4005786D11E3
:10276000AD0005F1E025C5F8004109E0047804F06A
:102770001F050124AC401C4D0678761145F8264013
:1027800070BD1A4A0A400243154B1B1F1A6070475E
:1027900039B1134A121D12680243114B1B1D1A60F6
:1027A00006E00F4A121D126882430D4B1B1D1A6072
:1027B0007047042808D14FF0E021096941F0040175
:1027C0004FF0E022116107E04FF0E021096921F0AC
:1027D00004014FF0E0221161704700000000FA058B
:1027E0000CED00E000E400E080E100E080FFFF1F6E
:1027F00010B50446FB48844209D101218803FFF744
:1028000065F800214FF48040FFF760F832E0F648A9
:10281000844209D101214804FFF765F800214FF4F3
:102820000030FFF760F825E0F048844209D101212B
:102830008804FFF758F800214FF48020FFF753F881
:1028400018E0EB48844209D10121C804FFF74BF896
:1028500000214FF40020FFF746F80BE0E5488442E2
:1028600008D101210805FFF73EF800214FF4801040
:10287000FFF739F810BD2DE9F04786B005460E4642
:102880000024A24600BFA1460027B08900B100BFC6
:102890002F462C8A4CF6FF700440F08804432C82AB
:1028A000AC894EF6F3100440B08831890843718931
:1028B00008430443AC81AC8A4FF6FF400440B08922
:1028C0000443AC8201A8FEF71AFFC648874202D132
:1028D000DDF810A001E0DDF80CA0A88900F40040AC
:1028E00040B10AEBCA0000EB0A1031684900B0FBA6
:1028F000F1F807E00AEBCA0000EB0A103168890022
:10290000B0FBF1F86420B8FBF0F004012009642169
:1029100001FB1089A88900F4004040B1322000EB8F
:10292000C900B0FBF1F000F00700044308E03220DA
:1029300000EB09106421B0FBF1F000F00F0004433C
:102940002C8106B0BDE8F0874FF4165101600021DC
:102950008180C18001810C214181002181817047EA
:1029600010B502460020108A4FF2FF0318400B8872
:102970004C8823438C882343CC88234318431082FC
:1029800010BD0021018041808180C180704721B14C
:10299000828942F40052828104E082894DF6FF73FD
:1029A0001A4082817047F0B50346002400260025B6
:1029B000002040F66A17B94200D100BF1846C1F3A3
:1029C000421401F01F06012707FA06F5012C01D178
:1029D0000C3004E0022C01D1103000E014301AB1A8
:1029E00007682F43076002E00768AF430760F0BD48
:1029F0001AB1838A0B43838202E0838A8B438382EA
:102A00007047028A4FF6F0731A400282028A0A4324
:102A10000282704782894FF2FF731A408281828955
:102A20000A438281704721B1828942F00202828189
:102A300004E082894FF6FD731A4082817047028A52
:102A40004FF6DF731A400282028A0A4302827047FD
:102A500021B1028A42F48042028204E0028A4BF6EB
:102A6000FF731A4002827047C1F3080282807047E8
:102A700001468888C0F308007047818941F0010150
:102A800081817047028BD2B20283028B42EA01221B
:102A900002837047028B02F47F420283028B0A4357
:102AA0000283704721B1828A42F02002828204E0D0
:102AB000828A4FF6DF731A408282704721B1828A80
:102AC00042F01002828204E0828A4FF6EF731A40CD
:102AD0008282704721B1828A42F00802828204E039
:102AE000828A4FF6F7731A408282704721B1828939
:102AF00042F40042828103E08289C2F30E028281A5
:102B0000704721B1828A42F40062828204E0828AA4
:102B10004FF2FF731A4082827047828A4FF6FB732E
:102B20001A408282828A0A438282704721B1828A55
:102B300042F00202828204E0828A4FF6FD731A405C
:102B40008282704702460020B1F5007F00D100BFAD
:102B500013880B400BB1012000E00020704701F406
:102B60000072B2F5007F00D100BFCA4302807047F7
:102B700070B50246002400230025002040F66A16A6
:102B8000B14200D100BFC1F3421501F01F0301267D
:102B900006FA03F3012D02D19689334006E0022D97
:102BA00002D1168A334001E0968A33400C12012686
:102BB00006FA04F41688344013B10CB1012000E089
:102BC000002070BD10B50022002340F66A14A14217
:102BD00000D100BF0A1201249440A3B2DC43048058
:102BE00010BD000000380140004400400048004093
:102BF000004C00400050004010B50446F7488442A5
:102C000008D101214015FEF761FE00216015FEF795
:102C10005DFE0AE0F248844207D101210015FEF76B
:102C200055FE00212015FEF751FE10BD30B50246BD
:102C3000002000235068EB4C20400D790C6844EADA
:102C40000524204350609068E74C2040D1E90254AD
:102C50002C434D7944EA450420439060D06A20F427
:102C600070000C7C641EE4B2234340EA0350D0623F
:102C700030BD00210160017141718160C16001219D
:102C80000174704721B1826842F00102826003E062
:102C9000826822F001028260704721B1826842F4AA
:102CA0008072826003E0826822F4807282607047E2
:102CB00010B50023CBB21AB144681C43446002E053
:102CC00044689C43446010BD816841F00801816004
:102CD0007047014600208A6802F008020AB101200C
:102CE00000E000207047816841F004018160704776
:102CF000014600208A6802F004020AB1012000E0C7
:102D00000020704721B1826842F4A002826003E093
:102D1000826822F4A00282607047014600208A681F
:102D200002F480020AB1012000E00020704710B5D3
:102D30000A4600210023416821F46041531E41EA04
:102D40004331416010BD21B1426842F400624260EB
:102D500003E0426822F4006242607047F0B5044626
:102D60000D4600200021092D11DDE068A5F10A06BD
:102D700006EB4607072606FA07F18843A5F10A067F
:102D800006EB460603FA06F10843E0600CE0206912
:102D900005EB4507072606FA07F1884305EB4506CC
:102DA00003FA06F108432061072A0FDA606B561E0A
:102DB00006EB86071F2606FA07F18843561E06EB28
:102DC000860605FA06F10843606322E00D2A0FDA51
:102DD000206BD61F06EB86071F2606FA07F18843ED
:102DE000D61F06EB860605FA06F10843206310E0BD
:102DF000E06AA2F10D0606EB86071F2606FA07F128
:102E00008843A2F10D0606EB860605FA06F1084393
:102E1000E062F0BD21B1826842F48012826003E07A
:102E2000826822F48012826070470146C86C80B2CA
:102E300070476A484C300068704721B1426842F4DC
:102E40008062426003E0426822F480624260704720
:102E500021B1426842F48052426003E0426822F4A9
:102E60008052426070470A46002181685F4B1940DA
:102E700011438160704721B1826842F40042826050
:102E800003E0826822F400428260704721B18268C8
:102E900042F40212826003E0826822F4021282602D
:102EA0007047014600208A6802F400120AB101202E
:102EB00000E000207047F0B50446154600200022CF
:102EC0000026092911DDE068A1F10A0707EB470C8C
:102ED000072707FA0CF29043A1F10A0707EB47070F
:102EE00003FA07F21043E0600CE0206901EB410CAB
:102EF000072707FA0CF2904301EB410703FA07F2A8
:102F000010432061A06BC0F30156EF1C06F1010CC9
:102F1000A7EB0C0707EB870C1F2707FA0CF290436F
:102F2000EF1C06F1010CA7EB0C0707EB870701FA72
:102F300007F21043A063F0BD10B50A46002100233C
:102F4000816B21F44011531E41EA0351816310BD8E
:102F500008B5002300930090009B0B440093009B56
:102F60001A6008BD08B5024600200090009201F1E9
:102F70002800009B184400900098006880B208BDAB
:102F80000A46002141681A4B1940114341607047BD
:102F90004162826270470A460021416821F01F01A8
:102FA00011434160704740B10C490831096841F450
:102FB00000010A4A0832116007E00849083109682F
:102FC00021F40001054A08321160704702460020D2
:102FD00013680B4073B101200DE000000024014094
:102FE00000280140FFFEF0FFFDF7F1FDFF8FFFFE1F
:102FF000FFFD3FFF00207047CA430260704770B575
:1030000002460020002300240B125568CEB205EAC8
:10301000060415681D4015B10CB1012000E0002028
:1030200070BD00220A12D343036070471CB5002014
:10303000019000907C48006840F480307A49086034
:1030400000BF7948006800F4003000900198401CEF
:103050000190009818B90198B0F5405FF1D172481D
:10306000006800F4003010B10120009001E0002061
:1030700000900098012847D16B4840686A49486031
:103080000846406820F4605048600846406840F4B4
:10309000005048600846406820F4E06048600846F8
:1030A000406840F480604860084640685F490840D6
:1030B0005D494860084640685D4908435A49486090
:1030C0000846006840F08070086000BF56480068FD
:1030D00000F000700028F9D00120FEF75FFC524894
:1030E000406820F00300504948600846406840F0BE
:1030F0000200486000BF4C48406800F00C000828FF
:10310000F9D10020FEF74AFC1CBD10B5FFF78EFF79
:1031100010BD10B54748006840F47000454908608C
:103120004148006840F001003F4908600846406897
:10313000414908403C494860084600683F4908400A
:10314000394908600846006820F480200860084675
:1031500040683B490840344948600846006B39499B
:103160000840314908634FF41F008860FFF7CDFF26
:103170004FF000602F498039086010BD70B5002203
:10318000002100230020284C646804F00C0222B1C6
:10319000042A06D0082A35D107E02B4C2B4D2C6091
:1031A00034E0294C294D2C6030E01F4C646804F455
:1031B00080331D4C606800F0C04434B900F47014D2
:1031C000B4F5701F01D0022400E0012400F0C045D6
:1031D000C0F3834646EA5565611923B91C4C4C433C
:1031E0001A4D2C600DE0104C646804F4003424B1D6
:1031F000174C4C43154D2C6003E0134C4C43134DBE
:103200002C6003E0104C114D2C6000BF00BF064C39
:103210006468C4F303140F4D2A5D0C4C2468D44039
:103220000A4D2C6070BD000000100240FFFFC01F5F
:10323000000035A088ED00E00C00FFE8FFFFF6FE7F
:10324000FFFF001700FFFEFE00127A00640000205E
:1032500000093D00680000200648804706480047F6
:10326000FEE7FEE7FEE7FEE7FEE7FEE7FEE7FEE736
:10327000FEE7FEE7133100084502000830B52DEDEA
:10328000068BA5B005460C46B0EE408A802104A806
:1032900000F0BBFF504821460268284600F0C4F801
:1032A0004D480068410803AB24AA204600F0CCFC3E
:1032B00018EE100A00F0B4FF41EC190B249800F04E
:1032C000AFFF41EC1A0B8DED009B53EC1A2B43A082
:1032D000039901F057FA9DED240A25B0BDEC068B49
:1032E00030BD70B52DED028B05460E4645A001F0B0
:1032F00049FA002411E005EB840090ED000A10EE7D
:10330000101A084600F08CFF41EC180B53EC182BF8
:103310003EA001F037FA601C84B2B442EBDBBDEC96
:10332000028B70BD70B504460025012633462A463F
:103330002146374800F0E2FB70BD70B52DED048BDF
:103340004FF40045002008EE100A9FED320AF0EE1F
:10335000408AFDF783FA002415E02F4830F8140066
:1033600000EE100AB8EE400A2C4800EB840080ED15
:10337000000A9FED280A2949601C01EB800080EDBE
:10338000000AA01C84B2B4F5005FE6DB2348FFF717
:10339000C9FF0120FDF7C3FA08EE100AB8EE480A8B
:1033A000DFED1F0A80EE201AB0EE419AB0EE490A16
:1033B0001C491A48FFF762FFF0EE408AF5EEC08A1A
:1033C000F1EE10FA05DD0448008881B21548FFF7D8
:1033D00088FFBDEC048B70BD780000206D61782003
:1033E00076616C7565405B25645D203D20252E333C
:1033F000662C2074696D653A252E3366206D530A5C
:103400000000000076616C75650A000025660A0000
:10341000785000080000000080000020802000207C
:1034200000007A4480A000209FED3D0A5FEA920CE4
:1034300057D000BFD0ED000A90ED011A0B1D60EED1
:10344000A00A083041EE010AF5EEC00AF1EE10FACA
:10345000A6BFB1EEE01A81ED001A81ED000AD0EDB1
:10346000000A90ED011A191D60EEA00A083041EE25
:10347000010AF5EEC00AF1EE10FAA6BFB1EEE01AAD
:1034800083ED001A83ED000AD0ED000A90ED011AD9
:103490000B1D60EEA00A083041EE010AF5EEC00AED
:1034A000F1EE10FAA6BFB1EEE01A81ED001A81ED3F
:1034B000000A90ED001AD0ED010A191D21EE011A43
:1034C000083000EEA01AB5EEC01AF1EE10FAA6BF51
:1034D000F1EEC10AC3ED000A83ED000ABCF1010C54
:1034E000A8D112F0030208BF704700BFD0ED000A58
:1034F00090ED011A0B4660EEA00A091D083041EE5E
:10350000010AF5EEC00AF1EE10FAA6BFB1EEE01A1C
:1035100083ED001A83ED000A521EE7D170470000C8
:10352000000000002DE9F04106462DED028B8C468F
:103530000088736801EB80044508274601EB85008D
:1035400004EB85025FEA95087DD000BFD1ED003A1B
:10355000D4ED001A91ED012A94ED013A73EEA16ABF
:1035600091ED024A91ED031AD4ED022AD4ED035AEB
:1035700090ED008A90ED017A90ED020A90ED036AD9
:1035800092ED005AD2ED014AD2ED027AD2ED030A51
:10359000C1ED006A72EE036A73EEE13A74EEC71A87
:1035A000C1ED016A74EE226A74EE622A37EEC04AF7
:1035B000C1ED026A71EE256AC1ED036A72EE436ADB
:1035C00031EE652A38EE051A35EE483A80ED001ADC
:1035D00037EE241A80ED011A30EE271A80ED021A18
:1035E00036EE201A80ED031A30EEC61A93ED000A6B
:1035F000D3ED010A63EE804A26EEA05A66EE805AA9
:1036000063EEA03A74EE854A75EEE33AC4ED004AE3
:1036100063EE204AC4ED013A61EE803A61EEA00A01
:1036200023EE000A74EEE31A30EE800AC2ED001AAF
:1036300082ED010A93ED020AD3ED030A62EE803AAD
:1036400022EE203A00E024E062EEA01A22EE002AE8
:1036500073EE832A1030103172EE611AC4ED022A23
:1036600024EE202AC4ED031A61EE001A61EE200A4E
:1036700024EE000A103332EE611A103430EE800A64
:1036800082ED021A82ED030A1032B8F101087FF4CC
:103690005DAF294602236046726800F041FB726804
:1036A0002946BDEC028B3846BDE8F041022300F00C
:1036B00037BB2DE9F34F2DED048B87B00B980088B5
:1036C000470801EB870000EB870606EB8705CDE98D
:1036D0000056DDF82C80A5F1040C0CEB8703CDE936
:1036E00002014FEA5709D8F804800427CDE904976E
:1036F000D1ED000A96ED000A90ED011A95ED013A20
:1037000070EE802A70EEC03AD1ED010A96ED010A02
:10371000041F321F30EE802A70EEC01A31EE230AE9
:10372000D0ED000A32EE415A33EEC11A30EE434A70
:1037300071EEE04A95ED000A70EEA11A35EE435A9B
:1037400074EE805A72EEE04A70EEA20A71EEC01A70
:1037500031EE031A74EEC04A30EE800A062708F1F3
:10376000080A81ED000A90ED010AD5ED010A08F181
:10377000100B30EE020A08F1180830EE200A81ED35
:10378000010A80ED004AC0ED015AC6ED004A86EDFF
:10379000015A85ED001AC5ED011ADDF810900830C8
:1037A000083108350836A9F102095FEA590900F025
:1037B000078100BFD1ED000A96ED000AD0ED011A95
:1037C000D5ED014A30EE802A30EEC05AD1ED010A23
:1037D00096ED010A70EE802A30EEC01A31EE850AAD
:1037E000D5ED000A30EE644A90ED000A31EE403A21
:1037F00030EE011A73EE205A32EE403A30EE020AF1
:1038000031EE601A73EE603A30EE200A32EEE13AA1
:1038100075EE611A81ED000A90ED010AD5ED010AFD
:1038200033EE643A30EE220A71EEA41A30EE200A2A
:1038300081ED010AD4ED002ADCED004A54ED010AC5
:103840001CED010A32EEA47A32EEE49A72EEE42A1A
:1038500052ED018A70EE807A30EEC02A72EEE82ACC
:10386000D2ED000A93ED000A13ED018A30EEC05A42
:1038700072EE886A77EEE82A35EE026A32EEC85AAE
:1038800077EE602A72EEC04A70EEC02A70EE870AA8
:1038900072EEC22A30EE800A38EE682A84ED000A01
:1038A00012ED010A53ED010A32EE492A30EE270AE1
:1038B00030EE200A04ED010A9AED000ADAED010A61
:1038C00064EE007A25EEA07A65EE805A24EE204A56
:1038D00037EE877A35EEC44A80ED007A80ED014AF2
:1038E00026EEA04A66EE005A66EE200A26EE800A10
:1038F000083034EE654A083130EE800A82ED004A25
:10390000083C02ED010A9BED000ADBED010ADDF83F
:1039100014E023EE804A63EE205A23EE003A63EE71
:10392000A03A083A34EE254A0BEB8E0B33EE633A9D
:1039300086ED004A0AF1080A86ED013AB1EE643AD2
:10394000083663EE003A25EE203A25EE000A64EED2
:10395000A00A33EEC33A30EEC00A8CED003A0CED0B
:10396000010A98ED000AD8ED010A08EB870861EE1C
:10397000803A21EE203A21EE001A61EEA01AACF155
:10398000080C33EE833A31EE611A85ED003A62EEAF
:10399000801A85ED011A22EE201A62EEA00A22EEAC
:1039A000000A083531EE611A30EE800A83ED001A04
:1039B00003ED010A083BB9F101097FF4FBAE00BF3A
:1039C000D1ED000A96ED000A91ED011AD0ED015AF1
:1039D00030EE802A70EEC00A96ED010A95ED015A8C
:1039E000042371EE001A71EE404A35EEA00A90ED04
:1039F000001A31EEE54A70EEE50A30EE453A95EDF3
:103A0000000A34EE454A30EE855A74EEC12A72EE51
:103A1000413A71EE240A31EE021A72EE802A73EEF8
:103A2000C03A70EEC00A31EE000A81ED000A90ED56
:103A3000010A95ED011A30EE210A30EE010A81EDFE
:103A4000010A9AED000A9AED011A63EE001A22EEBD
:103A5000812A22EE800A23EE011A71EE821A30EEDC
:103A6000410AC0ED001A80ED010A9BED000A9BEDB2
:103A7000011A63EE801A24EE012A24EE000A23EED6
:103A8000811A71EE821A30EE410AC6ED001A86EDF7
:103A9000010A98ED010A98ED001A60EE801A25EEF1
:103AA000012A60EE810A25EE000A32EE211A30EE7C
:103AB000C00A85ED001A85ED010A0B984268DDE920
:103AC000030100F02DF90B98042304994268029831
:103AD00000F026F90B98042304994268019800F03D
:103AE0001FF90B98049904234268009807B0BDECB5
:103AF000048B02B0BDE8F04F00F012B92DE9F0419F
:103B00000488984617460D460646012A20D1281DEE
:103B1000F4B1A0F1080114F0010F06D091ED020AF2
:103B2000B1EE400A81ED020A08315FEA540C0FD071
:103B300091ED020AB1EE400A81ED020A91ED040A0C
:103B4000B1EE400A81ED040A1031BCF1010CEFD155
:103B5000B4F5807F1BD008DC102C13D0202C16D09D
:103B6000402C19D0802C0DD01CE0B4F5007F13D070
:103B7000B4F5806F06D0B4F5006F08D0B4F5805F5F
:103B80000AD00FE029463046FFF7CCFC0AE0294670
:103B90003046FFF78EFD05E0214601232846726876
:103BA00000F0BEF8B8F1000F04D0B1892846B26821
:103BB000FCF7E8FA012F18BFBDE8F08100EE104ACB
:103BC000B7EE001A002CF8EE400A81EE200A08BF7A
:103BD000BDE8F081A5F1080014F0010F0ED0D0ED82
:103BE000020A60EE800AC0ED020AD0ED030AF1EE8F
:103BF000600A60EE800AC0ED030A0830610808BF61
:103C0000BDE8F081D0ED020A60EE800AC0ED020A44
:103C1000D0ED030AF1EE600A60EE800AC0ED030AFF
:103C2000D0ED040A60EE800AC0ED040AD0ED050A6A
:103C3000F1EE600A60EE800AC0ED050A1030491E00
:103C4000E0D1BDE8F081000070B44FF0000CB0ECA2
:103C5000010A4E1E6446B50831D000BFD0ED000AFF
:103C600090ED011A0830B4EEE00AF1EE10FA3CBF14
:103C7000B0EE600A0CF10104F0EC010AB4EEC10AE6
:103C8000F1EE10FA3CBFB0EE410A0CF10204B0ECC8
:103C9000011AB4EEE00AF1EE10FA3CBFB0EE600A91
:103CA0000CF10304B4EEC10AF1EE10FA3CBFB0EE21
:103CB000410A0CF104046D1E0CF1040CCED106F087
:103CC000030C5FEA0C0617D0B6F1004F19D2002E94
:103CD000C8BF002510DD00BFD0ED000AF4EEC00A19
:103CE000F1EE10FA04DD4C19B0EE600AA4EB0C04FE
:103CF000001D6D1C761EEFD182ED000A1C6070BCA9
:103D00007047F0EC010AB4EEE00AF1EE10FA3CBFA5
:103D1000B0EE600AA1EB0C04BCF1010CF1D1EBE7B1
:103D20002DE9FF4F2DED108B82B09FEDFEFA0B4673
:103D30001C46DB084FF0000C0CEB030505EB0308F9
:103D400008EB030909EB030606EB030A00EBCC07BB
:103D500000EBC60697ED001AD6ED000A0AEB030B3E
:103D600000EBC50500EBCA0A31EE200A71EE601ABD
:103D700095ED002ADAED000A0BEB030E00EBC80804
:103D800032EE201A00EBCB0B32EE602AD8ED002A7F
:103D9000DBED000A00EBC90900EBCE0E99ED003A0D
:103DA0009EED004A72EEA03A72EEE02A73EE040A2B
:103DB00033EE443A70EE636A70EE233A31EE600AF5
:103DC00071EE200A33EEA01A73EEE00A87ED001AB6
:103DD000C6ED000A97ED011AD6ED010AD5ED013ABC
:103DE00098ED014A31EE206A71EE600A9AED011AEF
:103DF00099ED015A73EE814A73EEC13A9BED011AB7
:103E000034EE017A34EE411A9EED014A75EE045A01
:103E100035EE444A36EE475A36EE076A34EEE57A16
:103E200074EEA54A76EE245A76EE644AC7ED015A3E
:103E3000C6ED014A76EE874AC8ED004A76EEC74ADB
:103E4000CBED004A75EE404A35EE000AC8ED014A56
:103E50008BED010A32EE430A32EE032A20EE0F0AFE
:103E600062EE0F4A33EEC42AA4448C4522EE0F3A88
:103E700033EE842A30EEC34A62EE0F3A30EE833AD4
:103E800031EEC02A31EE800A71EE630A31EE231A58
:103E900072EEE41A72EEA42A70EE013A30EE410A94
:103EA000C5ED003A8EED000A32EE200A8AED000AD6
:103EB00032EE600A89ED000A33EE620A85ED010AEE
:103EC00033EE220A8EED010A34EE610A8AED010A10
:103ED00034EE210A89ED010AFFF42EAF082B3FBF13
:103EE00002B0BDEC108B04B0BDE8F08F4FF0000CB9
:103EF000CDF804C04FF0010CCDF800C0DDF804C0CF
:103F0000159DAC444FEA8C0505EB0C07CDF804C0B9
:103F100007EB0C094FEA4C0808EB0C0609EB0C0AFE
:103F200002EBCC0C02EBC80802EBC60602EBC5059F
:103F300002EBC70702EBC90902EBCA0A9CED00DAE3
:103F40009CED018AD8ED00CA96ED00CAD5ED00BA05
:103F500097ED00BAD9ED00AADAED008AD8ED017A22
:103F600096ED01AA95ED017AD7ED016A99ED016A06
:103F7000DAED019ADDF800C00CEB0307FD1805EB44
:103F8000030A0AEB030808EB030606EB030B00EB3E
:103F9000CC0900EBC808D9ED000A98ED000A00EB47
:103FA000C70700EBC606D7ED001A96ED001A70EEB3
:103FB000803A0BEB030E70EEC00A31EE810A00EB83
:103FC000C50500EBCB0B31EEC11AD5ED001A9BED08
:103FD000002A00EBCA0A00EBCE0E31EE824A71EEE7
:103FE000C21A9AED002ADEED002A32EE223A32EEB3
:103FF000622A73EEC42A73EE843A30EE435A30EEEE
:10400000030A33EE803A73EEC0DA89ED003A99ED97
:10401000010A98ED013AD7ED013A95ED014A70EEAB
:1040200003EA30EE433A96ED010A9AED01EADEED3D
:10403000014A33EE809A73EEC03A9BED010A74EEAA
:10404000005A34EE404A3EEE240A7EEE644A3EEECA
:10405000E5EA7EEEA55A79EE40EA39EE009A32EEB4
:10406000AE0A72EEEE2A75EE89EA35EEC99A7EEE58
:10407000455AC9ED01EA3EEE055A2BEEADEA67EE70
:1040800009EA2BEE899A67EE2DDA3EEE2EEA39EE3A
:104090006D9A88ED00EA67EEA5DA88ED019A2CEEBC
:1040A000809A6CEEA55A27EE800A39EE2D9A35EEED
:1040B000C00A85ED009A66EE055A85ED010A2AEEE2
:1040C000A20A2AEE855A66EE222A30EE250A8BEDE8
:1040D000000A35EE620A73EEA42A8BED010A31EE76
:1040E000420A31EE021A33EEE42A62EE8F3A20EEF3
:1040F0000F0A21EE0F1A22EE0F2A70EEC02A30EEC0
:10410000800A71EEC10A71EE811A33EE421A33EE63
:10411000022A34EE633A34EE234A70EE043A30EE6B
:10412000444A01E0F304353F72EE834A72EEC32A3B
:1041300032EE613A32EE210A71EE601A71EE200A17
:104140002DEE232A28EE031A2DEE033A68EE233AC9
:10415000A44432EE011A28EE842A8C4587ED001A19
:1041600033EE631A29EE843A87ED011A29EE801A9C
:1041700028EE800A32EE011A30EE430A26EEA42A17
:104180008EED001A8EED010A2BEE240A26EEA11AFE
:104190006BEE211A30EE010A2CEE221A86ED000A8F
:1041A00031EEC20A6AEE221A86ED010A2AEE200AD0
:1041B0006CEE200A31EE000A8AED000A30EEE10AC8
:1041C0008AED010AFFF4D8AEDDF800C00CF1010C55
:1041D000CDF800C063453FF691AEDDF854C04FF610
:1041E000FF7404EACC0CCDF854C0072B3FF6A0AD09
:1041F00002B0BDEC108B04B0BDE8F08FD2B201E08C
:1042000000F8012B491EFBD270470022F6E710B5DB
:1042100013460A4604461946FFF7F0FF204610BD34
:1042200000F0004230F000400AD0C10D01F560718D
:10423000C0F3160042EA0151C2084007114370471B
:1042400000200146704730B50B4601460020202271
:10425000012409E021FA02F59D4205D303FA02F593
:10426000491B04FA02F52844151EA2F10102F1DCF3
:1042700030BD2DE9F05F0546002092469B468846FA
:104280000646814640241BE02846414647462246D2
:1042900000F0F9F953465A46C01A914110D311461D
:1042A0001846224600F0E0F92D1A67EB01084F4648
:1042B00022460120002100F0D7F917EB00094E41FA
:1042C000201EA4F10104DFDC484631462A4643465D
:1042D000BDE8F09F2DE9FE4F804681EA0300C00F44
:1042E0000C46009021F0004123F00045B8EB02009D
:1042F000A94105D24046214690461C460B4602463F
:1043000023F00040104347D0270DC7F30A00C3F342
:104310000A510290401A019040286BDAC3F313004F
:1043200040F4801B0098924620B10023D2EB030A90
:1043300063EB0B0B01985946C0F14002504600F068
:1043400093F906460D4650465946019A00F0ABF9DE
:1043500010EB08006141002487EA115284EAE773F8
:104360001A4340D0009A62B3019A012A4FEA0752D9
:1043700015DC001B61EB02014FF0004202EA07521C
:10438000CDE90042001C41F5801132462B4600F079
:10439000ABF903B0BDE8F08F40462146F9E7001BBA
:1043A00061EB0201001C41F5801300185B412018ED
:1043B000A2F5001747EB030140EAD570B6196D412D
:1043C00011E06D084FEA360645EAC0754FEA07521C
:1043D000001B61EB0201001C41F5801149084FEA06
:1043E00030000019514132462B4603B0BDE8F04F72
:1043F00000F06BB90098012240000023D0EB0202CC
:1044000063EBE073009821464FEAE074B8EB0000DC
:1044100061EB0401E9E783F000435BE781F00041D1
:1044200058E72DE9FE4F81EA030404F0004421F02F
:10443000004100944FF0000B23F0004350EA0104C8
:104440005ED052EA03045BD0C3F30A54C1F30A55A9
:104450002C44A4F2F3340194A0FB0254C1F31301E1
:1044600041F48011C3F3130343F4801301FB0244AE
:1044700000FB034E840A970A44EA815447EA8357B3
:10448000A4FB076802958D0A05FB07854FEA932C6C
:1044900004FB0C542705029D4FEA065847EA1637DD
:1044A000B5EB08056EEB070C870E920E47EA8117F5
:1044B00042EA8312A7FB0201B6EB0B0164EB000496
:1044C0002B0D43EA0C335E1844EB1C50DA46514680
:1044D000E7FB0201C5F313044FEA0B3343EA14531D
:1044E0004FEA0432019C43EA0603A4F10C0402944F
:1044F000009CCDE900B400F0F7F803B0BDE8F08F00
:1045000000200146F9E72DE9F04D81EA030404F0AB
:10451000004B21F0004514464FF0000A23F0004103
:1045200050EA050220D054EA01021DD0C5F30A5713
:104530000246C5F31303C1F31300C1F30A5640F456
:10454000801543F48013A7EB0608101BD64608F22B
:10455000FD3873EB050002D308F1010801E0921861
:104560005B41B8F1000F03DA00200146BDE8F08D91
:1045700000204FF48011064684460EE0171B73EBB3
:10458000050705D3121B63EB050306434CEA010C38
:1045900049084FEA300092185B4150EA0107EDD11B
:1045A00052EA030012D082EA040083EA05010843BC
:1045B00005D0101BAB4106D20122002306E00022E9
:1045C0004FF0004302E06FF0010253101AEB0600B7
:1045D0004CEB085110EB0A0041EB0B01BDE8F04D2C
:1045E00000F073B8C1F30A52C1F3130140F2FF3374
:1045F00041F480119A4202DA00200146704740F2ED
:1046000033439A42A2F2334202DC524200F03BB8FA
:1046100000F02AB830B5041E71F1000404DB4FF03D
:104620000044404264EB0101141E73F1000405DBF9
:104630001C464FF00043524263EB0403994208BF0B
:10464000904230BD064C074D06E0E06840F00103A3
:1046500094E8070098471034AC42F6D3FBF7F6FD18
:1046600008F0000828F00008202A04DB203A00FAAD
:1046700002F1002070479140C2F1200320FA03F3B9
:10468000194390407047202A04DB203A21FA02F0B7
:104690000021704721FA02F3D040C2F1200291407C
:1046A000084319467047202A06DBCB17203A41FA07
:1046B00002F043EAE07306E041FA02F3D040C2F1AF
:1046C0002002914008431946704710B5141E73F13B
:1046D000000408DA401C41F1000192185B411A43C2
:1046E00001D120F0010010BD2DE9F04D92469B460E
:1046F00011B1B1FA81F202E0B0FA80F220329046B4
:10470000FFF7B2FF04460F4640EA0A0041EA0B01F8
:1047100053465A46084313D0114653EA010019D0B4
:10472000C8F140025046FFF7AEFF05460E46504620
:1047300059464246FFF798FF084305D0012004E0A0
:1047400020463946BDE8F08D0020054346EAE07674
:104750002C4337430A986305E40AA0EB08000022C3
:10476000FD0A44EA47540A3002D500200146E9E731
:10477000010510196941DDE9084500196941BDE8E5
:10478000F04DA2E70FB4054B10B503A9044A0298F7
:1047900000F0DAF810BC5DF814FB0000B10400086A
:1047A0007C00002002E008C8121F08C1002AFAD1CC
:1047B00070477047002001E001C1121F002AFBD1A1
:1047C000704700002DE9FF5F82B00021DDE9043071
:1047D000020DDDF840B0034318D044F61050A2F2A9
:1047E000FF3242431514119801281FD0A5EB0B008E
:1047F000401C5FEA000A4FF000064E4FDFF8389188
:10480000B046504615D5CAF1000413E011980124B2
:104810004AA3012801D16FEA0B010298119AC0E95D
:104820000031C0E9024206B0BDE8F09FCBF10000C4
:10483000DFE704460021404A491842EB0450CDE925
:10484000001012E0E00707D032463B46404649469A
:10485000FFF7E7FD8046894632463B46104619463B
:10486000FFF7DFFD06460F466410002CEAD1DDE9B4
:104870000401DDE90023BAF1000F06DAFFF7D1FDEC
:1048800042464B46FFF7CDFD05E0FFF73CFE4246B2
:104890004B46FFF738FE04460E460022284BFFF732
:1048A000B9FE03D84FF0FF30014607E00022254B48
:1048B00020463146FFF70EFDFFF794FE102409E075
:1048C000002C0ADB0A220023FFF7D3FC039B3032C3
:1048D0001A55641E50EA0102F2D1641C039AC4F115
:1048E00011031444119A012A03D0012208430DD167
:1048F0000AE0084304D000204FF0110B119072E73A
:10490000A3EB0B056D1E0DE05B4504DD4FF00002CF
:1049100005F1010504E003DA4FF00002A5F10105FD
:10492000002AECD002981199C0E90231C0E9004593
:1049300079E70000000014400000F03F3000000064
:104940000000F0430000E03F2DE9FF4F95B09B468B
:104950008946064600250FE2252877D10024274600
:10496000F84A0121059400E0044316F8013F203B7A
:1049700001FA03F01042F7D130782A2811D06FF0F5
:104980002F033078A0F13002092A16D8059A44F096
:10499000020402EB820203EB42021044761C0590F3
:1049A000EFE759F8042B0592002A03DA504244F449
:1049B0000054059044F00204761C30782E2816D15D
:1049C00016F8010F44F004042A280DD06FF02F02CE
:1049D0003078A0F13003092B09D807EB870302EBED
:1049E0004303C718761CF3E759F8047B761C30782C
:1049F0006C280FD006DC4C2817D068280DD06A2808
:104A000014D104E0742810D07A280FD10DE044F4BA
:104A100000140AE044F4801401E044F44014727875
:104A2000824202D104F58014761C761C3078662808
:104A30000BD013DC582877D009DC002875D0452826
:104A4000F6D04628F4D047281AD19DE118E0632813
:104A500035D0642879D0652812D195E1702873D0BB
:104A600008DC6728F1D069286FD06E280DD06F2838
:104A700006D1B5E073282CD0752875D0782874D06D
:104A80005A46179990476D1C75E1C4F302500228ED
:104A900009D003280DD0D9F8001004280DD00D60DE
:104AA00009F1040967E1D9F80010EA17C1E90052D9
:104AB000F6E7D9F800100D80F2E70D70F0E719F86D
:104AC000041B8DF8001000208DF80100EA4601203B
:104AD00003E059F804AB4FF0FF3061074FF00001DD
:104AE00002D40DE008F101018846B9420FDA804591
:104AF000F8DB1AF808100029F4D108E008F10101E8
:104B000088468142FADB1AF808100029F6D1059888
:104B10005B46A0EB080721463846179A00F094FA46
:104B2000284400EB080507E04DE029E10DE01AF804
:104B3000010B5A4617999047B8F10108F7D25B4626
:104B400021463846179A13E142E00A220092C4F344
:104B500002524FF0000A022A08D059F804CB032A67
:104B60004FEAEC710AD00DE029E02AE009F10701D3
:104B700021F00702F2E802C1914609E00FFA8CFC2D
:104B80004FEAEC71042A03D14FFA8CFC4FEAEC7126
:104B9000002907DA0A460021DCF1000C61EB020172
:104BA0002D2202E0220504D52B228DF804200122BB
:104BB00003E0E20701D02022F7E7904659E00A21FE
:104BC00002E010220DE010214FF0000A00910BE0EE
:104BD00010224FF0000A44F004040827009203E07A
:104BE00008224FF0000A0092C4F30252022A05D0B4
:104BF00059F804CB0021032A08D009E009F1070184
:104C000021F00702F2E802C1914605E01FFA8CFC90
:104C1000042A01D10CF0FF0C4FF00008220728D520
:104C2000702806D0009B83F0100353EA0A0305D0D6
:104C30000EE040228DF80420012208E05CEA010227
:104C400006D030228DF804208DF80500022290460F
:104C5000009B83F0080353EA0A030AD15CEA0102CD
:104C600001D1620705D530228DF804204FF00108EC
:104C70007F1E582804D034A003900EA802900DE0A7
:104C800036A0F9E753466046009AFFF7F2FA8446E9
:104C90000398825C0298401E029002705CEA010058
:104CA000F0D1029806A9081A00F1200A600702D57F
:104CB00024F4803400E00127574502DDA7EB0A0009
:104CC00000E0002000EB0A01009005984144401AE2
:104CD0000590E00306D45B462146179A059800F03C
:104CE000B3F90544002706E001A85A46C05D1799AC
:104CF00090476D1C7F1C4745F6DBE0030CD55B46F7
:104D00002146179A059800F09FF9054404E03020E9
:104D10005A46179990476D1C0099481E009000292B
:104D2000F5DC08E0029802995A460078491C029185
:104D3000179990476D1CBAF10001AAF1010AF1DC44
:104D400065E100000928010030313233343536374F
:104D500038396162636465660000000030313233C7
:104D60003435363738394142434445460000000067
:104D700000F058F90544761C307800287FF4ECAD3B
:104D800019B02846BDE8F08F620700D4062709F164
:104D9000070222F0070CFCE80223E14603F000487A
:104DA0005FEA080C02D00FF2702C0DE05FEA045CA1
:104DB00002D50FF2682C07E05FEAC47C02D00FF244
:104DC000602C01E0AFF2700C4FF0FF3823F000438D
:104DD000CDF850C065280CD006DC452809D04628FF
:104DE0001DD047283DD13DE0662818D067287ED1E8
:104DF00038E00021112F01DB112000E0781CCDE903
:104E0000000106A90EA8FFF7DDFCDDE90F010E9AEF
:104E100003910021009207F1010A04914DE04FF047
:104E200000400097CDE9011006A90EA8FFF7CAFCC3
:104E3000DDE90F0203920E9B11990022DDF80CA010
:104E40000093049211B9791C00EB010AB7EB0A0038
:104E500004D4C0F1FF3007F1010A0490AAEB070067
:104E6000019044E0012F00DA01270021112F01DD1C
:104E7000112000E03846CDE9000106A90EA8FFF791
:104E8000A1FCDDE90F010E9A03910021049100922B
:104E9000BA4621070CD40399514500DA8A46BAF183
:104EA000010F05DD009AAAF10101515C302908D0FB
:104EB000B84202DA10F1040F06DA0121CDE901103F
:104EC00015E0AAF10101E9E7002805DC0499014495
:104ED0000491AAEB000102E0411C514500DD8A4625
:104EE0000499401A401C01904FF0004002902007A6
:104EF00004D40198504501DBCDF8048000208DF8E2
:104F00004F0002980DF14F07B0F1004F25D02B2034
:104F10000E9002984FF0020800280CDA40420290EE
:104F20002D200E9007E00A210298FFF78CF930310E
:104F3000029007F8011DB8F10001A8F10108F2DCA8
:104F400002980028EFD1791E0E980870307800F092
:104F5000200040F0450007F8020D12A8C01B00F128
:104F600007081498007800B1012000EB0A010198AD
:104F700001EBE07105984144401A401E0590E003A2
:104F800006D45B462146179A059800F05DF8054463
:104F90001498007818B15A46179990476D1CE00391
:104FA00024D55B462146179A059800F04DF8054434
:104FB0001CE00498002807DBDDE90301884203DDDB
:104FC0000098405C179901E0179930205A469047A5
:104FD000049805F10105401C04900198401E0190C1
:104FE00004D12E205A46179990476D1CBAF1000142
:104FF000AAF1010ADDDC05E017F8010B5A46179902
:1050000090476D1CB8F10001A8F10108F4DC5B4683
:105010002146179A0598ABE62D0000002B000000F2
:10502000200000002DE9F041044600251E461746E9
:10503000880404D405E039462020B0476D1C641E66
:10504000F9D52846BDE8F0812DE9F0410446002558
:105050001E469046C80301D5302700E0202788046B
:1050600004D505E041463846B0476D1C641EF9D5AD
:105070002846BDE8F08100000010000088500008BC
:1050800088D00008C00F00000000803F0000000032
:10509000ECFF7F3FD40FC93AB1FF7F3FC70F493BB9
:1050A0004EFF7F3FC1CB963BC4FE7F3F890FC93B7C
:1050B00013FE7F3F3053FB3B39FD7F3F59CB163CFE
:1050C00039FC7F3F02ED2F3C11FB7F3F900E493CA6
:1050D000C1F97F3F0030623C4AF87F3F4B517B3C37
:1050E000ACF67F3F38398A3CE6F47F3FB6C9963C40
:1050F000F8F27F3F1C5AA33CE3F07F3F69EAAF3CE4
:10510000A7EE7F3F9B7ABC3C43EC7F3FB00AC93C93
:10511000B8E97F3FA69AD53C05E77F3F7B2AE23C72
:105120002BE47F3F2DBAEE3C29E17F3FB949FB3CA0
:1051300000DE7F3F90EC033DAFDA7F3F2F340A3D26
:1051400037D77F3FB87B103D98D37F3F2CC3163DA8
:10515000D1CF7F3F880A1D3DE2CB7F3FCC51233D1D
:10516000CCC77F3FF698293D8FC37F3F07E02F3D97
:105170002ABF7F3FFC26363D9EBA7F3FD56D3C3D22
:10518000EAB57F3F91B4423D0FB17F3F2FFB483DD1
:105190000DAC7F3FAF414F3DE3A67F3F0E88553DAD
:1051A00091A17F3F4CCE5B3D189C7F3F6814623DD0
:1051B00078967F3F625A683DB1907F3F38A06E3D40
:1051C000C28A7F3FE9E5743DAB847F3F742B7B3D12
:1051D0006D7E7F3F6CB8803D08787F3F0ADB833D62
:1051E0007B717F3F94FD863DC76A7F3F0A208A3DE1
:1051F000EC637F3F6A428D3DE95C7F3FB464903D44
:10520000BF557F3FE786933D6D4E7F3F05A9963D95
:10521000F4467F3F0ACB993D543F7F3FF9EC9C3DDC
:105220008D377F3FCF0EA03D9D2F7F3F8C30A33D1C
:1052300087277F3F3052A63D491F7F3FBA73A93D64
:10524000E4167F3F2B95AC3D580E7F3F80B6AF3DB7
:10525000A4057F3FBBD7B23DC9FC7E3FDAF8B53D20
:10526000C7F37E3FDD19B93D9DEA7E3FC33ABC3DA1
:105270004CE17E3F8D5BBF3DD4D77E3F397CC23D44
:1052800034CE7E3FC69CC53D6DC47E3F36BDC83D15
:105290007FBA7E3F86DDCB3D69B07E3FB7FDCE3D18
:1052A0002DA67E3FC81DD23DC99B7E3FB93DD53D51
:1052B0003D917E3F895DD83D8B867E3F377DDB3DCE
:1052C000B17B7E3FC49CDE3DB0707E3F2EBCE13D95
:1052D00088657E3F76DBE43D385A7E3F9AFAE73DAB
:1052E000C14E7E3F9A19EB3D23437E3F7638EE3D1B
:1052F0005E377E3F2E57F13D722B7E3FC075F43DE9
:105300005E1F7E3F2C94F73D24137E3F73B2FA3D1F
:10531000C2067E3F92D0FD3D38FA7D3F4577003E84
:1053200088ED7D3F2E06023EB1E07D3F0295033EB3
:10533000B2D37D3FC223053E8CC67D3F6EB2063E92
:1053400040B97D3F0541083ECCAB7D3F86CF093E4D
:10535000309E7D3FF35D0B3E6E907D3F4AEC0C3EF0
:1053600085827D3F8B7A0E3E74747D3FB708103E78
:105370003D667D3FCC96113EDE577D3FCA24133EED
:1053800059497D3FB2B2143EAC3A7D3F8340163E50
:10539000D82B7D3F3DCE173EDD1C7D3FE05B193EA7
:1053A000BC0D7D3F6BE91A3E73FE7C3FDE761C3EF2
:1053B00003EF7C3F38041E3E6CDF7C3F7B911F3E39
:1053C000AECF7C3FA51E213EC9BF7C3FB6AB223E7F
:1053D000BDAF7C3FAD38243E8A9F7C3F8CC5253EC7
:1053E000318F7C3F5152273EB07E7C3FFCDE283E11
:1053F000086E7C3F8D6B2A3E3A5D7C3F04F82B3E65
:10540000444C7C3F61842D3E283B7C3FA2102F3EC4
:10541000E5297C3FC99C303E7A187C3FD428323E37
:10542000E9067C3FC4B4333E31F57B3F9840353EBE
:1054300053E37B3F50CC363E4DD17B3FEC57383E5B
:1054400020BF7B3F6CE3393ECDAC7B3FCF6E3B3E14
:10545000539A7B3F15FA3C3EB2877B3F3E853E3EEA
:10546000EA747B3F4910403EFC617B3F379B413EE5
:10547000E74E7B3F0726433EAB3B7B3FB9B0443E04
:1054800048287B3F4D3B463EBE147B3FC2C5473E4E
:105490000E017B3F1850493E37ED7A3F4FDA4A3EC6
:1054A0003AD97A3F67644C3E16C57A3F60EE4D3E6E
:1054B000CBB07A3F38784F3E599C7A3FF101513E4C
:1054C000C1877A3F898B523E02737A3F0115543E61
:1054D0001C5E7A3F589E553E10497A3F8F27573EB3
:1054E000DD337A3FA4B0583E841E7A3F97395A3E46
:1054F00004097A3F6AC25B3E5EF3793F1A4B5D3E18
:1055000091DD793FA8D35E3E9DC7793F135C603E35
:1055100083B1793F5CE4613E439B793F836C633E9A
:10552000DC84793F86F4643E4E6E793F667C663E4D
:105530009A57793F2204683EC040793FBA8B693E52
:10554000BF29793F2F136B3E9812793F7F9A6C3EAB
:105550004AFB783FAB216E3ED6E3783FB2A86F3E60
:105560003BCC783F942F713E7BB4783F51B6723E6E
:10557000939C783FE83C743E8684783F5AC3753EDE
:10558000526C783FA649773EF853783FCCCF783EAF
:10559000773B783FCB557A3ED122783FA4DB7B3EE8
:1055A000040A783F56617D3E10F1773FE1E67E3E8A
:1055B000F7D7773F2236803EB7BE773FC0F8803EB0
:1055C00051A5773F4ABB813EC58B773FC07D823E68
:1055D0001372773F2240833E3A58773F7002843EF1
:1055E0003C3E773FAAC4843E1724773FCE86853E53
:1055F000CC09773FDF48863E5BEF763FDA0A873E8D
:10560000C4D4763FC1CC873E07BA763F938E883E9E
:10561000249F763F5050893E1B84763FF8118A3E86
:10562000EC68763F8AD38A3E974D763F07958B3E4E
:105630001B32763F6E568C3E7A16763FC0178D3EF3
:10564000B3FA753FFCD88D3EC6DE753F229A8E3E7A
:10565000B3C2753F325B8F3E7BA6753F2C1C903EDC
:105660001C8A753F10DD903E976D753FDD9D913E24
:10567000ED50753F945E923E1D34753F351F933E4D
:105680002717753FBFDF933E0BFA743F31A0943E5E
:10569000C9DC743F8D60953E62BF743FD220963E58
:1056A000D5A1743F00E1963E2284743F17A1973E36
:1056B0004966743F1661983E4B48743FFE20993E00
:1056C000272A743FCEE0993EDD0B743F86A09A3EB8
:1056D0006EED733F27609B3ED9CE733FAF1F9C3E5C
:1056E0001FB0733F20DF9C3E3F91733F789E9D3EED
:1056F0003972733FB85D9E3E0E53733FDF1C9F3E71
:10570000BE33733FEEDB9F3E4714733FE59AA03EE6
:10571000ACF4723FC259A13EEBD4723F8718A23E4F
:1057200004B5723F33D7A23EF894723FC595A33EAD
:10573000C774723F3F54A43E7054723F9F12A53EFF
:10574000F433723FE5D0A53E5213723F128FA63E4E
:105750008CF2713F254DA73E9FD1713F1F0BA83E94
:105760008EB0713FFEC8A83E578F713FC486A93ED8
:10577000FB6D713F6F44AA3E7A4C713F0102AB3E14
:10578000D42A713F77BFAB3E0809713FD47CAC3E51
:1057900017E7703F153AAD3E02C5703F3CF7AD3E8E
:1057A000C6A2703F49B4AE3E6680703F3A71AF3ECC
:1057B000E15D703F102EB03E373B703FCBEAB03E0C
:1057C0006718703F6BA7B13E73F56F3FEF63B23E52
:1057D0005AD26F3F5820B33E1BAF6F3FA5DCB33E9C
:1057E000B88B6F3FD698B43E30686F3FEC54B53EEF
:1057F00083446F3FE610B63EB0206F3FC3CCB63E49
:10580000BAFC6E3F8488B73E9ED86E3F2A44B83EAD
:105810005DB46E3FB2FFB83EF88F6E3F1EBBB93E1F
:105820006D6B6E3F6E76BA3EBE466E3FA031BB3E9C
:10583000EB216E3FB6ECBB3EF2FC6D3FAFA7BC3E2A
:10584000D5D76D3F8B62BD3E93B26D3F4A1DBE3EC4
:105850002D8D6D3FEBD7BE3EA1676D3F6F92BF3E72
:10586000F2416D3FD54CC03E1D1C6D3F1E07C13E31
:1058700024F66C3F48C1C13E07D06C3F557BC23E09
:10588000C5A96C3F4435C33E5E836C3F15EFC33EF4
:10589000D45C6C3FC8A8C43E24366C3F5C62C53EF5
:1058A000500F6C3FD21BC63E58E86B3F29D5C63E11
:1058B0003BC16B3F628EC73EFB996B3F7C47C83E46
:1058C00095726B3F7700C93E0C4B6B3F53B9C93E95
:1058D0005E236B3F1072CA3E8CFB6A3FAE2ACB3E02
:1058E00095D36A3F2CE3CB3E7BAB6A3F8B9BCC3E90
:1058F0003C836A3FCA53CD3ED95A6A3FEA0BCE3E3B
:1059000052326A3FEAC3CE3EA7096A3FCA7BCF3E06
:10591000D7E0693F8A33D03EE4B7693F2AEBD03EF7
:10592000CC8E693FAAA2D13E9165693F095AD23E09
:10593000323C693F4811D33EAE12693F67C8D33E3F
:1059400007E9683F647FD43E3CBF683F4136D53E9F
:105950004C95683FFDECD53E396B683F99A3D63E28
:105960000341683F135AD73EA816683F6B10D83ED4
:105970002AEC673FA3C6D83E87C1673FB97CD93EB2
:10598000C196673FAD32DA3ED86B673F80E8DA3EBA
:10599000CA40673F319EDB3E9915673FC153DC3EED
:1059A00045EA663F2E09DD3ECCBE663F79BEDD3E50
:1059B0003093663FA273DE3E7167663FA928DF3EE3
:1059C0008E3B663F8DDDDF3E880F663F4F92E03EA7
:1059D0005EE3653FEE46E13E10B7653F6AFBE13EA0
:1059E000A08A653FC4AFE23E0B5E653FFA63E33ECB
:1059F0005431653F0E18E43E7904653FFECBE43E2A
:105A00007BD7643FCB7FE53E59AA643F7533E63EC2
:105A1000147D643FFBE6E63EAC4F643F5D9AE73E93
:105A20002122643F9C4DE83E73F4633FB700E93E9A
:105A3000A1C6633FAEB3E93EAC98633F8166EA3EE0
:105A4000956A633F3019EB3E5A3C633FBBCBEB3E5C
:105A5000FC0D633F217EEC3E7BDF623F6330ED3E19
:105A6000D7B0623F80E2ED3E1082623F7994EE3E15
:105A70002653623F4C46EF3E1A24623FFBF7EF3E4F
:105A8000EAF4613F85A9F03E98C5613FEA5AF13ECC
:105A90002296613F290CF23E8A66613F43BDF23E89
:105AA000D036613F386EF33EF206613F071FF43E89
:105AB000F2D6603FB1CFF43ECFA6603F3580F53ED1
:105AC0008976603F9330F63E2146603FCBE0F63E5C
:105AD0009615603FDC90F73EE9E45F3FC840F83E32
