:020000040800F2
:100000007004002099010008EB070008AD07000804
:10001000E90700083D030008C50B000800000000C8
:10002000000000000000000000000000250A000899
:100030003F03000800000000BD080008550B000841
:10004000B3010008B3010008B3010008B3010008C0
:10005000B3010008B3010008FD030008B301000864
:10006000B3010008B3010008B3010008B3010008A0
:10007000B3010008B3010008B3010008B301000890
:10008000B3010008B3010008B3010008B301000880
:10009000B3010008B3010008B3010008B301000870
:1000A000B3010008B3010008B3010008B301000860
:1000B000B3010008B3010008B3010008B301000850
:1000C000B3010008B3010008B3010008B301000840
:1000D000B3010008B3010008B3010008B301000830
:1000E00049040008B3010008B3010008B301000887
:1000F000B3010008B3010008B3010008B301000810
:10010000B3010008B3010008B3010008B3010008FF
:10011000B3010008B3010008B3010008B3010008EF
:10012000B3010008B3010008B3010008B3010008DF
:10013000B3010008B3010008B3010008B3010008CF
:1001400000000000000000000000000000000000AF
:10015000B3010008B3010008B3010008B3010008AF
:10016000B3010008B3010008B3010008B30100089F
:10017000B3010008B3010008B3010008B30100088F
:10018000B3010008DFF80CD000F018F80048004771
:10019000E90B000870040020064880470648004725
:1001A000FEE7FEE7FEE7FEE7FEE7FEE7FEE7FEE727
:1001B000FEE7FEE7590B000885010008064C074DD5
:1001C00006E0E06840F0010394E807009847103427
:1001D000AC42F6D3FFF7DAFF0C0D00082C0D000837
:1001E00038B504460C48012150F8240000F068FBA3
:1001F000684600F0D3FA08481E3830F81400ADF80D
:10020000000028208DF8030003486946083850F89C
:10021000240000F005FA38BD3000002010B500F0D1
:100220008FF8012000F018F8022000F015F80320E4
:1002300000F012F8012000F031F8022000F02EF852
:10024000032000F02BF80020FFF7CAFFBDE81040A4
:100250000120FFF7C5BF000038B504460E48012154
:1002600050F8240000F02CFB684600F097FA0A488A
:10027000283830F81400ADF8000010208DF8030085
:1002800002208DF8020004486946103850F8240016
:1002900000F0C6F938BD000048000020032809D846
:1002A000054931F81010002904D0034A183252F8D9
:1002B00020000161704700002000002003280BD8B7
:1002C000064931F81010002906D0044A183252F8B5
:1002D0002000C2684A40C260704700002000002031
:1002E0003EB504461448015D801E005D00F04AF9E9
:1002F00001A800F03FF91048801C30F8140001906C
:1003000000208DF8080001258DF80A5008208DF88E
:10031000090001A800F0CEF80748801D10F814006D
:100320008DF800008DF803508DF801508DF80250C3
:10033000684600F05BFA3EBD04000020FEE770470F
:1003400010B56FF0040000F0CFFB0A48DFED0A0A99
:1003500090ED000A0948B8EE400A80EE201A80EDC0
:10036000021A90ED020ADFED060A20EE200A80ED67
:10037000030A10BD580000200024F44A1000002099
:1003800000007A4430B51B4D00244FF0E0222EE0EF
:10039000B0F5FA7F0ED995ED030ADFED170A20EECE
:1003A000200ABCEEC00A10EE101A5161A0F5FA70D6
:1003B00080B20DE000EE100AD5ED030AB8EE400A57
:1003C00020EE200ABCEEC00A10EE100A5061002098
:1003D0009461116941F0010111611169CB0701D0EC
:1003E000C903FAD5116921F0010111619461002856
:1003F000CED130BD100000200000FA4310B505201A
:10040000FFF7C0FF0D48841F217830F8110000F07D
:1004100041F80B48217850F8210000F099F909497A
:10042000227831F81210814304D16078042802D078
:100430000420607010BD0120607010BD0600002017
:10044000280000201200002010B50520FFF79AFFB9
:100450000D48841F217830F8110000F01BF80B487C
:10046000217850F8210000F073F90949227831F819
:100470001210814304D16078042802D004206070F7
:1004800010BD0120607010BD060000202800002073
:100490001200002010B50446200D00D11CB9F42133
:1004A000024800F09FFB0248046010BD400C0008A9
:1004B0001404014070B504462079002805D00428B2
:1004C00003D05F21294800F08DFB6079082807D010
:1004D0000C2805D0102803D06021244800F082FBAE
:1004E0002068010D00D118B96121204800F07AFB85
:1004F000A07928B1012803D062211C4800F072FBCA
:100500001B49A07958B30868226890430860081D09
:10051000026823689A4302602079084402682368CD
:100520001A430260124A0832106823689843106028
:10053000131D18682568A84318606079102805D035
:100540000844016822681143016070BD1068216889
:1005500008431060186821680843186070BD20794E
:100560000844016822689143016070BD400C000896
:10057000000401400021016001710C22427181716F
:100580007047000070B505460C46002D10D0012DB7
:100590000ED0022D0CD0032D0AD0042D08D0052D2D
:1005A00006D0062D04D040F26A411B4800F01AFB29
:1005B00014B3012C20D0022C1ED0032C1CD0042CF0
:1005C0001AD0052C18D0062C16D0072C14D0082CC5
:1005D00012D0092C10D00A2C0ED00B2C0CD00C2CC5
:1005E0000AD00D2C08D00E2C06D00F2C04D040F2CF
:1005F0006B41094800F0F6FAA007010F0F228A406C
:10060000064824F003031844836893438360826898
:100610008D402A43826070BD840C000800000140B8
:100620002DE9F04704460D460026434884420FD08A
:10063000424884420CD04248844209D04148844216
:1006400006D04148844203D0AC21404800F0CAFAA9
:10065000E87888B104280FD028280DD048280BD07E
:10066000142809D0102807D01C2805D0182803D03A
:10067000AD21364800F0B6FA288818B9AE213348C3
:1006800000F0B0FAE87800F00F07C0060AD5A878A5
:10069000012805D0022803D0B6212C4800F0A2FA88
:1006A000A878074328784FF00F0310F0FF0F4FF0A2
:1006B000010C1CD020680CFA06F12A880A408A42F4
:1006C00011D1B20003FA02F820EA080007FA02F892
:1006D00048EA0000EA78282A02D0482A02D002E03C
:1006E000616100E02161761C082EE4D32060288837
:1006F000FF281ED96268002000F108060CFA06F1F6
:100700002E880E408E4210D1860003FA06F822EAA7
:10071000080907FA06F242EA0902EE78282E00D10B
:100720006161EE78482E00D12161401C0828E3D396
:100730006260BDE8F087000000080140000C014045
:10074000001001400014014000180140840C000812
:1007500010B504460B48844210D00B4884420DD09B
:100760000A4884420AD00A48844207D00948844291
:1007700004D040F23B11084800F034FAA06880B27F
:1007800010BD000000080140000C014000100140B5
:100790000014014000180140840C00084FF6FF715E
:1007A0000180022181700421C1707047FEE70000C2
:1007B00008B50121042000F083F84FF48070ADF8F3
:1007C000000002208DF8020018208DF80300694611
:1007D0000448FFF725FF4FF080514FF0A05000F084
:1007E00093F808BD00080140FEE7704770B5044665
:1007F0000F25E078002805D0012803D069211FA02B
:1008000000F0F0F96078102803D36A211BA000F0F3
:10081000E9F9A078102803D36B2118A000F0E2F9C1
:10082000E0780123F8B12448006800F4E060C0F5E6
:10083000E060000AC0F10402C54061789140A078F0
:10084000284008430001217801F1E02181F80004EB
:10085000207800F01F018B404009800000F1E0206B
:10086000C0F8003170BD207800F01F018B404009B6
:10087000800000F1E020C0F8803170BD2E2E5C2E8B
:100880002E5C2E2E5C2E2E5C4C6962726172696544
:10089000735C41543332463478785F5374645065E6
:1008A000726970685F4472697665725C7372635CCA
:1008B0006D6973632E6300000CED00E0704700006B
:1008C00070B504460D460D48044200D124B940F2EB
:1008D0005D310B4800F086F935B1012D04D040F2AE
:1008E0005E31074800F07EF906481DB18169214359
:1008F000816170BD8169A143816170BD820107F88A
:10090000C80C00080010024070B504460D46002CCB
:100910001FD0B4F1A06F1CD0B4F1806F19D0B4F126
:10092000C06F16D0B4F1E06F13D0B4F1A05F10D057
:10093000B4F1A85F0DD0B4F1B05F0AD0B4F1007F7C
:1009400007D0B4F1407F04D040F25441254800F074
:1009500049F9B5F1805F1CD0B5F1004F19D0B5F160
:10096000104F16D0B5F1204F13D0B5F1304F10D045
:10097000B5F1404F0DD0B5F1504F0AD0B5F1604FF1
:1009800007D0B5F1704F04D040F25541154800F042
:1009900029F91548016B21F070410163016B29436E
:1009A0000163210F13D00121B1EB147F0ED1016B34
:1009B00021F480310163016B41F4803101634168AE
:1009C00021F0E06224F070411143416070BD016B81
:1009D00021F480310163416821F0E06121434160ED
:1009E00070BD0000C80C00080010024010B504469D
:1009F000002C06D0012C04D04FF4A261074800F06F
:100A0000F1F80748012C04D0416D21F03001416517
:100A100010BD416D41F03001416510BDC80C0008AA
:100A200000100240704700F001B800001CB5002122
:100A300001910091294C206840F4803020604FF4EF
:100A40004052206800F4003000900198401C019052
:100A5000009810B901989042F3D12068800302D524
:100A60000120009000E000910098012835D16068D5
:100A70006060606820F460506060606840F400501E
:100A80006060606820F4E0606060606840F48060EE
:100A900060606068124908406060606811490843FE
:100AA0006060206840F08070206020688001FCD584
:100AB0000120FFF79BFF606820F003006060606822
:100AC00040F0020060606068C0F381000228FAD143
:100AD000BDE81C400020FFF789BF1CBD001002408C
:100AE000FFFFC01F000035A010B50446042C05D040
:100AF000601D03D0BE2108A000F074F84FF0E02084
:100B0000042C04D0016921F00401016110BD0169C8
:100B100041F00401016110BD2E2E5C2E2E5C2E2EA4
:100B20005C2E2E5C4C69627261726965735C415423
:100B30003332463478785F537464506572697068F4
:100B40005F4472697665725C7372635C6D6973632E
:100B50002E6300007047000010B51448016841F48E
:100B6000700101601248016841F0010101604168B3
:100B7000104A1140416001680F4A1140016001684C
:100B800021F48021016041680C4A11404160016BF1
:100B90000B4A114001634FF41F018160FFF743FFCF
:100BA00002494FF000608039086010BD88ED00E018
:100BB000001002400C00FFE8FFFFF6FEFFFF0017E9
:100BC00000FFFEFEFEE702E008C8121F08C1002A6F
:100BD000FAD170477047002001E001C1121F002ABE
:100BE000FBD17047FEE70000144C0020207001216B
:100BF0000846FFF765FEFFF711FBFFF7D9FD2078E8
:100C0000FFF76EFB0120FFF759FB6078642110FBB2
:100C100001F0FFF7B7FB0220FFF750FB607864217B
:100C200010FB01F0FFF7AEFB0320FFF747FB6078F6
:100C3000642110FB01F0FFF7A5FBE3E700000020B3
:100C40002E2E5C2E2E5C2E2E5C2E2E5C4C6962723B
:100C500061726965735C41543332463478785F530E
:100C600074645065726970685F4472697665725C1D
:100C70007372635C61743332663478785F6578745C
:100C8000692E63002E2E5C2E2E5C2E2E5C2E2E5C8A
:100C90004C69627261726965735C415433324634E7
:100CA00078785F5374645065726970685F447269E4
:100CB0007665725C7372635C617433326634787823
:100CC0005F6770696F2E63002E2E5C2E2E5C2E2EB9
:100CD0005C2E2E5C4C69627261726965735C415472
:100CE0003332463478785F53746450657269706843
:100CF0005F4472697665725C7372635C61743332EF
:100D0000663478785F7263632E6300002C0D0008F0
:100D1000000000206C000000C60B0008980D0008C1
:100D20006C00002004040000D60B00080001000243
:100D3000000D010000200600280000000100010055
:100D40000020000000000000000000000000002063
:100D50000040008000080140001001400400000035
:100D600010000000000000000014014000140140C9
:100D700000140140000000002000000020000000DE
:100D800020000000001C4E0E0000000000000000CB
:080D9000010203040607080933
:040000050800018569
:00000001FF
