:020000040800F2
:10000000501F002081450008A9440008AB440008A7
:10001000AD440008AF440008B144000800000000EF
:10002000000000000000000000000000B3440008D1
:10003000B544000800000000B7440008B9440008B7
:100040009D450008A1450008A5450008A9450008F0
:10005000BB440008AD450008B1450008B54500089F
:10006000B9450008BD450008C1450008C545000860
:10007000C9450008CD450008D1450008D545000810
:10008000D9450008DD450008E1450008E5450008C0
:10009000E9450008ED450008F1450008F545000870
:1000A000F9450008FD45000801460008054600081E
:1000B000094600080D4600081146000815460008CC
:1000C000194600081D46000821460008254600087C
:1000D000294600082D46000831460008354600082C
:1000E000394600083D4600084146000845460008DC
:1000F000494600084D46000851460008000000002F
:1001000000000000554600085946000800000000A5
:100110005D46000861460008000000000000000085
:1001200065460008694600086D46000871460008EB
:1001300000000000000000000000000000000000BF
:1001400000000000000000000000000000000000AF
:1001500075460008794600087D460008814600087B
:1001600085460008894600088D460008914600082B
:10017000120001102AD9AB173F1504C2BD15EF4379
:100180003E0000803F09B8D53EF304B53E72ADA0F5
:100190003FD7B35D3F5E83EC3EB2E4A83F8D6597E9
:1001A0003F2F31082110211821202128213021380A
:1001B0002140214821502158113012800812BF10CF
:1001C000123D1812BE0F12BF2812BE3012BE3812D6
:1001D000BF4012BF4812BE5012BF5812BF30310884
:1001E00021102118212021282130213821402148A7
:1001F00021502158F152C0F2FF00C0D1C0FAFF8057
:1002000040F5BE80F1CCC02120109180878DBAE9E5
:100210005C49BAEDEC4FB94A1F8738A9AB083B4A95
:10022000C6713BB6D3CF3AE03B2CBBF5BBF8BB0560
:100230009C43BC57FE0DBC6CC9113C5159303D3A32
:1002400092C73DB037323EDD49893E1EE2BF3E4790
:100250008AFA3EE6371A3F2AB4343F5FFD4B3F89A6
:10026000205F3F86836D3F27DD773FE2537E3F7EF1
:1002700027803F1D1A7E3FEED8773FDAFA6C3FC3E6
:100280002E5E3F75954B3F6660353F5E291C3F945F
:1002900053003F1152C43E92BB843E5C2106C813FA
:1002A00000800812BE1012BE1812BE2012BF281203
:1002B000BF3012BF3812BF4012BF4812BF503006C5
:1002C000BFE0607EBFAA40800821102118212021B4
:1002D0002821302138214021482150215821F8215E
:1002E0006821702178218021882190219821A021E6
:1002F000A821B01158123F603108F1FFC0F18AC047
:10030000F2FF00C0D1C0F6F38080214870020010D7
:10031000014004210F91044008000004000800205F
:1003200000000820520418130100152001B0710BC1
:0103300022AA
:103000002DE9F84C2DED068B154603B4C1F30A509B
:1030100040F2FF7188420CD101980024000304BFE4
:103020000098002802D1019800281BD4DDE9000196
:1030300013E101280FDA00A800F056F901280ADB95
:1030400000F074F92221016002B00020BDEC068B73
:103050008449BDE8F48C019A40F2FE3161F31E52BE
:103060000192441A019800280CD500F05FF9212143
:10307000016002B04FF0FF30BDEC068B6FF00041F5
:10308000BDE8F48CDDE90001774A784B00F054F993
:1030900009D2DDE9002300204FF0804100F064F9FF
:1030A000CDE90001641EDDE900230020704900F035
:1030B0002DFADDE9002341EC180B00206D4900F0EA
:1030C00025FA02460B4651EC180B00F093FA41EC3E
:1030D000190B53EC192B00F047F941EC1A0B53EC88
:1030E0001A2B6548654900F03FF9654A654B00F0C9
:1030F0000DFA53EC1A2B00F037F9634A634B00F0DA
:1031000005FA53EC1A2B00F02FF9614A614B00F0DD
:10311000FDF953EC1A2B00F027F95F4A5F4B00F0E2
:10312000F5F953EC1A2B00F01FF95D4A5D4B00F0E6
:10313000EDF953EC1A2B00F017F95B4A5B4B00F0EA
:10314000E5F953EC1A2B00F00FF902460B4651EC4F
:10315000180B00F07BFB53EC192B00F005F941EC48
:10316000190B20B200F032FC41EC1A0BCDB953EC34
:103170001A2B4F484F4900F0F7F853EC192B00F089
:1031800065FB53EC182B00F0C1F904460D4653ECD7
:103190001A2B4FF04040484900F0E6F822462B46F3
:1031A00059E0012D53EC182B34DB0020434900F08B
:1031B000DBF882468B4653EC182B4148414900F01E
:1031C000D3F806460F4653EC1A2B3F483F4900F010
:1031D000CBF804460D4653EC192B3D48374900F017
:1031E000C3F802460B462046294600F02FFB324624
:1031F0003B4600F08BF952465B4600F087F90446E7
:103200000D4653EC1A2B0020324900F0ADF822464F
:103210002B4620E04FF0C0402F4900F0A5F80446AF
:103220000D4653EC182B2D482D4900F09DF806460D
:103230000F4653EC192B2B48274900F095F802460E
:103240000B463046394600F001FB22462B4600F083
:103250005DF953EC1A2B00F059F902B0BDEC068B66
:10326000BDE8F48C0000F0FFCD3B7F669EA0E63FFA
:103270000000F0BF0000F03FF7DE29BFD8F8C23FE2
:10328000F4B3FECC1A99C33F62CB68D96F46C73FEF
:10329000C6C912DAC471CC3F4AE98A942449D23FA4
:1032A000F75F97999999D93FBC5555555555E53FC5
:1032B0009EBC9AF71C7D7F3E422EE63F7BCBDB3FD8
:1032C000ABA6320EE526553E7CC4BC7FDE27743E9D
:1032D0000EE526151344D33F4715F73F44DF5DF84D
:1032E0000BAE543EFE822B6530B4436803F00042BF
:1032F00001211B031B0B436004BF0368002B08D193
:103300000DE00368DD0F45EA440444605B000360A0
:10331000491E4468E302F4D523031B0B4360436852
:103320001A434260084630BC70470000014800F074
:1033300063BB0000400A00204FF4001C1CEB410F4F
:1033400094BF1CEB430F09E041EA030C50EA4C0C1C
:1033500052EA0C0C03D2994208BF9042704714BF46
:103360008B42824270470000B0B581EA030C0CF03A
:10337000004C40F2FF7515EA11541DBF15EA1357B2
:10338000AC42AF4239E0E41923EA455343F48013D9
:10339000C90241F0004141EA505EC7021100A7FB9B
:1033A000020200284FF00000EEFB01204FF0000168
:1033B000E3FB072118BF42F00102401800214941F8
:1033C000E3FB0E01A4F580640F0302D252004041DA
:1033D000494154F101046CDD470872F1004250F19B
:1033E000000051EB0451A1F580115CBF41EA0C01D2
:1033F000B0BD4CEA05510020B0BD05EA1357AC4200
:1034000014BFAF4241E050EA410E1CBF52EA430EE6
:1034100002E061460020B0BD24423C441BD15FEA7B
:10342000070EF6D0090302BF01460020AEF1140ECC
:10343000B1FA81F7AEEB070401FA07FE0C37C7F1CA
:10344000200100FA07F7C8404EEA000E23EA455370
:1034500043F48013A2E733F00043B3FA83F704BFC9
:10346000B2FA82FE77440B3FE41BB7F1200E2FBF68
:1034700002FA0EF3BB40C7F1200E22FA0EFE38BF4F
:1034800043EA0E03BA40641C82E750EA410E14BFBF
:1034900052EA430E6FF000014FF4001717EB430F91
:1034A0008ABF194617EB410FB5E74CEA05510020DA
:1034B000B0BDD4F10104B4F120070FDAC4F1200744
:1034C000520828BF42F0010210FA07F501FA07F787
:1034D000E1BF2A43E0403843E1400FE0352C98DC5F
:1034E000C7F1200452EA400220FA07F218BF42F066
:1034F000010231FA07F0A1400A43002172F10042B3
:1035000050F1000051EB0C01B0BD0000F0B44FF0E1
:10351000004591EA030C44BF6B4000F0A1B900BF25
:10352000841A71EB030603D2001BB14112197341D7
:103530004FF4001C1CEB410F34BF7CEB430443E011
:103540000C0DA4EB1356352E50DC45EAC323DB0AE1
:1035500045EAC121C912B6F120050DDD63FA05F671
:10356000EB4086EA0305124218BF45F00105C0187A
:1035700051F100010CD213E062FA06F5F240554019
:10358000F3415A40B340F3405A408018594107D3A1
:1035900049085FEA30005FEA350528BF45F00105BC
:1035A00001F58011420875F1004250F1000041EB35
:1035B0000451F0BC4FF4001C1CEB410F38BF7047A6
:1035C0000020090D090570471CEB410F10D252EA8B
:1035D00043060BD0BCEB410F05D80C0DAB43661E68
:1035E000342EB5DD02E0AB4380185941F0BC704782
:1035F000F0BC70472DE9F04140F2FF7581EA030C01
:103600000CF0004C15EA11541DBF15EA1357AC42DB
:10361000AF42E9E0BC41C1F31301C3F31303801AC5
:10362000994143F4801304D2641E4000494180183C
:103630005941C90241EA5051B1FBF3F603FB16119F
:10364000A2FB0675D7EBC020A94102D2761E8018D6
:103650005941C90241EA5051B1FBF3FE03FB1E116F
:10366000A2FB0E75D7EBC020A94103D2AEF1010E2B
:1036700080185941890241EA9051760546EA8E2E1A
:10368000B1FBF3F603FB1611A2FB0675D7EB802006
:10369000A94102D2761E80185941C90241EA50510F
:1036A0004EEA060EB1FBF3F603FB1611A2FB0675FC
:1036B000D7EBC020A94102D2761E80185941C90219
:1036C00041EA5051B1FBF3F703FB1711A2FB073599
:1036D000D3EBC020A94167F100070CBF004247F0BF
:1036E000010766F3D5274FEA1E31B80814F5806448
:1036F00014DDBD0775F1004250EB0E5051EB045143
:1037000011F5801F5CBF41EA0C01BDE8F0814CF06F
:103710007F6141F0E0410020BDE8F081BD076D0808
:1037200040EA0E5041F48011D4F10104B4F12006B6
:103730000ADAC4F120060200E04001FA06F3E14093
:103740001843B24015430EE0342C14DCC6F12004BB
:1037500045EA40056D0820FA06F2154321FA06F005
:10376000A1400D43002175F1004250F1000051EBE2
:103770000C01BDE8F08100205FEA0C01BDE8F0819A
:10378000CFB992185B41B3FA83F704BFB2FA82F65D
:10379000BF190B3FB7F120062FBF02FA06F3BB405B
:1037A000C7F1200622FA06F638BF3343BA401CB1EF
:1037B000E419641E2FE77F4231F00041B1FA81F431
:1037C00004BFB0FA80F6A4190B3CB4F120062FBF59
:1037D00000FA06F1A140C4F1200620FA06F638BF2F
:1037E0003143A0403C1B16E7AC421ABF05EA135711
:1037F000AF4214E050EA41061CBF52EA4306BFE75D
:1038000050EA4107304661461CBF41EA0551BDE818
:10381000F08152EA430C08BFC143BDE8F0810020AB
:103820004FF4001616EB410F98BF16EB430F08BF7D
:1038300016EB410F24BFC14305E016EB430F0CBF4D
:1038400061464CEA0551BDE8F0810000F0B44FF04C
:10385000004591EA030F44BF6B40FFF761BE00BF14
:10386000841A71EB030604D26E40001BB141121999
:1038700073414FF4001C1CEB410F34BF7CEB43063B
:1038800084E00C0DA4EB1356362E7DDC012E43DCB8
:1038900045EAC32343EA525312BFD20292025B08A5
:1038A000240545EAC12141EA5051D2EBC02099419B
:1038B00025D407D1B0FA80F610FA06F164D00020C2
:1038C000203608E0B1FA81F6B140C6F1200220FAB4
:1038D00002F21143B0404FEAF474B4EB465434F0B2
:1038E00001064FEA74040AD8D6F50016760D04F0E6
:1038F0000044F04061FA06F25040F1404840C00AEE
:1039000040EA415021F0004128BF5FEA500550F1E4
:10391000000044EBD12137E045EAC323DB0A45EA46
:10392000C121C90AB6F120050EDD42EA0242120C9D
:10393000C5F1200603FA06F6EB4042EA06056D42A1
:10394000984161F100010DE062FA06F5F240554040
:1039500063FA06FC82EA0C02F3405A406D42904141
:1039600061EB030111F4801F05D1641E620502D0D2
:103970006D004041494121F48011430875F1004335
:1039800050F1000041EB0451F0BC70471CEB410FBB
:1039900015D223F0004352EA43060BD04FEA4C0CF9
:1039A000BCEB410F04D80C0D661E342EB7DDEBE7DF
:1039B000801A994150EA410608BF0021E4E708BF98
:1039C0001CEB430F28BF6FF00001DDE7010040F161
:1039D0000780F446404200F003F851F00041604790
:1039E00009D0B0FA80F18840C91CC1F5846109058D
:1039F00001EBD021400570477047000080B500F012
:103A000091F8012000F040F8022000F03DF803207A
:103A100000F03AF8012000F058F8022000F055F8C4
:103A2000032000F052F8002000F004F8012000F01C
:103A300001F801BD10B582B0040001216A48E4B26A
:103A400050F8240000F0E8F800A800F06BF967488F
:103A5000E4B230F81400ADF8000028208DF803001F
:103A600000A96348E4B250F8240000F0FBF813BD4D
:103A700080B55E49C0B231F810105D4AC0B252F84C
:103A8000200000F057F902BD10B582B004000121FA
:103A90005848E4B250F8240000F0BEF800A800F046
:103AA00041F95548E4B230F81400ADF80000102098
:103AB0008DF8030002208DF8020000A94F48E4B2FF
:103AC00050F8240000F0CEF813BDC0B204280EDA7E
:103AD0004949C0B231F81010002908D04649C0B297
:103AE00031F81010454AC0B252F820000161704709
:103AF000C0B2042814DA4049C0B231F810100029CD
:103B00000ED03E49C0B251F82010C9683A4AC0B23E
:103B100032F810205140394AC0B252F82000C1603A
:103B20007047000080B57FF0040000F043F934488E
:103B300090ED000AB8EE400ADFED280A80EE200A78
:103B4000304880ED000A2F4890ED000ADFED240A8E
:103B500020EE200A2C4880ED000A01BD27E080B24B
:103B600000EE100AB8EE400A2748D0ED000A20EE19
:103B7000200ABCEEC00A254880ED000A0020002182
:103B8000234A11602349096851F00101214A11605B
:103B90002049096811F001110129F9D01D4909686E
:103BA000490849001B4A11600021194A116080B27E
:103BB000002812D080B2B0F5FA7FD0DD124991ED25
:103BC000000ADFED080A20EE200ABCEEC00A0F4909
:103BD00081ED000AB0F5FA70D1E770470024F44A8D
:103BE00000007A440000FA43300A0020380A00201E
:103BF000280A0020100A0020200A0020000A0020C5
:103C00003C0A0020440F0020480F002014E000E090
:103C100018E000E010E000E0C9B2002905D00F492B
:103C2000096808430D49086005E00C49096831EA54
:103C300000000A4908607047C0B2012806D1084850
:103C4000006850F030000649086005E0044800684C
:103C500030F0300002490860704700001810024040
:103C60005410024070B400220025002300260024D6
:103C70000025CA7812F00F02CB78DB0601D58B78CD
:103C80001A430B781B0621D00468002306E0CD7888
:103C9000482D02D101259D4005615B1C082B14D2E3
:103CA000012515FA03F60D883540B542F5D19E0081
:103CB0000F25B540AC4312FA06F52C43CD78282DDC
:103CC000E5D101259D404561E7E704600B88FF2BA6
:103CD00026DD4468002320E0012513F1080615FACB
:103CE00006F60D883540B54216D19E000F25B54029
:103CF000AC4312FA06F52C43CD78282D04D10125CA
:103D000013F10806B5404561CD78482D04D1012551
:103D100013F10806B54005615B1C082BDCD3446039
:103D200070BC70474FF6FF71018002218170042141
:103D3000C17070470022806889B2084201D0012218
:103D400000E000221000C0B27047000010B4002252
:103D500000230F24C178002920D01F49096811F4DD
:103D6000E061D1F5E0610A0AD2F1040321000C0000
:103D7000D440417811FA03F2817821400A431201BC
:103D8000164903785A540121027812F01F0291401B
:103D9000134A0078401142F8201009E0012102780E
:103DA00012F01F0291400F4A0078401142F8201093
:103DB00010BC7047042806D10B48006850F004007E
:103DC0000949086005E00848006830F00400064929
:103DD00008607047000000000CED00E000E400E027
:103DE00000E100E080E100E010E000E0816807E031
:103DF00002681168536889185B18C3600832026052
:103E0000C2689142F4D04A1C82600878704738B585
:103E100004460D46A068E168884212D120686168B6
:103E2000884208BF00F0C3F82068227C016802B114
:103E30004944A16042685218E26008309142206013
:103E4000ECD0A068401CA06000F8015D31BD2DE9F8
:103E5000F0418AB000F1080105910268520801EBB7
:103E6000C20106910021079108910168490800EB01
:103E7000C10108310091017901F001018DF81010A4
:103E800040680099400801EBC000019000200290BA
:103E9000039084E005A8FFF7A9FF044614F0030689
:103EA00003D105A8FFF7A2FFC61C25090F2D1BD1C2
:103EB00005A8FFF79BFF00F10F0515E005980168C5
:103EC000081805990790496808180890059808305F
:103ED0000590079808998842F0D0401C079010F888
:103EE000011D00A8FFF793FF761EF2D1002D51D0DF
:103EF00005A8FFF77BFF0646A00800F00300032893
:103F000004BF05A8FFF772FFDDF800800299039F48
:103F100006EB002008E0A8F10808A8F10801801AC3
:103F20000A6849688F18394658F8082C8A1A82425C
:103F3000F1D30C1AAE1C2DD0BC4206D158F8044B5C
:103F400058F8040B0719BC42F8D00298039914F8EA
:103F5000015B884217D100980199884208BF00F0A0
:103F600026F8009800689DF81010029009B14844A6
:103F70000290009902984968009A0918083288420C
:103F800003910092E7D00298401C0290761E00F840
:103F9000015DD1D10298039988427FF47BAF0198EB
:103FA000009981427FF476AF0AB0BDE8F08101202C
:103FB00000F000B880B5C046C046024A1100182083
:103FC000ABBEFBE72600020080B55548006850F400
:103FD0007000534908605348006850F0010051498F
:103FE000086051480068514908404F4908604D48F1
:103FF00000684F4908404B4908604A48006830F45F
:10400000802048490860484800684A4908404649B5
:1040100008604948006849490840474908605FF41A
:104020001F004749086000F005F85FF0006045494F
:10403000086001BD80B500F001F801BD00B583B096
:1040400000200190002000903648006850F4803035
:10405000344908603348006810F40030009001983B
:10406000401C01900098002803D10198B0F5405FF2
:10407000F0D12C480068800302D50120009001E0B7
:10408000002000900098012849D12748006826495F
:1040900008602548006830F46050234908602248D1
:1040A000006850F40050204908601F48006830F450
:1040B000E0601D4908601C48006850F480601A499F
:1040C00008601948006820490840174908601648E8
:1040D00000681E490843144908601248006850F0FF
:1040E0008070104908600F4800688001FBD50120EE
:1040F000FFF7A2FD0C480068800880000A490860AC
:104100000948006850F00200074908600648006846
:1041100010F00C000828F9D10020FFF78DFD07BD35
:1041200088ED00E000100240041002400C00FFE89F
:10413000FFFFF6FEFFFF00173010024000FFFEFEFB
:104140000810024008ED00E0FFFFC01F00001DA0A6
:1041500038B59FED310A00230093002324E010EBD3
:104160008304D4ED000A10EB830494ED001A00EEF2
:10417000810A10EB8304D4ED000A11EB830494ED63
:10418000001A70EEC10A10EB830494ED001A11EBD3
:104190008304D4ED001A31EE611ADDED001A40EE11
:1041A000811ACDED001A5B1C934213D210EB8304ED
:1041B0002468DFF86850AC4202D19FED170A29E06D
:1041C00011EB83042468DFF85450AC42C7D19FED53
:1041D000120A1FE000AC2468DFF84000844202D1DC
:1041E0009FED0D0A16E0DDED000A80EE200A10EECC
:1041F000100A00F017F841EC100B00F03AF853ECFD
:10420000102B0020DFF81810FFF7AEF800F03AF896
:1042100000EE100A31BD0000000000000000C07F69
:10422000000024405FF0FF0C1CEAD05114BF614530
:1042300006E0C110400721F0E04101F160517047F4
:1042400079B900F0004100020AD0B0FA80FC00FA0F
:104250000CF001F16051A1EB0C5101EBD0214005B4
:10426000704741020CBF40F4E0016FF000010020F4
:10427000704780B5012251EC100BFEF7C1FE41ECF6
:10428000100B01BD4FEAF17CBCF1E04C2CBFBCF53A
:10429000001F11E05FEA4C0C34BFBCF17F5F2EE0E1
:1042A0005FEA9C0C4FEA0C1C4FEA3C0CC10071F118
:1042B00000414CEB50707047C90241EA5051C002B6
:1042C00018BF41F0010141F000414FEA6C50C0F1CC
:1042D0000900212810D240EACC7CCCF1200C11FA44
:1042E0000CF070F10040CCF1200C21FA0CF00CF035
:1042F000004C40EB0C0070474FEACC70704749000F
:1043000011F5001F04D84FEACC10FF30C0057047EC
:10431000C817704738B5214C214DFFF76FFB00F0EF
:1043200043F806E00220FFF7E3FB4FF49670FFF737
:1043300015FC0020FFF79CFB0028F3D00220FFF7BC
:10434000C4FB4FF4A07229002000FDF7E5F84FF4FC
:10435000A07213491348FFF7FBFEDFED0F0AB4EE1E
:10436000600AF1EE10FA02D57FF0050408E000249F
:1043700006E00120FFF7BCFB4FF4FA70FFF7EEFBFD
:1043800064B214F1060FF4D00320FFF7B1FB4FF431
:10439000FA70FFF7E3FBF3E700000C430000002096
:1043A000440A00200005002080B500F017F8012124
:1043B0004FF4806000F026F800F01BF804208DF820
:1043C000000003208DF8010003208DF80200012079
:1043D0008DF8030000A8FFF7B9FC01BDDFF87400F9
:1043E000DFF874100860DFF87400DFF86C10086004
:1043F0007047DFF86C00006850F08000DFF8601054
:1044000008607047420014D5C9B2002908D0DFF80F
:104410005410096830F0804008431249086017E0E2
:104420001049096830F0804031EA00000D49086009
:104430000EE0C9B2002905D00949096808430849B6
:10444000086005E00649096831EA0000044908608F
:10445000704700002301674504200240AB89EFCD7F
:10446000102002409020024019E050F8041BCB07B6
:1044700044BFA9F101035918121F0023042A41F86F
:10448000043BF9D25FEA827C0B4604D54FF0000C66
:10449000A1F800C09B1CD10744BF0021197050F83F
:1044A000042B002AE1D170477047FEE7FEE7FEE7E4
:1044B000FEE7704770477047704780B50548006851
:1044C0004FF4FA70FFF74AFB0248006801490860A0
:1044D00001BD00000C20024010B507497944183195
:1044E000064C7C44163404E00A68081D51188847BD
:1044F0000146A142F8D110BD2C000000540000007C
:104500004EF68851CEF20001086840F47000086051
:10451000BFF34F8FBFF36F8F4FF00070E1EE100AC3
:104520007047000045FFFFFF08050000440A002017
:10453000000000001BF9FFFF020000000200000065
:1045400030BCFFFFC101000000000020440A000051
:1045500000F00BF8002801D0FFF7BEFF0020C04696
:10456000C046FFF7D7FE00F002F80120704700F0C8
:1045700001B8000007463846FFF71CFDFBE70000C6
:104580000148804701480047C93F0008914500089D
:10459000C046C046FFF7B4FFFFF7DAFFFFF7FEBFE4
:1045A000FFF7FEBFFFF7FEBFFFF7FEBFFFF7FEBF3F
:1045B000FFF7FEBFFFF7FEBFFFF7FEBFFFF7FEBF2F
:1045C000FFF7FEBFFFF7FEBFFFF7FEBFFFF7FEBF1F
:1045D000FFF7FEBFFFF7FEBFFFF7FEBFFFF7FEBF0F
:1045E000FFF7FEBFFFF7FEBFFFF7FEBFFFF7FEBFFF
:1045F000FFF7FEBFFFF7FEBFFFF7FEBFFFF7FEBFEF
:10460000FFF7FEBFFFF7FEBFFFF7FEBFFFF7FEBFDE
:10461000FFF7FEBFFFF7FEBFFFF7FEBFFFF7FEBFCE
:10462000FFF7FEBFFFF7FEBFFFF7FEBFFFF7FEBFBE
:10463000FFF7FEBFFFF7FEBFFFF7FEBFFFF7FEBFAE
:10464000FFF7FEBFFFF7FEBFFFF7FEBFFFF7FEBF9E
:10465000FFF7FEBFFFF7FEBFFFF7FEBFFFF7FEBF8E
:10466000FFF7FEBFFFF7FEBFFFF7FEBFFFF7FEBF7E
:10467000FFF7FEBFFFF7FEBFFFF7FEBFFFF7FEBF6E
:10468000FFF7FEBFFFF7FEBFFFF7FEBFFFF7FEBF5E
:04469000FFF7FEBF73
:040000050800459119
:00000001FF
