:020000040800F2
:100000007004002099010008310A0008F109000875
:100010002D0A0008650300082D0F000800000000ED
:100020000000000000000000000000003D0D00087E
:100030006903000800000000110B0008A50E00086D
:10004000B3010008B3010008B3010008B3010008C0
:10005000B3010008B301000851040008B30100080F
:10006000B3010008B3010008B3010008B3010008A0
:10007000B3010008B3010008B3010008B301000890
:10008000B3010008B3010008B3010008B301000880
:10009000B3010008B3010008B3010008B301000870
:1000A000B3010008B3010008B3010008B301000860
:1000B000B3010008B3010008B3010008B301000850
:1000C000B3010008B3010008B3010008B301000840
:1000D000B3010008B3010008B3010008B301000830
:1000E000BD040008B3010008B3010008B301000813
:1000F000B3010008B3010008B3010008B301000810
:10010000B3010008B3010008B3010008B3010008FF
:10011000B3010008B3010008B3010008B3010008EF
:10012000B3010008B3010008B3010008B3010008DF
:10013000B3010008B3010008B3010008B3010008CF
:1001400000000000000000000000000000000000AF
:10015000B3010008B3010008B3010008B3010008AF
:10016000B3010008B3010008B3010008B30100089F
:10017000B3010008B3010008B3010008B30100088F
:10018000B3010008DFF80CD000F018F80048004771
:10019000550F0008700400200648804706480047B5
:1001A000FEE7FEE7FEE7FEE7FEE7FEE7FEE7FEE727
:1001B000FEE7FEE7A90E000885010008064C074D82
:1001C00006E0E06840F0010394E807009847103427
:1001D000AC42F6D3FFF7DAFFBC0F0008DC0F0008D3
:1001E00038B504460B4951F82400012100F092FC77
:1001F000684600F0F5FB084830F81400ADF8000040
:1002000028208DF80300054951F82400694600F0C4
:10021000C9FA38BD58000020540000204C000020CE
:1002200010B500F0A3F8012000F016F8022000F04D
:1002300013F8032000F010F8012000F031F802203C
:1002400000F02EF8032000F02BF80020FFF7C8FF85
:100250000120FFF7C5FF10BD38B504460D4951F820
:100260002400012100F056FC684600F0B9FB0A4862
:1002700030F81400ADF8000010208DF803000220C3
:100280008DF80200054951F82400694600F08AFA09
:1002900038BD00003C000020340000202400002075
:1002A000032800DD7047064931F8101031B10449C8
:1002B00031F81010034A52F82020116100BFF1E715
:1002C0003400002024000020032800DD7047094985
:1002D00031F8101059B1084951F82010C968054A81
:1002E00032F810205140044A52F82020D16000BF5B
:1002F000ECE7000034000020240000203EB5044656
:10030000144A115D144A105D00F0D6F901A800F0FE
:10031000CBF9124830F81400019000208DF8080045
:1003200001208DF80A0008208DF8090001A800F0CE
:1003300027F90B4810F814008DF8000001208DF803
:1003400003008DF801008DF80200684600F072FB92
:100350003EBD00001E0000201C00002014000020F4
:100360001800002000BFFEE77047000010B56FF0D6
:10037000040000F05FFD0B4890ED000AB8EE400A63
:10038000DFED090A80EE201A084880ED001A90ED92
:10039000000ADFED070A20EE200A064880ED000A79
:1003A00010BD0000000000200024F44A600000207E
:1003B00000007A446400002043E0B0F5FA7F11DDCC
:1003C000214A92ED000ADFED210A20EE200ABCEE60
:1003D000C00A10EE102A4FF0E0235A61A0F5FA721D
:1003E00090B210E000EE100AB8EE400A164AD2EDC4
:1003F000000A20EE200ABCEEC00A10EE102A4FF0D0
:10040000E0235A61002000224FF0E0239A611A464F
:10041000126942F001021A6100BF4FF0E022116937
:1004200001F001021AB101F48032002AF5D04FF038
:10043000E022126922F001024FF0E0231A6100224B
:100440009A610028B9D17047640000200000FA4387
:1004500010B50520FFF7B0FF1349144A127831F8A0
:10046000120000F061F81249104A127851F8220087
:1004700000F076FA0F490D4A127831F81210084050
:100480000C490A4A127831F8121088420AD10A48F7
:100490000078042803D101200749087002E00420F5
:1004A0000549087010BD0000140000202000002045
:1004B0004C000020540000202100002010B5052031
:1004C000FFF77AFF1349144A127831F8120000F04E
:1004D0002BF81249104A127851F8220000F040FA25
:1004E0000F490D4A127831F8121008400C490A4A97
:1004F000127831F8121088420AD10A48007804288C
:1005000003D101200749087002E004200549087062
:1005100010BD000014000020200000204C0000202E
:10052000540000202100002010B50446200D0005D5
:1005300008B904B103E0F42102A000F008FD0F485F
:10054000046010BD4C69627261726965735C4154EC
:100550003332463478785F537464506572697068DA
:100560005F4472697665725C7372635C6174333286
:10057000663478785F657874692E630014040140EE
:1005800070B504460025207910B12079042800D1E7
:1005900003E05F2135A000F0DAFC6079082805D07F
:1005A00060790C2802D06079102800D103E0602126
:1005B0002EA000F0CCFC20686FF3130010B9206867
:1005C00000B103E0612129A000F0C1FCA07910B1C5
:1005D000A079012800D103E0622124A000F0B7FC3B
:1005E000304DA07990B32846006821688843294699
:1005F0000860081D006821688843291D086020796B
:1006000005442868216808432860264808300068A7
:1006100021688843234908310860081D0068216863
:10062000884320490C310860607910280FD1081FD9
:100630000068216808431B4908310860081D0068EC
:100640002168084317490C3108600EE007E0154D9A
:1006500060790544286821680843286005E020790E
:100660000544286821688843286070BD4C6962721F
:1006700061726965735C41543332463478785F53F4
:1006800074645065726970685F4472697665725C03
:100690007372635C61743332663478785F65787442
:1006A000692E6300000401400021016001710C21EA
:1006B000417100218171704770B505460C460026D6
:1006C0005DB1012D09D0022D07D0032D05D0042DD9
:1006D00003D0052D01D0062D00D104E040F26A417F
:1006E00021A000F034FCECB1012C1BD0022C19D05D
:1006F000032C17D0042C15D0052C13D0062C11D0A8
:10070000072C0FD0082C0DD0092C0BD00A2C09D0A7
:100710000B2C07D00C2C05D00D2C03D00E2C01D0A7
:100720000F2C00D104E040F26B410FA000F00FFC51
:10073000A007010F0F2000FA01F61948A11050F888
:100740002100B0431649A21041F822000846A1102A
:1007500050F82100A107090F05FA01F108431049DB
:10076000A21041F8220070BD4C6962726172696525
:10077000735C41543332463478785F537464506507
:10078000726970685F4472697665725C7372635CEB
:1007900061743332663478785F6770696F2E6300F6
:1007A000080001402DE9F05F05460C464FF00009B6
:1007B000CA4600260027B046B346564885420BD0AD
:1007C0005548854208D05548854205D05448854251
:1007D00002D05448854200D103E0AC2152A000F081
:1007E000B6FBE078A0B1E078042811D0E0782828A2
:1007F0000ED0E07848280BD0E078142808D0E078B4
:10080000102805D0E0781C2802D0E078182800D104
:1008100003E0AD2144A000F09AFB002010B920882D
:1008200000B103E0AE2140A000F091FBE07800F0C1
:100830000F09E07800F0100080B1A078012805D001
:10084000A078022802D0A078022800D103E0B621C7
:1008500035A000F07CFBA07840EA0909207838B385
:10086000D5F8008000261FE0012000FA06F7208856
:1008700000EA070ABA4516D1B7000F2000FA07FBB5
:1008800028EA0B0809FA07F040EA0808E078282867
:1008900003D10120B040686105E0E078482802D12A
:1008A0000120B0402861761C082EDDD3C5F80080F9
:1008B0002088FF282BDDD5F80480002623E006F1F0
:1008C0000800012101FA00F7208800EA070ABA456A
:1008D00018D1B7000F2000FA07FB28EA0B0809FA25
:1008E00007F040EA0808E078282803D106F108005C
:1008F00081406961E078482804D106F108000121AF
:1009000081402961761C082ED9D3C5F80480BDE842
:10091000F09F000000080140000C01400010014061
:1009200000140140001801404C69627261726965EF
:10093000735C41543332463478785F537464506545
:10094000726970685F4472697665725C7372635C29
:1009500061743332663478785F6770696F2E630034
:1009600010B504460B4884420BD00B48844208D093
:100970000A48844205D00A48844202D00948844289
:1009800000D104E040F23B1107A000F0E0FAA068BB
:1009900080B210BD00080140000C01400010014071
:1009A00000140140001801404C696272617269656F
:1009B000735C41543332463478785F5374645065C5
:1009C000726970685F4472697665725C7372635CA9
:1009D00061743332663478785F6770696F2E6300B4
:1009E0004FF6FF710180022181700421C1707047B0
:1009F00000BFFEE708B50121042000F08BF84FF49A
:100A00008070ADF8000002208DF8020018208DF8EB
:100A1000030069460448FFF7C5FE4FF080514FF0D0
:100A2000A05000F0BBF808BD0008014000BFFEE781
:100A3000704700002DE9F0410446002500270F26ED
:100A4000E07810B1E078012800D103E0692121A00D
:100A500000F07DFA6078102800DA03E06A211DA01A
:100A600000F075FAA078102800DA03E06B2119A0D5
:100A700000F06DFAE07800B32248006800F4E0600E
:100A8000C0F5E060050AC5F10407EE40607800FAA1
:100A900007F5A078304005432D011B482278855486
:100AA000207800F01F010120884021784911890039
:100AB00001F1E021C1F8000109E0207800F01F01F8
:100AC0000120884011492278521141F82200BDE8E6
:100AD000F08100004C69627261726965735C415417
:100AE0003332463478785F53746450657269706845
:100AF0005F4472697665725C7372635C6D6973637F
:100B00002E6300000CED00E000E400E080E100E076
:100B10007047000070B504460D461048204008B9E3
:100B200004B104E040F25D310DA000F010FA0DB107
:100B3000012D00D104E040F25E3109A000F007FA77
:100B40002DB11548806920431349886104E012489B
:100B50008069A0431049886170BD0000820107F8D8
:100B60004C69627261726965735C41543332463418
:100B700078785F5374645065726970685F44726915
:100B80007665725C7372635C617433326634787854
:100B90005F7263632E6300000010024070B504466C
:100BA0000D460026D4B1B4F1A06F17D0B4F1806F18
:100BB00014D0B4F1C06F11D0B4F1E06F0ED0B4F125
:100BC000A05F0BD0B4F1A85F08D0B4F1B05F05D03E
:100BD000B4F1007F02D0B4F1407F00D104E040F2D4
:100BE00054412AA000F0B3F9B5F1805F17D0B5F1F8
:100BF000004F14D0B5F1104F11D0B5F1204F0ED0E9
:100C0000B5F1304F0BD0B5F1404F08D0B5F1504F92
:100C100005D0B5F1604F02D0B5F1704F00D104E0BE
:100C200040F2554119A000F092F92648006B20F0DF
:100C30007040244908630846006B28430863200F6E
:100C400058B90846006B20F48030086308464668AF
:100C500026F0E0662643466017E00120B0EB147FE3
:100C600013D11848006B20F48030164908630846F9
:100C7000006B40F4803008630846466826F0E06662
:100C800024F0704006430846466070BD4C696272AD
:100C900061726965735C41543332463478785F53CE
:100CA00074645065726970685F4472697665725CDD
:100CB0007372635C61743332663478785F72636335
:100CC0002E6300000010024010B504460CB1012C48
:100CD00000D104E04FF4A26109A000F038F9012C22
:100CE00006D11548406D40F030001349486505E0D5
:100CF0001148406D20F030000F49486510BD0000DC
:100D00004C69627261726965735C41543332463476
:100D100078785F5374645065726970685F44726973
:100D20007665725C7372635C6174333266347878B2
:100D30005F7263632E63000000100240704710B5BD
:100D400000F002F810BD00001CB5002001900090DA
:100D50003548006840F480303349086000BF3248AD
:100D6000006800F4003000900198401C0190009849
:100D700018B90198B0F5405FF1D12B48006800F434
:100D8000003010B10120009001E000200090009898
:100D9000012847D1244840682349486008464068F4
:100DA00020F4605048600846406840F400504860B5
:100DB0000846406820F4E06048600846406840F417
:100DC00080604860084640681849084016494860F5
:100DD00008464068164908431349486008460068B9
:100DE00040F08070086000BF0F48006800F000709D
:100DF0000028F9D00120FFF767FF0B48406820F07A
:100E00000300094948600846406840F00200486015
:100E100000BF0548406800F00C000828F9D1002008
:100E2000FFF752FF1CBD000000100240FFFFC01F73
:100E3000000035A010B50446042C01D0601D00B997
:100E400003E0BE210BA000F082F8042C08D14FF083
:100E5000E020006940F004004FF0E021086107E065
:100E60004FF0E020006920F004004FF0E02108611D
:100E700010BD00004C69627261726965735C415417
:100E80003332463478785F537464506572697068A1
:100E90005F4472697665725C7372635C6D697363DB
:100EA0002E6300007047000010B51A48006840F437
:100EB0007000184908601848006840F001001649A1
:100EC00008600846406815490840134948600846CC
:100ED000006813490840104908600846006820F47B
:100EE00080200860084640680E4908400A4948606A
:100EF0000846006B0C490840074908634FF41F007F
:100F00008860FFF71CFF4FF00060024980390860DD
:100F100010BD000088ED00E0001002400C00FFE86A
:100F2000FFFFF6FEFFFF001700FFFEFE00BFFEE71B
:100F300002E008C8121F08C1002AFAD170477047A2
:100F4000002001E001C1121F002AFBD1704700BF41
:100F5000FEE7000000201749087001210846FFF74E
:100F6000D9FDFFF75DF9FFF745FD12480078FFF75F
:100F7000C5F91DE00120FFF7A7F90F4909786422A0
:100F800011FB02F0FFF718FA0220FFF79DF90A495A
:100F90000978642211FB02F0FFF70EFA0320FFF735
:100FA00093F905490978642211FB02F0FFF704FA6E
:100FB000E0E700002000002021000020DC0F0008F6
:100FC000000000206C000000300F000848100008EE
:100FD0006C00002004040000400F0008001C4E0EAE
:100FE00000000000000000000102030406070809D9
:100FF00001000020060028000002000D0001000092
:1010000000000000001401400014014000140140E1
:1010100000000020004000800000000020000000D0
:1010200020000000200000000008014000100140E6
:10103000010000200400000010000000000000007B
:081040000000000001000000A7
:040000050800018569
:00000001FF
