:020000040800F2
:1000000098040020DD0D000851020008530200088A
:10001000570200085B0200085F02000800000000B1
:100020000000000000000000000000006302000863
:10003000650200080000000067020008690200086D
:10004000F70D0008F70D0008F70D0008F70D000880
:10005000F70D0008F70D0008F70D0008F70D000870
:10006000F70D0008F70D0008F70D0008F70D000860
:10007000F70D0008F70D0008F70D0008F70D000850
:10008000F70D0008F70D0008F70D0008F70D000840
:10009000F70D0008F70D0008F70D0008F70D000830
:1000A000F70D0008F70D0008F70D0008F70D000820
:1000B000F70D0008F70D0008F70D00086B020008A7
:1000C00073020008F70D0008F70D0008F70D00088F
:1000D000F70D0008F70D0008F70D0008F70D0008F0
:1000E000F70D0008F70D0008F70D0008F70D0008E0
:1000F000F70D0008F70D0008F70D0008F70D0008D0
:10010000F70D0008F70D0008F70D0008F70D0008BF
:10011000F70D0008F70D0008F70D0008F70D0008AF
:10012000F70D0008F70D0008F70D0008F70D00089F
:10013000F70D0008F70D0008F70D0008F70D00088F
:1001400000000000000000000000000000000000AF
:10015000F70D0008F70D0008F70D0008F70D00086F
:10016000F70D0008F70D0008F70D0008F70D00085F
:10017000F70D0008F70D0008F70D0008F70D00084F
:10018000F70D0008DFF80CD002F0A6F90048004790
:10019000A30100089804002017A002F0CFF900BFC7
:1001A000FEE7002400F082FB4FF4E13000F05DFC3C
:1001B00000F069F814A002F0C1F91CE000F001FCA5
:1001C000C8B90821194800F034F908B1FFF7E4FF75
:1001D00017A002F0B3F91AA002F0B0F9002405E06C
:1001E0001248015D18A002F0A9F9641C082CF7DB85
:1001F00016A002F0A3F9E1E750726F6320657272F6
:100200006F722121210D0A004932432054776F205B
:10021000426F61726420436F6D6D756E69636174C6
:10022000696F6E2064656D6F2E0D0A000800002056
:1002300052656365697665204F4B210D0A00000009
:10024000446174613A000000257820000D0A000026
:10025000704700BFFEE700BFFEE700BFFEE700BF3C
:10026000FEE7704770477047704710B500F039F9E6
:1002700010BD10B500F06AFA10BD0000F7A002F042
:100280005DF900BFFEE700B587B00121480501F028
:1002900084FDF74801F09EF90121082001F070FD6E
:1002A0000121082001F06CFDC020ADF818000220EB
:1002B0008DF81A001C208DF81B0006A9ED4800F0EF
:1002C000E7FDEB4801F086F90020ADF80C004BF695
:1002D000FF70ADF80E00B020ADF810004FF4806054
:1002E000ADF812000001ADF81400E348029002A935
:1002F000DF4801F08BF94FF4A06002F04DF81F20A9
:100300008DF8040001208DF8060000208DF805000E
:1003100001208DF8070001A802F043F820208DF895
:10032000040000208DF806008DF8050001208DF8EE
:10033000070001A802F035F807B000BD10B5CF489E
:10034000CF49086008E0CE4801680068401ECC4AEA
:10035000106009B9FFF792FFCA4800780028F2D16F
:1003600010BD70B504460D461646C448C449086021
:1003700008E0C34801680068401EC14A106009B91E
:10038000FFF77CFF4FF40031B94801F0E3FA002891
:10039000EFD1BD480560BD4806600020BC4908702B
:1003A000BC4804700120B749087001224FF4E06195
:1003B000AF4801F013FA0121AD4801F0C8F9FFF789
:1003C000BDFF002070BD70B504460D461646AB4813
:1003D000AB49086008E0AA4801680068401EA84AC6
:1003E000106009B9FFF74AFF4FF40031A04801F04F
:1003F000B1FA0028EFD1A8480560A848066001209E
:10040000A3490870A348047001209E490870012187
:10041000974801F0B4F901224FF4E061944801F0EB
:10042000DDF90121924801F092F9FFF787FF0020E2
:1004300070BD70B504460D4690489149086008E0CB
:100440008F4801680068401E8D4A106009B9FFF7A7
:1004500015FF4FF40031864801F07CFA0028EFD1F7
:100460008D4804608D48056001208649087001218F
:100470007F4801F084F901224FF4E0617C4801F0EB
:10048000ADF9FFF75BFF002070BD70B504460D4667
:100490007A487B49086008E0794801680068401E96
:1004A000774A106009B9FFF7E9FE4FF40031704850
:1004B00001F050FA0028EFD17348046073480560DA
:1004C0000120704908700121694801F058F90122A2
:1004D0004FF4E061664801F081F9FFF72FFF00203B
:1004E00070BD10B5624801F028FA04466C49601AE4
:1004F0008C4277D015DC6B49A4EB01008C4220D0F4
:100500000ADC102C6FD0B4F1021F6DD0A4F50030BE
:10051000403800281CD1D0E001281AD03F28F9D15A
:1005200024E0B0F5803F60D004DC022872D00428BB
:10053000F0D1E6E06FF001110844E8B30228E9D1F8
:1005400054E05348027853480178494801F055F97E
:10055000FAE052480068012807D10021444801F020
:100560000EF90121424801F0FEF8EDE0404801F0AB
:1005700040F949490968087047480068401C4649E5
:10058000086046480068401E444908600846006804
:1005900040B900224FF4E061354801F01FF9002016
:1005A000384908703D480068012809D100213048C9
:1005B00001F0E5F8012100E003E02D4801F0D3F857
:1005C000C2E0314800680178294801F010F92E484E
:1005D0000068401C2C4908602C480068401E2B49CC
:1005E0000860B1E08EE081E05EE000BF274800686F
:1005F00010BB00224FF4E0611D4801F0EFF801212B
:100600001B4801F0B0F800201E4908701B481C4927
:10061000086009E074E01A4801680068401E184A42
:10062000106009B9FFF72AFE4FF40031104801F0BD
:1006300091F90028EFD10FE01348006801780C48C9
:1006400001F0D5F810480068401C0F4908600F48B9
:100650000068401E0D49086076E0000054696D6531
:100660006F7574206572726F722121210D0A00006E
:1006700000540040000C0140A08601004054890055
:10068000100000202600002018000020200000207C
:100690002400002025000020140000201C00002061
:1006A00080000600010003003F480068012803D1D4
:1006B00000213E4801F063F846E03C4801F099F81B
:1006C0003B49096808703A480068401C384908608E
:1006D00035480068401E3449086008460068012813
:1006E00003D10021314801F04AF82DE000224FF4F7
:1006F000E0612E4801F072F800202E49087023E0D6
:1007000022E000BF2C480068002810DD2B4800685C
:100710000178264801F06BF828480068401C2749FA
:10072000086025480068401E234908600BE0224805
:10073000006840B900224FF4E0611C4801F04EF817
:1007400000201C49087000BF00BF10BD10B51C4937
:10075000164801F0FFF880B114481830008800F006
:10076000010030B10121114800F0FDFF03201149C3
:10077000087013490D4801F00AF912490B4801F0BD
:10078000E9F880B109481830008800F0010030B164
:100790000121064800F0E7FF0320064908700949D7
:1007A000024801F0F4F810BD1C0000200054004085
:1007B0001400002026000020200000201800002047
:1007C000000400100001001070B504460D46A1B2EF
:1007D000E84801F019FD00BF4021E64801F082FD24
:1007E0000028F9D0204670BD38B50446E24951F8DA
:1007F0002400012101F0C4FA684600F0D4FBDF4870
:1008000030F81400ADF8000028208DF80300DC4912
:1008100051F82400694600F03BFB38BD032800DD99
:100820007047D84931F8101031B1D64931F810105D
:10083000D54A52F82020116100BFF1E738B50446CF
:10084000D24951F82400012101F09AFA684600F0DB
:10085000AAFBCC4830F81400ADF8000010208DF849
:10086000030002208DF80200C74951F824006946B0
:1008700000F00EFB38BD10B56FF0040001F0DBFD99
:10088000C34890ED000AB8EE400ADFEDC20A80EEE0
:10089000201AC14880ED001A90ED000ADFEDBF0A72
:1008A00020EE200ABE4880ED000A10BD10B5FFF70B
:1008B000E2FF0120FFF7C2FF0220FFF7BFFF032086
:1008C000FFF7BCFF0120FFF7A9FF0220FFF7A6FFFB
:1008D0000320FFF7A3FF0020FFF786FF0120FFF7AB
:1008E00083FF10BD08B50121042001F049FA6846D4
:1008F00000F059FB4FF4C050ADF8000010208DF807
:10090000030002208DF802006946A64800F0C0FAF4
:100910004FF48051A34800F06AFB08BD10B50446AF
:10092000964A32F81410964A52F8240000F043FB1D
:1009300010BD43E0B0F5FA7F11DD994A92ED000A4F
:10094000DFED990A20EE200ABCEEC00A10EE102A54
:100950004FF0E0235A61A0F5FA7290B210E000EE79
:10096000100AB8EE400A8E4AD2ED000A20EE200AA4
:10097000BCEEC00A10EE102A4FF0E0235A610020AE
:1009800000224FF0E0239A611A46126942F00102F8
:100990001A6100BF4FF0E022116901F001021AB1A3
:1009A00001F48032002AF5D04FF0E022126922F0E3
:1009B00001024FF0E0231A6100229A610028B9D1A8
:1009C000704710B57948007801281CD10020FFF746
:1009D000A5FF012804D00120FFF7A0FF012812D1B4
:1009E0000020724908700A20FFF7A3FF0020FFF7DC
:1009F00095FF012801D1002010BD0120FFF78EFFD7
:100A000001280BD1F8E70120FFF788FF30B900205B
:100A1000FFF784FF10B90120644908700420EBE758
:100A2000032800DD7047574931F8101031B155499E
:100A300031F81010544A52F82020516100BFF1E7FC
:100A4000032800DD70474F4931F8101059B14E4965
:100A500051F82010C9684B4A32F8102051404A4AD8
:100A600052F82020D16000BFECE710B586B00446F4
:100A70000121042001F084F90121880301F080F9AB
:100A800005A800F090FA4FF40070ADF814000220B1
:100A90008DF8160018208DF8170005A9414800F0C0
:100AA000F7F94FF48060ADF8140004208DF81700BA
:100AB00005A93C4800F0ECF901A801F015FB0194F0
:100AC0000020ADF80800ADF80A00ADF80C00ADF854
:100AD00010000C20ADF80E0001A9264801F09BFA89
:100AE000012240F22551234801F02DFB012121482C
:100AF00001F01DFB06B010BD00EE100AB8EE400A72
:100B0000254AD2ED000A20EE200ABCEEC00A10EE03
:100B1000102A4FF0E0235A6100229A611A461269A6
:100B200042F001021A6100BF4FF0E022116901F0AA
:100B300001021AB101F48032002AF5D04FF0E02210
:100B4000126922F001024FF0E0231A6100229A613B
:100B5000704730B50446002509E04FF4FA70FFF7FE
:100B6000E8FE4FF4FA70FFF7E4FE681C85B2A54278
:100B7000F3DB30BD003801405C000020580000204D
:100B800050000020380000202800002040000020F5
:100B9000700000200024F44A6400002000007A4421
:100BA00068000020000801400000FA436C000020AB
:100BB0001CB50020019000907C48006840F4803013
:100BC0007A49086000BF7948006800F4003000905E
:100BD0000198401C0190009818B90198B0F5405F49
:100BE000F1D17248006800F4003010B1012000908B
:100BF00001E0002000900098012847D16B48406830
:100C00006A4948600846406820F4605048600846D9
:100C1000406840F4005048600846406820F4E060B6
:100C200048600846406840F4806048600846406874
:100C30005F4908405D494860084640685D4908438F
:100C40005A4948600846006840F08070086000BF5C
:100C50005648006800F000700028F9D0012001F02B
:100C60003BF95248406820F003005049486008466C
:100C7000406840F00200486000BF4C48406800F007
:100C80000C000828F9D1002001F026F91CBD10B590
:100C9000FFF78EFF10BD10B54748006840F47000A4
:100CA000454908604148006840F001003F4908603C
:100CB00008464068414908403C4948600846006889
:100CC0003F490840394908600846006820F4802000
:100CD0000860084640683B49084034494860084677
:100CE000006B39490840314908634FF41F008860A0
:100CF000FFF7CDFF4FF000602F498039086010BD2D
:100D000070B50022002100230020284C646804F004
:100D10000C0222B1042A06D0082A35D107E02B4C58
:100D20002B4D2C6034E0294C294D2C6030E01F4CB9
:100D3000646804F480331D4C606800F0C04434B92A
:100D400000F47014B4F5701F01D0022400E00124F7
:100D500000F0C045C0F3834646EA5565611923B9E2
:100D60001C4C4C431A4D2C600DE0104C646804F48C
:100D7000003424B1174C4C43154D2C6003E0134C48
:100D80004C43134D2C6003E0104C114D2C6000BF00
:100D900000BF064C6468C4F303140F4D2A5D0C4C6D
:100DA0002468D4400A4D2C6070BD00000010024041
:100DB000FFFFC01F000035A088ED00E00C00FFE839
:100DC000FFFFF6FEFFFF001700FFFEFE00127A0095
:100DD0007000002000093D00740000200648804794
:100DE00006480047FEE7FEE7FEE7FEE7FEE7FEE710
:100DF000FEE7FEE7FEE7FEE7970C00088501000826
:100E000010B50446FE48844208D10121042000F0B8
:100E1000FBFF0021042000F0F7FF2EE0F948844298
:100E200008D10121082000F0EFFF0021082000F088
:100E3000EBFF22E0F448844208D10121102000F0A9
:100E4000E3FF0021102000F0DFFF16E0EF488442AE
:100E500008D10121202000F0D7FF0021202000F040
:100E6000D3FF0AE0EA48844207D10121402000F084
:100E7000CBFF0021402000F0C7FF10BD10B50121BD
:100E8000084600F0C1FF0021012000F0BDFF10BDA9
:100E90002DE9F04102460025002600200023002411
:100EA000002791F803C00CF00F0591F803C00CF077
:100EB000100CBCF1000F03D091F802C04CEA0505FC
:100EC00091F800C0BCF1000F31D0146800202BE075
:100ED0004FF0010C0CFA00F3B1F800C00CEA030665
:100EE0009E4220D183004FF00F0C0CFA03F7BC4355
:100EF00005FA03FC4CEA040491F803C0BCF1280F86
:100F000006D14FF0010C0CFA00FCC2F814C00AE044
:100F100091F803C0BCF1480F05D14FF0010C0CFA59
:100F200000FCC2F810C0401C0828D1D31460B1F8EE
:100F300000C0BCF1FF0F34DD546800202EE000F14A
:100F4000080C4FF0010808FA0CF3B1F800C00CEAE5
:100F500003069E4221D183004FF00F0C0CFA03F7D9
:100F6000BC4305FA03FC4CEA040491F803C0BCF14D
:100F7000280F05D100F1080C08FA0CF8C2F814800B
:100F800091F803C0BCF1480F07D100F1080C4FF0F5
:100F9000010808FA0CF8C2F81080401C0828CED3CB
:100FA0005460BDE8F0814FF6FF710180022181702D
:100FB0000421C17070470246002093680B400BB1BA
:100FC000012000E0002070470146886880B2704729
:100FD00002460020D3680B400BB1012000E0002046
:100FE00070470146C86880B270470161704741612F
:100FF00070470AB1016100E041617047C16070470C
:101000004FF480320A438261816182618269826920
:101010007047024600207F4B18684FF680731840D7
:1010200040EA021008437B4B186070477A49C86158
:101030007047F0B50346B3F1004F72D90025002286
:1010400023F00044E50904F07F04220904F00F04B2
:10105000970004FA07F6062D16D2DFE805F003061E
:10106000090C0F126B4820300FE06A4824300CE066
:101070006848283009E067482C3006E06548303081
:1010800003E06448343000E000BF00BF22B90768C5
:1010900027F00F0707603DE0012A12D1012D0BD187
:1010A000042C04D9076827F0C007076032E00768FE
:1010B00027F0300707602DE0076827F0F00707608A
:1010C00028E0022A04D1076827F47067076021E04E
:1010D000032A04D1076827F4704707601AE0042A3E
:1010E00004D1076827F47027076013E0052A04D1AC
:1010F000076827F4700707600CE0062A04D1076828
:1011000027F07067076005E0072A03D1076827F01A
:1011100070470760012902D10768374307602BE257
:10112000FFE7B3F5802F7BD037DCB3F5007F78D0B5
:1011300015DC102B76D008DC012B74D0022B73D079
:10114000042B72D0082B71D193E0302B6FD0402B41
:101150006ED0C02B6DD0B3F5807FF4D1EBE0B3F54A
:10116000804F67D00CDCB3F5407F76D0B3F5006FCD
:1011700074D0B3F5406F72D0B3F5805FE3D179E0FE
:10118000B3F5C04F6CD0B3F5004F6ED0B3F5803FD0
:101190006CD0B3F5003FD6D169E0B3F1005F77D0F2
:1011A0001DDCB3F5000F74D00CDCB3F5002F62D05A
:1011B000B3F5801F60D0B3F5001F6BD0B3F5800F7F
:1011C000C1D17CE1B3F1807F73D0B3F1007F71D0E6
:1011D000B3F1806F6FD0B3F1805FB4D153E10F4AA8
:1011E000981A934268D02BDCB3F1804F73D0A3F1EF
:1011F0008040203800286FD0B0F5787F6DD01AE09D
:1012000000080140000C01400010014000140140A2
:10121000001801400000014000002042000004408E
:1012200026E096E049E036E01DE01DE0A2E155E051
:1012300062E06FE0C5E0E34A104400288DD15CE134
:10124000B0F5802F74D0B0F5402F72D0B0F5A01F4C
:1012500070D0B0F5E01F91D151E188E095E0A2E0B7
:10126000BDE002E002E000BF00BF00BF00BF00BF62
:1012700000BF00BF00BF00BFD34840689843D24AB8
:101280005060012903D1104640681843506072E154
:10129000EBE006E121E1CC484068CC4A1040CA4A64
:1012A0005060012904D11046406840F001005060B0
:1012B00061E1A2E0AFE0BCE020E1C348406820F07B
:1012C0003000C14A5060012904D11046406840F006
:1012D000100050604FE1BAE00DE10DE1BA484068FE
:1012E00020F03000B84A5060012904D1104640680F
:1012F00040F0300050603EE1B348406820F0C0004C
:10130000B14A5060012904D11046406840F04000C5
:10131000506030E1AC48406820F0C000AA4A5060FC
:10132000012904D11046406840F0C000506022E11D
:10133000F6E003E110E1A448406820F44070A24ABE
:101340005060012904D11046406840F4807050601C
:1013500011E19D48406820F440709B4A506001298B
:1013600004D11046406840F40070506003E1964894
:10137000406820F44070944A5060012904D110461E
:10138000406840F440705060F5E08F48406820F4B9
:1013900040608D4A5060012904D11046406840F4F5
:1013A00000605060E7E08848406820F44060864A6A
:1013B0005060012904D11046406840F440605060FC
:1013C000D9E08148406820F4C0407F4A506001293C
:1013D00004D11046406840F480405060CBE07A4829
:1013E000406820F4C040784A5060012904D110467A
:1013F000406840F4C0405060BDE07348406820F051
:10140000E060714A5060012904D11046406840F004
:1014100080705060AFE06C48406820F0E0606A4A3D
:101420005060012904D11046406840F000705060BF
:10143000A1E06548406820F0E060634A50600129FF
:1014400004D11046406840F08060506093E05E48F0
:10145000406820F080405C4A5060012904D1104669
:10146000406840F08040506085E05748406820F078
:101470000050554A5060012904D11046406840F0A0
:101480000050506077E05048406820F080504E4A4D
:101490005060012904D11046406840F080505060EF
:1014A00069E04948406820F40000474A506001293B
:1014B00004D11046406840F4000050605BE04248B0
:1014C000406820F48000404A5060012904D1104651
:1014D000406840F4800050604DE03B48406820F494
:1014E0000010394A5060012904D11046406840F488
:1014F000001050603FE000BF00BF00BF00BF324897
:10150000C069C3F3150290432F4AD061012906D167
:101510001046C069C3F3150210432B4AD0612AE07C
:101520002948C06920F4C010274AD061012904D19C
:101530001046C06940F40020D0611CE02248C06918
:1015400020F4C010204AD061012904D11046C0699E
:1015500040F48010D0610EE01B48C06920F4C01038
:10156000194AD061012904D11046C06940F4C01065
:10157000D06100E000BF00BFF0BD30B500228B0796
:101580001C0F0F2303FA04F20F4B08338C1053F88F
:10159000243093430C4C08348D1044F825302346F6
:1015A0008C1053F824308C07240F00FA04F42343E2
:1015B000054C08348D1044F8253030BD04490860CE
:1015C000704700002000FEFF00000140FEFFFF7F8B
:1015D000DC00204210B50446F848844209D10121BC
:1015E000480500F01EFC00214FF4001000F019FC2B
:1015F0000BE0F348844208D10121880500F011FC7A
:1016000000214FF4800000F00CFC10BD2DE9F043E8
:1016100085B004460D460026B1460427DFF8A483B2
:10162000A68806F47F46684600F007FBDDF80880D0
:10163000E548B8FBF0F01FFA80F946EA0906A680F3
:1016400020884FF6FE71084020800026DF49286878
:1016500088420CD828684000B8FBF0F087B2042F0D
:1016600000DA04273E4309F10100208427E0E888DE
:101670004BF6FF71884206D1286800EB4000B8FBAA
:10168000F0F087B209E0286800EBC00101EB001020
:10169000B8FBF0F087B247F48047C7F30B0008B9F6
:1016A00047F0010747F4004006434FF4967009FBEA
:1016B00000F04FF47A7190FBF1F0401C2084A68377
:1016C000208840F00100208026884FF6F530064043
:1016D000A8886989084306432680A8892989084380
:1016E000208105B0BDE8F08341F28831016000211E
:1016F00081804BF6FF71C1800021018141814FF44F
:1017000080418181704721B1028842F0010202804C
:1017100004E002884FF6FE731A400280704721B140
:10172000828842F40062828004E082884FF2FF7374
:101730001A408280704721B1828842F480528280B0
:1017400004E082884EF6FF731A408280704721B110
:10175000028842F48072028004E002884FF6FF6340
:101760001A400280704721B1028842F40072028060
:1017700004E002884FF6FF531A400280704721B1FF
:10178000028842F48062028004E002884FF6FF3350
:101790001A40028070470A46002181894FF6017382
:1017A000194002F0FE0319438181704721B18289FB
:1017B00042F00102828104E082894FF6FE731A40F2
:1017C0008281704721B1028842F04002028004E029
:1017D00002884FF6BF731A40028070471AB183889F
:1017E0000B43838002E083888B43838070470182B0
:1017F00070470146088AC0B2704712B141F001013A
:1018000002E04FF6FE7319400182704708B50246A8
:1018100000200090009200980844009000980088F2
:1018200008BD21B1028842F40042028003E0028830
:10183000C2F30E0202807047B1F5006F04D1028836
:1018400042F40062028004E002884FF2FF731A4003
:1018500002807047B1F5005F04D1028842F4005263
:10186000028004E002884DF6FF731A400280704740
:1018700021B1028842F48052028004E002884EF6D0
:10188000FF731A4002807047B1F5006F04D10288DF
:1018900042F40062028004E002884FF2FF731A40B3
:1018A0000280704721B1028842F02002028004E0E9
:1018B00002884FF6DF731A40028070470146088B9A
:1018C0000012704721B1028842F01002028004E049
:1018D00002884FF6EF731A400280704721B90288E0
:1018E00042F08002028004E002884FF67F731A40C3
:1018F00002807047B1F5804F05D0828B4BF6FF73A5
:101900001A40828303E0828B42F4804282837047D4
:1019100070B502460024002500230020958A138B11
:101920001B0445EA030626F07F4404EA01068E42C2
:1019300001D1012000E0002070BD10B5014600205B
:10194000002300228B8A0A8B120443EA020424F04B
:101950007F4010BD0CB50246002000230193009388
:1019600000920B0F019321F07F41019B1BB1009B63
:101970001433009303E0090C009B18330093009B81
:101980001B680B400BB1012000E000200CBD0022C1
:1019900021F07F42D3438382704730B50246002056
:1019A0000023948801F0E06504EA154321F07F41AB
:1019B000948A0C4064B15BB101200AE000540040FD
:1019C0000058004000127A0040420F00A08601003B
:1019D000002030BD002221F07F42D3438382704734
:1019E000F848006840F00100F64908600846406881
:1019F000F5490840F349486008460068F349084043
:101A0000F04908600846006820F480200860084615
:101A10004068ED49C9430840EA4948604FF41F0057
:101A200088600846006BEA490840E6490863704749
:101A3000E449096821F48031E24A116011460968DD
:101A400021F480211160B0F5803F03D0B0F5802FE4
:101A50000ED106E0DB49096841F48031D94A1160B2
:101A600007E0D849096841F4A021D64A116000E096
:101A700000BF00BF704710B50146002200230020C0
:101A80004A11012A02D1CF4C236806E0022A02D172
:101A9000CC4C236A01E0CB4C636A01F01F020124A5
:101AA00094401C400CB1012000E0002010BD00213A
:101AB00000E0491C8142FCD3704738B500200090FB
:101AC0000024002500BF3120FFF7D5FF0546009810
:101AD000401C00900098B0F5405F01D0002DF2D07E
:101AE00041F28830FFF7E3FF3120FFF7C4FF08B170
:101AF000012400E00024204638BD01460020B14A00
:101B0000106820F0FE0040EA81001060704700215C
:101B10005A22AC4B30331A70AA4A126822F47F4121
:101B200041EA0021A74A11600022A64B83F8302029
:101B30007047A8490860704710B503460020A14CC3
:101B40006068A54C204043EA0104144320439D4CA7
:101B5000606010BD9F490866704701460020994AA1
:101B6000506820F003000843506070479548406873
:101B700000F00C00704701460020924A506820F0A7
:101B8000F000084350607047014600208D4A5068BD
:101B900020F4E06008435060704701460020894A05
:101BA000506820F4605040EAC1005060704729B18D
:101BB000844A527A0243834B5A7204E0814A527A31
:101BC0008243804B5A727047014600207D4A50681C
:101BD00020F00C6008435060704701460020794AAD
:101BE00050687E4A10400843764A50607047002192
:101BF000744A20321170734A82F82010012802D0F2
:101C000004280AD104E001216E4A2032117005E057
:101C100005216C4A2032117000E000BF00BF704700
:101C20006F49086070476749096A0143654A116254
:101C300070476B49443908607047F0B500220021B5
:101C4000002400235F4D6D6805F00C0222B1042AC8
:101C500005D0082A3ED105E0624D05603DE0614DAA
:101C600005603AE0574D6D685F4E05EA0601554D37
:101C70006D6805F4803401F0C04535B901F4701584
:101C8000B5F5701F01D0022500E0012501F0C04626
:101C9000C1F3834747EA5666A9191CB9534D4D4312
:101CA00005600BE0474D6D6805F400351DB14F4DE3
:101CB0004D43056002E04B4D4D430560414D6D685D
:101CC00005F000452DB94A4E0568B54201D93546A3
:101CD000056002E0434D056000BF00BF394D6D68EF
:101CE000C5F30212374D6D6805F0800515B1414D01
:101CF000AD5C00E000252B460568DD404560314DB8
:101D00006D68C5F301222F4D6D6805F4806515B12E
:101D1000384DAD5C00E000252B464568DD40856010
:101D2000284D6D68C5F3C122264D6D6805F4005538
:101D300015B1304DAD5C00E000252B464568DD4017
:101D4000C560204D6D68C5F381321E4D6D6805F08C
:101D500080550DB142F00402274DAB5CC568B5FB60
:101D6000F3F50561F0BD29B1164A52690243154BDE
:101D70005A6104E0134A52698243124B5A61704718
:101D800029B1104A926902430E4B9A6104E00D4A50
:101D9000926982430B4B9A61704729B1094AD26913
:101DA0000243084BDA6104E0064AD2698243054BDC
:101DB000DA61704729B1034A926A0243014B9A6281
:101DC00021E01BE0001002400000FFE8FFFFF6FEEC
:101DD00000FFFEFE00004242FFFFC01FFF3FFFEF7B
:101DE0008004424200127A0000003C6000093D007D
:101DF00000A24A04840000208C000020614A926AFC
:101E00008243604B9A62704729B15E4AD2680243AE
:101E10005C4BDA6004E05B4AD2688243594BDA607B
:101E2000704729B1574A12690243564B1A6104E0C0
:101E3000544A12698243534B1A61704752490860F1
:101E400070475249C864704710B5024600204D4B98
:101E50001B6B23F070434B4C236323461B6B0B43DC
:101E60002363130F5BB923461B6B23F48033236377
:101E70002346586820F0E0601043586017E00123C3
:101E8000B3EB127F13D13F4B1B6B23F480333D4CDC
:101E9000236323461B6B43F4803323632346586834
:101EA00020F0E06022F0704318432346586010BDD4
:101EB0003448406A40F080703249486270470146B9
:101EC0000020304A92680A400AB1012000E0002058
:101ED00070472C4988727047012806D12949496DFD
:101EE00041F03001274A516505E02649496D21F04E
:101EF0003001244A5165704701280BD12149096BF3
:101F000041F000711F4A11631146496D41F480711F
:101F100051650AE01B49096B21F00071194A1163F0
:101F20001146496D21F48071516570471549496D1D
:101F300021F44051134A51651146496D01435165E1
:101F40007047012806D10F49C96D41F001010D4AC2
:101F5000D16505E00B49C96D21F00101094AD16540
:101F60007047012806D10749096D41F48031054ABF
:101F7000116505E00349096D21F48031014A1165BD
:101F800070470000001002404004424200004242FC
:101F900010B50446FB48844209D101218803FFF7AC
:101FA00033FF00214FF48040FFF72EFF32E0F64868
:101FB000844209D101214804FFF733FF00214FF487
:101FC0000030FFF72EFF25E0F048844209D10121BF
:101FD0008804FFF726FF00214FF48020FFF721FF40
:101FE00018E0EB48844209D10121C804FFF719FF2A
:101FF00000214FF40020FFF714FF0BE0E548844276
:1020000008D101210805FFF70CFF00214FF48010D3
:10201000FFF707FF10BD2DE9F04786B005460E46D5
:102020000024A24600BFA1460027B08900B100BF2E
:102030002F462C8A4CF6FF700440F08804432C8213
:10204000AC894EF6F3100440B08831890843718999
:1020500008430443AC81AC8A4FF6FF400440B0898A
:102060000443AC8201A8FFF7E8FDC648874202D1CD
:10207000DDF810A001E0DDF80CA0A88900F4004014
:1020800040B10AEBCA0000EB0A1031684900B0FB0E
:10209000F1F807E00AEBCA0000EB0A10316889008A
:1020A000B0FBF1F86420B8FBF0F0040120096421D2
:1020B00001FB1089A88900F4004040B1322000EBF8
:1020C000C900B0FBF1F000F00700044308E0322043
:1020D00000EB09106421B0FBF1F000F00F000443A5
:1020E0002C8106B0BDE8F0874FF416510160002145
:1020F0008180C18001810C21418100218181704753
:1021000010B502460020108A4FF2FF0318400B88DA
:102110004C8823438C882343CC8823431843108264
:1021200010BD0021018041808180C180704721B1B4
:10213000828942F40052828104E082894DF6FF7365
:102140001A4082817047F0B503460024002600251E
:10215000002040F66A17B94200D100BF1846C1F30B
:10216000421401F01F06012707FA06F5012C01D1E0
:102170000C3004E0022C01D1103000E014301AB110
:1021800007682F43076002E00768AF430760F0BDB0
:102190001AB1838A0B43838202E0838A8B43838252
:1021A0007047028A4FF6F0731A400282028A0A438D
:1021B0000282704782894FF2FF731A4082818289BE
:1021C0000A438281704721B1828942F002028281F2
:1021D00004E082894FF6FD731A4082817047028ABB
:1021E0004FF6DF731A400282028A0A430282704766
:1021F00021B1028A42F48042028204E0028A4BF654
:10220000FF731A4002827047C1F308028280704750
:1022100001468888C0F308007047818941F00101B8
:1022200081817047028BD2B20283028B42EA012283
:1022300002837047028B02F47F420283028B0A43BF
:102240000283704721B1828A42F02002828204E038
:10225000828A4FF6DF731A408282704721B1828AE8
:1022600042F01002828204E0828A4FF6EF731A4035
:102270008282704721B1828A42F00802828204E0A1
:10228000828A4FF6F7731A408282704721B18289A1
:1022900042F40042828103E08289C2F30E0282810D
:1022A000704721B1828A42F40062828204E0828A0D
:1022B0004FF2FF731A4082827047828A4FF6FB7397
:1022C0001A408282828A0A438282704721B1828ABE
:1022D00042F00202828204E0828A4FF6FD731A40C5
:1022E0008282704702460020B1F5007F00D100BF16
:1022F00013880B400BB1012000E00020704701F46F
:102300000072B2F5007F00D100BFCA43028070475F
:1023100070B50246002400230025002040F66A160E
:10232000B14200D100BFC1F3421501F01F030126E5
:1023300006FA03F3012D02D19689334006E0022DFF
:1023400002D1168A334001E0968A33400C120126EE
:1023500006FA04F41688344013B10CB1012000E0F1
:10236000002070BD10B50022002340F66A14A1427F
:1023700000D100BF0A1201249440A3B2DC430480C0
:1023800010BD0000003801400044004000480040FB
:10239000004C00400050004031490143314A116077
:1023A000704770B5002100230F22C47804B32D4C70
:1023B000246804F4E064C4F5E064210AC1F1040374
:1023C000CA40447804FA03F1847814402143090197
:1023D000254C0678A155047804F01F050124AC4073
:1023E00005786D11AD0005F1E025C5F8004109E063
:1023F000047804F01F050124AC401C4D06787611CA
:1024000045F8264070BD1A4A0A400243154B1B1F6F
:102410001A60704739B1134A121D12680243114BFA
:102420001B1D1A6006E00F4A121D126882430D4BF5
:102430001B1D1A607047042808D14FF0E02109697C
:1024400041F004014FF0E022116107E04FF0E0217C
:10245000096921F004014FF0E0221161704700008A
:102460000000FA050CED00E000E400E080E100E08F
:1024700080FFFF1F2DE9F05F0546002092469B4636
:1024800088460646814640241BE02846414647468A
:10249000224600F042F853465A46C01A914110D3E2
:1024A00011461846224600F029F82D1A67EB01085C
:1024B0004F4622460120002100F020F817EB0009CA
:1024C0004E41201EA4F10104DFDC484631462A4675
:1024D0004346BDE8F09F0000064C074D06E0E0686B
:1024E00040F0010394E8070098471034AC42F6D35B
:1024F000FDF74CFE3C2800085C280008202A04DB7D
:10250000203A00FA02F1002070479140C2F1200306
:1025100020FA03F3194390407047202A04DB203A45
:1025200021FA02F00021704721FA02F3D040C2F1F3
:102530002002914008431946704700000FB4054B34
:1025400010B503A9044A029800F018F810BC5DF811
:1025500014FB0000C90700089400002002E008C82E
:10256000121F08C1002AFAD170477047002001E00D
:1025700001C1121F002AFBD1704700002DE9FF4F57
:102580008DB09B460F460446002606E025280BD05A
:102590005A460F999047641C761C20780028F5D184
:1025A00011B03046BDE8F08F0025A84601229849B9
:1025B00000E0054314F8013F203B02FA03F0084213
:1025C000F7D120782E2817D114F8010F45F0040513
:1025D0002A280ED06FF02F022078A0F130010929AF
:1025E0000AD808EB880102EB410100EB0108641CEA
:1025F000F2E757F8048B641C20786C280DD004DCBB
:102600004C2812D06A2811D104E074280DD07A2801
:102610000CD10AE045F4001507E0617845F4801517
:10262000814202D1641C05F58015641C2278692A58
:1026300045D008DC002AB3D0582A69D0632A10D0CC
:10264000642A08D13BE0702A67D0732A13D0752A18
:102650005CD0782A5CD010465A460F999047761C79
:10266000D3E017F8040B8DF8000000208DF801006E
:10267000E946012003E057F8049B4FF0FF3069075B
:102680004FF0000501D40AE06D1C45450DDA854286
:10269000FADB19F805100029F6D106E06D1C854219
:1026A000FCDB19F805100029F8D12E4404E019F8D4
:1026B000010B5A460F9990476D1EF8D2A5E00A20EB
:1026C0000021CDE90801C5F3025002280DD001CF49
:1026D000C117031E71F100030DDA4FF0000CD0EBAF
:1026E0000C006CEB01012D2308E0FF1D27F007070C
:1026F000F7E80201EDE72B0504D52B238DF82830F0
:1027000001233BE0EB0739D02023F7E70A2000E064
:1027100010200021CDE9080107E01020002145F03C
:102720000405CDE908014FF00808C5F3025002285E
:102730000FD001CF00214FF0000A2B071FD5702AC0
:102740000DD0DDE908C38CF0100C5CEA030C0CD052
:1027500015E0FF1D27F00707F7E80201EBE740222D
:102760008DF828204FF0010A0BE050EA010306D053
:1027700030238DF828308DF8292002239A46582AD4
:1027800004D024A20DF120090B9209E026A2F9E75A
:10279000DDE90823FFF76EFE0B9B9B5C09F8013D0A
:1027A00050EA0102F4D1ADEB09002030089068072F
:1027B00001D44FF001080899884502DDA8EB01001B
:1027C00000E000208046002506E00AA85A46405D49
:1027D0000F9990476D1C761C5545F6DB04E03020C0
:1027E0005A460F999047761CB8F10001A8F10108EC
:1027F000F5DC05E019F8010B5A460F999047761C55
:102800000899481E08900029F4DC641CC5E6000005
:1028100009280100303132333435363738396162B6
:10282000636465660000000030313233343536377A
:102830003839414243444546000000005C28000806
:1028400000000020980000005C250008F428000823
:1028500098000020000400006C2500080102030419
:10286000050607080000000000000000000000004E
:102870000000000000000000000000000000000058
:10288000000000000000000000140140001401409E
:102890000014014000000020004000800000000003
:1028A000200000002000000020000000000801407F
:1028B0000010014001000020040000001000000092
:1028C000000000000000000001000000001C4E0E8F
:1028D00000000000000000000102030406070809D0
:1028E000010203040607080902040608020C081086
:0428F00000000000E4
:040000050800018569
:00000001FF
