:020000040800F2
:10000000B8190020CD030008D503000879030008C3
:10001000D9030008DB030008DD030008000000002E
:10002000000000000000000000000000DF030008E6
:10003000E103000800000000C7020008451D000899
:10004000E7030008E7030008E7030008E7030008E8
:10005000E7030008E7030008E31400086D15000833
:100060008515000897150008A9150008E703000882
:10007000E7030008E7030008E7030008E7030008B8
:10008000E7030008E7030008E7030008E7030008A8
:10009000E7030008E7030008E7030008BB150008B2
:1000A000E7030008E7030008E7030008E703000888
:1000B000E7030008E7030008E7030008E703000878
:1000C000E7030008E7030008E7030008E703000868
:1000D000E7030008211E0008391E0008511E000811
:1000E000F5140008E7030008E7030008E703000829
:1000F000E7030008E7030008E7030008E703000838
:10010000E7030008E7030008E7030008E703000827
:10011000E7030008E7030008E7030008E703000817
:10012000E7030008E7030008E7030008E703000807
:10013000E7030008E7030008E7030008E7030008F7
:1001400000000000000000000000000000000000AF
:10015000E7030008E7030008E7030008E7030008D7
:10016000E7030008E7030008E7030008E7030008C7
:10017000E7030008E7030008E7030008E7030008B7
:10018000E703000800F002F800F06EF80AA090E81B
:10019000000C82448344AAF10107DA4501D100F042
:1001A00063F8AFF2090EBAE80F0013F0010F18BFA1
:1001B000FB1A43F001031847AC6F0100CC6F01003C
:1001C0000A444FF0000C10F8013B13F0070408BF7D
:1001D00010F8014B1D1108BF10F8015B641E05D01B
:1001E00010F8016B641E01F8016BF9D113F0080FD0
:1001F0001EBF10F8014BAD1C0C1B09D16D1E58BF62
:1002000001F801CBFAD505E014F8016B01F8016B98
:100210006D1EF9D59142D6D370470000002300240B
:1002200000250026103A28BF78C1FBD8520728BF06
:1002300030C148BF0B607047732900F05A8400201A
:1002400070471FB514F0FCFA00F090FF0400002086
:10025000002114F0DFFA401C606000F087FC1FBD35
:1002600010B500F0ECFC10BD00F05BFF1146FFF78D
:10027000E8FF01F031F901F09BF803B4FFF7F0FF5C
:1002800003BC02F0F3FA0000002804D090FAA0F0BA
:10029000B0FA80F0401C7047EFF3108072B67047E0
:1002A00080F310887047424A1368012B04D04FF046
:1002B000010313603F4A10603F4A11603F484FF00E
:1002C000805101607047EFF3108272B638480168C0
:1002D00051B34FF0000101603648016891B1EFF36E
:1002E00009811EF0100F08BF21ED108B21E9F00FDE
:1002F0004FF000041EF0100F08BF012441F8044D18
:10030000006801602C490968096808C9B1E8F00F64
:10031000002B18BFB1EC108B81F309884EF0100E42
:10032000002B18BF2EF0100E82F310884EF0040E32
:10033000704721490860EFF3148222F0040282F32F
:1003400014881C494FF00000086019494FF0010063
:1003500008601B481B49D0F8002041EA02010160F7
:1003600016484FF08051016017480068006880F31C
:10037000088861B662B670471EF0040F0CBFEFF339
:100380000880EFF3098020E9F00F40F804ED40F811
:1003900004ED1EF0040F0CBF80F3088880F3098879
:1003A00000B50EF0A7FC5DF804EB4EF0040E7047AC
:1003B00018000020100000201400002004ED00E0D0
:1003C00020ED00E00000FFFF08ED00E00948804755
:1003D00009480047FEE7FEE7FEE7FEE7FEE7FEE727
:1003E000FEE7FEE7FEE7FEE704480549054A064B3F
:1003F000704700009D1D000885010008B81300200B
:10040000B8190020B8150020B815002070477047B3
:10041000704710B54C1084EA530404D54042C1F132
:10042000000138BF491E1B4204D55242C3F10003EC
:1004300038BF5B1E00F0AEFA14F0804F04D040428B
:10044000C1F1000138BF491E14F0004F04D05242E0
:10045000C3F1000338BF5B1E10BD00000FB41CB514
:100460000C0007AA009001D02044401E074B7B449B
:1004700069460190069800F00AFB002C03D06946FB
:10048000002000F017FB1CBC5DF814FB4D060000BB
:100490002DE9F0410E460446002020622046E16826
:1004A000884730B3252805D0D4E901219047206A38
:1004B000401CF2E7E168204600278847050018D075
:1004C000A5F14100192802D820354FF400673246C3
:1004D000294620462760FFF7AFFE40B1012804D02F
:1004E000F61D26F007060836D8E7361DD6E728465B
:1004F000DAE7206ABDE8F08170B50C460546012AAE
:1005000005D02878800600D5EA69002302E001239F
:1005100005E05B1C934202D2E05C0028F9D1A86997
:10052000E618C01AA861286A184428622846AFF362
:10053000008004E0D5E9012114F8010B9047B44292
:10054000F8D32846AFF3008070BD70B5064600F0C2
:100550001DFA0468054630460A22002100F0CDFA53
:100560002C6070BD08F0FEB930B505460B462A4632
:1005700013F8014B12F8010B08B1A042F8D01CB1DE
:10058000002802D06D1CF1E7284630BD40EA010387
:1005900010B59B070FD1042A0DD310C808C9121F2C
:1005A0009C42F8D020BA19BA884201D9012010BD66
:1005B0004FF0FF3010BD1AB1D30703D0521C07E033
:1005C000002010BD10F8013B11F8014B1B1B07D197
:1005D00010F8013B11F8014B1B1B01D1921EF1D108
:1005E000184610BD40EA0103024630B59B0710D102
:1005F0004FF0013400E008C208C91D1B9D4315EAF5
:10060000C41FF8D013F0FF0102F8011B0DD01B0A24
:10061000F8E711F8013B002B02F8013B05D011F877
:10062000013B002B02F8013BF3D130BD0022CBB2DD
:1006300010F8011B994200D1421E0029F8D1104642
:10064000704710B5431C02E010F8011B71B181071F
:10065000FAD14FF0013202C88C1A8C4314EAC2114D
:10066000F9D0C01A0A0603D0C01E10BDC01A10BDB2
:100670000A0401D0801E10BD0902FCD0401E10BD2E
:1006800040EA010370B59B072ED14FF00136042AD2
:100690002AD308C810C99D1B9D43121F15EAC61511
:1006A00017D0D8B2E1B2401A50EA056110D198B221
:1006B000A1B2401A50EA05410AD123F07F4024F04C
:1006C0007F41401A50EA052102D1180EA0EB1460B8
:1006D00070BDA342DBD018BA21BA884201D90120EB
:1006E00070BD4FF0FF3070BD0AB9002070BD10F82A
:1006F000013B11F8014B63B1A3420AD1521E08D04D
:1007000010F8013B11F8014B1BB1A34201D1521E5D
:10071000EDD1181B70BD421E12F8013F002BFBD11A
:1007200011F8013B002B02F8013BF9D17047032A75
:1007300040F2308010F0030C00F0158011F8013BFE
:10074000BCF1020F624498BF11F801CB00F8013BE5
:1007500038BF11F8013BA2F1040298BF00F801CBA9
:1007600038BF00F8013B11F0030300F02580083A80
:10077000C0F0088051F8043B083A51F804CBA0E8D7
:100780000810F5E7121D5CBF51F8043B40F8043B2C
:10079000AFF30080D20724BF11F8013B11F801CB61
:1007A00048BF11F8012B24BF00F8013B00F801CB32
:1007B00048BF00F8012B704710B5203AC0F00B80FD
:1007C000B1E81850203AA0E81850B1E81850A0E855
:1007D0001850BFF4F5AF5FEA027C24BFB1E81850AF
:1007E000A0E8185044BF18C918C0BDE810405FEA1F
:1007F000827C24BF51F8043B40F8043B08BF70479B
:10080000D20728BF31F8023B48BF11F8012B28BF9F
:1008100020F8023B48BF00F8012B70474FF0000260
:100820000429C0F0128010F0030C00F01B80CCF102
:10083000040CBCF1020F18BF00F8012BA8BF20F870
:10084000022BA1EB0C0100F00DB85FEAC17C24BFC4
:1008500000F8012B00F8012B48BF00F8012B70476E
:100860004FF0000200B5134694469646203922BF49
:10087000A0E80C50A0E80C50B1F12001BFF4F7AF94
:10088000090728BFA0E80C5048BF0CC05DF804EB76
:10089000890028BF40F8042B08BF704748BF20F8E4
:1008A000022B11F0804F18BF00F8012B704710B5D4
:1008B000044610F0030F08BF11F0030F40F015803D
:1008C0004FF0013E121FC0F20E8051F8043BA3EB23
:1008D0000E0C2CEA030C1CEACE1C08BF40F8043BAB
:1008E000F0D0A1F1040102F10402521E08DB11F85C
:1008F000013B002B00F8013BF7D11146FFF78EFFBB
:10090000204610BD4FF0013C50F8042B51F8043B39
:100910009A4221D1A2EB0C03934313EACC1317D1D3
:1009200050F8042B51F8043B9A4215D1A2EB0C036A
:10093000934313EACC130BD150F8042B51F8043B2A
:100940009A4209D1A2EB0C03934313EACC13DBD0F8
:100950004FF00000704700BFD01A01BAB1FA81F120
:1009600001F0180122FA01F0CB40C1F12001DBB205
:10097000C0B2C01A2CFA01F3D11A914311EAC31183
:10098000E6D17047704770477047000000487047D5
:100990005413002053EA020C00F069802DE9F04B5B
:1009A0004FF00006002B1FBFB3FA83F503FA05F4DE
:1009B00024FA05F65E4012BF1643B2FA82F502FA37
:1009C00005F4C5F120051EBF22FA05FC44EA0C041B
:1009D000203556EA044C4FEA144418BF641C4FF00B
:1009E00000084FF00009904271EB030C39D3002945
:1009F00019BFB1FA81F701FA07F6B0FA80F700FAE9
:100A000007F6C7F120071EBF20FA07FC46EA0C06CE
:100A10002037B6FBF4FCA7EB0507103F07F01F0BD0
:100A2000CBF120060CFA0BFB2CFA06F644BFB346BA
:100A30000026202FA4BF5E464FF0000B5BEA060C99
:100A400008BF4FF0010B19EB0B09ABFB027C48EB25
:100A50000608C01B06FB02CC0BFB03CC71EB0C01A0
:100A6000C1E70B46024641464846BDE8F08B13B548
:100A70004FF000004FF00001AFF30080BDE81C40D4
:100A80007047000001694A1C02610878704700B590
:100A90008FB0CDE901310021059105497944CDE9B7
:100AA000031011466846FFF7F3FC0FB000BD0000CD
:100AB000E5FFFFFF0A6802F8010B0A607047D1E901
:100AC00000239A4202D2531C0B601070704710B57D
:100AD000436913B1AFF3008001E0FFF70DFD012082
:100AE00010BD127800F124010A7000224A70012220
:100AF000EDE711684FF0FF32E9E72DE9F047914645
:100B00000F4680460446002614F8015B2DB100F024
:100B1000CDF80068405DC007F6D12B2D02D02D2DF9
:100B200018D0641E4A463946204600F0C7F827B15F
:100B30003968A14201D1C7F800804FF00204710565
:100B40000BD54042002803DDFFF720FF0460A0071B
:100B5000BDE8F08746F48066E4E70028F8DAFFF79E
:100B600015FF04606FF00040F2E7000010B5424846
:100B70005421FFF775FE41485421FFF771FE4048AC
:100B80005421FFF76DFE3F493B483C4A3F4B08600C
:100B90003D490A603A491960531C0365481C1065B9
:100BA000012008653B48344A39A1784400F016FA20
:100BB00020B9384878440A3800F0ACFA37482F4A50
:100BC00035A1784400F00AFA20B9344878440A384C
:100BD00000F0A0FA32482A4A2FA1784400F0FEF92A
:100BE00020B92F4878440A3800F094FA402322486C
:100BF000DC000021224600F0CDF920B125487844E0
:100C0000543800F087FA1D4822464023002100F0A6
:100C1000C1F920B121487844543800F07BFA1848D3
:100C200022461023002100F0B5F9002806D01C4808
:100C30007844BDE81040563800F06CBA10BD10483A
:100C400070B5006D20F001040B4800F03DFA0B4830
:100C500000F03AFA0A4800F037FA09E0206D20F077
:100C60000105204600F030FA204608F09CFB2C4697
:100C7000002CF3D170BD000058120020AC120020EF
:100C800000130020E4040020E8040020EC0400200D
:100C90007200000061540100770000004F54010011
:100CA0003E540100004870475413002010B500F076
:100CB0005DFA001D10BD00BF5D3B01002DE9F05F36
:100CC000824615468B4600270AF10104B946007892
:100CD000302801D09DB113E014F8010B01277828CA
:100CE00003D0582801D045B10AE00DB1102D07D12D
:100CF000002714F8010B102502E0082500E00A2562
:100D00000026B0460EE005FB080005FB06F10127B2
:100D10001FFA80F801EB1046B6F5803F00D3B946C4
:100D200014F8010B294600F025FA0028EBDABBF194
:100D3000000F05D00FB1641E00E05446CBF8004010
:100D4000B9F1000F06D0FFF721FE02210160C81E95
:100D5000BDE8F09F48EA0640FAE770B50D46014647
:100D60001446D36850692A4601F0EAFD002807DAE4
:100D7000411C07D0E16820F0004041F48041E1606F
:100D8000281A70BD204600F07FFA4FF0FF3070BD8A
:100D9000C1680022026021F4805141F0400111F449
:100DA000C06FC16001D08260704702694168891AD2
:100DB000C269891A816070472DE9F0470446C0680E
:100DC00040F48000E060010312D520F40020E060D0
:100DD000810606D4E26A61688A4200D80A46511A3E
:100DE000216040F40010E06094F82500BDE8F08731
:100DF00020F40010E060800602D5204600F09BFA47
:100E0000E06842F281014FF0FF390140012903D02F
:100E1000204600F039FAB6E02168002600290ADAF7
:100E2000C94340F480502160C4E902606068411CFD
:100E300061600078DAE744F2400108420CD020F407
:100E4000A04040F040002660E06021696068401AE0
:100E5000E169401AA06096E0216991B9C00310D4FD
:100E6000E0690AF008F92061B0B1E06840F4006080
:100E700010F4407FE06002D140F48070E0602069AF
:100E80006060E068D4F814A0C1061AD5C0030ED57E
:100E9000204600F02DFA14E004F124002061012026
:100EA000E061E06820F4407040F48060E6E721698A
:100EB0006068401AA1690144504601F064FD0028B1
:100EC000A6DBE068C0032AD56168E06A884200D8E2
:100ED00008462169451AE069471B1BD02046D4F813
:100EE000188000F005FA08EB05015046C4F8188098
:100EF00001F049FD00288BDBE06840F40030E06041
:100F0000000202D5A0692844A061E1692069C91BDB
:100F100045180DE0204600F0EBF9E769F5E7256993
:100F20006168D4E90607491BE56208446560A06171
:100F3000E06820F0100010F4C06FE06002D020469E
:100F400000F01AFAE06840F48050C4E90260000240
:100F500005D52069E06260606FF0010046E7224637
:100F600039462846FFF7F9FE411C0CD02918E162EA
:100F700058B1401E2060681C6060E06840F400309A
:100F8000E060287832E7484630E765602046FFF7A2
:100F9000FFFEF8E770B5C468A50713D0650211D449
:100FA000B2F5807F09D0B2F5007F06D0B2F5806F30
:100FB00008D1012300F1240106E05D1E6FF07F4699
:100FC000B54201D3012070BD0161C361416024F4C9
:100FD00070611143C160002070BD00002DE9F04137
:100FE0000C4607461646104600F06EF82078611C45
:100FF00061280AD0722802D077283CD102E001256E
:10100000002405E00225042402E0082448F2020539
:1010100011F8010B2B2806D0622809D011F8010C19
:1010200074280AD00BE045F0030544F00204EFE712
:1010300045F0040544F00104EAE744F010043846A2
:10104000214601F02DFC411C15D000213161716059
:101050004FF40071F560F1617061200704D53046EE
:101060000222002100F094F8306D40F0010030655C
:101070003046BDE8F0810020FBE72DE9F0410D4648
:101080000646104C206DC10704D0410804D020F062
:101090000104F7E722460EE0542009F0ECFF0700B8
:1010A0000ED0206D47F001010843542120653846D9
:1010B000FFF7D6FB3A4629463046BDE8F0418DE7BA
:1010C0000020D6E7581200202DE9F04704464FF0E3
:1010D00000094FF0FF37C568D4E90486A80707D098
:1010E000204600F005F9304601F0B6FB002802DA90
:1010F0003846BDE8F087280502D5404608F053F988
:101100004C212046FFF7ACFB206D20F0010020654C
:101110004846EEE710B500F059F9BDE8104000F080
:1011200050B97546FFF7BEFDAE4605006946534609
:1011300020F00700854618B020B5FFF755F9BDE847
:1011400020404FF000064FF000074FF000084FF02E
:10115000000B21F00701AC46ACE8C009ACE8C009BF
:10116000ACE8C009ACE8C0098D467047004870473C
:10117000741300203A2800D2303820F02002412A8F
:1011800001D3A2F13700884201D34FF0FF307047FE
:101190002DE9F041044616460D464769007B80075D
:1011A0002ED0384601F073FB50BB3EB3012E02D067
:1011B000022E25D104E0204600F054F905441DE03C
:1011C000384601F055FBE168002841F01001E1606C
:1011D00005DA204600F058F80120BDE8F081C90387
:1011E0000BD56268E16A914200D81146A2691144A8
:1011F0002269891A814200DD08460544002D01DA82
:101200000220EAE7E16A6068E268814206D291035F
:10121000E06203D522F4003141F01002A6690027F4
:10122000AE4213DCE16A814201D90B4600E003467D
:1012300003EB060C2369ACEB030CAC4506DD8142E5
:1012400001D98C4600E084469C4505D1A760276003
:1012500042F02000A5620DE0AD1BE669AE1B8142A5
:10126000A66000D90846C01A281A20605819606084
:1012700022F0200003490840E060002084F8487014
:10128000ABE70000BFCFD7FFC16821F4001141F0E8
:101290008001C16000218160016070472DE9F04745
:1012A000814614460E464FF0FF383248D5685769DC
:1012B000054209D03846A16901F065FB002811DB21
:1012C0002C48C0430540E5602B4632464946384627
:1012D00001F067FBA16920F00042B21A1144002816
:1012E000A16103D02046FFF7CFFF4046BDE8F0875D
:1012F00070B504460569C06A6168884200D808462E
:10130000E16821F42011E160C90312D5A84208D098
:101310002246411B2846FFF7C1FF10B14FF0FF30B6
:1013200070BD0020E562C4E90150E06820F480301F
:10133000E060002070BD10B50446C06820F02000B9
:10134000E060A16AA06988420DD02046FFF7D0FF77
:10135000E06820F4405040F01000E060A06AA06116
:101360002069E062606044F24001E0688843E06028
:1013700010BD00001000020070B5054640F20226C4
:101380000A4C0FE094F85000C00708D0AC4206D0D9
:10139000E06836EA000002D1204600F031F8206D06
:1013A00020F00104002CEDD170BD00005812002087
:1013B00010B50446AFF300802046BDE81040FEF7AC
:1013C0005CBF002801D001F051BA704710B501464A
:1013D00002A000F068F8012010BD000053494752F8
:1013E000545245443A2052656469726563743A20E8
:1013F00063616E2774206F70656E3A2000000000F4
:1014000070B50446C068810713D0800601D5A56A6F
:1014100004E0A169606808442169451A2046FFF785
:1014200067FF0022064629462046FFF7B1FE3046F8
:1014300070BD002070BD70B510B1BDE87040DFE731
:101440000025074C6E1E07E02046FFF7D9FF00B1CC
:101450003546206D20F00104002CF5D1284670BDE2
:101460005812002010B50146C268900703D09006BC
:1014700007D5886A0AE0FFF789FA01210160881E12
:1014800010BD8B69486818440B69C01A91F8483040
:101490001BB191F84910401A10BD1103FCD500286A
:1014A000FADD401E10BD70B505460C460A2000E06E
:1014B0006D1C01F099FA35B128780028F8D102E0C6
:1014C000641C01F091FA14B120780028F8D1BDE82D
:1014D00070400A2001F088BA10B511F084FF002096
:1014E00010BD10B50DF078FE012000F07DF90DF073
:1014F0009DFE10BD10B50DF06FFE4FF4806000F042
:101500008FF818B14FF4806000F06EF94FF400606E
:1015100000F086F818B14FF4006000F065F94FF460
:10152000805000F07DF818B14FF4805000F05CF965
:101530004FF4005000F074F818B14FF4005000F070
:1015400053F94FF4804000F06BF818B14FF480402D
:1015500000F04AF94FF4004000F062F818B14FF47F
:10156000004000F041F90DF061FE10BD10B50DF026
:1015700033FE022000F04EF8022000F035F90DF0A5
:1015800055FE10BD10B50DF027FE042000F02CF91B
:101590000DF04CFE10BD10B50DF01EFE082000F041
:1015A00023F90DF043FE10BD10B50DF015FE10200F
:1015B00000F01AF90DF03AFE10BD10B50DF00CFE5A
:1015C000202000F02DF810B1202000F00DF940206F
:1015D00000F026F810B1402000F006F9802000F05D
:1015E0001FF810B1802000F0FFF84FF4807000F079
:1015F00017F818B14FF4807000F0F6F84FF400704F
:1016000000F00EF818B14FF4007000F0EDF80DF096
:101610000DFE10BD01490860704700001404014030
:10162000014600200022074B1B6803EA0102054B1C
:1016300014331B680B4013B10AB1012000E00020F5
:101640007047000000040140002123498279002AEC
:101650003AD00A46126803689A430B461A600A1D7C
:10166000126803689A430B1D1A60027911440A68D4
:1016700003681A430A60184A0832126803689A43DA
:10168000154B08331A601A1D126803689A43124BEF
:101690000C331A604279102A0ED11A1F126803689F
:1016A0001A430D4B08331A601A1D126803681A4357
:1016B000094B0C331A600DE00749427911440A685E
:1016C00003681A430A6005E0027911440A68036856
:1016D0009A430A6070470000000401400021016045
:1016E00001710C2141710021817170472DE9F04396
:1016F00003460C461546202D02DA0120A84000E0E2
:101700000020A0F1010C0320A0EB541604F01F01EF
:1017100053F8260020FA01F76818202811DDC1F1DE
:1017200020004FEAE07800EBD8684FEA6818A0EB99
:101730004819A6F1010853F8288008FA09F848EA80
:10174000070707EA0C00BDE8F0832DE9F0430346E4
:101750000C461546202D02DA0120A84000E00020AA
:10176000A0F1010C0320A0EB541604F01F0153F864
:10177000260020FA01F76818202811DDC1F12000A9
:101780004FEAE07800EBD8684FEA6818A0EB4819F8
:10179000A6F1010853F8288008FA09F848EA070773
:1017A00007EA0C00BDE8F08330B500228B071C0F60
:1017B0000F2303FA04F20B4B8C1053F8243093439D
:1017C000084C8D1044F8253023468C1053F82430F3
:1017D0008C07240F00FA04F42343024C8D1044F8C4
:1017E000253030BD0800014070B50546284601F09F
:1017F000BDFE044604EB44010D4A02EB410148885A
:10180000FFF708FF04EB44000A4901EB8000406841
:1018100058B104EB44020B4603EB8202906804EBE0
:10182000440203EB82025168884700BF70BD00008C
:10183000D0520108540000202DE9F0410246002555
:101840000026002000230024002791F803C00CF09C
:101850000F0591F803C00CF0100CBCF1000F03D081
:1018600091F802C04CEA050591F800C0BCF1000FE8
:1018700031D0146800202BE04FF0010C0CFA00F37B
:10188000B1F800C00CEA03069E4220D183004FF05D
:101890000F0C0CFA03F7BC4305FA03FC4CEA0404F2
:1018A00091F803C0BCF1280F06D14FF0010C0CFADF
:1018B00000FCC2F814C00AE091F803C0BCF1480F64
:1018C00005D14FF0010C0CFA00FCC2F810C0401C0E
:1018D0000828D1D31460B1F800C0BCF1FF0F34DD8B
:1018E000546800202EE000F1080C4FF0010808FABF
:1018F0000CF3B1F800C00CEA03069E4221D183002C
:101900004FF00F0C0CFA03F7BC4305FA03FC4CEA4A
:10191000040491F803C0BCF1280F05D100F1080CB4
:1019200008FA0CF8C2F8148091F803C0BCF1480F13
:1019300007D100F1080C4FF0010808FA0CF8C2F8C2
:101940001080401C0828CED35460BDE8F0810246C8
:10195000002093680B400BB1012000E0002070478D
:101960004FF6FF710180022181700421C170704720
:101970000AB1016100E041617047002410E03D20A0
:101980000FF018FA84B224B100213D200FF034FA90
:1019900003E001213D200FF02FFAC82010F0B4FD24
:1019A000EDE7002410E03E200FF004FA84B224B1E9
:1019B00000213E200FF020FA03E001213E200FF02D
:1019C0001BFAC82010F0A0FDEDE7000070B5002163
:1019D00000230F22C47804B3154C246804F4E06497
:1019E000C4F5E064210AC1F10403CA40447804FA52
:1019F00003F184781440214309010E4C0678A15567
:101A0000047804F01F050124AC4005786D11AD0089
:101A100005F1E025C5F8004109E0047804F01F0550
:101A20000124AC40044D0678761145F8264070BD7F
:101A30000CED00E000E400E080E100E010B50028DB
:101A400007DA0A07140E054A00F00F031B1FD454CF
:101A500003E00A07130E024A135410BD18ED00E00C
:101A600000E400E029B1064AD2690243044BDA617E
:101A700004E0034AD2698243014BDA6170470000F7
:101A80000010024029B1064A12690243044B1A6150
:101A900004E0034A12698243014B1A617047000057
:101AA0000010024029B1064A92690243044B9A6130
:101AB00004E0034A92698243014B9A617047000037
:101AC0000010024029B1064AD2680243044BDA6092
:101AD00004E0034AD2688243014BDA607047000099
:101AE00000100240F0B50022002100240023484DE0
:101AF0006D6805F00C0222B1042A05D0082A3ED1F7
:101B000005E0444D05603DE0424D05603AE0404D42
:101B10006D68414E05EA06013D4D6D6805F480345F
:101B200001F0C04535B901F47015B5F5701F01D04D
:101B3000022500E0012501F0C046C1F3834747EAD2
:101B40005666A9191CB9354D4D4305600BE0304D63
:101B50006D6805F400351DB1304D4D43056002E060
:101B60002C4D4D4305602A4D6D6805F000452DB99B
:101B70002B4E0568B54201D93546056002E0254D7A
:101B8000056000BF00BF224D6D68C5F30212204DF5
:101B90006D6805F0800515B1224DAD5C00E00025B3
:101BA0002B460568DD404560194D6D68C5F301227F
:101BB000174D6D6805F4806515B11A4DAD5C00E0F8
:101BC00000252B464568DD408560114D6D68C5F3E5
:101BD000C1220F4D6D6805F4005515B1114DAD5C76
:101BE00000E000252B464568DD40C560084D6D6866
:101BF000C5F38132064D6D6805F080550DB142F098
:101C00000402094DAB5CC568B5FBF3F50561F0BD99
:101C10000010024000127A0000003C6000093D0004
:101C200000A24A040000002008000020012806D17C
:101C30000649496D41F03001044A516505E0034908
:101C4000496D21F03001014A516570470010024092
:101C500010B500F001F810BD1CB5002001900090F7
:101C60003548006840F480303349086000BF32488E
:101C7000006800F4003000900198401C019000982A
:101C800018B90198B0F5405FF1D12B48006800F415
:101C9000003010B10120009001E000200090009879
:101CA000012847D1244840682349486008464068D5
:101CB00020F4605048600846406840F40050486096
:101CC0000846406820F4E06048600846406840F4F8
:101CD00080604860084640681849084016494860D6
:101CE000084640681649084313494860084600689A
:101CF00040F08070086000BF0F48006800F000707E
:101D00000028F9D00120FFF791FF0B48406820F030
:101D10000300094948600846406840F002004860F6
:101D200000BF0548406800F00C000828F9D10020E9
:101D3000FFF77CFF1CBD000000100240FFFFC01F2A
:101D4000000021A010B50DF047FA10F0E9FD0DF0EC
:101D50006DFA10BD10B5104800684FF47A71B0FBF1
:101D6000F1F4601EB0F1807F00D30FE0601E4FF0F1
:101D7000E02148610F214FF0FF30FFF75FFE0020A8
:101D80004FF0E02188610720086100BF0021481E54
:101D9000FFF754FE10BD00004000002010B51A48A7
:101DA000006840F47000184908601848006840F066
:101DB0000100164908600846406815490840134963
:101DC0004860084600681349084010490860084602
:101DD000006820F480200860084640680E490840EA
:101DE0000A4948600846006B0C49084007490863E7
:101DF0004FF41F008860FFF72BFF4FF0006002498F
:101E00008039086010BD000088ED00E0001002403D
:101E10000C00FFE8FFFFF6FEFFFF001700FFFEFECD
:101E200010B50DF0D9F9034812F040FC0DF0FEF9A1
:101E300010BD00002401002010B50DF0CDF90348BD
:101E400012F034FC0DF0F2F910BD000094010020F6
:101E500010B50DF0C1F9034812F028FC0DF0E6F9B9
:101E600010BD00000402002001F40072B2F5007FF2
:101E700000D100BFCA430280704710B50022002382
:101E800040F66A14A14200D100BF0A120124944016
:101E9000A3B2DC43048010BD21B1828942F4005218
:101EA000828104E082894DF6FF731A408281704777
:101EB00002460020B1F5007F00D100BF13880B401F
:101EC0000BB1012000E00020704770B502460024ED
:101ED00000230025002040F66A16B14200D100BF61
:101EE000C1F3421501F01F03012606FA03F3012D89
:101EF00002D19689334006E0022D02D1168A334082
:101F000001E0968A33400C12012606FA04F4168882
:101F1000344013B10CB1012000E0002070BDF0B5D9
:101F20000346002400260025002040F66A17B94227
:101F300000D100BF1846C1F3421401F01F0601276B
:101F400007FA06F5012C01D10C3004E0022C01D176
:101F5000103000E014301AB107682F43076002E028
:101F60000768AF430760F0BD2DE9F04786B005462E
:101F70000E460024A24600BFA1460027B08900B14A
:101F800000BF2F462C8A4CF6FF700440F0880443B3
:101F90002C82AC894EF6F3100440B0883189084396
:101FA000718908430443AC81AC8A4FF6FF4004407A
:101FB000B0890443AC8201A8FFF794FD1F48874213
:101FC00002D1DDF810A001E0DDF80CA0A88900F432
:101FD000004040B10AEBCA0000EB0A10316849002A
:101FE000B0FBF1F807E00AEBCA0000EB0A10316819
:101FF0008900B0FBF1F86420B8FBF0F0040120097F
:10200000642101FB1089A88900F4004040B132200E
:1020100000EBC900B0FBF1F000F00700044308E05A
:10202000322000EB09106421B0FBF1F000F00F004A
:1020300004432C8106B0BDE8F08700000038014061
:1020400001468888C0F308007047000010B50446B8
:102050002048844209D101218803FFF733FD002184
:102060004FF48040FFF72EFD32E01B48844209D137
:1020700001214804FFF706FD00214FF40030FFF76F
:1020800001FD25E01548844209D101218804FFF7AC
:10209000F9FC00214FF48020FFF7F4FC18E0104811
:1020A000844209D10121C804FFF7ECFC00214FF460
:1020B0000020FFF7E7FC0BE00A48844208D1012129
:1020C0000805FFF7DFFC00214FF48010FFF7DAFC72
:1020D00010BD0000003801400044004000480040AE
:1020E000004C004000500040C1F30802828070475D
:1020F0004FF41651016000218180C18001810C21C3
:10210000418100218181704701460A46C81701EBD1
:1021100090708010A1EB800070B9642091FBF0F307
:1021200000FB131030B94FF4C87091FBF0F300FBC3
:10213000131008B9012070470020FCE70146202257
:1021400009B900207047080C000408B90904103AC6
:1021500001F07F4008B90902083A01F0704008B95F
:102160000901121F01F0404008B98900921E01F0D8
:10217000004000B9521E1046E4E7024600207047B6
:1021800070B5044606480068FEF77EF8451E05480F
:1021900050F83500A0F114062560304670BD0000EF
:1021A00098040020640E002070B504462F212046BC
:1021B000FEF73CFA051E01D1204670BD681C05469D
:1021C000FBE7000003490868884201D001207047FE
:1021D0000020FCE7A804002070B58CB006460C4631
:1021E0002C22002101A80DF05EFD072001902CB1EA
:1021F000A088000402900120079002E000200290D5
:102200000790032201A930460AF064FC054615B187
:1022100028460CB070BD0020FBE700002DE9F0431C
:102220008BB005468946174600242DB94FF49B72A2
:102230001C491DA00BF05CFF2FB940F23712194961
:102240001AA00BF055FF00E0641C285D202804D084
:10225000285D092801D04C45F6D324B94FF0FF3052
:102260000BB0BDE8F083214628460BF0F7F8064690
:1022700016B94FF0FF30F3E7282101A8FEF7F0FA76
:1022800001AA494628460BF097F98046B8F1000F9D
:1022900002D14FF0FF30E3E701A94046B047386074
:1022A0000020DDE7AC5A0108636D6400726574704C
:1022B000000000002DE9F0410546884616462F46ED
:1022C00027B93722084909A00BF012FF34461CB980
:1022D0004FF0FF30BDE8F08162882188386D0368D7
:1022E000284698470020F5E76448010870696E2089
:1022F000213D2052545F4E554C4C00002DE9F047D3
:102300000546894616461F46A846B8F1000F04D177
:1023100018220A490AA00BF0EBFE34460CB1042F38
:1023200002D00020BDE8F0872188D8F850008268EC
:102330002846904760803846F4E700004F4801087F
:1023400070696E20213D2052545F4E554C4C000068
:102350002DE9F0470546894616461F46A846B8F1BE
:10236000000F04D127220A490AA00BF0C1FE34460F
:102370000CB1042F02D00020BDE8F08762882188CC
:10238000D8F850004368284698473846F4E70000DC
:102390005948010870696E20213D2052545F4E5506
:1023A0004C4C000070B5044624B94F22144915A0C6
:1023B0000BF09EFEA06A0078232809D1A16AE0698B
:1023C000884205D9D4E90A010844E16988420CD25F
:1023D000214611A00CF0AAFF08F03CFBFDF75CFFC2
:1023E000054600BF002DFDD108E0A06A2030E1695C
:1023F000814203D821460FA00CF098FF70BD000069
:10240000965E010874687265616420213D20525413
:102410005F4E554C4C0000007468726561643A254B
:102420007320737461636B206F766572666C6F776F
:102430000A0000007761726E696E673A202573208A
:10244000737461636B20697320636C6F73652074B0
:102450006F20656E64206F6620737461636B20610A
:102460006464726573732E0A000000002DE9FC5F3E
:1024700004468B4616461F46DDE90C9ADDE90E58E8
:1024800004F114004060006000BF26626762C4F877
:102490002890C4F82CA02321D4E90A020DF003FCF3
:1024A000D4E90A3C63441A1F174BD4E908010CF025
:1024B0001BFEE061202D04DB9522144914A00BF0D3
:1024C00017FE3034A57165710020A060C4F8148037
:1024D000C4F8188020602071A064E064303C009053
:1024E0002346144A2146019004F14C0010F060FB91
:1024F00000BF1148006818B120460F490968884795
:1025000000BF0020BDE8FC9FCD220108E45E010869
:102510007072696F72697479203C2052545F54481C
:10252000524541445F5052494F524954595F4D41C1
:1025300058000000E5270108BC0400202DE9F04701
:1025400004460E4617469846DDF8209084F8099018
:10255000607A20F001006072E66127620020A062CC
:10256000C4F82480002506E004F1140101EBC50045
:102570000CF016FF6D1C012DF6DBBDE8F08710B5E1
:102580000246002001460EE002F1140303EBC100F5
:10259000D0E900436360D0E900342360406000600C
:1025A00000BF481C01460129EEDB10BD10B50948EB
:1025B000006868B900BF08A00CF0B8FE0A480CF02B
:1025C000B5FE0AA00CF0B2FE00BF01200149086070
:1025D00010BD00003C0000201B5B33336D5B572FA8
:1025E000554152545D200000006101081B5B306DB5
:1025F0000A00000070B50546EC6D2CB94FF4B672B8
:102600000F4910A00BF074FDA088E188884207D123
:10261000A06808B9002070BDA86DC0F38F20FAE74C
:10262000A088E188884203DDA088E188401AF2E7AB
:10263000E088A188411AA86DC0F38F20401AEAE70C
:10264000A44B010872785F6669666F20213D2052B5
:10265000545F4E554C4C00002DE9F04706460F469E
:1026600015462EB94FF484721E491FA00BF040FD91
:10267000A846F46D2CB94FF486721A491FA00BF0CE
:1026800037FD28E0FDF708FE8246E088A1888842F1
:1026900005D1A06818B95046FDF702FE1DE0E1889B
:1026A000206810F80190E088401CE080E188B06D5F
:1026B000C0F38F20814201DB0020E080A068012868
:1026C00001D10020A0605046FDF7EAFD87F8009098
:1026D0007F1C6D1E00BF002DD4D100BFA8EB0500EC
:1026E000BDE8F087864B010873657269616C202133
:1026F0003D2052545F4E554C4C00000072785F668E
:1027000069666F20213D2052545F4E554C4C0000AD
:102710002DE9F04104460E4615462CB94FF49C7243
:102720001B491C480BF0E4FCA846276E2FB94FF458
:102730009E72174918A00BF0DBFC23E030780A28C2
:1027400010D1207E00F0400060B1206D0D21826824
:1027500020469047401C28B94FF0FF3138460BF017
:102760006BFD0FE03178206D826820469047401C59
:1027700028B94FF0FF3138460BF05EFD02E0761CC1
:102780006D1E00BF002DD9D1A8EB0500BDE8F0817A
:10279000954B0108F0270008747820213D20525401
:1027A0005F4E554C4C0000002DE9F04106460F46A7
:1027B000144626B9D5220D490DA00BF099FCA04670
:1027C0000DE0306DC168304688470546681C00B989
:1027D00007E03D707F1C641E0A2D00D101E0002C33
:1027E000EFD100BFA8EB0400BDE8F081664B010803
:1027F00073657269616C20213D2052545F4E554CC7
:102800004C0000002DE9F04104460E46154624B95F
:10281000E9220F490F480BF06BFC2F4612E030788D
:102820000A2808D1207E00F0400020B1206D0D2143
:102830008268204690473178206D82682046904714
:10284000761C6D1E002DEAD1781BBDE8F0810000DA
:10285000764B0108F027000810B50446022C01DC75
:10286000002010BD204601F040F8FAE700BFFEE767
:1028700010B590B00446022C03DA4FF0FF3010B0D0
:1028800010BD6946204606F094FD0598F7E701461D
:10289000002903DB022901DC012070470020FCE74E
:1028A0002DE9F04107460C46002522493846FEF73F
:1028B00029F810B90020BDE8F0811F493846FEF71D
:1028C00021F808B90120F6E71C493846FEF71AF846
:1028D00008B90220EFE704F0020080B104F0040020
:1028E00018B140F24220054316E004F0080018B188
:1028F00040F2424005430FE045F002050CE004F0D1
:10290000040018B140F24120054305E004F008003E
:1029100010B140F2414005430022294638460AF0F2
:10292000DFFE0646002E02DA4FF0FF30C3E73046E6
:10293000C1E700000F600108156001081C60010874
:102940002DE9F04105460F46164698463DB93146F9
:10295000384607F08DF90446301BBDE8F081012DA3
:1029600001D0022D02D14FF0FF30F6E73246394652
:1029700028460BF047FA0446002C01DB301BECE73D
:102980004FF0FF30E9E770B504460D46022C02DA3D
:102990004FF0FF3070BD00222946204608F0ACFA07
:1029A000F8E72DE9F04105460F4616469846012DF9
:1029B00001D0022D07D13146384607F0A5F904466B
:1029C000301BBDE8F08115B94FF0FF30F9E7324612
:1029D0003946284611F0F5FE0446002C01DB301B79
:1029E000EFE74FF0FF30ECE738B50446E0B2009077
:1029F00068460CF09BFC38BD2DE9F04705460C46B7
:102A00004FF000080026012D70DD58A16068FDF729
:102A100079FF002817D1032D11D1A0680BF088FD94
:102A2000544908600846006808B953A000E054A063
:102A300007463A4654A0A1680CF078FC93E056A0F3
:102A40000CF074FC8FE04B48006830B95DA00CF0CE
:102A50006DFC4FF0FF30BDE8F08765A16068FDF7C1
:102A600051FF002820D1032D1AD1A068FDF76DFD7C
:102A7000814649463F4800680BF0DEFA06460EB92B
:102A80003FA000E03CA00746A068FDF75EFD814640
:102A90003B464A463748016857A00CF047FC62E0C5
:102AA0005CA00CF043FC5EE066A16068FDF72AFFC5
:102AB00000281CD1032D15D1A068FDF746FD8146E5
:102AC00049462C4800680BF0D5FA8046A068FDF70F
:102AD0003CFD814643464A46264801685BA00CF00F
:102AE00025FC40E063A00CF021FC3CE02AE06FA153
:102AF0006068FDF707FF002820D1032D1AD1A068D8
:102B0000FDF723FD814649461A4800680BF076FA26
:102B100006460EB91AA000E017A00746A068FDF708
:102B200014FD81463B464A461248016861A00CF0FC
:102B3000FDFB18E066A00CF0F9FB14E070A00CF0AF
:102B4000F5FB10E07AA00CF0F1FB13A00CF0EEFB0B
:102B500048A00CF0EBFB5EA00CF0E8FB2DA00CF005
:102B6000E5FB4FF0FF36002075E7000070726F62E2
:102B700065000000200000206661696C75726500C8
:102B8000737563636573730070726F62652025737C
:102B9000202573200A0000006164632070726F6258
:102BA00065203C6164635F6E616D653E2020202D71
:102BB0002070726F626520616463206279206E61AB
:102BC0006D650A00506C65617365207573696E6789
:102BD00020276164632070726F6265203C616463CA
:102BE0005F6E616D653E272066697273740A00002E
:102BF000656E61626C6500002573206368616E6EAE
:102C0000656C20256420656E61626C657320257398
:102C1000200A000061646320656E61626C65203C7F
:102C20006368616E6E656C3E2020202D20656E61AC
:102C3000626C6520616463206368616E6E656C0A16
:102C400000000000726561640000000025732063CD
:102C500068616E6E656C2025642020726561642059
:102C600076616C756520697320307825303858207E
:102C70000A0000006164632072656164203C63683F
:102C8000616E6E656C3E20202020202D20726561D3
:102C900064206164632076616C7565206F6E2074BA
:102CA0006865206368616E6E656C0A0064697361B3
:102CB000626C65002573206368616E6E656C20250B
:102CC000642064697361626C65202573200A0000CA
:102CD0006164632064697361626C65203C63686150
:102CE0006E6E656C3E20202D2064697361626C6598
:102CF00020616463206368616E6E656C0A00000089
:102D0000556E6B6E6F776E20636F6D6D616E642EA6
:102D100020506C6561736520656E74657220276153
:102D200064632720666F722068656C700A0000007B
:102D300055736167653A200A0000000010B504462B
:102D40000249204600F004F810BD00003C120020AB
:102D500070B505460C462349A86951F8200020604B
:102D60002149286951F82000606004F10800E968F1
:102D70000AF09AFC207A302801D1202020722020ED
:102D8000A07204F10B00A9680AF08EFC3A2060736F
:102D900004F10E0069680AF087FC3A20207404F1FF
:102DA000110029680AF080FC2020E074686900F2B4
:102DB0006C70642190FBF1F6314604F114000AF0C6
:102DC00073FC686900F26C70642190FBF1F201FB06
:102DD0001206314604F116000AF066FC0A2020763D
:102DE000204670BD44600108616001087FB5064659
:102DF0000C46F56C26B93F2239493AA00BF078F918
:102E000024B9402236493CA00BF072F925B9422280
:102E100033493DA00BF06CF9686800F007F968468B
:102E2000FFF766F96868FFF711F920680090002045
:102E3000ADF80C000C20ADF80A00207900F00F006E
:102E4000082802D0092809D103E00020ADF80400C9
:102E500008E04FF48050ADF8040003E00020ADF826
:102E6000040000BF00BF2079C0F3011010B1012899
:102E700009D103E00020ADF8060008E04FF400504F
:102E8000ADF8060003E00020ADF8060000BF00BF6B
:102E90002079C0F3811020B1012806D002280ED17C
:102EA00008E00020ADF808000DE04FF4C060ADF878
:102EB000080008E04FF48060ADF8080003E000204F
:102EC000ADF8080000BF00BF69466868FFF74CF81E
:102ED00001216868FEF7E0FF002004B070BD00002B
:102EE0006053010873657269616C20213D20525462
:102EF0005F4E554C4C00000063666720213D205218
:102F0000545F4E554C4C000075736172745F696E6E
:102F10007374616E636520213D2052545F4E554CA1
:102F20004C000000F8B505460E46174625B980222C
:102F30001A491BA00BF0DCF8EC6C24B9822217496B
:102F40001CA00BF0D5F8207A8DF8000002208DF837
:102F5000010001208DF80200102E0ED0112E19D183
:102F600000208DF803006846FEF730FD002240F295
:102F700025516068FEF7D3FF0CE001208DF80300B7
:102F80006846FEF723FD012240F225516068FEF7F6
:102F9000C6FF00BF00BF0020F8BD00006F5301084E
:102FA00073657269616C20213D2052545F4E554C0F
:102FB0004C000000757361727420213D2052545FF3
:102FC0004E554C4C0000000070B5054625B9A922AD
:102FD0000B490CA00BF08CF8EC6C24B9AB2208491F
:102FE0000DA00BF085F84FF0FF3620216068FEF74A
:102FF0005FFF18B16068FFF723F8C6B2304670BDB6
:103000008653010873657269616C20213D2052541A
:103010005F4E554C4C000000757361727420213D69
:103020002052545F4E554C4C0000000038B5044609
:1030300025466846FEF794FC02208DF802002F48D2
:1030400085421BD101218803FEF72CFD01210420BC
:10305000FEF728FD18208DF803006815ADF8000074
:1030600069462748FEF7E8FB04208DF803000002BC
:10307000ADF8000069462248FEF7DEFB2148854294
:103080001BD101214804FEF7EDFC01210420FEF7CD
:1030900009FD18208DF803000420ADF800006946F2
:1030A0001748FEF7C9FB04208DF803000820ADF88F
:1030B000000069461248FEF7BFFB134885421BD14A
:1030C00001218804FEF7CEFC01210820FEF7EAFC6E
:1030D00018208DF803002815ADF8000069460B484C
:1030E000FEF7AAFB04208DF803004002ADF80000B3
:1030F00069460648FEF7A0FB38BD000000380140D5
:10310000000801400044004000480040000C01401D
:103110002DE9F05F83460D4616461F46DDF82880F0
:103120004FF0FF34E8B206F039FB8146B9F1000FE9
:1031300002D10620BDE8F09FD9F8080000F016FA89
:103140000446002C01DB102C01D30620F2E7FDF72A
:10315000A3F8824604EB4400234931F92000A84239
:1031600019D104EB440001EB80004068B84212D151
:1031700004EB440001EB80004088B0420BD104EB2B
:10318000440001EB80008068404504D15046FDF7C3
:1031900087F80020CEE704EB4400134931F9200002
:1031A000401C20B15046FDF77BF80720C2E728B24B
:1031B00004EB44010C4A22F8210004EB44001146C0
:1031C00001EB8000476004EB440102EB81014E807B
:1031D00004EB4400114601EB8000C0F80880504623
:1031E000FDF75EF80020A5E7540000202DE9F0412E
:1031F00080460D464FF0FF34E8B206F0CFFA06469F
:1032000016B90620BDE8F081B06800F0AFF90446B9
:10321000002C01DB102C01D30620F3E7FDF73CF86E
:10322000074604EB4400134931F92000401C20B943
:103230003846FDF735F80020E4E74FF0FF3004EBA7
:1032400044010C4A22F82100002004EB440102EB67
:103250008101486004EB440102EB8101488004EBEA
:10326000440102EB810188603846FDF719F800201F
:10327000C8E70000540000202DE9FF5F894617468B
:103280004FF0FF3609F0FF0006F088FA05461DB939
:10329000062004B0BDE8F09F012F6FD1A86800F0B0
:1032A00065F90646002E01DB102E01D30620F0E75B
:1032B000FCF7F2FF834606EB46005E4931F9200039
:1032C000401C20B95846FCF7EBFF0620E1E706EB6F
:1032D0004600594901EB400403A8FEF741FB01A851
:1032E000FEF7FCF92088ADF80C0002208DF80E00E6
:1032F0002088019000208DF8080001208DF80A0038
:1033000006EB46004B4901EB8000408820B10128C4
:1033100006D002280CD107E008208DF8090007E04C
:103320000C208DF8090003E010208DF8090000BF83
:1033300000BF03A96868FEF77FFA297C287BFEF7A7
:1033400033FA01A8FEF780F920798DF800000120FA
:103350008DF8030005208DF8010000208DF8020093
:103360006846FEF733FB208834490968084333492F
:1033700008605846FCF794FF59E0FFE7002F53D14F
:10338000D5F808A0504600F0F1F88046B8F1000FDB
:1033900002DBB8F1100F01D3002004E008EB480075
:1033A000254901EB400004460CB9062071E7FCF703
:1033B00073FF834621882148006888431F490860BD
:1033C00000208DF8030005208DF8010000208DF805
:1033D0000200208820280CDB2088B0F5007F08DC64
:1033E0000846008800F47870B8B920798DF800009C
:1033F00013E02088B0F5806F0CDB2088B0F5004F1B
:1034000008DC0E48008800F47C4030B920798DF843
:10341000000002E020798DF800006846FEF7D6FA39
:103420005846FCF73DFF02E06FF0050031E7002051
:103430002FE7000054000020D052010814010020A2
:10344000F8B507460E461446F0B206F0A7F9054651
:1034500005B9F8BD6846FEF783FA288980B2ADF851
:10346000000010208DF8030002208DF802001CB926
:1034700010208DF8030016E0012C03D104208DF8F4
:10348000030010E0022C03D148208DF803000AE06D
:10349000032C03D128208DF8030004E0042C02D172
:1034A00014208DF8030069466868FEF7C5F900BF6F
:1034B000CFE72DE9F04107460D460026E8B206F0B9
:1034C0006DF9044614B93046BDE8F081228991B205
:1034D0006068FEF73CFA06463046F5E72DE9F04114
:1034E00007460D461646E8B206F058F904460CB9F0
:1034F000BDE8F081F2B2238999B26068FEF738FA2C
:1035000000BFF5E770B505460E4625B99B220C496C
:103510000CA00AF0EDFDEC6C24B99D2208490EA028
:103520000AF0E6FD31466068FEF7DEFD00BF80214F
:103530006068FEF7BDFC0028F9D0012070BD0000D6
:103540007C53010873657269616C20213D205254DF
:103550005F4E554C4C000000757361727420213D24
:103560002052545F4E554C4C000000000246002192
:1035700006E001208840904201D108467047491C6E
:103580002029F6DB4FF0FF30F8E7000010B520A04F
:103590000BF0CCFE2148017821A00BF0C7FE1F489C
:1035A000007800F0010010B123A00BF0BFFE1B4813
:1035B000007800F0020010B122A00BF0B7FE17480F
:1035C000007800F0040010B121A00BF0AFFE13480A
:1035D000007800F0080010B121A00BF0A7FE0F4802
:1035E000007800F0100010B120A00BF09FFE0B48F7
:1035F000007800F0800030B108480F3001681DA04D
:103600000BF094FE02E01FA00BF090FE10BD000036
:10361000627573206661756C743A0A0029ED00E0EA
:103620005343425F434653525F424653523A3078C7
:10363000253032582000000049425553455252204F
:1036400000000000505245434953455252200000AB
:10365000494D505245434953455252200000000005
:10366000554E53544B4552522000000053544B4585
:10367000525220005343422D3E424641523A253099
:1036800038580A000A00000030B595B005460022FF
:103690002946114802F0BEF8002805DA29460FA095
:1036A0000BF044FE15B030BD00BF54216846FDF755
:1036B000D7F850226946084802F01AF904461CB1AE
:1036C00069460AA00BF032FE002CEED1024802F04F
:1036D00057F800BFE6E70000880A00204F70656ECB
:1036E000202573206661696C65640A0025730000FB
:1036F00070B505464DB902F0CBFB204920A00BF078
:1037000015FE02F0E7FE002070BD2846FCF799FF89
:10371000B0F5807F06D96FF01A000EF015FA4FF061
:10372000FF30F1E72946002002F080FD044634B95D
:103730006FF01A000EF008FA4FF0FF30E4E702F0E5
:10374000A7FB204609F0FAFF06463EB920460BF0DB
:10375000AFF902F0BFFE4FF0FF30D5E7304600F082
:10376000E6F84FF4807221460448FDF7A0F82046A1
:103770000BF09EF902F0AEFE0020C5E770020020BB
:1037800025730A0070B504460D460020E070401E07
:1037900060632946204609F03FFC08B1042070BD53
:1037A00004F2362006F057FA4AF65521884201D035
:1037B0000320F4E794F83800E92807D094F838009B
:1037C000EB2817D13A20005D902813D104F16E0048
:1037D00006F035FA20F07F400749884201D10020E9
:1037E000DDE704F18A0006F02AFA0449884201D193
:1037F0000020D4E70220D2E746415400464154332A
:10380000024600E0521C107810B110788842F9D1BD
:103810001078704770B50346186890F869400CB985
:103820001C2000E02A200546AA4202D3087801287D
:1038300002D04FF0FF3070BD087B4E7B40EA06207F
:10384000186144B1087F4E7F40EA062000EB8000FB
:103850004000986102E04FF47A7098610020EAE736
:1038600030B50346042A01D3087810B14FF0FF3079
:1038700030BD48788C7840EA04247420C452C8785B
:10388000C0F3C300054C205CCC7804F00704044D61
:1038900055F82440604398670020E9E7884901080B
:1038A0009849010810B502A00BF040FD002010BDA2
:1038B0001B5B324A1B5B4800F0B503460D461E6891
:1038C000986A021D680A7789B0FBF7F400BF02CA44
:1038D00009B90020F0BD8C4200D202E0641A121D2A
:1038E000F5E700BF10682044F4E770B5064630469F
:1038F00004F07EFE054635B96FF00F000EF024F996
:103900004FF0FF3070BD284601F03AFF04462846CC
:1039100004F040FF002C05DA20460EF015F94FF0B8
:10392000FF30EFE7284604F035FF0020EAE770B5E6
:103930000546286804F05CFE064636B96FF00F00B5
:103940000EF002F94FF0FF3070BD304601F018FF65
:103950000446304604F01EFF304604F01BFF2846A4
:103960000BF0A6F8002C05DA20460EF0EDF84FF02B
:10397000FF30E9E70020E7E70246891ED069801E94
:10398000884201D8002070475389106B01FB030067
:10399000F9E7000070B505460E46012D07D109A0D4
:1039A0000BF0C4FC0DA00BF0C1FC002070BD012485
:1039B00004E056F82400FFF767FE641CAC42F8DB15
:1039C0000020F3E755736167653A20636174205BFB
:1039D00046494C455D2E2E2E0A000000436F6E6353
:1039E0006174656E6174652046494C452873290AE7
:1039F0000000000070B504460D46012C04D10849B2
:103A000008A00BF093FC09E0022C07D16868FFF7CF
:103A10006FFE18B104A069680BF088FC002070BD2F
:103A20007002002025730A004E6F207375636820B2
:103A30006469726563746F72793A2025730A0000B5
:103A400070B505460C46032D06D006A00BF06EFCA3
:103A50000AA00BF06BFC03E0D4E9010100F064FA6A
:103A6000002070BD55736167653A20637020534F25
:103A70005552434520444553540A0000436F707922
:103A800020534F5552434520746F20444553542EC4
:103A90000A00000070B505460C46022D03D00BA0AD
:103AA00000F0C2FE10E00AA16068FCF72BFF20B115
:103AB00009A16068FCF726FF18B908A00BF036FCD6
:103AC00002E0606800F0B0FE002070BD2F00000032
:103AD0002D2D68656C7000002D6800006466205B09
:103AE000706174685D0A00002DE9F04105460C46DE
:103AF000022D04D113A061680BF018FC1FE0032D08
:103B00001AD1002240F24241A06809F0E9FD0646C0
:103B1000002E0CDB6068FCF794FD07463A46304601
:103B2000616810F04EFE3046FFF7DFFE03E006A0AE
:103B3000A1680BF0FBFB02E009A00BF0F7FB0020F3
:103B4000BDE8F08125730A006F70656E2066696CB0
:103B5000653A2573206661696C6564210A0000007E
:103B600055736167653A206563686F2022737472CC
:103B7000696E6722205B66696C656E616D655D0AC2
:103B80000000000070B504460D4606F019FC002048
:103B900070BD000070B504460D46012C03D10448E9
:103BA00007F012F902E0686807F00EF9002070BD16
:103BB0007002002070B504460D46012C06D106A007
:103BC0000BF0B4FB0DA00BF0B1FB03E00021686823
:103BD00007F0F4FA002070BD55736167653A206DF7
:103BE0006B646972205B4F5054494F4E5D204449CD
:103BF000524543544F52590A000000004372656118
:103C0000746520746865204449524543544F5259A5
:103C10002C206966207468657920646F206E6F744B
:103C200020616C72656164792065786973742E0A0D
:103C3000000000002DE9F04105460C46002612A7C1
:103C4000022D05D13846616802F03CF9064613E0C2
:103C5000042D0BD10DA16068FCF754FE60B9A76874
:103C60003846E16802F02EF9064605E008A00BF0A0
:103C70005DFB0020BDE8F0811EB131460CA00BF0C9
:103C800055FB0020F6E70000656C6D002D74000008
:103C900055736167653A206D6B6673205B2D7420E8
:103CA000747970655D206465766963650A0000005B
:103CB0006D6B6673206661696C65642C2072657338
:103CC000756C743D25640A002DE9F84380460C4666
:103CD000B8F1030F06D02DA00BF028FB31A00BF09C
:103CE00025FB50E000253DA0D4E901120BF01EFB9E
:103CF00000224FF48031A06809F0F2FC0746002F43
:103D000026DB3846FFF7F1FD4FF480700BF0BAFB6D
:103D1000054635B934A00BF009FB6FF00400BDE88F
:103D2000F88360680EF00DF86168461804E030789A
:103D30002F2800D103E0761E6068B042F7D100BFA3
:103D400000962DA2FF212846A3680DF069FF0EE022
:103D500000221146A06809F0C3FC0746002F05DBCE
:103D60003846FFF7C2FDA06810F00EFCA568294692
:103D700060680AF0FEF82DB1A068A84202D028467B
:103D80000AF096FE00BF0020C9E700005573616786
:103D9000653A206D7620534F555243452044455394
:103DA000540A000052656E616D6520534F555243B1
:103DB0004520746F20444553542C206F72206D6F42
:103DC000766520534F5552434528732920746F2040
:103DD0004449524543544F52592E0A002573203D01
:103DE0003E2025730A0000006F7574206F66206DF9
:103DF000656D6F72790A000025732F25730000002E
:103E000070B504460D4606F025FE002070BD00008A
:103E100070B504460D46034903A00BF087FA002055
:103E200070BD00007002002025730A0070B50546C1
:103E30000E46012D07D109A00BF078FA0CA00BF06B
:103E400075FA002070BD012404E056F8240010F03B
:103E50009BFB641CAC42F8DB0020F3E75573616701
:103E6000653A20726D2046494C452E2E2E0A0000E0
:103E700052656D6F76652028756E6C696E6B2920B2
:103E80007468652046494C452873292E0A000000B5
:103E90002DE9F04780460C4604F11A0005F0DBFEE0
:103EA00010B10020BDE8F087207800F03F00401EF0
:103EB00000EB800101EBC0054FF00109002621E075
:103EC0001849895D081905F0C6FE0746B9F1000FCB
:103ED00011D0FF2D0BD2384604F0F2FC8246294661
:103EE0006D1C38F8110004F0EBFC824501D0002075
:103EF000D8E7B94605E04FF6FF70874201D00020B1
:103F0000D0E7761C0D2EDBD3207800F0400038B1CE
:103F1000B9F1000F04D038F8150008B10020C1E74E
:103F20000120BFE7305601082DE9F04190B0064668
:103F30000F4600246946304601F04EFD002806DA9F
:103F400031463FA00BF0F2F910B0BDE8F081BDF8AA
:103F5000060000F47040B0F5804F02D144F0010437
:103F600001E044F002046946384601F035FD0028BE
:103F700000DA0BE0BDF8060000F47040B0F5804FA9
:103F800002D144F0040401E044F0080404F001000C
:103F900030B104F0080018B12FA00BF0C7F9D3E737
:103FA00004F00200E8B104F00400A8B13046FEF7C6
:103FB000FBF880464146384602F038F905461DB9FF
:103FC00030A00BF0B3F9BFE72946304600F0FEF809
:103FD00028460AF06DFD31E03946304600F0F6F82B
:103FE0002CE004F00400C8B13046FEF7DDF880464E
:103FF0004146384602F01AF905461DB921A00BF0DA
:1040000095F9A1E70021284607F0D8F8294630465F
:1040100000F040F828460AF04BFD0FE004F00C00D9
:1040200040B90021384607F0C9F83946304600F05B
:1040300031F803E03946304600F02CF800BF83E742
:10404000636F7079206661696C65642C20626164BD
:104050002025730A000000006370206661696C64AB
:104060002C2063702064697220746F2066696C650F
:10407000206973206E6F74207065726D6974746549
:1040800064210A006F7574206F66206D656D6F7214
:10409000790A00002DE9F041DAB005460E464FF4EA
:1040A00080322946684601F0B5FB002806DA294629
:1040B00036A00BF03BF95AB0BDE8F08100BF4FF4D9
:1040C000827119A8FCF7CCFB4FF4827219A96846DB
:1040D00001F070FB0446002C4EDD4FF00008002775
:1040E0002EA11AA8FCF70EFC20B12DA11AA8FCF7EE
:1040F00009FC00B941E01AA9284602F097F8B0F18E
:10410000000803D127A00BF011F938E01AA93046B6
:1041100002F08CF8071E06D122A00BF007F94046EA
:104120000AF0C6FC2BE0402109A8FCF799FB09A97D
:10413000404601F051FC20B11AA91EA00BF0F6F880
:104140001BE0BDF82A0000F47040B0F5804F08D1A4
:104150000021384607F032F839464046FFF79AFF0B
:1041600003E03946404600F031F840460AF0A0FC32
:1041700038460AF09DFC00BF00BF002C9FDC00BF4A
:10418000684601F0FDFA00BF95E700006F70656EAC
:10419000202573206661696C65640A002E2E00007C
:1041A0002E0000006F7574206F66206D656D6F7254
:1041B00079210A006F70656E2066696C653A20256A
:1041C00073206661696C65640A0000002DE9F041A6
:1041D0008AB0064688464FF480500BF053F90546E6
:1041E0002DB926A00BF0A2F80AB0BDE8F08100229C
:1041F000314601A801F00EFB002807DA28460AF034
:1042000057FC314621A00BF091F8EDE741224146E1
:10421000224801F0FFFA00280ADA28460AF048FC92
:1042200001A801F0ADFA41461DA00BF07FF8DBE7D5
:1042300000BF4FF48052294601A801F059FB044603
:10424000002C0DDD22462946144801F0C3FC074628
:10425000A74204D0394617A00BF068F802E000BF6F
:10426000002CE6DC00BF01A801F08AFA0B4801F03F
:1042700087FA28460AF01CFC00BFB5E76F7574206A
:104280006F66206D656D6F72790A0000526561641A
:10429000202573206661696C65640A00880A002025
:1042A0005772697465202573206661696C65640ABC
:1042B0000000000057726974652066696C652064AF
:1042C000617461206661696C65642C206572726E30
:1042D0006F3D25640A0000002DE9F04782468946BB
:1042E000DAF80040B9F1000F06D1676917B1E0694B
:1042F000B84215D8012713E04946504605F0EEF8BC
:104300000646022E02D20120BDE8F087701C08B9D3
:104310003046F9E7E069B04201D93046F4E74F464C
:104320003D4600BF6D1CE069A84204D80225BD428D
:1043300001D90020E8E72946504605F0CFF80646A7
:1043400006B909E0012E01D0701C08B93046DBE740
:10435000BD42E7D10020D7E700BF00BF4FF0FF32DA
:104360002946204609F0D6FB8046B8F1000F08D157
:10437000B9F1000F05D02A464946204609F0CAFB8C
:104380008046B8F1000F0DD16561D4E90610801E9A
:10439000814202D2A069401EA061207940F0010054
:1043A000207107E0B8F1010F02D14FF0FF3000E0BB
:1043B000012005462846A7E72DE9F34F83B0814643
:1043C000049800680190D9F80000D0F80CA00020F3
:1043D0000546064600BF3046761C01990C5C202C31
:1043E00000DA2BE02F2C01D05C2C0AD100E0761CE7
:1043F0000198805D2F28FAD00198805D5C28F6D066
:104400001CE0FF2D03D3062005B0BDE8F08FE4B219
:104410000121204604F0F0F904460CB90620F3E728
:10442000802C06DA21466AA0FFF7EAF908B10620D7
:10443000EAE728466D1C2AF81040CCE700BF019837
:10444000811904980160202C01DA042000E000208A
:10445000074608E0681E3AF81040202C02D02E2CA7
:1044600000D002E06D1E002DF4D100BF00202AF81C
:1044700015000DB90620C7E70B22202109F1200005
:1044800006F092FE002600E0761C3AF8160020287E
:10449000FAD03AF816002E28F6D00EB147F00307EE
:1044A00000E06D1E25B1681E3AF810002E28F8D1E4
:1044B0004FF00008CDF808804FF0080B00BF3046E1
:1044C000761C3AF8104004B954E0202C03D02E2C6E
:1044D00004D1AE4202D047F00307F0E702985845F6
:1044E00001D2AE4216D1BBF10B0F02D147F0030748
:1044F00040E0AE4201D047F00307AE4200D939E0B8
:104500002E46082002904FF00B0B4FEA88604FEACE
:104510001068D4E7802C0BDB0021204604F06CF9F6
:1045200004461CB1A4F180002C490C5C47F0020742
:1045300000BF24B121462AA0FFF762F918B15F2419
:1045400047F003070FE0412C04DB5A2C02DC48F053
:10455000020808E0612C06DB7A2C04DC48F0010834
:10456000A4F1200084B20298411C029109F12001BB
:104570000C54A4E700BF99F82000E52802D10520DB
:1045800089F82000BBF1080F03D14FEA88604FEA99
:10459000106808F00C000C2803D008F00300032872
:1045A00001D147F0020707F0020058B908F00300F4
:1045B000012801D147F0100708F00C00042801D1B0
:1045C00047F008072B2000F8097000201CE70000C6
:1045D000222A3A3C3E3F7C7F00000000B055010893
:1045E0002B2C3B3D5B5D000070B50446204606F079
:1045F000D3FB0546FEF7A2FB70BD00002DE9F84F86
:1046000005460C46012D0DD100200FF095FF0090BE
:104610006846FFF7E9FF06463246192133A00AF043
:1046200085FE60E0072D58DB6068FBF78EFF86B2E1
:10463000A068FBF78AFFC7B2E068FBF786FF00F0CF
:10464000FF082069FBF781FF00F0FF096069FBF7B5
:104650007CFF00F0FF0AA069FBF777FF00F0FF0B7B
:1046600040F63300864202DCB6F5FA6F04DA21A088
:104670000AF05CFEBDE8F88F0FB10C2F03DD26A019
:104680000AF054FEF6E7B8F1000F02D0B8F11F0FA0
:1046900003DD29A00AF04AFEECE7B9F1170F03DDAC
:1046A0002CA00AF043FEE5E7BAF13B0F03DD31A091
:1046B0000AF03CFEDEE7BBF13B0F03DD35A00AF05C
:1046C00035FED7E75A46514648460FF07FFD424631
:1046D000394630460FF044FD05E036A00AF026FECC
:1046E00043A00AF023FE00BFC4E70000252E2A7372
:1046F0000000000079656172206973206F75742075
:104700006F662072616E6765205B323030302D320B
:104710003039395D0A0000006D6F6E74682069736E
:10472000206F7574206F662072616E6765205B3143
:104730002D31325D0A000000646179206973206FB9
:104740007574206F662072616E6765205B312D3352
:10475000315D0A00686F7572206973206F7574206F
:104760006F662072616E6765205B302D32335D0AA3
:10477000000000006D696E757465206973206F75A7
:1047800074206F662072616E6765205B302D35394D
:104790005D0A00007365636F6E64206973206F7536
:1047A00074206F662072616E6765205B302D35392D
:1047B0005D0A0000706C6561736520696E707574C8
:1047C0003A2064617465205B79656172206D6F6E5B
:1047D00074682064617920686F7572206D696E203D
:1047E0007365635D206F7220646174650A00000068
:1047F000652E673A2064617465203230313820308C
:1048000031203031203233203539203539206F7254
:1048100020646174650A000010B5024801F0C2FD11
:10482000002010BD3C5401082DE9F04F89B08246AC
:104830004FF0000BD946314A07CA03AB07C3BAF1A0
:10484000000F01D0514600E00021084606A901F002
:1048500011FE06463EB12AA00AF068FD4FF0FF3077
:1048600009B0BDE8F08F08990698A0FB01700146D9
:104870004FF4806200233846FBF7CBFD04460D461B
:104880004FF0000927E04FF48061611A75F10000D4
:1048900000DA23E04FF48062002320462946FBF72C
:1048A000B8FD0A210020A2FB017E03FB01E102FB0F
:1048B00000114FF4806203463846FBF7AAFD834699
:1048C0004FF48062002320462946FBF7A2FD0446F0
:1048D0000D4609F10109B9F1020FD4DB00BF0699B9
:1048E0000898CDE9000103A850F829305A4621461E
:1048F00008A00AF01BFD0020B2E700000C540108DC
:104900006466735F737461746673206661696C6555
:10491000642E0A006469736B20667265653A20250F
:10492000642E2564202573205B20256420626C6F33
:10493000636B2C2025642062797465732070657226
:1049400020626C6F636B205D0A0000002DE9F0416E
:10495000044624B95C22134913A009F0C9FB6088FE
:1049600002280CD1276A27B963220E4912A009F048
:10497000BFFB38460AF09CF80020BDE8F081266AAB
:1049800026B96C22074912A009F0B2FB304609F0A3
:104990002FFD054615B900202062EEE76FF00B00F1
:1049A000EBE700009F54010866696C6520213D20FB
:1049B00052545F4E554C4C00726F6F745F64697255
:1049C000656E7420213D2052545F4E554C4C0000C2
:1049D0006465765F696420213D2052545F4E554CDA
:1049E0004C0000002DE9F047804689461746D8F86C
:1049F00020502DB940F20B1219491AA009F078FB8A
:104A00004FF48270B7FBF0F71FB96FF01C00BDE8E0
:104A1000F087002415E0A9882144286850F821A0D7
:104A200004EB841009EB80060120307008207070C0
:104A30004FF48270708008225146301D0DF09EF9AF
:104A4000641CBC4204D2A8882044E9888842E2D38E
:104A5000A8882044A88004EB84108000D7E70000D9
:104A6000C6540108726F6F745F646972656E74205A
:104A7000213D2052545F4E554C4C00002DE9F04131
:104A800004460F46904624B925220B490BA009F095
:104A90002FFB266A26B9292207490CA009F028FB1A
:104AA00042463946304609F0F9FC054615B9002062
:104AB000BDE8F0812846FBE76454010866696C652F
:104AC00020213D2052545F4E554C4C006465765F6A
:104AD000696420213D2052545F4E554C4C0000002B
:104AE00003460020704700002DE9F05F044660682F
:104AF00000782F2848D160684078002844D1606948
:104B000000F4803000283FD04FF0000909F09EFFEC
:104B100009200CF049F88246BAF1000F04D18E2228
:104B2000314932A009F0E4FADAF8048003E009F12F
:104B30000109D8F800800AF104008045F7D1082166
:104B400001EB89000AF09EFC0546BDB105F10800A5
:104B500028600020A880A5F806908146DAF8048035
:104B600008E0A8F10C0B286840F829B009F1010908
:104B7000D8F800800AF104008045F2D109F076FFF0
:104B800025620020BDE8F09F6168481C09F0D0FC58
:104B9000074617B96FF01900F4E7F86B88B1F86BA6
:104BA0002061276220690068C0B120690168204641
:104BB000884706460EB1B01D80B9042060800020F1
:104BC000E0E70321384609F0F1FC06460EB1B01DBE
:104BD00020B92762042060800020D3E700202062F3
:104BE0006FF00B00CEE70000B3540108696E666FEA
:104BF000726D6174696F6E20213D2052545F4E5575
:104C00004C4C000002460020704700002DE9F041A6
:104C100004460F46904624B938220C490CA009F0EE
:104C200067FA266A26B93C2208490DA009F060FA05
:104C300043463A463046E16909F080FD0546E069A1
:104C40002844E0612846BDE8F0810000785401085E
:104C500066696C6520213D2052545F4E554C4C00D6
:104C60006465765F696420213D2052545F4E554C47
:104C70004C0000002DE9F04107460E4614463078FE
:104C80002F2814D1707890B90020206048F2B61017
:104C9000E080E08820F40040E080E08844F24901B0
:104CA0000843E080002060612062BDE8F081701C54
:104CB00009F03EFC05461DB3002020604FF4DB7078
:104CC000E080287D20B9E08840F40050E08013E0C7
:104CD000287D012804D1E08840F4C040E0800BE04A
:104CE000287D0F2804D1E08840F48050E08003E064
:104CF000E08840F40040E080002060612062D4E75A
:104D000000BF6FF00800D0E72DE9F04104460F46E0
:104D1000904624B94A220C490CA009F0E9F9266A08
:104D200026B94E2208490DA009F0E2F943463A4659
:104D30003046E16909F030FE0546E0692844E0614B
:104D40002846BDE8F08100008B54010866696C6557
:104D500020213D2052545F4E554C4C006465765FD7
:104D6000696420213D2052545F4E554C4C00000098
:104D700070B504460025608802280BD1266A2EB93A
:104D800040F2C9120F4910A009F0B2F9304609F0FB
:104D90008FFE12E0608880B9266A2EB94FF4E9725E
:104DA00008490DA009F0A4F9304601F077FF054647
:104DB00015B9304609F07CFE00BF284601F042FFDD
:104DC00070BD00004B55010864697220213D2052DE
:104DD000545F4E554C4C0000666420213D205254D7
:104DE0005F4E554C4C00000070B50446256A2DB945
:104DF0004FF40D72054906A009F07AF9284603F030
:104E00005BF90646304601F01DFF70BD8255010872
:104E1000666420213D2052545F4E554C4C000000EA
:104E20002DE9F04FC7B0064689461746D6F820A0B0
:104E3000BAF1000F05D140F26A22314931A009F0E0
:104E400057F94FF48270B7FBF0F000EB8010870049
:104E500027B96FF01C0047B0BDE8F08F00243DE09B
:104E600004EB841009EB800501A9504602F0F4FF21
:104E70008046B8F1000F02D19DF81A0000B92EE06B
:104E80009DF81A0010B10DF11A0001E00DF10D00AE
:104E90008346002028709DF80C0000F0100010B12F
:104EA0000220287001E00120287058460CF049FFCC
:104EB00068704FF48270688058460CF042FF401CC6
:104EC000024659460090281D0CF058FF641C04EB64
:104ED0008410B7EB800F00D801E000BFC0E700BF2F
:104EE0001CB9404601F0AEFEB5E704EB8411F06951
:104EF00000EB8100F06104EB84108000ABE7000060
:104F00009E55010864697220213D2052545F4E5520
:104F10004C4C00002DE9F04706460F4690461448D9
:104F2000384410BB4FF0000A346A2CB940F2E91241
:104F3000104911A009F0DCF8D4F81490D8F800500A
:104F4000E068A84205D36561204603F00DF982466A
:104F500004E02946204601F038FF8246C4F8149048
:104F6000504601F06FFEBDE8F0876FF02C00FAE7C5
:104F70000000ACAD59550108666420213D20525413
:104F80005F4E554C4C0000002DE9F04104460E46A2
:104F90000027608898B9256A2DB940F24322164946
:104FA00016A009F0A5F83146284601F00EFF074685
:104FB00027B96869E0616869BDE8F08118E0608838
:104FC000022815D1256A2DB940F253220A490FA0B3
:104FD00009F08EF84FF48270B6FBF0F8414628468F
:104FE00003F017F8074617B9E661E069E4E700BF88
:104FF000384601F027FEDFE790550108666420215E
:105000003D2052545F4E554C4C00000064697220A4
:10501000213D2052545F4E554C4C00002DE9FC4779
:1050200005464FF000083EA0006801904FF4007064
:105030000AF028FA06461EB96FF01200BDE8FC8798
:105040002DB9304609F034FD6FF01C00F6E74FF043
:105050000009284604F030FA0446601C00282FD1CD
:1050600004F02AFA0446601C40B92EA00AF05EF94A
:10507000304609F01DFD6FF02200DFE74FF40E709F
:105080000AF000FA8046B8F1000F05D1304609F069
:105090000FFD6FF01200D1E74FF001092B4840F8E7
:1050A00024500321284609F081FA04F13000C0B2EF
:1050B0008DF80400E2B201A9404602F02FFC04E0A2
:1050C00004F13000C0B28DF804004FF40070334694
:1050D00000220F21009001A802F0DEF807463046BA
:1050E00009F0E6FC0026B9F1010F0ED1404609F0A7
:1050F000DFFCE2B201A9002002F010FC00201349FD
:1051000041F82400284609F073F937B110A00AF0DD
:105110000DF9384601F096FD90E700208EE700007B
:10512000303A0000736F7272792C20746865726572
:10513000206973206E6F20737061636520746F2027
:10514000646F206D6B667321200A00007C030020D1
:10515000666F726D6174206572726F720A00000072
:105160002DE9F04786B00546894692463AA0006888
:105170000290002004F0A0F90446601C20B96FF0F2
:10518000080006B0BDE8F08704F13000C0B28DF829
:1051900008003249286841F8240003AA1021286831
:1051A00009F07CF948B90498B0F5007F05D92C487E
:1051B0000AF0BCF86FF01C00E3E74FF40E700AF041
:1051C00061F9064636B90020244941F824006FF001
:1051D0001200D6E7012202A9304602F09FFB0746E3
:1051E00047BB23461FA2082168460CF019FD30205A
:1051F0000AF048F98046B8F1000F0ED1012202A949
:10520000002002F08BFB0020144941F824003046B6
:1052100009F04EFC6FF01200B3E76946404602F019
:10522000CEFC074607B106E0EE60404609F040FCC0
:105230000020A6E700BF012202A9002002F06EFBB9
:105240000020064941F82400304609F031FC384678
:1052500001F0F8FC95E70000303A00007C030020E4
:105260009061010825643A2F000000002DE9F84FF5
:105270000446D4F820B0BBF1000F03D16FF0080052
:10528000BDE8F88FDBF80C0001F0C2FC8146B9F1F3
:10529000000F02DA6FF00800F2E74FF480700AF0B6
:1052A000F1F88046B8F1000F02D16FF01200E7E785
:1052B00060684B4646A24FF48071009040460CF067
:1052C000AFFC606900F4803080B3207D00F04000C6
:1052D00058B1404601F016FF074637B1404609F085
:1052E000E7FB384601F0AEFCCAE730200AF0CAF806
:1052F0008246BAF1000F05D1404609F0D9FB6FF0A4
:105300001200BDE74146504602F059FC07464046B0
:1053100009F0CEFB37B1504609F0CAFB384601F020
:1053200091FCADE7C4F820A00020A9E7FFE7012623
:10533000207D00F0010008B146F00206207D032127
:10534000084000F0020008B146F00206207D00F09F
:10535000400008B146F01006A08A00F4007008B1C1
:1053600046F00806207D00F0800008B146F00406F3
:105370004FF40B700AF086F805462DB9404609F047
:1053800097FB6FF012007BE732464146284602F059
:1053900005FB0746404609F08BFB7FB96869E06171
:1053A000E868A0612562A08A00F4806068B12846A0
:1053B000E96801F00AFD6869E06106E0284609F045
:1053C00077FB384601F03EFC5AE7002058E7000022
:1053D00025643A25730000002DE9F84304460F4682
:1053E00090466088022803D16FF01B00BDE8F88367
:1053F000256A2DB940F20B2209490AA008F078FE6F
:105400006B4642463946284602F026FC0646686945
:10541000E0610EB90098E9E7304601F013FCE5E7DA
:1054200067550108666420213D2052545F4E554C5B
:105430004C0000002DE9F84F05460E461746E86877
:1054400001F0E6FB8146B9F1000F03DA6FF00800C6
:10545000BDE8F88F4FF480700AF014F8044614B9D0
:105460006FF01200F4E7B8464B4609A24FF4807182
:10547000204600960CF0D4FB4146204602F028FD61
:105480008246204609F014FB504601F0DBFBDFE7C3
:1054900025643A25730000002DE9F04FD7B080460F
:1054A00089461546D8F80C0001F0B2FB8246BAF1E5
:1054B000000F04DA6FF0080057B0BDE8F08F4FF42A
:1054C000807009F0DFFF074617B96FF01200F3E7AD
:1054D000534631A24FF480713846CDF800900CF05D
:1054E0009FFB11A9384602F0B3FD0646384609F085
:1054F000DFFA002E4BD10020286048F2B610E88079
:105500009DF84C0000F0100040B1E88820F4004005
:10551000E880E88844F249010843E8809DF84C009F
:1055200000F0010018B1E88820F09200E88011989E
:105530006861BDF8484004F01F000490641104F055
:105540000F000590241104F2BC7BBDF84A40E00630
:10555000800E0190641104F03F000290A4110394A6
:105560002C2106A8FBF77CF9ABF26C700B90059828
:10557000401E0A9004980990039C08940298079092
:105580000198069006A805F057FE286200BF304635
:1055900001F058FB90E7000025643A2573000000F5
:1055A0002DE9FE4305460C462DB940F22B121A494F
:1055B0001AA008F09DFD2CB94FF4967216491BA055
:1055C00008F096FDE8680290029843781BA2042137
:1055D00001A80CF025FB02AA694601A801F073FBA3
:1055E000064626B1304601F02DFBBDE8FE83029849
:1055F000C069801E0299498900FB01F80298408920
:10560000009900FB01F7A760C4F804804FF4007014
:1056100020600020E9E700003C5501086673202166
:105620003D2052545F4E554C4C0000006275662080
:10563000213D2052545F4E554C4C000025643A00E9
:105640002DE9F84305460E46E86801F0E1FA074601
:10565000002F03DA6FF00800BDE8F8834FF4807084
:1056600009F010FF044614B96FF01200F4E73B464E
:1056700008A24FF48071204600960CF0D1FA204623
:1056800002F0DBFD8046204609F012FA404601F0A8
:10569000D9FAE1E725643A2573000000F8B505461C
:1056A00016A000680090EF6827B9AF22144915A032
:1056B00008F01EFD286803F0FFFE0446601C10B9C8
:1056C0006FF00800F8BD04F13000C0B28DF80000A2
:1056D00001226946002002F021F906461EB130463B
:1056E00001F0B0FAEEE70020E8600A4941F8240032
:1056F000384609F0DDF90020E4E70000303A000008
:105700002C55010866617420213D2052545F4E558E
:105710004C4C00007C0300202DE9F84304460F4662
:1057200090466088022803D16FF01B00BDE8F88323
:10573000256A2DB940F222220A490BA008F0D8FCB4
:105740006B4642463946284602F0E1FD0646686946
:10575000E061E868A0610EB90098E7E7304601F023
:1057600071FAE3E774550108666420213D20525424
:105770005F4E554C4C0000000048704770030020FD
:1057800070B50446002514B96FF00C0070BD206997
:10579000406820B120694168204688470546002DB1
:1057A00001DA2846F2E7606809F082F900206060BB
:1057B0002846EBE770B504460D46164614B16088DE
:1057C000022802D06FF01C0070BD2069C06930B1A2
:1057D000206932462946C36920469847F4E76FF0AE
:1057E0002C00F1E770B504460E4614B96FF01C00AA
:1057F00070BD2069806910B96FF02C00F8E720694E
:1058000031468269204690470546002D00DBE56160
:105810002846EDE72DE9F0470446884617461CB9AF
:105820006FF01C00BDE8F0874146002000F0FEFC50
:10583000064616B96FF01200F4E7304600F094FA0D
:1058400005462DB9304609F033F96FF00800E9E755
:10585000E560A86880682061002060806761A061C1
:10586000E0612562A868007900F00100A8B931461E
:10587000686800F013FE20B91CA00CF04EFA6060BE
:1058800007E03146686800F009FE82460CF045FAF0
:105890006060304609F00CF900E06660206900683D
:1058A00038B9606809F004F9002060606FF02C00DE
:1058B000B8E72069016820468847B0F1000906DA98
:1058C000606809F0F5F8002060604846AAE7606962
:1058D00040F08070606107F4803028B10220608061
:1058E000606940F00070606100209BE72F000000BD
:1058F0002DE9F04104460D46164600271CB96FF00D
:105900001C00BDE8F0812069C06810B96FF02C0060
:10591000F7E7206932462946C36820469847071EA4
:1059200003DA606940F0806060613846E9E72DE99C
:10593000F84F804689464FF0000A0026002741466E
:10594000002000F073FC074617B96FF0080A3AE030
:105950004946002000F06AFC064616B96FF0080AB6
:1059600031E0384600F000FA0446304600F0FCF919
:105970000546AC4224D1A068406A10B96FF02C0AE9
:1059800020E0A068007900F0010038B1A06832463C
:105990003946436A20469847824613E03146686894
:1059A00000F07CFD83463946606800F077FD00908A
:1059B000A0685A46436A204600999847824601E00B
:1059C0006FF0180A00BF384609F072F8304609F047
:1059D0006FF85046BDE8F88F2DE9F04780460C4639
:1059E0004146002000F022FC06461EB94FF0FF3071
:1059F000BDE8F087304600F0B7F9051E11D100BFB1
:105A00002FA009F093FC314631A009F08FFC3CA097
:105A100009F08CFC00BF304609F04AF86FF008002E
:105A2000E6E730782F2801D1707820B131466868D8
:105A300000F034FD88B9002020604FF4DB70E08076
:105A4000E08844F249010843E08000206061206260
:105A5000304609F02DF80020CAE7A868006A80B92E
:105A6000304609F025F800BF15A009F05FFC26A01C
:105A700009F05CFC22A009F059FC00BF6FF02C007B
:105A8000B6E7A868007900F0010038B1A86822469E
:105A90003146036A2846984707460BE03146686856
:105AA00000F0FCFC8146A86822464946036A284665
:105AB00098470746304608F0FBFF384698E7000055
:105AC0001B5B33316D5B452F4446535D2000000066
:105AD00063616E27742066696E64206D6F756E74E5
