:020000040800F2
:100000007004002099010008D90B0008CD0B0008EE
:10001000D50B0008A103000805100008000000002F
:10002000000000000000000000000000450D000876
:10003000A503000800000000DB0B0008710D00089C
:10004000B3010008B3010008B3010008B3010008C0
:10005000B3010008B3010008B3010008B3010008B0
:10006000B3010008B3010008B3010008B3010008A0
:10007000B3010008B3010008B3010008B301000890
:10008000B3010008B3010008B3010008B301000880
:10009000B3010008B3010008B3010008B301000870
:1000A000B3010008B3010008B3010008B301000860
:1000B000B3010008B3010008B3010008D30B000826
:1000C000D10B0008B3010008B3010008B301000818
:1000D000B3010008B3010008B3010008B301000830
:1000E000B3010008B3010008B3010008B301000820
:1000F000B3010008B3010008B3010008B301000810
:10010000B3010008B3010008B3010008B3010008FF
:10011000B3010008B3010008B3010008B3010008EF
:10012000B3010008B3010008B3010008B3010008DF
:10013000B3010008B3010008B3010008B3010008CF
:1001400000000000000000000000000000000000AF
:10015000B3010008B3010008B3010008B3010008AF
:10016000B3010008B3010008B3010008B30100089F
:10017000B3010008B3010008B3010008B30100088F
:10018000B3010008DFF80CD000F04AF8004800473F
:100190002D130008700400200648804706480047D9
:1001A000FEE7FEE7FEE7FEE7FEE7FEE7FEE7FEE727
:1001B000FEE7FEE7750D0008850100082DE9F05FF8
:1001C0000546002092469B468846064681464024C6
:1001D0001BE0284641464746224600F042F8534677
:1001E0005A46C01A914110D311461846224600F0D3
:1001F00029F82D1A67EB01084F46224601200021FD
:1002000000F020F817EB00094E41201EA4F1010474
:10021000DFDC484631462A464346BDE8F09F0000F1
:10022000064C074D06E0E06840F0010394E8070043
:1002300098471034AC42F6D3FFF7A8FFA413000888
:10024000C4130008202A04DB203A00FA02F100203F
:1002500070479140C2F1200320FA03F31943904004
:100260007047202A04DB203A21FA02F0002170476F
:1002700021FA02F3D040C2F120029140084319460E
:100280007047000038B504460B4951F8240001219D
:1002900000F0A4FC684600F091FC084830F8140017
:1002A000ADF8000028208DF80300054951F824001E
:1002B000694600F03FF938BD580000205400002086
:1002C0004C00002010B500F06FF8012000F016F887
:1002D000022000F013F8032000F010F8012000F0D5
:1002E00031F8022000F02EF8032000F02BF8002057
:1002F000FFF7C8FF0120FFF7C5FF10BD38B5044662
:100300000D4951F82400012100F068FC684600F016
:1003100055FC0A4830F81400ADF8000010208DF8A4
:10032000030002208DF80200054951F824006946B7
:1003300000F000F938BD00003C000020340000202F
:1003400024000020032800DD7047064931F8101012
:1003500031B1044931F81010034A52F820201161DC
:1003600000BFF1E73400002024000020032800DD56
:100370007047094931F8101059B1084951F8201057
:10038000C968054A32F810205140044A52F820202A
:10039000D16000BFECE70000340000202400002002
:1003A00000BFFEE77047000010B56FF0040000F0DA
:1003B000CBFC0B4890ED000AB8EE400ADFED090ACD
:1003C00080EE201A084880ED001A90ED000ADFED5B
:1003D000070A20EE200A064880ED000A10BD000042
:1003E000000000200024F44A6000002000007A444D
:1003F0006400002043E0B0F5FA7F11DD214A92ED60
:10040000000ADFED210A20EE200ABCEEC00A10EE41
:10041000102A4FF0E0235A61A0F5FA7290B210E072
:1004200000EE100AB8EE400A164AD2ED000A20EE9D
:10043000200ABCEEC00A10EE102A4FF0E0235A61E9
:10044000002000224FF0E0239A611A46126942F020
:1004500001021A6100BF4FF0E022116901F00102B0
:100460001AB101F48032002AF5D04FF0E02212696F
:1004700022F001024FF0E0231A6100229A61002865
:10048000B9D17047640000200000FA4308B501218B
:100490000D2000F0A3FB684600F090FB4FF4807045
:1004A000ADF8000002208DF8020018208DF803003E
:1004B0006946194800F03EF840F6C240ADF8000029
:1004C0006946164800F036F80121154800F0BEF8DC
:1004D0000121144800F0BAF802201349086000BF57
:1004E0001148001D006800F001000028F8D10F48F5
:1004F0000D49091F08600E480B498839C1F884006E
:1005000000BF09480830006800F080000028F8D1DA
:1005100005491031086008BD00080140000C014089
:100520000000204009020080882002402301674526
:10053000AB89EFCD2DE9F0410246002500260020D1
:1005400000230024002791F803C00CF00F0591F858
:1005500003C00CF0100CBCF1000F03D091F802C0E6
:100560004CEA050591F800C0BCF1000F31D01468C9
:1005700000202BE04FF0010C0CFA00F3B1F800C0A2
:100580000CEA03069E4220D183004FF00F0C0CFAB8
:1005900003F7BC4305FA03FC4CEA040491F803C0DA
:1005A000BCF1280F06D14FF0010C0CFA00FCC2F888
:1005B00014C00AE091F803C0BCF1480F05D14FF018
:1005C000010C0CFA00FCC2F810C0401C0828D1D362
:1005D0001460B1F800C0BCF1FF0F34DD5468002096
:1005E0002EE000F1080C4FF0010808FA0CF3B1F806
:1005F00000C00CEA03069E4221D183004FF00F0C8D
:100600000CFA03F7BC4305FA03FC4CEA040491F826
:1006100003C0BCF1280F05D100F1080C08FA0CF852
:10062000C2F8148091F803C0BCF1480F07D100F163
:10063000080C4FF0010808FA0CF8C2F81080401CB2
:100640000828CED35460BDE8F0810000F0B5034621
:10065000B3F1004F71D90025002223F00044E509D1
:1006600004F07F04220904F00F04970004FA07F64F
:10067000062D15D2DFE805F00305080B0E11F8482A
:100680000FE0F748001D0CE0F548083009E0F44899
:100690000C3006E0F248103003E0F148143000E07E
:1006A00000BF00BF22B9076827F00F0707603DE0D1
:1006B000012A12D1012D0BD1042C04D9076827F08F
:1006C000C007076032E0076827F0300707602DE0B9
:1006D000076827F0F007076028E0022A04D10768BE
:1006E00027F47067076021E0032A04D1076827F424
:1006F000704707601AE0042A04D1076827F47027BE
:10070000076013E0052A04D1076827F47007076023
:100710000CE0062A04D1076827F07067076005E03F
:10072000072A03D1076827F070470760012902D123
:100730000768374307603EE2FFE7B3F5802F6FD0CD
:1007400037DCB3F5007F6CD015DC102B6AD008DCE9
:10075000012B68D0022B7BD0042B7AD0082B72D1CE
:100760007CE0302B70D0402B6FD0C02B6ED0B3F517
:10077000807FF4D1E4E0B3F5804F68D00CDCB3F5B2
:10078000407F7CD0B3F5006F7AD0B3F5406F78D05E
:10079000B3F5805FE3D162E0B3F5C04F72D0B3F53B
:1007A000004F57D0B3F5803F55D0B3F5003FD6D1B9
:1007B00052E0B3F1005F76D01DDCB3F5000F73D0CB
:1007C0000CDCB3F5002F4BD0B3F5801F49D0B3F547
:1007D000001F6AD0B3F5800FC1D18FE1B3F1807FE4
:1007E00074D0B3F1007F72D0B3F1806F70D0B3F1E9
:1007F000805FB4D166E19B4A981A934269D014DCB9
:10080000B3F1804F76D0A3F180402038002872D019
:10081000B0F5787F70D0944A104400289FD18BE1C6
:100820001BE09DE042E02EE012E0B0F5802F74D096
:10083000B0F5402F72D0B0F5A01F70D0B0F5E01F1A
:100840008DD17BE105E0B4E144E056E068E0C7E02B
:1008500000BF00BF00BF00BF00BF00BF00BF00BFA0
:1008600000BF7F482038406898437D4A203A506056
:10087000012903D110464068184350609AE17FE097
:100880008EE09DE0BCE0764820384068774A104012
:10089000734A203A5060012904D11046406840F064
:1008A0000100506086E1FFE01AE135E16C48203834
:1008B000406820F030006A4A203A5060012904D193
:1008C0001046406840F01000506073E1A8E0B7E0C7
:1008D000CEE032E162482038406820F03000604AC3
:1008E000203A5060012904D11046406840F03000A1
:1008F00050605FE1CAE01DE11DE1594820384068C1
:1009000020F0C000564A203A5060012904D1104618
:10091000406840F0400050604CE120E12DE13AE1B8
:100920004F482038406820F0C0004D4A203A5060BF
:10093000012904D11046406840F0C000506039E100
:1009400047482038406820F44070454A203A5060BB
:10095000012904D11046406840F48070506029E1BC
:100960003F482038406820F440703D4A203A5060AB
:10097000012904D11046406840F40070506019E12C
:1009800037482038406820F44070354A203A50609B
:10099000012904D11046406840F44070506009E1DC
:1009A0002F482038406820F440602D4A203A50609B
:1009B000012904D11046406840F400605060F9E01D
:1009C00027482038406820F44060254A203A50608B
:1009D000012904D11046406840F440605060E9E0CD
:1009E0001F482038406820F4C0401D4A203A50601B
:1009F000012904D11046406840F480405060D9E09D
:100A000017482038406820F4C040154A203A50600A
:100A1000012904D11046406840F4C0405060C9E04C
:100A20000F482038406820F0E0600D4A203A5060BE
:100A3000012904D11046406840F080705060B9E050
:100A400007482038406820F0E060054A203A5060AE
:100A5000012904D11046406840F000705060A9E0C0
:100A600020000140000004402000FEFFFEFFFF7F49
:100A70005148406820F0E0604F4A5060012904D19D
:100A80001046406840F08060506093E04A484068FB
:100A900020F08040484A5060012904D11046406847
:100AA00040F08040506085E04348406820F00050AE
:100AB000414A5060012904D11046406840F000507E
:100AC000506077E03C48406820F080503A4A5060DF
:100AD000012904D11046406840F08050506069E020
:100AE0003548406820F40000334A5060012904D1A1
:100AF0001046406840F4000050605BE02E484068BB
:100B000020F480002C4A5060012904D1104640682E
:100B100040F4800050604DE02748406820F4001009
:100B2000254A5060012904D11046406840F4001065
:100B300050603FE000BF00BF00BF00BF1E48C0695B
:100B4000C3F3150290431C4AD061012906D1104617
:100B5000C069C3F315021043174AD0612AE0164852
:100B6000C06920F4C010144AD061012904D1104694
:100B7000C06940F40020D0611CE00F48C06920F437
:100B8000C0100D4AD061012904D11046C06940F45B
:100B90008010D0610EE00848C06920F4C010064AF9
:100BA000D061012904D11046C06940F4C010D06161
:100BB00000E000BF00BFF0BD000001404FF6FF7134
:100BC0000180022181700421C170704700BFFEE7DF
:100BD0007047704700BFFEE77047704729B1064A6B
:100BE00092690243044B9A6104E0034A926982438A
:100BF000014B9A617047000000100240F0B50022DE
:100C0000002100240023484D6D6805F00C0222B13C
:100C1000042A05D0082A3ED105E0444D05603DE098
:100C2000424D05603AE0404D6D68414E05EA0601CF
:100C30003D4D6D6805F4803401F0C04535B901F4CF
:100C40007015B5F5701F01D0022500E0012501F0F7
:100C5000C046C1F3834747EA5666A9191CB9354D0A
:100C60004D4305600BE0304D6D6805F400351DB156
:100C7000304D4D43056002E02C4D4D4305602A4D3B
:100C80006D6805F000452DB92B4E0568B54201D9B8
:100C90003546056002E0254D056000BF00BF224DCE
:100CA0006D68C5F30212204D6D6805F0800515B121
:100CB000224DAD5C00E000252B460568DD40456017
:100CC000194D6D68C5F30122174D6D6805F48065F7
:100CD00015B11A4DAD5C00E000252B464568DD409E
:100CE0008560114D6D68C5F3C1220F4D6D6805F427
:100CF000005515B1114DAD5C00E000252B4645684F
:100D0000DD40C560084D6D68C5F38132064D6D68E4
:100D100005F080550DB142F00402094DAB5CC56889
:100D2000B5FBF3F50561F0BD0010024000127A003A
:100D300000003C6000093D0000A24A0414000020AD
:100D40001C00002070477047042808D14FF0E021B4
:100D5000096941F004014FF0E022116107E04FF012
:100D6000E021096921F004014FF0E0221161704790
:100D70007047000010B51A48006840F47000184928
:100D800008601848006840F00100164908600846ED
:100D900040681549084013494860084600681349EF
:100DA0000840104908600846006820F48020086068
:100DB000084640680E4908400A4948600846006BEA
:100DC0000C490840074908634FF41F008860FFF78B
:100DD000BAFF4FF0006002498039086010BD000082
:100DE00088ED00E0001002400C00FFE8FFFFF6FE77
:100DF000FFFF001700FFFEFE10B586B0044601217C
:100E00000420FFF7EBFE01218803FFF7E7FE05A8AA
:100E1000FFF7D4FE4FF40070ADF8140002208DF8F7
:100E2000160018208DF8170005A91748FFF782FB58
:100E30004FF48060ADF8140004208DF8170005A968
:100E40001148FFF777FB01A800F0D0F801940020CB
:100E5000ADF80800ADF80A00ADF80C00ADF81000D0
:100E60000C20ADF80E0001A9084800F04FF801224F
:100E700040F22551054800F024F80121034800F014
:100E800007F806B010BD000000080140003801401E
:100E900021B1828942F40052828104E082894DF6B8
:100EA000FF731A408281704702460020B1F5007F2F
:100EB00000D100BF13880B400BB1012000E00020DF
:100EC0007047F0B50346002400260025002040F6B8
:100ED0006A17B94200D100BF1846C1F3421401F0AD
:100EE0001F06012707FA06F5012C01D10C3004E09A
:100EF000022C01D1103000E014301AB107682F43E2
:100F0000076002E00768AF430760F0BD2DE9F047D6
:100F100086B005460E460024A24600BFA146002723
:100F2000B08900B100BF2F462C8A4CF6FF700440F8
:100F3000F08804432C82AC894EF6F3100440B0884C
:100F400031890843718908430443AC81AC8A4FF668
:100F5000FF400440B0890443AC8201A8FFF74EFE75
:100F60001F48874202D1DDF810A001E0DDF80CA097
:100F7000A88900F4004040B10AEBCA0000EB0A1057
:100F800031684900B0FBF1F807E00AEBCA0000EB5A
:100F90000A1031688900B0FBF1F86420B8FBF0F06A
:100FA00004012009642101FB1089A88900F4004094
:100FB00040B1322000EBC900B0FBF1F000F00700B7
:100FC000044308E0322000EB09106421B0FBF1F08B
:100FD00000F00F0004432C8106B0BDE8F08700004C
:100FE00000380140C1F30802828070474FF4165167
:100FF000016000218180C18001810C21418100219B
:101000008181704700BFFEE70FB4054B10B503A9FF
:10101000044A029800F018F810BC5DF814FB0000B8
:10102000091300086C00002002E008C8121F08C164
:10103000002AFAD170477047002001E001C1121F59
:10104000002AFBD1704700002DE9FF4F8DB09B4671
:101050000F460446002606E025280BD05A460F9975
:101060009047641C761C20780028F5D111B03046DA
:10107000BDE8F08F0025A8460122984900E005430D
:1010800014F8013F203B02FA03F00842F7D1207820
:101090002E2817D114F8010F45F004052A280ED088
:1010A0006FF02F022078A0F1300109290AD808EB4F
:1010B000880102EB410100EB0108641CF2E757F8DC
:1010C000048B641C20786C280DD004DC4C2812D0D2
:1010D0006A2811D104E074280DD07A280CD10AE0D6
:1010E00045F4001507E0617845F48015814202D18E
:1010F000641C05F58015641C2278692A45D008DC3B
:10110000002AB3D0582A69D0632A10D0642A08D1A3
:101110003BE0702A67D0732A13D0752A5CD0782AF6
:101120005CD010465A460F999047761CD3E017F8CA
:10113000040B8DF8000000208DF80100E946012025
:1011400003E057F8049B4FF0FF3069074FF00005AC
:1011500001D40AE06D1C45450DDA8542FADB19F829
:1011600005100029F6D106E06D1C8542FCDB19F85C
:1011700005100029F8D12E4404E019F8010B5A4655
:101180000F9990476D1EF8D2A5E00A200021CDE905
:101190000801C5F3025002280DD001CFC117031E6C
:1011A00071F100030DDA4FF0000CD0EB0C006CEB8A
:1011B00001012D2308E0FF1D27F00707F7E80201D2
:1011C000EDE72B0504D52B238DF8283001233BE0D8
:1011D000EB0739D02023F7E70A2000E01020002198
:1011E000CDE9080107E01020002145F00405CDE914
:1011F00008014FF00808C5F3025002280FD001CFB4
:1012000000214FF0000A2B071FD5702A0DD0DDE911
:1012100008C38CF0100C5CEA030C0CD015E0FF1D29
:1012200027F00707F7E80201EBE740228DF82820B6
:101230004FF0010A0BE050EA010306D030238DF88D
:1012400028308DF8292002239A46582A04D024A257
:101250000DF120090B9209E026A2F9E7DDE9082348
:10126000FEF7ACFF0B9B9B5C09F8013D50EA0102C5
:10127000F4D1ADEB090020300890680701D44FF09D
:1012800001080899884502DDA8EB010000E0002074
:101290008046002506E00AA85A46405D0F9990470F
:1012A0006D1C761C5545F6DB04E030205A460F993C
:1012B0009047761CB8F10001A8F10108F5DC05E0C3
:1012C00019F8010B5A460F999047761C0899481E49
:1012D00008900029F4DC641CC5E600000928010020
:1012E000303132333435363738396162636465669C
:1012F000000000003031323334353637383941425E
:10130000434445460000000070B504460D46A1B2B6
:101310000548FFF767FE00BF40210348FFF7C4FD03
:101320000028F9D0204670BD00380140FEF7CAFF02
:101330004FF4E130FFF760FD0CA0FFF765FEFFF70B
:10134000A5F812E0AFF21B0111A0FFF75DFE02202D
:10135000FFF70CF8C820FFF74DF80320FFF706F859
:10136000C820FFF747F8FEF34BFEEBE7746869739C
:10137000206D6573736167652069732072756E6E89
:10138000696E6720696E2062616E6B312E0D0A00F6
:101390006D61696E206C6F6F702040203078257809
:1013A0000D0A0000C41300080000002070000000B7
:1013B0002810000834140008700000200004000009
:1013C0003810000800127A00000000000000000041
:1013D00001020304060708090102030406070809BD
:1013E00002040608020C081000000000001401406E
:1013F0000014014000140140000000200040008063
:10140000000000002000000020000000200000007C
:10141000000801400010014001000020040000000D
:1014200010000000000000000000000001000000AB
:0414300000000000B8
:020000040840B2
:1000000010B5012000F4B2F9C82000F4F3F9AFF202
:100010000F02024902A000F4F7FF10BD3C004008A7
:100020004920616D20686572653A20257320402063
:1000300030782578207E210D0A00000065787465EF
:0C004000726E616C436F646552756E0057
:040000050800018569
:00000001FF
