:020000040800F2
:100000009010002099010008451600086D150008A1
:1000100041160008410400084B27000800000000BA
:10002000000000000000000000000000C11A0008ED
:10003000550F0008000000007D180008B1010008FD
:10004000B3010008B3010008B3010008B3010008C0
:10005000B3010008B301000845120008B30100080D
:10006000B3010008B3010008B3010008B3010008A0
:10007000B3010008B3010008B3010008B301000890
:10008000B3010008B3010008B3010008F12400081F
:10009000F1260008B3010008B3010008B30100080D
:1000A000B3010008B3010008B3010008B301000860
:1000B000B3010008B3010008B3010008B301000850
:1000C000B3010008B3010008B3010008B301000840
:1000D000B3010008B3010008B3010008B301000830
:1000E000B3010008B3010008E5240008B3010008CB
:1000F000B3010008B3010008B3010008B301000810
:10010000B3010008B3010008B3010008B3010008FF
:10011000B3010008B3010008B3010008B3010008EF
:10012000B3010008B3010008B3010008B3010008DF
:10013000B3010008B3010008B3010008B3010008CF
:1001400000000000000000000000000000000000AF
:10015000B3010008B3010008B3010008B3010008AF
:1001600089020008B3010008B3010008B3010008C8
:10017000B3010008B3010008B3010008B30100088F
:10018000B3010008DFF80CD000F018F80048004771
:10019000AD27000890100020064880470648004719
:1001A000FEE7FEE7FEE7FEE7FEE7FEE7FEE7FEE727
:1001B000FEE7FEE76124000885010008064C074DB4
:1001C00006E0E06840F0010394E807009847103427
:1001D000AC42F6D3FFF7DAFF002900082029000817
:1001E00070B58C1810F8015B15F0070301D110F8F9
:1001F000013B2A1106D110F8012B03E010F8016B26
:1002000001F8016B5B1EF9D12B0705D40023521EA8
:100210000DD401F8013BFAE710F8013BCB1A921C10
:1002200003E013F8015B01F8015B521EF9D5A1420E
:10023000D8D3002070BD0000012805D10749096806
:1002400021F00101054A1160022805D1034909681E
:1002500021F00201014A116070470000005801407E
:10026000024A12680243014B1A6070470458014069
:1002700001460020034A12680A400AB1012000E04A
:10028000002070470058014010B50120FFF7F0FF33
:10029000012801D1FFF7D0FF0220FFF7E9FF012875
:1002A00002D10220FFF7C8FF10BD000029B1074AA4
:1002B00012680243054B1A6006E0044A1268C34301
:1002C0009BB21A40014B1A6070470000045801406D
:1002D00001490860704700000C580140014908605E
:1002E0007047000010580140014908607047000045
:1002F0001458014038B504460B4951F82400012137
:1003000001F00EFB684601F0CFF8084830F8140001
:10031000ADF8000028208DF80300054951F82400AD
:10032000694601F02BF838BD54010020500100202F
:100330004801002010B500F00FFE012000F016F873
:10034000022000F013F8032000F010F8012000F064
:1003500031F8022000F02EF8032000F02BF80020E6
:10036000FFF7C8FF0120FFF7C5FF10BD38B50446F1
:100370000D4951F82400012101F0D2FA684601F03C
:1003800093F80A4830F81400ADF8000010208DF8FA
:10039000030002208DF80200054951F82400694647
:1003A00000F0ECFF38BD00003801002030010020D3
:1003B00020010020032800DD7047064931F81010A5
:1003C00031B1044931F81010034A52F8202011616C
:1003D00000BFF1E73001002020010020032800DDEC
:1003E0007047064931F8101031B1044931F8101046
:1003F000034A52F82020516100BFF1E7300100208C
:100400002001002008B50121042001F089FA684686
:1004100001F04AF84FF4C050ADF8000010208DF8FC
:10042000030002208DF802006946044800F0A6FF90
:100430004FF48051014801F035F808BD0008014033
:1004400000BFFEE70146CAB20B1243EA0220704722
:100450002DE9F04107460D46002400262648B0F855
:100460000284B0F802042449B1F80014884202D191
:100470000020BDE8F0812048B0F800041E49B1F822
:100480000214884208DD1C48B0F800041A49B1F88B
:100490000214401A84B205E01748B0F80204C0F50F
:1004A000806084B2AC4200DD2C461348B0F80204F0
:1004B00020441149A1F802040846B0F80204B0F53E
:1004C000806F02DB0020A1F80204002608E040460D
:1004D000411C1FFA81F80849085CB855701C86B2A7
:1004E000A642F4DB0448B0F80404012802D103203A
:1004F00001F06AFB2046BCE79005002030B50346BA
:1005000000221848B0F80004B0F5806F03DB00202B
:10051000144CA4F80004002217E0985C114CB4F8C5
:100520000044104D28552846B0F80004401C2C46C5
:10053000A4F800042046B0F80004B0F5806F02DB98
:100540000020A4F80004501C82B20648B0F8000451
:10055000B0F5806F01DA8A42DFDB0120024C2070A7
:10056000084630BD880100200400002008B50020A6
:10057000009022E19748008800F00F00964908702B
:100580000846007800287CD1944800689449088087
:100590000846008800F030009249088090480088A2
:1005A00000F440508E4908808C4909684BF6BF72B0
:1005B00001EA020080F4005080F0200040F4004185
:1005C00041F08001854A11608248008800F01000E7
:1005D00090BB1046006848F60F710840114608604D
:1005E00000F0C6FF7D4909684BF6BF7201EA0200C0
:1005F0007B49098801F4805109B180F48050784921
:10060000098801F4005109B180F400507549098846
:1006100001F0100109B180F010007249098801F061
:10062000200109B180F0200081B241F4004141F085
:1006300080016A4A116008BDFFE76848006880B21F
:100640000090BDF8000000F40060B0B3634800689B
:10065000C0F30E0048F68F7108406049086001F051
:100660002FFC5E4909684BF6BF7201EA02005C4943
:10067000098801F4805109B180F4805058490988F3
:1006800000E056E001F4005109B180F400505549F2
:10069000098801F0100109B180F010005149098862
:1006A00001F0200109B180F0200081B241F4004145
:1006B00041F08001494A1160BDE7FFE7BDF8000045
:1006C00000F40040002878D044480068C0F30E00D1
:1006D00048F68F7108404149086001F093F83F499E
:1006E00009684BF6BF7201EA02003D49098801F42E
:1006F000805109B180F480503949098801F40051D2
:1007000009B180F400503749098801F0100109B19E
:1007100080F010003349098801F0200109B180F010
:10072000200081B241F4004141F080012B4A116068
:1007300081E7294800782C4901EB8000D0F8000CB3
:1007400080B20090BDF8000000F40040C0B1224823
:10075000007801EB8000D0F8000CC0F30E0048F6E2
:100760008F7108401C4909781F4A02EB8101C1F8CA
:10077000000C19490978491E1C4A52F8210080478B
:10078000BDF8000000F08000B8B1134800781649A9
:1007900001EB8000D0F8000C48F60F7108400E49BC
:1007A0000978114A02EB8101C1F8000C0A49097865
:1007B000491E0F4A52F8210080470848443000681B
:1007C00080B20449088000F4004000287FF4D2AED3
:1007D00000BF30E7240000206C010020005C0040D6
:1007E00080010020820100200050004044000020D1
:1007F000280000200B4A02EB8001D1F8001C01F414
:10080000804171B102EB8001D1F8001C48F68F7273
:1008100011404CF280021143024B03EB8002C2F8FC
:10082000001C7047005000400B4A02EB8001D1F8D9
:10083000001C01F0400171B102EB8001D1F8001CF5
:1008400048F68F72114048F2C0021143024B03EB8D
:100850008002C2F8001C704700500040084A02EBBA
:100860008001D1F8001C48F68F62114048F28002E6
:100870001143034B03EB8002C2F8001C70470000D9
:100880000050004070B5054620480068808808B1D7
:10089000022070BD0024062D14D11C480068007889
:1008A00000F07F0001280DD11848006880782228C8
:1008B00001D1174C1BE0154800688078212816D11B
:1008C000144C14E011480068007800F07F002128E3
:1008D0000DD1032D02D0092D07D101E00E4C05E00A
:1008E0000E4C09200E49087000E000BF00BF0CB993
:1008F0000220CEE7054800688461002103480068B3
:1009000041820020A0470020C3E7000070010020C2
:100910007D0900084D09000861090008050B000861
:100920006500002010B504460249204601F0F2FBA4
:1009300010BD0000C800002010B504460249204642
:1009400001F0E8FB10BD0000C000002010B5044617
:100950000249204601F0DEFB10BD0000D800002057
:10096000014629B90120034A12681082002070470D
:100970000148FCE7700100206000002010B504462B
:100980000249204601F0C6FB10BD0000D000002047
:1009900070B5054606480068C478042C01DD0020C7
:1009A00070BD044800EBC401284601F0B3FBF7E733
:1009B00070010020E00000200246002901DD022035
:1009C0007047002A01DD0220FAE70020F8E7000066
:1009D00000B502460C480068007800F07F0021282E
:1009E00004D10B2A02D100F081F800BD064800684E
:1009F000007800F07F00212804D10A2A02D100F0FB
:100A000073F8F2E70220F0E77001002010B5002033
:100A100027490968887226490968C8722548C0793B
:100A2000234909684872002023490860491501F0EC
:100A300041F91021002001F003F91821002001F0F4
:100A400069F85821002001F0D9F80020FFF706FFCF
:100A50001A4890F82C10002001F06EF8002001F0E8
:100A6000B3F84FF4C061012001F024F94FF4807114
:100A7000012001F0C3F84FF4C071012001F04AF8E1
:100A80004021012001F0CCF84021012001F054F870
:100A90004FF44051012001F077F82021012001F0AE
:100AA000CFF8002001F00EF801200549086010BDC4
:100AB0007001002012280008505C00406C000020EB
:100AC0000001002003480068807A10B10520024927
:100AD00008607047700100200001002004200149D7
:100AE000086070470001002000207047034800683C
:100AF000C1780348016000207047000070010020A9
:100B000060000020014629B90220034A12681082C1
:100B1000002070470148FCE770010020180A0020FF
:100B20007047704710B500F007FD002005490968BF
:100B3000887200F0C9FE01F0DFFD00200249086064
:100B400010BD000070010020000100202DE9F047D9
:100B50002848006800F110052E8826480068077AAA
:100B6000DEB9042F19D124480078012810D10021C2
:100B70002248006880B2801C214A126842F8101096
:100B800030202049088000BF00201B49087003E086
:100B9000072710201B49088027E0AC88A64201D80F
:100BA000042000E002200746B44200D93446A0B237
:100BB000A96888478046002000F0A2FC8146A2B2C6
:100BC0004946404601F0C4FDA1B2002001F028F8DA
:100BD0002888001B288068882044688030200949C4
:100BE000088000020849088000BF024909680F72A6
:100BF000BDE8F0877001002068010020505C0040D3
:100C00008401002082010020800100202DE9F041B4
:100C10002548006800F110042688A068C0B1BEB164
:100C2000A588B54200D93546A8B2A16888470746CD
:100C30002088401B2080608828446080002000F0CD
:100C40003BFC8046AAB24146384600F003FE00BF96
:100C5000208818B14FF44050144908802088A1889A
:100C6000884204DB032010490968087219E02088D3
:100C7000002804DD05200C490968087211E020886D
:100C800078B90620084909680872002108480068F8
:100C900080B2801C074A126842F8101030200649C2
:100CA0000880BDE8F0810000700100208001002074
:100CB000505C004084010020820100202DE9F84FA3
:100CC0009B48006845780027BA46062D1BD19848F6
:100CD0000068007800F07F00002813D1944909686B
:100CE0008878012803D193490968CF690AE002286E
:100CF00003D1904909680F6A04E0032802D18D49A5
:100D000009684F6A94E0002D64D1894800684088E2
:100D100000285FD186480068C08802285AD18448DC
:100D200000680079002855D181480068007800F0FB
:100D30007F0028B97E480068808808B97E4F77E038
:100D40007B480068007800F07F00012810D17849C6
:100D500009684879774909688A690021904700281D
:100D600066D173480068807A002861D0724F5FE0D6
:100D70006F480068007800F07F00022858D16C4866
:100D80000068407900F00F0669480068407900F07B
:100D9000700967480068407900F0800038B1674901
:100DA00001EB8600D0F8000C00F0300806E0634943
:100DB00001EB8600D0F8000C00F440586048007841
:100DC000B04235D9B9F1000F32D1B8F1000F2FD0B0
:100DD000594F2DE0082D07D155480068007800F0E4
:100DE0007F0028BB574F23E00A2D21D150480068CF
:100DF000007800F07F0001281AD14D480068807A01
:100E0000B0B14B480068408890B949480068007903
:100E100070B947480068C088012809D14449096869
:100E20004879444909688A690021904700B9464FCA
:100E300057B13F480068A0F812A03D48006887619C
:100E40000020B84700240FE0394A12685078394A28
:100E50001268116988470446032C05D109203449DA
:100E600009680872BDE8F88F31480068008A4FF6BB
:100E7000FF71884204D109202D4909680872F1E701
:100E8000022C03D02A480068008A20B9082028498B
:100E900009680872E6E726480068007800F08000DC
:100EA000E0B323480068C088009021480068008AA9
:100EB0000099884204D91E4900980968088223E0F5
:100EC0001B480068008A1A490968C98888421BDAE9
:100ED00017480068008A1749096891F82C10884261
:100EE00003DA0020194908700EE011480068008AF2
:100EF0001049096891F82C1090FBF1F201FB1200E7
:100F000010B90120114908700A48006890F82C10A7
:100F1000074800688182FFF719FE07E0FFE703201A
:100F200003490968087200030949088000BF99E76E
:100F3000700100207401002065210008005000406D
:100F400068000020E920000839210008680100201D
:100F5000800100207047000010B56FF0040001F020
:100F60006BFA0B4890ED000AB8EE400ADFED090A73
:100F700080EE201A084880ED001A90ED000ADFED9F
:100F8000070A20EE200A064880ED000A10BD000086
:100F90000C0100200024F44A5C01002000007A4487
:100FA0006001002043E0B0F5FA7F11DD214A92EDA7
:100FB000000ADFED210A20EE200ABCEEC00A10EE86
:100FC000102A4FF0E0235A61A0F5FA7290B210E0B7
:100FD00000EE100AB8EE400A164AD2ED000A20EEE2
:100FE000200ABCEEC00A10EE102A4FF0E0235A612E
:100FF000002000224FF0E0239A611A46126942F065
:1010000001021A6100BF4FF0E022116901F00102F4
:101010001AB101F48032002AF5D04FF0E0221269B3
:1010200022F001024FF0E0231A6100229A610028A9
:10103000B9D17047600100200000FA4370B5002468
:1010400000250120264908702648B0F800042549EB
:10105000B1F80214884206D100202249A1F8000408
:10106000A1F8020470BD1F48B0F800041D49B1F892
:101070000214884208DD1B48B0F800041949B1F891
:101080000214401A84B205E01648B0F80204C0F514
:10109000806084B21348B0F80254402C00DD402434
:1010A0001048B0F8020420440E49A1F80204084692
:1010B000B0F80204B0F5806F02DB0020A1F8020452
:1010C0000849481922464FF4807101F041FB21463E
:1010D000012000F0A5FD012000F0D2FD00BFC1E716
:1010E000080000208801002070B50025012000F0D4
:1010F000F5F950490880012000F0DEF906464D4818
:10110000028831464C4800F0A5FB4B48407808B9AE
:10111000002400E0012448480078022806D0032873
:101120000DD0042814D0F02873D11AE01CB101208E
:10113000FFF754F902E00120FFF73CF973E01CB11E
:101140000220FFF74BF902E00220FFF733F96AE0D3
:101150001CB10320FFF742F902E00320FFF72AF950
:1011600061E03648B0F80004B0F5806F03DB002082
:101170003249A1F80004002516E02F48415D2F48B0
:10118000B0F80024B0F80004401C2C4BA3F8000475
:1011900018468154B0F80004B0F5806F03DB0020DE
:1011A0001946A1F800046D1C224800888542E4DB42
:1011B0002248B0F800042149B1F80214401AB0F5F1
:1011C000707F07DD1D48B0F800041C49B1F8021417
:1011D000884210DC1948B0F802041849B1F800142C
:1011E000401A40280CDA1548B0F802041349B1F847
:1011F0000014884204DD01201049A1F8040406E02F
:1012000000200E49A1F80404012000F0DDFC0AE0F2
:10121000FFE70120FFF7CEF80220FFF7CBF803200D
:10122000FFF7C8F800BF00BF4FF44051012000F0A5
:10123000ABFC70BD06000020330A002090050020A2
:101240007047704710B5012000F034F810B3124811
:101250000078E0B111480068052818D110490870DD
:101260000121104800F015F9012805D10C484178FA
:10127000012088430A49487040220949812001F031
:101280004DFA012000F0FCFC002003490870012009
:1012900000F00AF810BD0000080000200001002046
:1012A000D80900200008014001490860704700008B
:1012B00014040140014600200022074B1B6803EA8A
:1012C0000102054B14331B680B4013B10AB1012016
:1012D00000E0002070470000000401400021234985
:1012E0008279002A3AD00A46126803689A430B466C
:1012F0001A600A1D126803689A430B1D1A6002796E
:1013000011440A6803681A430A60184A08321268CE
:1013100003689A43154B08331A601A1D1268036854
:101320009A43124B0C331A604279102A0ED11A1FBD
:10133000126803681A430D4B08331A601A1D1268AD
:1013400003681A43094B0C331A600DE007494279D0
:1013500011440A6803681A430A6005E002791144DF
:101360000A6803689A430A6070470000000401405D
:101370000320014908607047000100202DE9F04179
:10138000024600250026002000230024002791F8B3
:1013900003C00CF00F0591F803C00CF0100CBCF169
:1013A000000F03D091F802C04CEA050591F800C087
:1013B000BCF1000F31D0146800202BE04FF0010C7D
:1013C0000CFA00F3B1F800C00CEA03069E4220D1EB
:1013D00083004FF00F0C0CFA03F7BC4305FA03FC33
:1013E0004CEA040491F803C0BCF1280F06D14FF079
:1013F000010C0CFA00FCC2F814C00AE091F803C01A
:10140000BCF1480F05D14FF0010C0CFA00FCC2F8FA
:1014100010C0401C0828D1D31460B1F800C0BCF142
:10142000FF0F34DD546800202EE000F1080C4FF06F
:10143000010808FA0CF3B1F800C00CEA03069E425A
:1014400021D183004FF00F0C0CFA03F7BC4305FACF
:1014500003FC4CEA040491F803C0BCF1280F05D149
:1014600000F1080C08FA0CF8C2F8148091F803C0D7
:10147000BCF1480F07D100F1080C4FF0010808FA41
:101480000CF8C2F81080401C0828CED35460BDE888
:10149000F0810246002093680B400BB1012000E070
:1014A00000207047416170474FF6FF7101800221B3
:1014B00081700421C170704701460648006880B2FF
:1014C00000EBC100001D044A126832F8100080B21F
:1014D00070470000505C004084010020014606482F
:1014E000006880B200EBC100801D044A126832F827
:1014F0001000C0F309007047505C004084010020D8
:1015000001460548006880B200EBC100034A12683A
:1015100032F8100080B27047505C00408401002017
:101520000146044A02EB8100D0F8000C00F03000C4
:10153000704700000050004070B50A480468001D64
:101540000568001D0668344454B108220649204647
:1015500000F046F8042204491031284600F040F813
:1015600070BD0000E8F7FF1F0C00002000BFFEE781
:1015700010B518480068047A022C01D0042C05D15B
:10158000FFF7E4FA13480068047A1CE0062C19D12E
:1015900010480068407805280ED10E480068007891
:1015A00000F07F0040B90B490968C87800F08AFA5A
:1015B00009490968086A80470849096888688047B6
:1015C000082400E00824034909680C7200F058F967
:1015D00010BD0000700100207C010020740100207B
:1015E00030B50B46002100BF16E00A24B4EB107F93
:1015F00005D9302404EB107403F8114005E04124B0
:1016000004EB10740A3C03F81140000100254C0063
:10161000641C1D554C1CE1B29142E6DB30BD00005C
:101620000548817A19B10521044A116002E00121BF
:10163000024A116070470000740C00200001002075
:1016400000BFFEE77047704770B5002100230F22EE
:10165000C47804B3154C246804F4E064C4F5E06471
:10166000210AC1F10403CA40447804FA03F18478E2
:101670001440214309010E4C0678A155047804F06A
:101680001F050124AC4005786D11AD0005F1E02582
:10169000C5F8004109E0047804F01F050124AC40BE
:1016A000044D0678761145F8264070BD0CED00E03B
:1016B00000E400E080E100E002490143024A1160D9
:1016C000704700000000FA050CED00E070B502263E
:1016D00047480068447846480068007800F07F007A
:1016E000002844D1092C03D100F0BCFD06465FE080
:1016F000052C14D13E480068C0787F280BDC3C489C
:101700000068807838B93A480068808818B9384845
:101710000068807A08B1082566E0002648E0032CBE
:101720000ED133480068C078012807D130480068DE
:10173000808818B900F0BAFD064639E0022637E085
:10174000012C35D12A480068C07801280DD12848DD
:101750000068808848B926480068407A00F0200078
:1017600018B100F00BFC064622E0022620E02048DB
:101770000068007800F07F00012805D10B2C17D1FC
:1017800000F010FE064613E019480068007800F0EB
:101790007F0002280BD1012C03D100F0EFFB06469D
:1017A00006E0032C04D100F095FD064600E0022679
:1017B0004EB1E0B20F4A1268516988470646032EBF
:1017C00001D1092510E00EB108250DE00625002104
:1017D0000948006880B2801C084A126842F810105C
:1017E00030200749088000BF014909680D7270BDAB
:1017F0007001002074010020505C00408401002032
:101800008201002010B511480068047A022C01D032
:10181000042C01D1082412E0032C01D0052C05D1A1
:10182000FFF7F4F909480068047A08E0072C05D1AD
:1018300007490968C8688047082400E0082403496C
:1018400009680C7200F01CF810BD00007001002047
:1018500074010020F0B5561C7510074E366806EB73
:1018600041042B4605E034F8047B20F8017B401C42
:101870005B1E002BF7D1F0BD8401002070470000F3
:1018800010B50D4890F82C10002000F055F90B48C9
:101890000068007A082805D1400209490880102014
:1018A0000849088005480068007A092801D101200C
:1018B00010BD0020FCE700006C000020700100203B
:1018C000800100208201002001210B4801600020DE
:1018D0000A4A108010460088074A10600020121D36
:1018E00010604FF4E050054A108010460088024A0C
:1018F0001060002070470000405C00407A0100202A
:1019000029B1064AD2690243044BDA6104E0034A72
:10191000D2698243014BDA61704700000010024037
:1019200029B1064A92690243044B9A6104E0034AD2
:1019300092698243014B9A61704700000010024097
:1019400001280BD10B49096B41F00071094A116361
:101950001146496D41F4807151650AE00549096BF2
:1019600021F00071034A11631146496D21F4807121
:101970005165704700100240012806D10649496DA3
:1019800041F03001044A516505E00349496D21F0F9
:101990003001014A516570470010024001460020A5
:1019A000034A506820F00C60084350607047000004
:1019B0000010024070B50546072D05D02948007873
:1019C000052801D02748057026480078082841D20C
:1019D000DFE800F0040A1016212E414200F046F81C
:1019E0000620204908703BE000F040F804201D4923
:1019F000087035E002201B494870032008702FE072
:101A000018484078401E174948700846407808B981
:101A10000420087024E01448006884B244F01004E4
:101A20001148046005200F4908700A20487017E02B
:101A30000C484078401E0B4948700846407840B931
:101A40000948006884B224F01004074804600620A6
:101A5000087005E000BF00BF06200249087000BF03
:101A600000BF70BD05010020405C004010B5074874
:101A7000006884B224F0040404480460FFF7D0FD39
:101A80004FF43F400149086010BD0000405C004039
:101A900010B50948006805280CD1084800780128CD
:101AA00008D1FFF73DFD302804D0FFF7C7FA00202A
:101AB0000249087010BD0000000100200400002051
:101AC0007047000030B501460F4B1A78002014E033
:101AD00003060E4C04EB9353D3F8003C48F68F7486
:101AE000234048F280042343C4B223430406074D35
:101AF00005EB9454C4F8003C401C9042E8D341F0FC
:101B00008003034C236030BD68000020005000407B
:101B10004C5C004010B54A105300054A126892B25E
:101B200002EBC002121D034C246844F8123010BDB1
:101B3000505C00408401002010B502461048006847
:101B400080B200EBC200801D0E4C246804EB400301
:101B50003E290BDD481101F01F040CB9441EA0B250
:101B60004FF4004444EA80241C6007E0481001F070
:101B700001040CB1441CA0B284021C6010BD000022
:101B8000505C00408401002030B50E4C04EB800313
:101B9000D3F8003C4BF68F7403EA040201F480533F
:101BA0000BB182F4805201F400530BB182F4005265
:101BB00042F4004343F08003024D05EB8004C4F877
:101BC000003C30BD0050004010B50B4B03EB8002D1
:101BD000D2F8002C4BF68F7302EA030181F4805196
:101BE00081F4005141F4004242F08002024C04EBC7
:101BF0008003C3F8002C10BD0050004010B54A10FF
:101C00005300054A126892B202EBC002034C2468EA
:101C100044F8123010BD0000505C004084010020E8
:101C2000054A126892B202EBC002921C034B1B6879
:101C300043F8121070470000505C004084010020FF
:101C400030B50E4C04EB8003D3F8003C48F6BF746B
:101C500003EA040201F010030BB182F0100201F05C
:101C600020030BB182F0200242F4004343F08003D2
:101C7000024D05EB8004C4F8003C30BD005000402C
:101C800010B50B4B03EB8002D2F8002C48F6BF7363
:101C900002EA030181F0100181F0200141F40042C9
:101CA00042F08002024C04EB8003C3F8002C10BD0C
:101CB0000050004010B5074B03EB8002D2F8002C17
:101CC00048F68F131A400A43024C04EB8003C3F812
:101CD000002C10BD0050004010B500F001F810BD00
:101CE0001CB50020019000903548006840F4803019
:101CF0003349086000BF3248006800F400300090AB
:101D00000198401C0190009818B90198B0F5405F07
:101D1000F1D12B48006800F4003010B10120009090
:101D200001E0002000900098012847D12448406835
:101D3000234948600846406820F4605048600846DF
:101D4000406840F4005048600846406820F4E06075
:101D500048600846406840F4806048600846406833
:101D60001849084016494860084640681649084323
:101D7000134948600846006840F08070086000BF62
:101D80000F48006800F000700028F9D00120FFF72C
:101D9000F3FD0B48406820F00300094948600846FD
:101DA000406840F00200486000BF0548406800F00D
:101DB0000C000828F9D10020FFF7DEFD1CBD000053
:101DC00000100240FFFFC01F00001DA010B5044618
:101DD000012C3DD135480068354A811A904221D006
:101DE00009DC3449084478B14FEA6101084480B104
:101DF000084458BB11E030480844C0B12E4908449B
:101E0000D0B1084410BB1CE04FF48000FFF7C6FDC2
:101E10001DE00020FFF7C2FD19E04FF44000FFF77E
:101E2000BDFD14E04FF40000FFF7B8FD0FE04FF0E8
:101E30000460FFF7B3FD0AE04FF00060FFF7AEFD6E
:101E400005E04FF00860FFF7A9FD00E000BF28E0C3
:101E5000022C26D101218805FFF762FD01212020F7
:101E6000FEF724FA01211020FEF720FA4FF4FA5071
:101E70001249086009880A3988B2FEF729FA0F4921
:101E8000098888B2FEF72AFA0C4909880A3188B213
:101E9000FEF72AFA01210320FEF7E2F90120FFF7FD
:101EA0004FFD0121C805FFF72BFD10BD0C010020DF
:101EB000000E2707009423FD00CA91FE00000020B9
:101EC00038B501242A48006880B2001D29490968F4
:101ED00031F8100080B22749096801EB40000090FA
:101EE00025480068007A092832D0009800782249F5
:101EF000096808700098401C0090009800781E49FE
:101F0000096848700098401C0090009800EB44005D
:101F10000090009931F8020B0091FEF793FA1649F0
:101F200009684880009800EB44000090009931F85F
:101F3000020B0091FEF786FA0F4909688880009825
:101F400000EB44000090009800880B490968C880A5
:101F5000012009490968087207480068C08810B95B
:101F6000FFF7B4FB01E0FEF7A9FEFFF789FC38BDDF
:101F7000505C004084010020700100202DE9F047F2
:101F800054480068007800F07F08B8F1000F0AD1CB
:101F900050480068407A00F0DF004E4909684872F6
:101FA0000020BDE8F087B8F1020F7CD149480068F5
:101FB000408818B947480068007908B10220F0E766
:101FC000DFF8149143480068477927F080052C46D4
:101FD00040480068407900F0800038B13F4901EB8B
:101FE0008400D0F8000C00F0300606E03B4901EB1D
:101FF0008400D0F8000C00F4405699F80000A84284
:1020000004D91EB133480068807A08B90220C8E7B5
:1020100007F0800080B1314901EB8400D0F8000C5A
:1020200000F0300010284BD1E0B2FEF7FDFBE0B22B
:102030003021FFF705FE43E0284901EB8400D0F88A
:10204000000C00F44050B0F5805F39D1E4B9244A67
:1020500092F82C10E0B2FFF76FFD204A02EB8401EA
:10206000D1F8001C4BF68F7201EA020080F4805018
:1020700080F4005040F4004141F08001174B03EB25
:102080008402C2F8001C1BE0E0B2FEF7B3FB134A67
:1020900002EB8401D1F8001C4BF68F7201EA0200BA
:1020A00080F4805000E011E080F4005040F40041E2
:1020B00041F08001094B03EB8402C2F8001C00BF11
:1020C000084909684869804700206AE700BF022084
:1020D00067E7000070010020680000200050004009
:1020E0006C0000207C01002010B504462CB90120B2
:1020F000064909680882002010BD0549096808687A
:102100008047024800680A30F6E7000070010020AE
:102110007C01002010B5024606480068438A32B9A7
:102120008888C01A034C24682082002010BD0868EB
:102130001844FBE77001002010B504462CB90120BB
:10214000064909680882002010BD054909688868A9
:102150008047024800680C30F6E70000700100205C
:102160007C01002010B504462CB9022039490968C9
:102170000882002010BD00203749088035480068DB
:10218000007800F07F0018BB32490968487A00F0F7
:10219000200131B13049097841F002012E4A117015
:1021A00005E02D49097801F0FD012B4A117000F07E
:1021B000400131B12849097841F00101264A1170E6
:1021C00005E02549097801F0FE01234A11703AE043
:1021D00020480068007800F07F00012801D11E48E7
:1021E000C8E71C480068007800F07F00022828D16A
:1021F000184A1268517901F00F0001F080027AB19B
:10220000164B03EB8002D2F8002C02F03002102AA9
:1022100016D1114A127842F001020F4B1A700FE0EA
:102220000E4B03EB8002D2F8002C02F44052B2F5C0
:10223000805F05D1084A127842F00102064B1A70FD
:1022400001E0002096E706490968086980470248CE
:1022500090E700007001002066010020005000405F
:102260007C01002010B50E480068C0780D494978FF
:10227000884213DC0A480068807878B9084800680A
:10228000808858B906480068C0780549096888728E
:102290000549096848688047002010BD0220FCE716
:1022A00070010020680000207C01002010B5074864
:1022B0000068407A40F020000449096848720449E7
:1022C0000968C8698047002010BD00007001002027
:1022D0007C0100202DE9F0412E480068467926F067
:1022E00080073C462B480068407900F0800038B1F8
:1022F000294901EB8400D0F8000C00F0300506E01D
:10230000254901EB8400D0F8000C00F44055234827
:102310000078A04208D91F480068408820B91DB144
:102320001C480068807A10B90220BDE8F08106F0F0
:102330008000A0B1184A02EB8401D1F8001C48F6D5
:10234000BF7201EA020080F0100040F4004141F049
:102350008001114B03EB8402C2F8001C14E00E4A0A
:1023600002EB8401D1F8001C4BF68F7201EA0200E7
:1023700080F4805040F4004141F08001064B03EBB3
:102380008402C2F8001C00BF0549096888698047BB
:102390000020CAE7700100200050004068000020C3
:1023A0007C01002010B5174B1B68D978154B1B68B2
:1023B0005879154B1B689A69904704461148006884
:1023C000807AE8B13CB90F480068007918B90D4827
:1023D0000068807808B1022010BD8CB90B490968EB
:1023E000C868804707480068407906490968C8728C
:1023F00004480068C0780349096808730020EBE7C7
:102400000220E9E770010020740100207C01002017
:1024100010B50848006884B244F008040548046018
:10242000006884B244F0040402480460FEF7A0FF90
:1024300010BD0000405C0040042808D14FF0E021AE
:10244000096941F004014FF0E022116107E04FF00B
:10245000E021096921F004014FF0E0221161704789
:1024600010B51A48006840F4700018490860184810
:10247000006840F0010016490860084640681549A8
:10248000084013494860084600681349084010494D
:1024900008600846006820F480200860084640680C
:1024A0000E4908400A4948600846006B0C4908403C
:1024B000074908634FF41F008860FFF70DFC4FF0D9
:1024C000006002498039086010BD000088ED00E01E
:1024D000001002400C00FFE8FFFFF6FEFFFF0017B0
:1024E00000FFFEFE10B54FF48020FEF7DDFE10BDAC
:1024F0007047000010B508480849086002200968C4
:1025000008720748074908600748084908600549F4
:1025100009680868804710BD740C00207001002015
:102520006C000020740100209C0000207C01002031
:102530000EB54FF48020FEF7B7FE4FF480200090D8
:1025400000208DF8040008208DF8050001208DF88A
:1025500006006846FEF7C2FE0120FEF7A5FE012038
:10256000009000208DF8040008208DF8050001205F
:102570008DF806006846FEF7B1FE4FF4E060FFF705
:102580009BF814208DF8080001208DF809008DF8C3
:102590000A008DF80B0002A8FFF756F82A208DF8E4
:1025A000080001208DF8090002208DF80A000120A2
:1025B0008DF80B0002A8FFF747F806208DF80800F9
:1025C00000208DF809008DF80A0001208DF80B001D
:1025D00002A8FFF739F848208DF8080000208DF890
:1025E000090001208DF80A008DF80B0002A8FFF702
:1025F0002BF80EBD10B538480068384908800846E9
:10260000008800F4806036490988084030B14FF6F0
:10261000FF30314908603349486880472F480088B7
:1026200000F400502E490988084018B14DF6FF709B
:10263000294908602948008800F480502849098801
:10264000084030B14EF6FF70234908600020FFF7C4
:10265000B1F92248008800F4006021490988084047
:1026600060B12148007810B1FFF7D2FE02E00220ED
:10267000FFF7A0F94FF2FF7017490860174800886C
:1026800000F4007016490988084050B14FF6FF5019
:102690001149086015480078401C14490870FFF77C
:1026A000F7F90E48008800F480700D490988084049
:1026B00030B14FF6FF60084908600720FFF77AF94C
:1026C0000648008800F4004005490988084008B120
:1026D000FDF74CFF10BD0000445C004024000020CA
:1026E0007A0100206C000020040100202600002058
:1026F00010B5FFF77FFF10BD0020064908604FF4BA
:102700003F4005490880084600880249091F0860C3
:1027100000207047445C00407A0100202DE9F04120
:1027200004460E46154604F07F00FEF7E9FE074614
:10273000AAB23946304600F00BF8A9B204F07F0087
:10274000FFF76EFA0020BDE8F08100BFFEE7000051
:10275000F0B5144604F1010C4FEA6C07DFF828C00D
:10276000DCF800C00CEB41033D460AE00678401C53
:1027700090F800C046EA0C2223F8022B9B1C401C58
:102780006D1E002DF2D1F0BD8401002002E008C8CA
:10279000121F08C1002AFAD170477047002001E0DB
:1027A00001C1121F002AFBD170470000FDF7C2FDD6
:1027B000FDF728FEFFF7BCFE0220FFF707FBFFF73F
:1027C00099FE16E04FF480710A48FDF741FE0A4970
:1027D000088008460088002807DD0846018805486B
:1027E000FDF78CFE0549088003E04FF4FA70FEF710
:1027F000D9FBE7E7730A0020080100200A01002046
:1028000012010002000000403C2E45570002010268
:10281000030109022900010100C03209040000027D
:1028200003000000092110010001227E000705813C
:10283000034000200705010340002006FF000901B6
:10284000A10185020902150025017508953FB18295
:102850008502090291828503090315002501750887
:10286000953FB1828503090391828504090415000F
:1028700025017508953FB18285040904918285057B
:102880000905150025017501818209057501B182CF
:102890007507818385057507B18385F009061500E5
:1028A0002600FF7508953F910285F009071500265F
:1028B00000FF7508953F8182C00403090424034189
:1028C00000720074006500720079002000540065F9
:1028D00000630068006E006F006C006F0067007995
:1028E000001E0341005400330032002000430075F5
:1028F00000730074006D002000480049004400008F
:10290000202900080000002088010000E0010008E4
:10291000D829000888010020080F00009C27000823
:10292000811201141A034112541233021532133D5D
:1029300010140841120C10084716041AE91C0A1555
:10294000431C8123030113250B14080D0A1B0821C6
:10295000081A23041385081408D1091B08B9041A9E
:1029600039041A25041A910441324029401AC5300D
:1029700009125829041ADD1C1112283308121A12E0
:102980000832291A3B08327E1A240832091AB9087B
:1029900032041ABD0832241AE108321E220A7B20B2
:1029A0001AFC7184B0710B3F010203040607432136
:1029B0007C140140041938199D42809A2004111A90
:1029C000081C1C1001404C2A2070B21079600118BC
:0829D00012600200400000004B
:040000050800018569
:00000001FF
