:020000040800F2
:10000000A0050020ED120008B5020008B7020008A4
:10001000BB020008BF020008C30200080000000085
:10002000000000000000000000000000C7020008FF
:10003000C902000800000000CB020008CD02000841
:100040000713000807130008071300080713000828
:100050000713000807130008071300080713000818
:100060000713000807130008071300080713000808
:1000700007130008071300080713000807130008F8
:10008000DF020008E7020008071300080713000852
:1000900007130008071300080713000807130008D8
:1000A00007130008071300080713000807130008C8
:1000B000071300080713000807130008CF02000801
:1000C000D7020008071300080713000807130008E9
:1000D0000713000807130008071300080713000898
:1000E0000713000807130008071300080713000888
:1000F0000713000807130008071300080713000878
:100100000713000807130008071300080713000867
:100110000713000807130008071300080713000857
:100120000713000807130008071300080713000847
:100130000713000807130008071300080713000837
:1001400000000000000000000000000000000000AF
:100150000713000807130008071300080713000817
:100160000713000807130008071300080713000807
:1001700007130008071300080713000807130008F7
:1001800007130008DFF80CD002F0CEFD004800474E
:1001900099010008A005002000240026002500F099
:1001A00019F94FF4E13000F0F4F92FA002F0EEFD60
:1001B00000F097FA57E000F098F9002847D1681C42
:1001C00085B24FF480712DA002F0E0FD284605EBCA
:1001D000D0714910A5EB410141B9002403E02B493E
:1001E0000C55601C84B2FF2CF9DD09E0002405E009
:1001F000C4F1FF0025490855601C84B2FF2CF7DDCF
:100200004FF480720021214800F048FC20A002F049
:10021000BDFD4FF4807122A002F0B8FD4FF4807153
:100220001A4802F044FD4FF480720021174800F094
:1002300089FC002406E01548015D1DA002F0A6FD22
:10024000601C84B2FF2CF6DD0BA002F09FFD0120A4
:1002500000F003F93046711C8EB2C82803DB03207E
:1002600000F082F90026A6E7493243204545505266
:100270004F4D2064656D6F2E0D0A00007772697412
:100280006520257520646174610D0A009C000020C2
:10029000777269746520646F6E65210D0A00000035
:1002A0007265616420257520646174613A0D0A00ED
:1002B00025782000704700BFFEE700BFFEE700BFC3
:1002C000FEE700BFFEE7704770477047704710B504
:1002D00000F042FD10BD10B500F039FE10BD10B5A4
:1002E00000F06BFE10BD10B500F0A9FE10BD0000BF
:1002F00070B504460D46A1B2E84802F09BFB00BF72
:100300004021E64802F004FC0028F9D0204670BDE8
:1003100038B50446E24951F82400012102F046F9BB
:10032000684601F056FADF4830F81400ADF80000D6
:1003300028208DF80300DC4951F82400694601F0BB
:10034000BDF938BD032800DD7047D84931F81010D9
:1003500031B1D64931F81010D54A52F82020116138
:1003600000BFF1E738B50446D24951F82400012115
:1003700002F01CF9684601F02CFACC4830F8140061
:10038000ADF8000010208DF8030002208DF8020067
:10039000C74951F82400694601F090F938BD10B5FD
:1003A0006FF0040002F05DFCC34890ED000AB8EE67
:1003B000400ADFEDC20A80EE201AC14880ED001A23
:1003C00090ED000ADFEDBF0A20EE200ABE4880ED66
:1003D000000A10BD10B5FFF7E2FF0120FFF7C2FFD2
:1003E0000220FFF7BFFF0320FFF7BCFF0120FFF74C
:1003F000A9FF0220FFF7A6FF0320FFF7A3FF0020BD
:10040000FFF786FF0120FFF783FF10BD08B501212C
:10041000042002F0CBF8684601F0DBF94FF4C0503D
:10042000ADF8000010208DF8030002208DF80200C6
:100430006946A64801F042F94FF48051A34801F003
:10044000ECF908BD10B50446964A32F81410964AE5
:1004500052F8240001F0C5F910BD43E0B0F5FA7F71
:1004600011DD994A92ED000ADFED990A20EE200A8B
:10047000BCEEC00A10EE102A4FF0E0235A61A0F53E
:10048000FA7290B210E000EE100AB8EE400A8E4AFE
:10049000D2ED000A20EE200ABCEEC00A10EE102AAF
:1004A0004FF0E0235A61002000224FF0E0239A61D0
:1004B0001A46126942F001021A6100BF4FF0E022B1
:1004C000116901F001021AB101F48032002AF5D05D
:1004D0004FF0E022126922F001024FF0E0231A618E
:1004E00000229A610028B9D1704710B57948007888
:1004F00001281CD10020FFF7A5FF012804D001200E
:10050000FFF7A0FF012812D10020724908700A20CD
:10051000FFF7A3FF0020FFF795FF012801D100207E
:1005200010BD0120FFF78EFF01280BD1F8E7012055
:10053000FFF788FF30B90020FFF784FF10B90120D2
:10054000644908700420EBE7032800DD7047574931
:1005500031F8101031B1554931F81010544A52F8A1
:100560002020516100BFF1E7032800DD70474F49AB
:1005700031F8101059B14E4951F82010C9684B4A52
:1005800032F8102051404A4A52F82020D16000BF72
:10059000ECE710B586B004460121042002F006F80D
:1005A0000121880302F002F805A801F012F94FF4C6
:1005B0000070ADF8140002208DF8160018208DF898
:1005C000170005A9414801F079F84FF48060ADF8B3
:1005D000140004208DF8170005A93C4801F06EF8BE
:1005E00001A802F097F901940020ADF80800ADF8D9
:1005F0000A00ADF80C00ADF810000C20ADF80E00AC
:1006000001A9264802F01DF9012240F22551234894
:1006100002F0AFF90121214802F09FF906B010BDA8
:1006200000EE100AB8EE400A254AD2ED000A20EE8C
:10063000200ABCEEC00A10EE102A4FF0E0235A61E7
:1006400000229A611A46126942F001021A6100BF43
:100650004FF0E022116901F001021AB101F4803279
:10066000002AF5D04FF0E022126922F001024FF08B
:10067000E0231A6100229A61704730B504460025D4
:1006800009E04FF4FA70FFF7E8FE4FF4FA70FFF755
:10069000E4FE681C85B2A542F3DB30BD00380140A2
:1006A000340000203000002028000020100000202E
:1006B0000000002018000020740000200024F44AEC
:1006C0003C00002000007A44400000200008014067
:1006D0000000FA4344000020F9A002F057FB00BFDD
:1006E000FEE700B585B00121480501F06CFFF74831
:1006F00001F086FB0121082001F058FF01210820AC
:1007000001F054FF0121084601F050FF01210220B1
:1007100001F0A5F84FF44070ADF8100002208DF8FC
:1007200012001C208DF8130004A9E94800F0C6FF50
:10073000E64801F065FB0020ADF804004BF6FF70C1
:10074000ADF80600FF20ADF808004FF48060ADF86A
:100750000A000001ADF80C00DE4800906946DB4855
:1007600001F06AFB0121084601F013FF05B000BD4E
:10077000D9480068D94909780844D7490860D84859
:100780000088D64909780844D5490880D5480088AA
:10079000D2490978401AD349088070471CB5002017
:1007A000019000904FF4C820CF49086008E0CE487F
:1007B00001680068401ECC4A106009B9FFF78CFF41
:1007C0004FF40031C14801F0DBFC0028EFD14DE0CF
:1007D0000121BE4801F0D1FB4FF4C820C249086096
:1007E00008E0C14801680068401EBF4A106009B9AE
:1007F000FFF772FFBD49B54801F0A0FC0028F0D01A
:100800000022A021B14801F00EFC4FF4C820B649E7
:10081000086000BFAD48143000880190B2480168FC
:100820000068401EB04A106009B9FFF755FFBDF8D7
:10083000040040F2024108400028EBD0BDF804005B
:1008400000F0020038B1A1481830008801219F480B
:1008500001F09FFB1CBDA6499C4801F0AEFC00982E
:10086000411C0091962801D1FFF736FFB0E770B523
:100870008CB004460D4616469E4800F049FD93484C
:1008800010300190029410200390049600200590EF
:100890008020069000200790089009904FF4405067
:1008A0000A9000200B9001A9924800F0D3FD01228C
:1008B0000221904800F068FE10208DF80000002012
:1008C0008DF802008DF8010001208DF803006846C4
:1008D00002F07DF90120884908704FF4C820824950
:1008E000086008E0804801680068401E7E4A106089
:1008F00009B9FFF7F1FE4FF40031744801F040FCF4
:100900000028EFD10121714801F037FB4FF4C820D6
:100910007549086008E0744801680068401E724A22
:10092000106009B9FFF7D8FE7049684801F006FC6D
:100930000028F0D00022A021644801F074FB4FF49D
:10094000C8206949086008E0674801680068401EDF
:10095000654A106009B9FFF7BFFE68495B4801F0BE
:10096000EDFB0028F0D008E05F4801680068401EF9
:100970005D4A106009B9FFF7AFFE8021534801F0CE
:10098000DDFB0028F0D0E9B2504801F046FB4FF4FF
:10099000C8205549086008E0534801680068401EB7
:1009A000514A106009B9FFF797FE54498231474810
:1009B00001F0C4FB0028EFD00121444801F0C5FA42
:1009C00001214C4800F0D4FD4FF4C820464908608E
:1009D00008E0454801680068401E434A106009B9B4
:1009E000FFF77AFE444800780228F2D1FFF7D6FEDE
:1009F000FFF7BEFE0CB070BD2DE9F04782460D46F4
:100A000014464FF000080026B14600272846E91793
:100A100005EB5171C910A5EBC10101F0FF09C9F146
:100A20000800C7B22046E11704EB5171C1F3C708B3
:100A3000E11704EB5171C910A4EBC101CEB2002043
:100A400026490870B9F1000F13D1B8F1000F07D192
:100A500008460670324629465046FFF708FF1BE05D
:100A600008201E490870082229465046FFF7FFFE5D
:100A700012E0B8F1000F07D1184806703246294637
:100A80005046FFF7F4FE07E037B1144807703A46C6
:100A900029465046FFF7EBFEBDE8F08770B50446E7
:100AA0000D4616464FF40031084801F069FB00B1CD
:100AB00070BD094804600A4805800A48068027E09E
:100AC0006572726F722121210D0A000000540040EE
:100AD000000C0140801A06005C0000205800002035
:100AE00060000020560000204C00002001000300A0
:100AF000000400106C00024070000020020007009B
:100B0000F8480288F8480188F8480068FFF774FF41
:100B1000F44800880028F3DC00BFC9E710B54FF4A3
:100B2000C820F349086008E0F14801680068401EE9
:100B3000EF4A106009B9FFF7CFFDEE4800780028B2
:100B4000F2D110BD70B58CB004460D461646EA4889
:100B500000F0DEFBE9480190029400200390049627
:100B600005908020069000200790089009904FF48F
:100B700040500A9000200B9001A9DF4800F06AFC69
:100B800001220221DC4800F0FFFC11208DF800005A
:100B900000208DF802008DF8010001208DF803007F
:100BA000684602F014F80120D24908704FF4C820BA
:100BB000CF49086008E0CE4801680068401ECC4A72
:100BC000106009B9FFF788FD4FF40031CB481038A9
:100BD00001F0D6FA0028EED1C8481038008820F479
:100BE0000060C649103908800121C448103801F05E
:100BF000DCF90121C148103801F0BFF94FF4C820D9
:100C0000BB49086008E0BA4801680068401EB84A5D
:100C1000106009B9FFF760FDB949B848103801F014
:100C20008DFA0028EFD00022A021B448103801F03E
:100C3000FAF94FF4C820AE49086008E0AC480168F2
:100C40000068401EAA4A106009B9FFF745FDAD498A
:100C5000AA48103801F072FA0028EFD008E0A44842
:100C600001680068401EA24A106009B9FFF734FD10
:100C70008021A248103801F061FA0028EFD001214C
:100C80009E48103801F055F9E9B29C48103801F03F
:100C9000C4F94FF4C8209649086008E094480168F8
:100CA0000068401E924A106009B9FFF715FD95498A
:100CB00082319248103801F041FA0028EED001212B
:100CC0008E48103801F059F94FF4C820884908605F
:100CD00008E0874801680068401E854A106009B92D
:100CE000FFF7FAFC86498548103801F027FA0028FA
:100CF000EFD00122A0218148103801F094F94FF47F
:100D0000C8207B49086008E0794801680068401EF7
:100D1000774A106009B9FFF7DFFC7B497748103844
:100D200001F02EFA0028EFD001217448103801F0AC
:100D300018F901217148103801F007F901216E48B6
:100D400000F016FC6D48001D00886C4808300088D3
:100D5000FFF7E4FE0CB070BD10B56848103801F024
:100D600002FA044667497E31601A8C427AD008DC68
:100D70006FF44030204448B101282FD03F282CD1B7
:100D80002DE0022858D00428F9D180E05F4800788F
:100D900010B90220574908705D480078012815D124
:100DA0005C48007838B95C48017800225348103814
:100DB00001F039F911E05848017801224F48103804
:100DC00001F031F900205349087006E052480178DB
:100DD00000224A48103801F026F9B6E0B5E047484D
:100DE000103801F01CF94149096808703F48006853
:100DF000401C3E49086049480088401E4749088019
:100E000008460088012809D100213C48103801F02B
:100E1000CCF801213948103801F0BBF83F48008870
:100E200048B900224FF4E0613448103801F0ECF882
:100E300000203049087088E03448007898B10020DC
:100E40003249087000224FF4E0612C48103801F05C
:100E5000DBF801212948103801F09BF800202549D2
:100E6000087072E009E02E4801782448103801F03B
:100E7000D4F801202749087067E025480078012848
:100E800004D101211D48103801F077F85DE02048B9
:100E9000007828BB2348008818BB01211748103868
:100EA00001F077F84FF4C8201149086008E01048B5
:100EB00001680068401E0E4A106009B9FFF70CFC7B
:100EC0004FF400310D48103801F05AF90028EED1E6
:100ED00001200E49087001210848103801F04DF832
:100EE00032E021E056000020600000205C0000207D
:100EF0004C00002070000020800002401054004090
:100F0000010003000200070002000010480000205A
:100F10005000002049000020520000206E000020F8
:100F2000540000206C0000205C4802880088401CAF
:100F30005A4B18805A48815C5A4801F06EF85A485A
:100F40000088401E5849088000BF00BF10BD10B582
:100F50005649544801F014F9C0B15548007820B101
:100F60000121504801F009F80CE04E481830008883
:100F700000F0010030B101214A4801F00AF80320D5
:100F80004C4908704949474801F017F94A49454812
:100F900001F0F6F880B143481830008800F00100F5
:100FA00030B101213F4800F0F4FF032041490870AF
:100FB00041493C4801F001F910BD10B54FF4001053
:100FC00000F0F1FA40B337481830008800F0010013
:100FD000F0B10021334800F0B8FF0021374800F09D
:100FE000C7FA00BF3449FC392E4801F0C9F800287F
:100FF000F8D001212B4800F0CCFF00BF4FF40031A6
:10100000284801F0BDF80028F8D1022029490870CD
:101010004FF4001000F0DBFA4FF4801000F0C3FA38
:1010200018B14FF4801000F0D2FA4FF4800000F0B5
:10103000BAFA18B14FF4800000F0C9FA10BD10B52B
:101040004FF0007000F0AFFAA0B1164818300088D9
:1010500000F0010050B10021124800F076FF01219C
:10106000104800F096FF0020124908704FF0007001
:1010700000F0ADFA4FF0807000F095FA18B14FF023
:10108000807000F0A4FA4FF0806000F08CFA18B184
:101090004FF0806000F09BFA10BD00006A00002055
:1010A00062000020005400406C000020000400108A
:1010B0004800002070000020000100106C00024079
:1010C0001CB50020019000907C48006840F48030FE
:1010D0007A49086000BF7948006800F40030009049
:1010E0000198401C0190009818B90198B0F5405F34
:1010F000F1D17248006800F4003010B10120009076
:1011000001E0002000900098012847D16B4840681A
:101110006A4948600846406820F4605048600846C4
:10112000406840F4005048600846406820F4E060A1
:1011300048600846406840F480604860084640685F
:101140005F4908405D494860084640685D4908437A
:101150005A4948600846006840F08070086000BF47
:101160005648006800F000700028F9D0012001F016
:10117000C9FA5248406820F00300504948600846C8
:10118000406840F00200486000BF4C48406800F0F2
:101190000C000828F9D1002001F0B4FA1CBD10B5EC
:1011A000FFF78EFF10BD10B54748006840F470008F
:1011B000454908604148006840F001003F49086027
:1011C00008464068414908403C4948600846006874
:1011D0003F490840394908600846006820F48020EB
:1011E0000860084640683B49084034494860084662
:1011F000006B39490840314908634FF41F0088608B
:10120000FFF7CDFF4FF000602F498039086010BD17
:1012100070B50022002100230020284C646804F0EF
:101220000C0222B1042A06D0082A35D107E02B4C43
:101230002B4D2C6034E0294C294D2C6030E01F4CA4
:10124000646804F480331D4C606800F0C04434B915
:1012500000F47014B4F5701F01D0022400E00124E2
:1012600000F0C045C0F3834646EA5565611923B9CD
:101270001C4C4C431A4D2C600DE0104C646804F477
:10128000003424B1174C4C43154D2C6003E0134C33
:101290004C43134D2C6003E0104C114D2C6000BFEB
:1012A00000BF064C6468C4F303140F4D2A5D0C4C58
:1012B0002468D4400A4D2C6070BD0000001002402C
:1012C000FFFFC01F000035A088ED00E00C00FFE824
:1012D000FFFFF6FEFFFF001700FFFEFE00127A0080
:1012E0007400002000093D00780000200648804777
:1012F00006480047FEE7FEE7FEE7FEE7FEE7FEE7FB
:10130000FEE7FEE7FEE7FEE7A711000885010008FB
:1013100001684FF6FE7211400160002101604160DA
:101320008160C160BF49884208D1BE490839496817
:1013300041F00F01BB4A083A51608AE0B9491431C3
:10134000884208D1B7490839496841F0F001B54AE7
:10135000083A51607DE0B3492831884208D1B1494B
:101360000839496841F47061AE4A083A516070E04A
:10137000AC493C31884208D1AA490839496841F44E
:101380007041A84A083A516063E0A649503188424A
:1013900008D1A4490839496841F47021A14A083AA2
:1013A000516056E09F496431884208D19D4908390F
:1013B000496841F470019B4A083A516049E09949F3
:1013C0007831884208D197490839496841F07061FD
:1013D000944A083A51603CE09349884206D1011F83
:1013E000096841F00F01021F116032E08E4914318B
:1013F000884208D18C49091F096841F0F0018A4AE6
:10140000121F116025E088492831884208D1864999
:10141000091F096841F47061834A121F116018E0C6
:1014200081493C31884208D17F49091F096841F44C
:1014300070417D4A121F11600BE07B495031884298
:1014400007D17949091F096841F47021764A121FB2
:101450001160704710B50022026847F6F0739A4396
:101460000C6A8B6823430C6923434C6923438C69C2
:101470002343CC6923434C6A23438C6A23431A4396
:101480000260CB6843600B6883604B68C36010BD2B
:1014900050F8A43F23F080730360036843F0807327
:1014A00040F8A439012909D150F8A03F23F0FF03E7
:1014B00003600368134340F8A0394BE002290AD1C6
:1014C00050F8A03F23F47F430360036843EA0223FC
:1014D00040F8A0393EE003290AD150F8A03F23F498
:1014E0007F030360036843EA024340F8A03931E018
:1014F00004290AD150F8A03F23F07F43036003681A
:1015000043EA026340F8A03924E0052909D150F8E4
:10151000A43F23F0FF0303600368134340F8A4399A
:1015200018E006290AD150F8A43F23F47F43036052
:10153000036843EA022340F8A4390BE0072909D1E4
:1015400050F8A43F23F47F030360036843EA024397
:1015500040F8A43970470021016041608160C1609A
:10156000016141618161C1610162416281627047D3
:1015700021B1026842F00102026004E002684FF605
:10158000FE731A40026070471AB103680B43036090
:1015900002E003688B430360704741607047014677
:1015A000486880B2704701460020002201F0805355
:1015B0001BB11D4B083B1A6802E01A4B083B1A6826
:1015C00002EA01030BB1012000E00020704700F0A7
:1015D000805119B11449091F086002E01149083906
:1015E0004860704701460020002201F080531BB183
:1015F0000D4B083B1A6802E00A4B083B1A6802EAE6
:1016000001030BB1012000E00020704700F0805181
:1016100019B10549091F086002E00249083948600C
:1016200070470000080002400804024010B504465C
:10163000FE48844208D10121042000F0FBFF002174
:10164000042000F0F7FF2EE0F948844208D1012180
:10165000082000F0EFFF0021082000F0EBFF22E05F
:10166000F448844208D10121102000F0E3FF00215A
:10167000102000F0DFFF16E0EF48844208D101217E
:10168000202000F0D7FF0021202000F0D3FF0AE047
:10169000EA48844207D10121402000F0CBFF00211D
:1016A000402000F0C7FF10BD10B50121084600F032
:1016B000C1FF0021012000F0BDFF10BD2DE9F04168
:1016C000024600250026002000230024002791F870
:1016D00003C00CF00F0591F803C00CF0100CBCF126
:1016E000000F03D091F802C04CEA050591F800C044
:1016F000BCF1000F31D0146800202BE04FF0010C3A
:101700000CFA00F3B1F800C00CEA03069E4220D1A7
:1017100083004FF00F0C0CFA03F7BC4305FA03FCEF
:101720004CEA040491F803C0BCF1280F06D14FF035
:10173000010C0CFA00FCC2F814C00AE091F803C0D6
:10174000BCF1480F05D14FF0010C0CFA00FCC2F8B7
:1017500010C0401C0828D1D31460B1F800C0BCF1FF
:10176000FF0F34DD546800202EE000F1080C4FF02C
:10177000010808FA0CF3B1F800C00CEA03069E4217
:1017800021D183004FF00F0C0CFA03F7BC4305FA8C
:1017900003FC4CEA040491F803C0BCF1280F05D106
:1017A00000F1080C08FA0CF8C2F8148091F803C094
:1017B000BCF1480F07D100F1080C4FF0010808FAFE
:1017C0000CF8C2F81080401C0828CED35460BDE845
:1017D000F0814FF6FF710180022181700421C170F8
:1017E00070470246002093680B400BB1012000E0D7
:1017F000002070470146886880B27047024600208A
:10180000D3680B400BB1012000E000207047014677
:10181000C86880B2704701617047416170470AB182
:10182000016100E041617047C16070474FF4803250
:101830000A438261816182618269826970470246DE
:1018400000207F4B18684FF68073184040EA021062
:1018500008437B4B186070477A49C8617047F0B500
:101860000346B3F1004F72D90025002223F0004453
:10187000E50904F07F04220904F00F04970004FA3C
:1018800007F6062D16D2DFE805F00306090C0F1245
:101890006B4820300FE06A4824300CE0684828305C
:1018A00009E067482C3006E06548303003E06448C2
:1018B000343000E000BF00BF22B9076827F00F07EF
:1018C00007603DE0012A12D1012D0BD1042C04D96F
:1018D000076827F0C007076032E0076827F0300785
:1018E00007602DE0076827F0F007076028E0022A6C
:1018F00004D1076827F47067076021E0032A04D148
:10190000076827F4704707601AE0042A04D10768C3
:1019100027F47027076013E0052A04D1076827F42D
:10192000700707600CE0062A04D1076827F070678B
:10193000076005E0072A03D1076827F070470760B2
:10194000012902D10768374307602BE2FFE7B3F5AF
:10195000802F7BD037DCB3F5007F78D015DC102BDF
:1019600076D008DC012B74D0022B73D0042B72D0FC
:10197000082B71D193E0302B6FD0402B6ED0C02B51
:101980006DD0B3F5807FF4D1EBE0B3F5804F67D035
:101990000CDCB3F5407F76D0B3F5006F74D0B3F5AF
:1019A000406F72D0B3F5805FE3D179E0B3F5C04FFB
:1019B0006CD0B3F5004F6ED0B3F5803F6CD0B3F56B
:1019C000003FD6D169E0B3F1005F77D01DDCB3F5FD
:1019D000000F74D00CDCB3F5002F62D0B3F5801F7C
:1019E00060D0B3F5001F6BD0B3F5800FC1D17CE19F
:1019F000B3F1807F73D0B3F1007F71D0B3F1806F0A
:101A00006FD0B3F1805FB4D153E10F4A981A93427B
:101A100068D02BDCB3F1804F73D0A3F18040203825
:101A200000286FD0B0F5787F6DD01AE00008014033
:101A3000000C01400010014000140140001801405A
:101A400000000140000020420000044026E096E033
:101A500049E036E01DE01DE0A2E155E062E06FE004
:101A6000C5E0E34A104400288DD15CE1B0F5802F39
:101A700074D0B0F5402F72D0B0F5A01F70D0B0F583
:101A8000E01F91D151E188E095E0A2E0BDE002E0E5
:101A900002E000BF00BF00BF00BF00BF00BF00BF2B
:101AA00000BF00BFD34840689843D24A5060012924
:101AB00003D1104640681843506072E1EBE006E144
:101AC00021E1CC484068CC4A1040CA4A5060012904
:101AD00004D11046406840F00100506061E1A2E08E
:101AE000AFE0BCE020E1C348406820F03000C14ACC
:101AF0005060012904D11046406840F01000506049
:101B00004FE1BAE00DE10DE1BA48406820F0300045
:101B1000B84A5060012904D11046406840F03000B6
:101B200050603EE1B348406820F0C000B14A5060C8
:101B3000012904D11046406840F04000506030E177
:101B4000AC48406820F0C000AA4A5060012904D186
:101B50001046406840F0C000506022E1F6E003E12A
:101B600010E1A448406820F44070A24A5060012966
:101B700004D11046406840F48070506011E19D48E7
:101B8000406820F440709B4A5060012904D11046FF
:101B9000406840F40070506003E19648406820F4CB
:101BA0004070944A5060012904D11046406840F4C6
:101BB00040705060F5E08F48406820F440608D4AE6
:101BC0005060012904D11046406840F40060506024
:101BD000E7E08848406820F44060864A5060012968
:101BE00004D11046406840F440605060D9E081481C
:101BF000406820F4C0407F4A5060012904D110465B
:101C0000406840F480405060CBE07A48406820F45F
:101C1000C040784A5060012904D11046406840F421
:101C2000C0405060BDE07348406820F0E060714AF9
:101C30005060012904D11046406840F08070506027
:101C4000AFE06C48406820F0E0606A4A50600129CB
:101C500004D11046406840F000705060A1E0654833
:101C6000406820F0E060634A5060012904D11046CA
:101C7000406840F08060506093E05E48406820F02B
:101C800080405C4A5060012904D11046406840F011
:101C90008040506085E05748406820F00050554A29
:101CA0005060012904D11046406840F00050506057
:101CB00077E05048406820F080504E4A506001293B
:101CC00004D11046406840F08050506069E04948B7
:101CD000406820F40000474A5060012904D11046B2
:101CE000406840F4000050605BE04248406820F4E7
:101CF0008000404A5060012904D11046406840F4F9
:101D0000800050604DE03B48406820F40010394AA4
:101D10005060012904D11046406840F40010506022
:101D20003FE000BF00BF00BF00BF3248C069C3F33F
:101D3000150290432F4AD061012906D11046C0698F
:101D4000C3F3150210432B4AD0612AE02948C06929
:101D500020F4C010274AD061012904D11046C0697F
:101D600040F40020D0611CE02248C06920F4C0107B
:101D7000204AD061012904D11046C06940F4801086
:101D8000D0610EE01B48C06920F4C010194AD06130
:101D9000012904D11046C06940F4C010D06100E0B0
:101DA00000BF00BFF0BD30B500228B071C0F0F2312
:101DB00003FA04F20F4B08338C1053F8243093438A
:101DC0000C4C08348D1044F8253023468C1053F801
:101DD00024308C07240F00FA04F42343054C083404
:101DE0008D1044F8253030BD04490860704700006C
:101DF0002000FEFF00000140FEFFFF7FDC002042CC
:101E000010B50446F848844209D10121480500F084
:101E10001EFC00214FF4001000F019FC0BE0F34809
:101E2000844208D10121880500F011FC00214FF403
:101E3000800000F00CFC10BD2DE9F04385B0044695
:101E40000D460026B1460427DFF8A483A68806F4D1
:101E50007F46684600F007FBDDF80880E548B8FBE0
:101E6000F0F01FFA80F946EA0906A68020884FF6AE
:101E7000FE71084020800026DF49286888420CD87F
:101E800028684000B8FBF0F087B2042F00DA04277E
:101E90003E4309F10100208427E0E8884BF6FF71FA
:101EA000884206D1286800EB4000B8FBF0F087B20A
:101EB00009E0286800EBC00101EB0010B8FBF0F06E
:101EC00087B247F48047C7F30B0008B947F0010712
:101ED00047F4004006434FF4967009FB00F04FF4BE
:101EE0007A7190FBF1F0401C2084A683208840F09A
:101EF0000100208026884FF6F5300640A8886989C1
:101F0000084306432680A88929890843208105B013
:101F1000BDE8F08341F288310160002181804BF6F9
:101F2000FF71C1800021018141814FF48041818195
:101F3000704721B1028842F00102028004E0028869
:101F40004FF6FE731A400280704721B1828842F436
:101F50000062828004E082884FF2FF731A40828020
:101F6000704721B1828842F48052828004E08288E6
:101F70004EF6FF731A408280704721B1028842F406
:101F80008072028004E002884FF6FF631A400280EC
:101F9000704721B1028842F40072028004E0028896
:101FA0004FF6FF531A400280704721B1028842F475
:101FB0008062028004E002884FF6FF331A400280FC
:101FC00070470A46002181894FF60173194002F0DB
:101FD000FE0319438181704721B1828942F00102D9
:101FE000828104E082894FF6FE731A408281704735
:101FF00021B1028842F04002028004E002884FF6DC
:10200000BF731A40028070471AB183880B438380E4
:1020100002E083888B4383807047018270470146CA
:10202000088AC0B2704712B141F0010102E04FF6D8
:10203000FE7319400182704708B5024600200090E7
:1020400000920098084400900098008808BD21B1D3
:10205000028842F40042028003E00288C2F30E02CA
:1020600002807047B1F5006F04D1028842F400622B
:10207000028004E002884FF2FF731A40028070472A
:10208000B1F5005F04D1028842F40052028004E0FE
:1020900002884DF6FF731A400280704721B1028812
:1020A00042F48052028004E002884EF6FF731A4028
:1020B00002807047B1F5006F04D1028842F40062DB
:1020C000028004E002884FF2FF731A4002807047DA
:1020D00021B1028842F02002028004E002884FF61B
:1020E000DF731A40028070470146088B0012704768
:1020F00021B1028842F01002028004E002884FF60B
:10210000EF731A400280704721B9028842F08002C2
:10211000028004E002884FF67F731A400280704705
:10212000B1F5804F05D0828B4BF6FF731A40828346
:1021300003E0828B42F480428283704770B502468E
:102140000024002500230020958A138B1B0445EAF8
:10215000030626F07F4404EA01068E4201D10120E5
:1021600000E0002070BD10B50146002000230022D1
:102170008B8A0A8B120443EA020424F07F4010BDCC
:102180000CB50246002000230193009300920B0F30
:10219000019321F07F41019B1BB1009B14330093FD
:1021A00003E0090C009B18330093009B1B680B4055
:1021B0000BB1012000E000200CBD002221F07F4285
:1021C000D3438382704730B50246002000239488B1
:1021D00001F0E06504EA154321F07F41948A0C4048
:1021E00064B15BB101200AE0005400400058004097
:1021F00000127A0040420F00A0860100002030BD8E
:10220000002221F07F42D34383827047F848006860
:1022100040F00100F649086008464068F54908406A
:10222000F349486008460068F3490840F0490860EF
:102230000846006820F48020086008464068ED49A0
:10224000C9430840EA4948604FF41F0088600846C7
:10225000006BEA490840E64908637047E4490968A9
:1022600021F48031E24A11601146096821F480218D
:102270001160B0F5803F03D0B0F5802F0ED106E09D
:10228000DB49096841F48031D94A116007E0D84937
:10229000096841F4A021D64A116000E000BF00BFE8
:1022A000704710B501460022002300204A11012A80
:1022B00002D1CF4C236806E0022A02D1CC4C236A1B
:1022C00001E0CB4C636A01F01F02012494401C40E2
:1022D0000CB1012000E0002010BD002100E0491CED
:1022E0008142FCD3704738B50020009000240025BF
:1022F00000BF3120FFF7D5FF05460098401C009035
:102300000098B0F5405F01D0002DF2D041F2883046
:10231000FFF7E3FF3120FFF7C4FF08B1012400E01D
:102320000024204638BD01460020B14A106820F044
:10233000FE0040EA81001060704700215A22AC4B39
:1023400030331A70AA4A126822F47F4141EA002110
:10235000A74A11600022A64B83F830207047A84995
:102360000860704710B503460020A14C6068A54C7A
:10237000204043EA0104144320439D4C606010BD9B
:102380009F490866704701460020994A506820F02E
:1023900003000843506070479548406800F00C0007
:1023A000704701460020924A506820F0F000084330
:1023B00050607047014600208D4A506820F4E0606C
:1023C00008435060704701460020894A506820F455
:1023D000605040EAC1005060704729B1844A527A87
:1023E0000243834B5A7204E0814A527A8243804B03
:1023F0005A727047014600207D4A506820F00C60F8
:1024000008435060704701460020794A50687E4A70
:1024100010400843764A506070470021744A2032C9
:102420001170734A82F82010012802D004280AD1C2
:1024300004E001216E4A2032117005E005216C4A4A
:102440002032117000E000BF00BF70476F49086084
:1024500070476749096A0143654A116270476B49D1
:10246000443908607047F0B50022002100240023A1
:102470005F4D6D6805F00C0222B1042A05D0082AD0
:102480003ED105E0624D05603DE0614D05603AE0FA
:10249000574D6D685F4E05EA0601554D6D6805F4B0
:1024A000803401F0C04535B901F47015B5F5701FE1
:1024B00001D0022500E0012501F0C046C1F38347A9
:1024C00047EA5666A9191CB9534D4D4305600BE008
:1024D000474D6D6805F400351DB14F4D4D43056006
:1024E00002E04B4D4D430560414D6D6805F00045E0
:1024F0002DB94A4E0568B54201D93546056002E05E
:10250000434D056000BF00BF394D6D68C5F3021231
:10251000374D6D6805F0800515B1414DAD5C00E0AB
:1025200000252B460568DD404560314D6D68C5F3DB
:1025300001222F4D6D6805F4806515B1384DAD5CF5
:1025400000E000252B464568DD408560284D6D681C
:10255000C5F3C122264D6D6805F4005515B1304D07
:10256000AD5C00E000252B464568DD40C560204D90
:102570006D68C5F381321E4D6D6805F080550DB153
:1025800042F00402274DAB5CC568B5FBF3F505616D
:10259000F0BD29B1164A52690243154B5A6104E055
:1025A000134A52698243124B5A61704729B1104A4B
:1025B000926902430E4B9A6104E00D4A926982438C
:1025C0000B4B9A61704729B1094AD2690243084B03
:1025D000DA6104E0064AD2698243054BDA6170474A
:1025E00029B1034A926A0243014B9A6221E01BE03F
:1025F000001002400000FFE8FFFFF6FE00FFFEFEB5
:1026000000004242FFFFC01FFF3FFFEF8004424235
:1026100000127A0000003C6000093D0000A24A045C
:102620008800002090000020614A926A8243604B3B
:102630009A62704729B15E4AD26802435C4BDA6005
:1026400004E05B4AD2688243594BDA60704729B193
:10265000574A12690243564B1A6104E0544A126900
:102660008243534B1A617047524908607047524980
:10267000C864704710B5024600204D4B1B6B23F019
:1026800070434B4C236323461B6B0B432363130F95
:102690005BB923461B6B23F48033236323465868BE
:1026A00020F0E0601043586017E00123B3EB127F85
:1026B00013D13F4B1B6B23F480333D4C23632346E4
:1026C0001B6B43F4803323632346586820F0E0609B
:1026D00022F0704318432346586010BD3448406AC6
:1026E00040F0807032494862704701460020304A0D
:1026F00092680A400AB1012000E0002070472C498E
:1027000088727047012806D12949496D41F030018E
:10271000274A516505E02649496D21F03001244AD8
:102720005165704701280BD12149096B41F00071B7
:102730001F4A11631146496D41F4807151650AE0E9
:102740001B49096B21F00071194A11631146496D4B
:1027500021F48071516570471549496D21F440514C
:10276000134A51651146496D01435165704701286F
:1027700006D10F49C96D41F001010D4AD16505E04F
:102780000B49C96D21F00101094AD1657047012843
:1027900006D10749096D41F48031054A116505E00C
:1027A0000349096D21F48031014A11657047000029
:1027B00000100240400442420000424210B504466C
:1027C000FB48844209D101218803FFF733FF002130
:1027D0004FF48040FFF72EFF32E0F648844209D1E3
:1027E00001214804FFF733FF00214FF40030FFF7C9
:1027F0002EFF25E0F048844209D101218804FFF72B
:1028000026FF00214FF48020FFF721FF18E0EB485E
:10281000844209D10121C804FFF719FF00214FF4B8
:102820000020FFF714FF0BE0E548844208D10121A6
:102830000805FFF70CFF00214FF48010FFF707FF9A
:1028400010BD2DE9F04786B005460E460024A2468D
:1028500000BFA1460027B08900B100BF2F462C8AD7
:102860004CF6FF700440F08804432C82AC894EF68D
:10287000F3100440B0883189084371890843044348
:10288000AC81AC8A4FF6FF400440B0890443AC826F
:1028900001A8FFF7E8FDC648874202D1DDF810A085
:1028A00001E0DDF80CA0A88900F4004040B10AEB7B
:1028B000CA0000EB0A1031684900B0FBF1F807E0EC
:1028C0000AEBCA0000EB0A1031688900B0FBF1F88E
:1028D0006420B8FBF0F004012009642101FB108999
:1028E000A88900F4004040B1322000EBC900B0FBE1
:1028F000F1F000F00700044308E0322000EB09107B
:102900006421B0FBF1F000F00F0004432C8106B00D
:10291000BDE8F0874FF41651016000218180C1802D
:1029200001810C21418100218181704710B502464F
:102930000020108A4FF2FF0318400B884C88234375
:102940008C882343CC8823431843108210BD002178
:10295000018041808180C180704721B1828942F429
:102960000052828104E082894DF6FF731A40828111
:102970007047F0B50346002400260025002040F6ED
:102980006A17B94200D100BF1846C1F3421401F0E2
:102990001F06012707FA06F5012C01D10C3004E0CF
:1029A000022C01D1103000E014301AB107682F4317
:1029B000076002E00768AF430760F0BD1AB1838A81
:1029C0000B43838202E0838A8B4383827047028AAF
:1029D0004FF6F0731A400282028A0A43028270475D
:1029E00082894FF2FF731A40828182890A43828171
:1029F000704721B1828942F00202828104E082891B
:102A00004FF6FD731A4082817047028A4FF6DF73DA
:102A10001A400282028A0A430282704721B1028A66
:102A200042F48042028204E0028A4BF6FF731A40AD
:102A300002827047C1F3080282807047014688888D
:102A4000C0F308007047818941F00101818170471E
:102A5000028BD2B20283028B42EA012202837047C8
:102A6000028B02F47F420283028B0A430283704787
:102A700021B1828A42F02002828204E0828A4FF6EB
:102A8000DF731A408282704721B1828A42F01002BD
:102A9000828204E0828A4FF6EF731A408282704786
:102AA00021B1828A42F00802828204E0828A4FF6D3
:102AB000F7731A408282704721B1828942F4004242
:102AC000828103E08289C2F30E028281704721B1C4
:102AD000828A42F40062828204E0828A4FF2FF73AB
:102AE0001A4082827047828A4FF6FB731A408282B4
:102AF000828A0A438282704721B1828A42F00202AE
:102B0000828204E0828A4FF6FD731A408282704707
:102B100002460020B1F5007F00D100BF13880B40B2
:102B20000BB1012000E00020704701F40072B2F503
:102B3000007F00D100BFCA430280704770B50246D3
:102B4000002400230025002040F66A16B14200D17F
:102B500000BFC1F3421501F01F03012606FA03F37B
:102B6000012D02D19689334006E0022D02D1168A4A
:102B7000334001E0968A33400C12012606FA04F431
:102B80001688344013B10CB1012000E0002070BD64
:102B900010B50022002340F66A14A14200D100BF04
:102BA0000A1201249440A3B2DC43048010BD00004B
:102BB000003801400044004000480040004C004004
:102BC0000050004031490143314A1160704770B5EF
:102BD000002100230F22C47804B32D4C246804F490
:102BE000E064C4F5E064210AC1F10403CA404478FA
:102BF00004FA03F18478144021430901254C067836
:102C0000A155047804F01F050124AC4005786D112E
:102C1000AD0005F1E025C5F8004109E0047804F0B5
:102C20001F050124AC401C4D0678761145F826405E
:102C300070BD1A4A0A400243154B1B1F1A607047A9
:102C400039B1134A121D12680243114B1B1D1A6041
:102C500006E00F4A121D126882430D4B1B1D1A60BD
:102C60007047042808D14FF0E021096941F00401C0
:102C70004FF0E022116107E04FF0E021096921F0F7
:102C800004014FF0E0221161704700000000FA05D6
:102C90000CED00E000E400E080E100E080FFFF1FB9
:102CA000D2B201E000F8012B491EFBD2704700228E
:102CB000F6E710B513460A4604461946FFF7F0FF3B
:102CC000204610BD2DE9F05F0546002092469B4648
:102CD00088460646814640241BE028464146474632
:102CE000224600F042F853465A46C01A914110D38A
:102CF00011461846224600F029F82D1A67EB010804
:102D00004F4622460120002100F020F817EB000971
:102D10004E41201EA4F10104DFDC484631462A461C
:102D20004346BDE8F09F0000064C074D06E0E06812
:102D300040F0010394E8070098471034AC42F6D302
:102D4000FDF724FA8C300008AC300008202A04DBA0
:102D5000203A00FA02F1002070479140C2F12003AE
:102D600020FA03F3194390407047202A04DB203AED
:102D700021FA02F00021704721FA02F3D040C2F19B
:102D80002002914008431946704700000FB4054BDC
:102D900010B503A9044A029800F018F810BC5DF8B9
:102DA00014FB0000F10200089800002002E008C8AF
:102DB000121F08C1002AFAD170477047002001E0B5
:102DC00001C1121F002AFBD1704700002DE9FF4FFF
:102DD0008DB09B460F460446002606E025280BD002
:102DE0005A460F999047641C761C20780028F5D12C
:102DF00011B03046BDE8F08F0025A8460122984961
:102E000000E0054314F8013F203B02FA03F00842BA
:102E1000F7D120782E2817D114F8010F45F00405BA
:102E20002A280ED06FF02F022078A0F13001092956
:102E30000AD808EB880102EB410100EB0108641C91
:102E4000F2E757F8048B641C20786C280DD004DC62
:102E50004C2812D06A2811D104E074280DD07A28A9
:102E60000CD10AE045F4001507E0617845F48015BF
:102E7000814202D1641C05F58015641C2278692A00
:102E800045D008DC002AB3D0582A69D0632A10D074
:102E9000642A08D13BE0702A67D0732A13D0752AC0
:102EA0005CD0782A5CD010465A460F999047761C21
:102EB000D3E017F8040B8DF8000000208DF8010016
:102EC000E946012003E057F8049B4FF0FF30690703
:102ED0004FF0000501D40AE06D1C45450DDA85422E
:102EE000FADB19F805100029F6D106E06D1C8542C1
:102EF000FCDB19F805100029F8D12E4404E019F87C
:102F0000010B5A460F9990476D1EF8D2A5E00A2092
:102F10000021CDE90801C5F3025002280DD001CFF0
:102F2000C117031E71F100030DDA4FF0000CD0EB56
:102F30000C006CEB01012D2308E0FF1D27F00707B3
:102F4000F7E80201EDE72B0504D52B238DF8283097
:102F500001233BE0EB0739D02023F7E70A2000E00C
:102F600010200021CDE9080107E01020002145F0E4
:102F70000405CDE908014FF00808C5F30250022806
:102F80000FD001CF00214FF0000A2B071FD5702A68
:102F90000DD0DDE908C38CF0100C5CEA030C0CD0FA
:102FA00015E0FF1D27F00707F7E80201EBE74022D5
:102FB0008DF828204FF0010A0BE050EA010306D0FB
:102FC00030238DF828308DF8292002239A46582A7C
:102FD00004D024A20DF120090B9209E026A2F9E702
:102FE000DDE90823FFF76EFE0B9B9B5C09F8013DB2
:102FF00050EA0102F4D1ADEB0900203008906807D7
:1030000001D44FF001080899884502DDA8EB0100C2
:1030100000E000208046002506E00AA85A46405DF0
:103020000F9990476D1C761C5545F6DB04E0302067
:103030005A460F999047761CB8F10001A8F1010893
:10304000F5DC05E019F8010B5A460F999047761CFC
:103050000899481E08900029F4DC641CC5E60000AD
:10306000092801003031323334353637383961625E
:103070006364656600000000303132333435363722
:10308000383941424344454600000000AC30000856
:10309000000000209C000000AC2D00084831000812
:1030A0009C00002004050000BC2D0008000000006A
:1030B00000140140001401400014014000000020F1
:1030C0000040008000000000200000002000000000
:1030D0002000000000080140001001400100002015
:1030E00004000000100000000000000000000000CC
:1030F0000100000000000000004006000000000089
:1031000000000000000000000000000000000000BF
:1031100000000000000000000000000000000000AF
:10312000001C4E0E0000000000000000010203041D
:103130000607080901020304060708090204060835
:08314000020C08100000000061
:040000050800018569
:00000001FF
