:020000041FFFDC
:10AC00007804002085ADFF1FB9B1FF1F7FB1FF1F82
:10AC1000B5B1FF1F0DB0FF1FFDB8FF1F0000000002
:10AC20000000000000000000000000000DB5FF1F44
:10AC300011B0FF1F00000000BBB1FF1F51B6FF1F86
:10AC40009FADFF1F9FADFF1F9FADFF1F9FADFF1F5C
:10AC50009FADFF1F9FADFF1F9FADFF1F9FADFF1F4C
:10AC60009FADFF1F9FADFF1F9FADFF1F9FADFF1F3C
:10AC70009FADFF1F9FADFF1F9FADFF1F9FADFF1F2C
:10AC80009FADFF1F9FADFF1F9FADFF1F9FADFF1F1C
:10AC90009FADFF1F9FADFF1F9FADFF1F9FADFF1F0C
:10ACA0009FADFF1F9FADFF1F9FADFF1F9FADFF1FFC
:10ACB0009FADFF1F9FADFF1F9FADFF1F9FADFF1FEC
:10ACC0009FADFF1F9FADFF1F9FADFF1F9FADFF1FDC
:10ACD0009FADFF1F9FADFF1F9FADFF1F9FADFF1FCC
:10ACE0009FADFF1F9FADFF1F9FADFF1F0000000026
:10ACF0000000000000000000000000000000000054
:10AD0000000000009FADFF1F9FADFF1F000000006F
:10AD10009FADFF1F9FADFF1F00000000000000005F
:10AD20009FADFF1F9FADFF1F9FADFF1F9FADFF1F7B
:10AD30000000000000000000000000000000000013
:10AD40000000000000000000000000009FADFF1F99
:10AD500000000000000000009FADFF1F9FADFF1F1F
:10AD60009FADFF1F00000000000000009FADFF1F0F
:10AD7000DFF80CD000F0C4F80048004775B9FF1F99
:10AD8000780400200648804706480047FEE7FEE7B3
:10AD9000FEE7FEE7FEE7FEE7FEE7FEE7FEE7FEE78B
:10ADA00055B6FF1F71ADFF1F80EA010210B502F01A
:10ADB0000043400022D04A001FD0010E01EB126177
:10ADC000C0F35600C2F3560240F4000042F4000201
:10ADD000A0FB022000047F39140400D0401C50EA7C
:10ADE000124001D44000491EC2B20C0604EBD01040
:10ADF000401C4008802A02D003E0002010BD20F053
:10AE00000100002900DA0020184310BD30B480EAA8
:10AE1000010202F0004530F0004221F0004013D062
:10AE200090B1C30DD40DC2F31601C0F31600E41A9D
:10AE300041F4000140F400027D34914201D3641CCE
:10AE400000E04900002C02DA30BC002070474FF4CB
:10AE500000000023914201D3891A034340084FEABE
:10AE60004101F7D151B1914202D14FF0004105E0CB
:10AE700002D24FF0010101E06FF0010103EBC45079
:10AE8000284430BC00F005B896230022114600F09B
:10AE900009B80029A8BF7047401C490008BF20F02E
:10AEA0000100704710B4B0FA80FC00FA0CF050EAD0
:10AEB000010404BF10BC704749B1CCF1200421FA51
:10AEC00004F411FA0CF118BF012121430843A3EB4C
:10AED0000C01CB1D4FEA00614FEA102042BF002059
:10AEE00010BC704700EBC35010440029A4BF10BC35
:10AEF0007047401C490008BF20F0010010BC70479B
:10AF0000064C074D06E0E06840F0010394E80700B6
:10AF100098471034AC42F6D3FFF72EFFD8B9FF1F85
:10AF2000F8B9FF1F38B504460B4951F82400012138
:10AF300000F054F9684600F01AF9084830F8140097
:10AF4000ADF8000028208DF80300054951F82400D1
:10AF5000694600F081F838BD5C00002058000020F0
:10AF60005000002010B500F055F8012000F016F850
:10AF7000022000F013F8032000F010F8012000F088
:10AF800031F8022000F02EF8032000F02BF800200A
:10AF9000FFF7C8FF0120FFF7C5FF10BD38B5044615
:10AFA0000D4951F82400012100F018F9684600F01D
:10AFB000DEF80A4830F81400ADF8000010208DF8D3
:10AFC000030002208DF80200054951F8240069466B
:10AFD00000F042F838BD000040000020380000209A
:10AFE00028000020032800DD7047064931F81010C2
:10AFF00031B1044931F81010034A52F82020116190
:10B0000000BFF1E7380000202800002000BFFEE765
:10B010007047000010B56FF0040000F005FB094810
:10B020000068FFF731FF04460749FFF7EFFE0749C5
:10B030000860074905480068FFF7B6FE0549086043
:10B0400010BD0000040000200024F44A6400002029
:10B0500000007A44680000202DE9F04102460025F6
:10B060000026002000230024002791F803C00CF0E4
:10B070000F0591F803C00CF0100CBCF1000F03D0C9
:10B0800091F802C04CEA050591F800C0BCF1000F30
:10B0900031D0146800202BE04FF0010C0CFA00F3C3
:10B0A000B1F800C00CEA03069E4220D183004FF0A5
:10B0B0000F0C0CFA03F7BC4305FA03FC4CEA04043A
:10B0C00091F803C0BCF1280F06D14FF0010C0CFA27
:10B0D00000FCC2F814C00AE091F803C0BCF1480FAC
:10B0E00005D14FF0010C0CFA00FCC2F810C0401C56
:10B0F0000828D1D31460B1F800C0BCF1FF0F34DDD3
:10B10000546800202EE000F1080C4FF0010808FA06
:10B110000CF3B1F800C00CEA03069E4221D1830073
:10B120004FF00F0C0CFA03F7BC4305FA03FC4CEA92
:10B13000040491F803C0BCF1280F05D100F1080CFC
:10B1400008FA0CF8C2F8148091F803C0BCF1480F5B
:10B1500007D100F1080C4FF0010808FA0CF8C2F80A
:10B160001080401C0828CED35460BDE8F0814FF613
:10B17000FF710180022181700421C170704700BFFE
:10B18000FEE7000010B50446084920680840B0F109
:10B19000005F09D1064960680860206880F308886C
:10B1A00000BF08460068804710BD00000080FF2FE8
:10B1B0000000002000BFFEE77047704729B1064A33
:10B1C000D2690243044BDA6104E0034AD269824344
:10B1D000014BDA61704700000010024029B1064AB5
:10B1E00092690243044B9A6104E0034A92698243E4
:10B1F000014B9A6170470000001002402DE9F84FA2
:10B20000002500260027AC460024A046A1460022C7
:10B2100000218A46CDF800A00023DFF8B0A2DAF8BA
:10B2200004A00AF00C0222B1042A07D0082A70D127
:10B2300009E0DFF89CA2C0F800A0D1E0DFF890A2FE
:10B24000C0F800A0CCE0DFF884A2DAF82CA00AF065
:10B250000045B5F1004F74D1DFF870A2DAF82CA0E8
:10B260000AF0E066DFF864A2DAF82CA00AF47F475F
:10B27000DFF858A2DAF82CA00AF0F00CDFF84CA2A4
:10B28000DAF82CA00AF0070400BFB6F1407F18D00E
:10B2900007DC6EB1B6F1807F0DD0B6F1007F19D119
:10B2A0000CE0B6F1806F0FD0B6F1A06F12D10EE0B6
:10B2B0004FF0040811E04FF006080EE04FF00808C8
:10B2C0000BE04FF00C0808E04FF0100805E04FF0DD
:10B2D000190802E04FF0000800BF00BF00BF00BF28
:10B2E000062C17D2DFE804F00306090C0F124FF00A
:10B2F000010912E04FF002090FE04FF004090CE0E1
:10B300004FF0080909E04FF0100906E04FF020095E
:10B3100003E060E04FF0010900BF00BF00BF4FEA4B
:10B32000172A0AFB08FA4FEA1C1B0BFB09FBBAFBA6
:10B33000FBFADFF8A0B10AFB0BFAC0F800A049E065
:10B34000FFE7DFF888A1DAF804A0DFF88CB10AEA99
:10B350000B01DFF878A1DAF804A00AF4803ACDF8FE
:10B3600000A001F0C04ABAF1000F07D101F4701A31
:10B37000BAF5701F02D04FF0020A01E04FF0010A47
:10B3800001F0C04BC1F3834E4EEA5B6B0AEB0B013D
:10B39000DDF800A0BAF1000F06D1DFF840A101FBF3
:10B3A0000AFAC0F800A015E0DFF820A1DAF804A03E
:10B3B0000AF4003ABAF1000F06D0DFF820A101FB31
:10B3C0000AFAC0F800A005E0DFF804A101FB0AFAC0
:10B3D000C0F800A004E0DFF8F8A0C0F800A000BFAB
:10B3E00000BFDFF8E8A0DAF804A0CAF30212DFF821
:10B3F000DCA0DAF804A00AF0800ABAF1000F04D049
:10B40000DFF8DCA01AF802A001E04FF0000A534672
:10B41000D0F800A02AFA03FAC0F804A0DFF8ACA024
:10B42000DAF804A0CAF30122DFF8A0A0DAF804A039
:10B430000AF4806ABAF1000F04D0DFF8A4A01AF869
:10B4400002A001E04FF0000A5346D0F804A02AFA07
:10B4500003FAC0F808A0DFF874A0DAF804A0CAF371
:10B46000C122DFF868A0DAF804A00AF4005ABAF1A1
:10B47000000F04D0DFF868A01AF802A001E04FF036
:10B48000000A5346D0F804A02AFA03FAC0F80CA028
:10B49000DFF838A0DAF804A0CAF38132DFF82CA074
:10B4A000DAF804A00AF0805ABAF1000F01D042F095
:10B4B0000402DFF830A01AF80230D0F80CA0BAFB72
:10B4C000F3FAC0F810A0BDE8F88F000000100240A9
:10B4D00000127A0040420F0000003C6000093D006D
:10B4E0001800002020000020012806D10649496DDF
:10B4F00041F03001044A516505E00349496D21F0EE
:10B500003001014A5165704700100240704710B584
:10B5100000F002F810BD00001CB500200190009062
:10B520003D48006840F480303B49086000BF3A481D
:10B53000006800F4003000900198401C01900098D1
:10B5400018B90198B0F5405FF1D13348006800F4B4
:10B55000003010B10120009001E000200090009820
:10B56000012857D12D48006840F010002B49086091
:10B570000846006820F0070008600846006840F0B0
:10B580000400086024484068234948600846406831
:10B5900020F4605048600846406840F4005048601D
:10B5A0000846406820F4E06048600846406840F47F
:10B5B000806048600846406819490840164948605C
:10B5C0000846406817490843134948600846006820
:10B5D00040F08070086000BF0F48006800F0007005
:10B5E0000028F9D00120FFF77FFF0B48406820F0CA
:10B5F0000300094948600846406840F0020048607E
:10B6000000BF0548406800F00C000828F9D1002070
:10B61000FFF76AFF1CBD000000100240002002403E
:10B62000FFFFC01F00000520042808D14FF0E021D3
:10B63000096941F004014FF0E022116107E04FF089
:10B64000E021096921F004014FF0E0221161704707
:10B650007047000010B501210807FFF7AFFD1C4837
:10B66000007840F004001A49503981F85000002158
:10B670004FF08050FFF7A2FD1648006840F001002F
:10B680001449086008464068134908401149486059
:10B6900008460068114908400E49086008460068DD
:10B6A00020F480200860084640680D490840094998
:10B6B00048600846006B0B490840064908634FF490
:10B6C0001F008860FFF723FF07480849086010BD86
:10B6D00050700040001002400C00FFE8FFFFF6FE33
:10B6E000FFFF001700FFFEFE00ACFF1F08ED00E0AB
:10B6F00010B586B0044601210420FFF76FFD01213B
:10B700008803FFF76BFD05A8FFF731FD4FF40070CC
:10B71000ADF8140002208DF8160018208DF81700DF
:10B7200005A91748FFF798FC4FF48060ADF81400A6
:10B7300004208DF8170005A91148FFF78DFC01A81A
:10B7400000F0D0F801940020ADF80800ADF80A0030
:10B75000ADF80C00ADF810000C20ADF80E0001A9FA
:10B76000084800F04FF8012240F22551054800F04A
:10B7700024F80121034800F007F806B010BD0000CE
:10B78000000801400038014021B1828942F4005292
:10B79000828104E082894DF6FF731A4082817047EE
:10B7A00002460020B1F5007F00D100BF13880B4096
:10B7B0000BB1012000E000207047F0B503460024E3
:10B7C00000260025002040F66A17B94200D100BFCC
:10B7D0001846C1F3421401F01F06012707FA06F5C7
:10B7E000012C01D10C3004E0022C01D1103000E01A
:10B7F00014301AB107682F43076002E00768AF43AF
:10B800000760F0BD2DE9F04786B005460E460024DE
:10B81000A24600BFA1460027B08900B100BF2F4655
:10B820002C8A4CF6FF700440F08804432C82AC89CB
:10B830004EF6F3100440B0883189084371890843FB
:10B840000443AC81AC8A4FF6FF400440B089044306
:10B85000AC8201A8FFF7D2FC1F48874202D1DDF875
:10B8600010A001E0DDF80CA0A88900F4004040B170
:10B870000AEBCA0000EB0A1031684900B0FBF1F88E
:10B8800007E00AEBCA0000EB0A1031688900B0FB40
:10B89000F1F86420B8FBF0F004012009642101FBF9
:10B8A0001089A88900F4004040B1322000EBC900A3
:10B8B000B0FBF1F000F00700044308E0322000EB99
:10B8C00009106421B0FBF1F000F00F0004432C815B
:10B8D00006B0BDE8F087000000380140C1F308025F
:10B8E000828070474FF41651016000218180C18031
:10B8F00001810C21418100218181704700BFFEE759
:10B90000014A024900F013B851B9FF1F700000202E
:10B9100002E008C8121F08C1002AFAD17047704718
:10B92000002001E001C1121F002AFBD170472DE960
:10B93000F04116460F460446002503E03946B0475D
:10B94000641C6D1C20780028F8D12846BDE8F081E1
:10B9500070B504460D46A1B20548FFF7BFFF00BF12
:10B9600040210348FFF71CFF0028F9D0204670BD96
:10B9700000380140FFF7F6FA4FF4E130FFF7B8FE68
:10B9800005A0FFF7BDFF10A0FFF7BAFF4FF0006062
:10B99000FFF7F8FB00BFFEE773797374656D206DE8
:10B9A000656D6F727920617320757365722D6465A2
:10B9B00066696E6564204941502069662072756E23
:10B9C0006E696E672E0D0A006A756D7020746F20A7
:10B9D0004150502E0D0A0000F8B9FF1F0000002052
:10B9E0007400000010B9FF1F6CBAFF1F7400002024
:10B9F0000404000020B9FF1F000000000044950867
:10BA0000000000000000000001020304060708090E
:10BA1000010203040607080902040608020C0810C4
:10BA20000000000000100140001001400010014023
:10BA300000000400080020000000000010000000CA
:10BA4000100000001000000000080140001001403C
:10BA500001000020040000001000000000000000B1
:0CBA6000000000000100000000000000D9
:040000051FFFAD71BB
:00000001FF
