:020000040800F2
:10000000C8040020291100087D0200087F020008B2
:1000100083020008870200088B020008000000002D
:100020000000000000000000000000008F02000837
:1000300091020008000000009302000895020008E9
:100040004311000843110008431100084311000840
:100050004311000843110008431100084311000830
:100060004311000843110008431100084311000820
:10007000431100084311000897020008FD02000820
:1000800063030008CB030008431100084311000874
:1000900043110008431100084311000843110008F0
:1000A00043110008431100084311000843110008E0
:1000B00043110008431100084311000843110008D0
:1000C00043110008431100084311000843110008C0
:1000D00043110008431100084311000843110008B0
:1000E00043110008431100084311000843110008A0
:1000F0004311000843110008431100084311000890
:10010000431100084311000843110008431100087F
:10011000431100084311000843110008431100086F
:10012000431100084311000843110008431100085F
:10013000431100084311000843110008431100084F
:1001400000000000000000000000000000000000AF
:10015000431100084311000843110008431100082F
:10016000431100084311000843110008431100081F
:10017000431100084311000843110008431100080F
:1001800043110008DFF80CD002F0BAFC0048004729
:10019000A3010008C804002031A002F0C3FC00BF86
:1001A000FEE708B54FF4E13000F005FE00F009FD70
:1001B0004FF4FA7000F046FE2D4800F043F90A2093
:1001C00000F05DFD4BE0142000F059FD0123294AA9
:1001D000A021274800F026FA08B1FFF7DDFF05202F
:1001E00000F04DFD1023234AA021214800F01AFA07
:1001F00008B1FFF7D1FF052000F041FD01231E4AA1
:10020000A0211B4800F09CFA08B1FFF7C5FF0520AC
:1002100000F035FD1023184AA021154800F090FA8F
:1002200008B1FFF7B9FF052000F029FD0120124BAE
:100230001022A02100900E4800F054FB08B1FFF7F7
:10024000ABFF052000F01BFD10200B4B0246A02148
:100250000090074800F046FB08B1FFF79DFFB2E7AA
:1002600050726F63206572726F722121210D0A0036
:100270000054004000000020B4000020704700BF80
:10028000FEE700BFFEE700BFFEE700BFFEE77047E6
:1002900070477047704710B56FF07F444FF40050BF
:1002A00001F09FF848B34FF4005001F0B9F820B3C3
:1002B000002202215E4801F085F84FF4005001F061
:1002C000A4F84FF4005001F0BFF85A48008820F419
:1002D00000605849088003E0601E041E00D106E05B
:1002E00055495448001F01F069FE0128F4D100BFB0
:1002F00001215048001F01F06AFD10BD10B54FF4F8
:10030000003001F06EF858B34FF4003001F088F877
:1003100030B3002202214648143001F053F84FF464
:10032000003001F072F84FF4003001F08DF84148D0
:10033000008820F480503F4908800846008820F457
:10034000006008803D48007850B9081F008820F4FC
:100350008060091F08800846008840F4007008800B
:1003600010BD10B56FF07F444FF4001001F039F864
:1003700050B34FF4001001F053F828B300220221CB
:100380002B48283001F01EF84FF4001001F03DF822
:100390004FF4001001F058F82948008820F400605C
:1003A0002749088003E0601E041E00D106E02249B0
:1003B0002348001F01F002FE0128F4D100BF0121F3
:1003C0001F48001F01F003FD10BD10B54FF0007075
:1003D00001F007F858B34FF0007001F021F830B386
:1003E0000022022112483C3000F0ECFF4FF0007078
:1003F00001F00BF84FF0007001F026F8104800886B
:1004000020F480500E4908800846008820F40060DF
:1004100008800A48007850B9081F008820F48060DE
:10042000091F08800846008840F40070088010BD4D
:100430004400024004580040040000104000002026
:100440000454004010B592B004462C2101A802F0DB
:100450004CFBF748844226D10121082001F0C4FF5B
:100460000121480501F0CDFFC020ADF84400022075
:100470008DF846001C208DF8470011A9ED4801F0C9
:100480003BF8ED48ED490860EB481430EC49086052
:100490001020EC4908701120EB490870E448103036
:1004A000EA49086026E00121082001F09DFF0121B2
:1004B000880501F0A6FF02208DF846001C208DF86B
:1004C00047004FF44060ADF8440011A9D94801F04D
:1004D00013F8D9482838D9490860D7481438D8497A
:1004E00008600E20D74908700F20D7490870D848F7
:1004F000D6490860204601F0A1FB0020ADF8380085
:100500004BF6FF70ADF83A00AA20ADF83C004FF46E
:100510008060ADF83E000001ADF84000CD480D9080
:100520000DA9204601F0A6FB0121084601F04FFF6E
:10053000C348006800F00AFE01A800F02AFFC34883
:1005400000680190C44802900020039008200490A5
:1005500000200590802006900020079008900990C8
:100560004FF440500A9000200B9001A9B448006855
:1005700000F08EFEB148006800F0E8FDB348006866
:100580000190B64802901020039040020A9001A901
:10059000AA48006800F07CFE0021204601F0F3FB31
:1005A0004FF4A06002F02CFAA64800788DF83000D5
:1005B00000208DF832008DF8310001208DF83300D5
:1005C0000CA802F022FAA04800788DF83000012033
:1005D0008DF8320000208DF8310001208DF83300B5
:1005E0000CA802F012FA12B010BD70B504460D4608
:1005F00035B1012D08D0022D07D0032D0FD10DE00C
:100600002046FFF71FFF0BE00AE09549204601F066
:10061000F2FC208840F40070208001E000E000BF80
:1006200000BF70BD2DE9F04104460F4615461E4639
:100630004FF6FF708B4908600DE08A48016800683A
:10064000401E884A106031B900212046FFF7CDFFD7
:100650000320BDE8F0814FF40031204601F0AEFCEC
:100660000028EAD1208820F400602080704884426D
:1006700003D171487149086003E06F4828386F4919
:1006800008606E480068006820F001006B49096846
:1006900008606A480068466068480068C5600122D2
:1006A00002216648006800F08DFE6448006800681A
:1006B00040F001006149096808600121204601F00D
:1006C0007AFB4FF6FF70674908600CE065480168E7
:1006D0000068401E634A106029B901212046FFF7D7
:1006E00084FF0320B5E76049204601F045FC01285E
:1006F000ECD100223946204601F0B3FB4FF6FF70E3
:10070000584908600CE0574801680068401E554A87
:10071000106029B902212046FFF767FF032098E700
:100720005249204601F028FC0128ECD1A08840F471
:100730000060A0804E49204601F05DFC002088E763
:100740002DE9F04104460F4616461D464FF6FF7050
:10075000444908600DE0434801680068401E414A72
:10076000106031B900212046FFF73FFF0320BDE8AC
:10077000F0814FF40031204601F020FC0028EAD13E
:100780002B48844204D12C4814302D49086003E0E2
:10079000294814382A490860208820F40060208005
:1007A00027480068006820F00100254909680860B2
:1007B00023480068456022480068C6600122022183
:1007C0001F48006800F0FEFD1D480068006840F00A
:1007D00001001B4909680860208840F4806020807F
:1007E0000121204601F0E7FA4FF6FF701D4908602D
:1007F0000CE01C4801680068401E1A4A106029B9C4
:1008000001212046FFF7F1FE0320B0E716492046FC
:1008100001F0B2FB0128ECD101223946204601F05B
:1008200020FB4FF6FF700F49086036E02FE0000014
:1008300000540040000C01406C00024030000020D9
:100840003400002038000020390000203C00002047
:1008500010580040801A06002800002020000020C8
:100860000004001014000020010003000200070033
:10087000020000109F4801680068401E9D4A1060F9
:1008800029B902212046FFF7B0FE03206FE79A49FD
:10089000204601F093FB0128ECD19849204601F055
:1008A0006BFB0128C2D1012D0BD1208820F4806080
:1008B00020800121204601F08AFA01209049087029
:1008C00006E0A08840F48050A08000208C49087089
:1008D000A08840F40060A0808749204601F08BFB8F
:1008E000002044E72DE9F0410446884615461E469F
:1008F000069F4FF6FF707F4908600DE07D48016854
:100900000068401E7B4A106031B900212046FFF785
:100910006CFE0320BDE8F0814FF40031204601F069
:100920004DFB0028EAD10121204601F044FA4FF6A0
:10093000FF70704908600CE06E4801680068401E56
:100940006C4A106029B901212046FFF74EFE0320B2
:10095000E0E76A49491E204601F00EFB0128EBD171
:1009600000224146204601F07CFA4FF6FF706149B3
:1009700008600CE05F4801680068401E5D4A106036
:1009800029B902212046FFF730FE0320C2E75D4966
:10099000204601F0F1FA0128ECD12946204601F069
:1009A0005AFA4FF6FF70534908600CE0514801684D
:1009B0000068401E4F4A106029B903212046FFF706
:1009C00014FE0320A6E74F498231204601F0D4FAF5
:1009D0000128EBD14C48844203D14C484C49086073
:1009E00003E04A4828384A490860208820F400601B
:1009F000208047480068006820F0010044490968E9
:100A0000086043480068476041480068C6600122AA
:100A100002213F48006800F0D5FC3D4800680068AE
:100A200040F001003A4909680860208840F480607D
:100A300020800121204601F0BEF94FF6FF702D49BC
:100A400008600CE02B4801680068401E294A1060CD
:100A500029B901212046FFF7C8FD03205AE727499D
:100A6000491E204601F088FA0128EBD101224146B7
:100A7000204601F0F6F94FF6FF701E49086013E0BA
:100A80000CE01C4801680068401E1A4A106029B931
:100A900002212046FFF7A9FD03203BE71649204627
:100AA00001F08CFA0128ECD11449204601F064FAD7
:100AB0000128E5D1012F0BD1208820F4806020800F
:100AC0000121204601F083F901200D49087006E05C
:100AD000A08840F48050A080002009490870A088B8
:100AE00040F40060A0800449204601F084FA002010
:100AF00010E70000140000200200001002000300B4
:100B00004000002002000700005400408000024026
:100B10003400002070B504460D46A1B2E84801F04B
:100B2000A7FE00BF4021E64801F010FF0028F9D0E1
:100B3000204670BD38B50446E24951F82400012131
:100B400001F052FC684600F062FDDF4830F8140006
:100B5000ADF8000028208DF80300DC4951F824008E
:100B6000694600F0C9FC38BD032800DD7047D8494C
:100B700031F8101031B1D64931F81010D54A52F879
:100B80002020116100BFF1E738B50446D24951F881
:100B90002400012101F028FC684600F038FDCC4813
:100BA00030F81400ADF8000010208DF8030002208A
:100BB0008DF80200C74951F82400694600F09CFCFA
:100BC00038BD10B56FF0040001F069FFC34890ED27
:100BD000000AB8EE400ADFEDC20A80EE201AC148D2
:100BE00080ED001A90ED000ADFEDBF0A20EE200A2A
:100BF000BE4880ED000A10BD10B5FFF7E2FF0120EE
:100C0000FFF7C2FF0220FFF7BFFF0320FFF7BCFF83
:100C10000120FFF7A9FF0220FFF7A6FF0320FFF73F
:100C2000A3FF0020FFF786FF0120FFF783FF10BD21
:100C300008B50121042001F0D7FB684600F0E7FC6D
:100C40004FF4C050ADF8000010208DF803000220D2
:100C50008DF802006946A64800F04EFC4FF4805122
:100C6000A34800F0F8FC08BD10B50446964A32F8D7
:100C70001410964A52F8240000F0D1FC10BD43E055
:100C8000B0F5FA7F11DD994A92ED000ADFED990A7D
:100C900020EE200ABCEEC00A10EE102A4FF0E0232E
:100CA0005A61A0F5FA7290B210E000EE100AB8EEA8
:100CB000400A8E4AD2ED000A20EE200ABCEEC00A9D
:100CC00010EE102A4FF0E0235A61002000224FF06E
:100CD000E0239A611A46126942F001021A6100BFCC
:100CE0004FF0E022116901F001021AB101F48032E3
:100CF000002AF5D04FF0E022126922F001024FF0F5
:100D0000E0231A6100229A610028B9D1704710B51A
:100D10007948007801281CD10020FFF7A5FF0128A1
:100D200004D00120FFF7A0FF012812D10020724952
:100D300008700A20FFF7A3FF0020FFF795FF0128A6
:100D400001D1002010BD0120FFF78EFF01280BD13B
:100D5000F8E70120FFF788FF30B90020FFF784FF94
:100D600010B90120644908700420EBE7032800DD76
:100D70007047574931F8101031B1554931F810100A
:100D8000544A52F82020516100BFF1E7032800DDEA
:100D900070474F4931F8101059B14E4951F82010A1
:100DA000C9684B4A32F8102051404A4A52F8202074
:100DB000D16000BFECE710B586B0044601210420E5
:100DC00001F012FB0121880301F00EFB05A800F0E1
:100DD0001EFC4FF40070ADF8140002208DF81600D0
:100DE00018208DF8170005A9414800F085FB4FF445
:100DF0008060ADF8140004208DF8170005A93C4868
:100E000000F07AFB01A801F0A3FC01940020ADF8EA
:100E10000800ADF80A00ADF80C00ADF810000C2089
:100E2000ADF80E0001A9264801F029FC012240F28C
:100E30002551234801F0BBFC0121214801F0ABFC06
:100E400006B010BD00EE100AB8EE400A254AD2EDF9
:100E5000000A20EE200ABCEEC00A10EE102A4FF065
:100E6000E0235A6100229A611A46126942F0010297
:100E70001A6100BF4FF0E022116901F001021AB1BE
:100E800001F48032002AF5D04FF0E022126922F0FE
:100E900001024FF0E0231A6100229A61704730B5D9
:100EA0000446002509E04FF4FA70FFF7E8FE4FF41E
:100EB000FA70FFF7E4FE681C85B2A542F3DB30BD93
:100EC0000038014078000020740000206C000020F1
:100ED00054000020440000205C0000208C00002012
:100EE0000024F44A8000002000007A44840000209E
:100EF000000801400000FA43880000201CB50020D3
:100F0000019000907C48006840F480307A49086085
:100F100000BF7948006800F4003000900198401C40
:100F20000190009818B90198B0F5405FF1D172486E
:100F3000006800F4003010B10120009001E00020B2
:100F400000900098012847D16B4840686A49486082
:100F50000846406820F4605048600846406840F405
:100F6000005048600846406820F4E0604860084649
:100F7000406840F480604860084640685F49084027
:100F80005D494860084640685D4908435A494860E1
:100F90000846006840F08070086000BF564800684E
:100FA00000F000700028F9D0012001F0C9FA524881
:100FB000406820F00300504948600846406840F00F
:100FC0000200486000BF4C48406800F00C00082850
:100FD000F9D1002001F0B4FA1CBD10B5FFF78EFF67
:100FE00010BD10B54748006840F4700045490860DE
:100FF0004148006840F001003F49086008464068E9
:10100000414908403C494860084600683F4908405B
:10101000394908600846006820F4802008600846C6
:1010200040683B490840344948600846006B3949EC
:101030000840314908634FF41F008860FFF7CDFF77
:101040004FF000602F498039086010BD70B5002254
:10105000002100230020284C646804F00C0222B117
:10106000042A06D0082A35D107E02B4C2B4D2C60E2
:1010700034E0294C294D2C6030E01F4C646804F4A6
:1010800080331D4C606800F0C04434B900F4701423
:10109000B4F5701F01D0022400E0012400F0C04527
:1010A000C0F3834646EA5565611923B91C4C4C438D
:1010B0001A4D2C600DE0104C646804F4003424B127
:1010C000174C4C43154D2C6003E0134C4C43134D0F
:1010D0002C6003E0104C114D2C6000BF00BF064C8B
:1010E0006468C4F303140F4D2A5D0C4C2468D4408B
:1010F0000A4D2C6070BD000000100240FFFFC01FB1
:10110000000035A088ED00E00C00FFE8FFFFF6FED0
:10111000FFFF001700FFFEFE00127A008C00002087
:1011200000093D009000002006488047064800471F
:10113000FEE7FEE7FEE7FEE7FEE7FEE7FEE7FEE787
:10114000FEE7FEE7E30F00088501000801684FF69F
:10115000FE72114001600021016041608160C16048
:10116000BF49884208D1BE490839496841F00F019A
:10117000BB4A083A51608AE0B9491431884208D123
:10118000B7490839496841F0F001B54A083A516059
:101190007DE0B3492831884208D1B149083949680E
:1011A00041F47061AE4A083A516070E0AC493C319C
:1011B000884208D1AA490839496841F47041A84ACF
:1011C000083A516063E0A6495031884208D1A449E9
:1011D0000839496841F47021A14A083A516056E043
:1011E0009F496431884208D19D490839496841F4D2
:1011F00070019B4A083A516049E099497831884228
:1012000008D197490839496841F07061944A083A11
:1012100051603CE09349884206D1011F096841F0C2
:101220000F01021F116032E08E491431884208D14B
:101230008C49091F096841F0F0018A4A121F1160A8
:1012400025E088492831884208D18649091F096864
:1012500041F47061834A121F116018E081493C31EA
:10126000884208D17F49091F096841F470417D4ACD
:10127000121F11600BE07B495031884207D1794938
:10128000091F096841F47021764A121F11607047E6
:1012900010B50022026847F6F0739A430C6A8B6817
:1012A00023430C6923434C6923438C692343CC6952
:1012B00023434C6A23438C6A23431A430260CB685E
:1012C00043600B6883604B68C36010BD50F8A43F57
:1012D00023F080730360036843F0807340F8A439FF
:1012E000012909D150F8A03F23F0FF0303600368F0
:1012F000134340F8A0394BE002290AD150F8A03F2F
:1013000023F47F430360036843EA022340F8A039D3
:101310003EE003290AD150F8A03F23F47F03036085
:10132000036843EA024340F8A03931E004290AD1B6
:1013300050F8A03F23F07F430360036843EA026351
:1013400040F8A03924E0052909D150F8A43F23F042
:10135000FF0303600368134340F8A43918E006292B
:101360000AD150F8A43F23F47F430360036843EAA3
:10137000022340F8A4390BE0072909D150F8A43F13
:1013800023F47F030360036843EA024340F8A4396F
:1013900070470021016041608160C160016141616D
:1013A0008161C161016241628162704721B102685D
:1013B00042F00102026004E002684FF6FE731A4038
:1013C000026070471AB103680B43036002E00368D0
:1013D0008B4303607047416070470146486880B2A4
:1013E000704701460020002201F080531BB11D4BC5
:1013F000083B1A6802E01A4B083B1A6802EA01032C
:101400000BB1012000E00020704700F0805119B1BD
:101410001449091F086002E0114908394860704703
:1014200001460020002201F080531BB10D4B083B08
:101430001A6802E00A4B083B1A6802EA01030BB182
:10144000012000E00020704700F0805119B10549EB
:10145000091F086002E0024908394860704700002F
:10146000080002400804024010B50446FE488442C9
:1014700008D10121042000F0FBFF0021042000F02E
:10148000F7FF2EE0F948844208D10121082000F03E
:10149000EFFF0021082000F0EBFF22E0F448844237
:1014A00008D10121102000F0E3FF0021102000F0FE
:1014B000DFFF16E0EF48844208D10121202000F030
:1014C000D7FF0021202000F0D3FF0AE0EA48844241
:1014D00007D10121402000F0CBFF0021402000F087
:1014E000C7FF10BD10B50121084600F0C1FF002163
:1014F000012000F0BDFF10BD2DE9F041024600259E
:101500000026002000230024002791F803C00CF0DF
:101510000F0591F803C00CF0100CBCF1000F03D0C4
:1015200091F802C04CEA050591F800C0BCF1000F2B
:1015300031D0146800202BE04FF0010C0CFA00F3BE
:10154000B1F800C00CEA03069E4220D183004FF0A0
:101550000F0C0CFA03F7BC4305FA03FC4CEA040435
:1015600091F803C0BCF1280F06D14FF0010C0CFA22
:1015700000FCC2F814C00AE091F803C0BCF1480FA7
:1015800005D14FF0010C0CFA00FCC2F810C0401C51
:101590000828D1D31460B1F800C0BCF1FF0F34DDCE
:1015A000546800202EE000F1080C4FF0010808FA02
:1015B0000CF3B1F800C00CEA03069E4221D183006F
:1015C0004FF00F0C0CFA03F7BC4305FA03FC4CEA8E
:1015D000040491F803C0BCF1280F05D100F1080CF8
:1015E00008FA0CF8C2F8148091F803C0BCF1480F57
:1015F00007D100F1080C4FF0010808FA0CF8C2F806
:101600001080401C0828CED35460BDE8F0814FF60E
:10161000FF710180022181700421C1707047024670
:10162000002093680B400BB1012000E000207047C0
:101630000146886880B2704702460020D3680B409C
:101640000BB1012000E0002070470146C86880B25D
:10165000704701617047416170470AB1016100E064
:1016600041617047C16070474FF480320A43826124
:1016700081618261826982697047024600207F4BE6
:1016800018684FF68073184040EA021008437B4BFD
:10169000186070477A49C8617047F0B50346B3F1E6
:1016A000004F72D90025002223F00044E50904F020
:1016B0007F04220904F00F04970004FA07F6062DB0
:1016C00016D2DFE805F00306090C0F126B48203034
:1016D0000FE06A4824300CE06848283009E0674889
:1016E0002C3006E06548303003E06448343000E0D8
:1016F00000BF00BF22B9076827F00F0707603DE071
:10170000012A12D1012D0BD1042C04D9076827F02E
:10171000C007076032E0076827F0300707602DE058
:10172000076827F0F007076028E0022A04D107685D
:1017300027F47067076021E0032A04D1076827F4C3
:10174000704707601AE0042A04D1076827F470275D
:10175000076013E0052A04D1076827F470070760C3
:101760000CE0062A04D1076827F07067076005E0DF
:10177000072A03D1076827F070470760012902D1C3
:101780000768374307602BE2FFE7B3F5802F7BD074
:1017900037DCB3F5007F78D015DC102B76D008DC71
:1017A000012B74D0022B73D0042B72D0082B71D173
:1017B00093E0302B6FD0402B6ED0C02B6DD0B3F5A3
:1017C000807FF4D1EBE0B3F5804F67D00CDCB3F54C
:1017D000407F76D0B3F5006F74D0B3F5406F72D010
:1017E000B3F5805FE3D179E0B3F5C04F6CD0B3F5CA
:1017F000004F6ED0B3F5803F6CD0B3F5003FD6D12B
:1018000069E0B3F1005F77D01DDCB3F5000F74D051
:101810000CDCB3F5002F62D0B3F5801F60D0B3F5B8
:10182000001F6BD0B3F5800FC1D17CE1B3F1807F95
:1018300073D0B3F1007F71D0B3F1806F6FD0B3F18B
:10184000805FB4D153E10F4A981A934268D02BDCE1
:10185000B3F1804F73D0A3F18040203800286FD0BF
:10186000B0F5787F6DD01AE000080140000C01400F
:101870000010014000140140001801400000014028
:10188000000020420000044026E096E049E036E0F7
:101890001DE01DE0A2E155E062E06FE0C5E0E34A33
:1018A000104400288DD15CE1B0F5802F74D0B0F5E4
:1018B000402F72D0B0F5A01F70D0B0F5E01F91D1CD
:1018C00051E188E095E0A2E0BDE002E002E000BF67
:1018D00000BF00BF00BF00BF00BF00BF00BF00BF10
:1018E000D34840689843D24A5060012903D110463A
:1018F00040681843506072E1EBE006E121E1CC481A
:101900004068CC4A1040CA4A5060012904D11046B0
:10191000406840F00100506061E1A2E0AFE0BCE04F
:1019200020E1C348406820F03000C14A50600129DE
:1019300004D11046406840F0100050604FE1BAE01A
:101940000DE10DE1BA48406820F03000B84A50601F
:10195000012904D11046406840F0300050603EE15B
:10196000B348406820F0C000B14A5060012904D15A
:101970001046406840F04000506030E1AC4840689C
:1019800020F0C000AA4A5060012904D110464068E6
:1019900040F0C000506022E1F6E003E110E1A4480D
:1019A000406820F44070A24A5060012904D11046DA
:1019B000406840F48070506011E19D48406820F418
:1019C00040709B4A5060012904D11046406840F4A1
:1019D0000070506003E19648406820F44070944ADB
:1019E0005060012904D11046406840F440705060B6
:1019F000F5E08F48406820F440608D4A506001292E
:101A000004D11046406840F400605060E7E0884828
:101A1000406820F44060864A5060012904D1104695
:101A2000406840F440605060D9E08148406820F44C
:101A3000C0407F4A5060012904D11046406840F4FC
:101A400080405060CBE07A48406820F4C040784A3B
:101A50005060012904D11046406840F4C0405060F5
:101A6000BDE07348406820F0E060714A5060012991
:101A700004D11046406840F080705060AFE06C4880
:101A8000406820F0E0606A4A5060012904D11046A5
:101A9000406840F000705060A1E06548406820F068
:101AA000E060634A5060012904D11046406840F06C
:101AB0008060506093E05E48406820F080405C4A5F
:101AC0005060012904D11046406840F080405060C9
:101AD00085E05748406820F00050554A5060012981
:101AE00004D11046406840F00050506077E0504804
:101AF000406820F080504E4A5060012904D11046C1
:101B0000406840F08050506069E04948406820F4E7
:101B10000000474A5060012904D11046406840F453
:101B2000000050605BE04248406820F48000404A7A
:101B30005060012904D11046406840F48000506094
:101B40004DE03B48406820F40010394A50600129BC
:101B500004D11046406840F4001050603FE000BFE0
:101B600000BF00BF00BF3248C069C3F315029043F5
:101B70002F4AD061012906D11046C069C3F315026E
:101B800010432B4AD0612AE02948C06920F4C010D4
:101B9000274AD061012904D11046C06940F40020D1
:101BA000D0611CE02248C06920F4C010204AD061F6
:101BB000012904D11046C06940F48010D0610EE0C4
:101BC0001B48C06920F4C010194AD061012904D112
:101BD0001046C06940F4C010D06100E000BF00BFF3
:101BE000F0BD30B500228B071C0F0F2303FA04F25F
:101BF0000F4B08338C1053F8243093430C4C0834AB
:101C00008D1044F8253023468C1053F824308C076F
:101C1000240F00FA04F42343054C08348D1044F8D3
:101C2000253030BD04490860704700002000FEFFE9
:101C300000000140FEFFFF7FDC00204210B504469B
:101C4000F848844209D10121480500F01EFC00211A
:101C50004FF4001000F019FC0BE0F348844208D167
:101C60000121880500F011FC00214FF4800000F0F4
:101C70000CFC10BD2DE9F04385B004460D4600264E
:101C8000B1460427DFF8A483A68806F47F46684699
:101C900000F007FBDDF80880E548B8FBF0F01FFA1C
:101CA00080F946EA0906A68020884FF6FE710840B2
:101CB00020800026DF49286888420CD82868400028
:101CC000B8FBF0F087B2042F00DA04273E4309F195
:101CD0000100208427E0E8884BF6FF71884206D196
:101CE000286800EB4000B8FBF0F087B209E02868F4
:101CF00000EBC00101EB0010B8FBF0F087B247F435
:101D00008047C7F30B0008B947F0010747F40040CC
:101D100006434FF4967009FB00F04FF47A7190FB84
:101D2000F1F0401C2084A683208840F00100208030
:101D300026884FF6F5300640A8886989084306438F
:101D40002680A88929890843208105B0BDE8F08351
:101D500041F288310160002181804BF6FF71C18022
:101D60000021018141814FF480418181704721B17F
:101D7000028842F00102028004E002884FF6FE73FE
:101D80001A400280704721B1828842F4006282804A
:101D900004E082884FF2FF731A408280704721B1BD
:101DA000828842F48052828004E082884EF6FF737B
:101DB0001A408280704721B1028842F4807202800A
:101DC00004E002884FF6FF631A400280704721B199
:101DD000028842F40072028004E002884FF6FF534A
:101DE0001A400280704721B1028842F4806202806A
:101DF00004E002884FF6FF331A40028070470A461B
:101E0000002181894FF60173194002F0FE03194346
:101E10008181704721B1828942F00102828104E010
:101E200082894FF6FE731A408281704721B1028881
:101E300042F04002028004E002884FF6BF731A406D
:101E4000028070471AB183880B43838002E0838845
:101E50008B4383807047018270470146088AC0B275
:101E6000704712B141F0010102E04FF6FE731940D4
:101E70000182704708B50246002000900092009849
:101E8000084400900098008808BD21B1028842F4FF
:101E90000042028003E00288C2F30E020280704713
:101EA000B1F5006F04D1028842F40062028004E0C0
:101EB00002884FF2FF731A4002807047B1F5005F4D
:101EC00004D1028842F40052028004E002884DF6F8
:101ED000FF731A400280704721B1028842F4805299
:101EE000028004E002884EF6FF731A4002807047B9
:101EF000B1F5006F04D1028842F40062028004E070
:101F000002884FF2FF731A400280704721B10288A5
:101F100042F02002028004E002884FF6DF731A408C
:101F2000028070470146088B0012704721B1028879
:101F300042F01002028004E002884FF6EF731A406C
:101F40000280704721B9028842F08002028004E0DA
:101F500002884FF67F731A4002807047B1F5804FB8
:101F600005D0828B4BF6FF731A40828303E0828B8D
:101F700042F480428283704770B5024600240025F7
:101F800000230020958A138B1B0445EA030626F0E4
:101F90007F4404EA01068E4201D1012000E00020C6
:101FA00070BD10B501460020002300228B8A0A8BE9
:101FB000120443EA020424F07F4010BD0CB502462F
:101FC000002000230193009300920B0F019321F056
:101FD0007F41019B1BB1009B1433009303E0090C6C
:101FE000009B18330093009B1B680B400BB1012032
:101FF00000E000200CBD002221F07F42D343838209
:10200000704730B5024600200023948801F0E06557
:1020100004EA154321F07F41948A0C4064B15BB11E
:1020200001200AE0005400400058004000127A00ED
:1020300040420F00A0860100002030BD002221F0A8
:102040007F42D34383827047F848006840F0010024
:10205000F649086008464068F5490840F349486079
:1020600008460068F3490840F049086008460068DF
:1020700020F48020086008464068ED49C9430840C4
:10208000EA4948604FF41F0088600846006BEA493F
:102090000840E64908637047E449096821F4803143
:1020A000E24A11601146096821F480211160B0F5FF
:1020B000803F03D0B0F5802F0ED106E0DB490968E0
:1020C00041F48031D94A116007E0D849096841F4E8
:1020D000A021D64A116000E000BF00BF704710B5D4
:1020E00001460022002300204A11012A02D1CF4CD0
:1020F000236806E0022A02D1CC4C236A01E0CB4CD3
:10210000636A01F01F02012494401C400CB10120BD
:1021100000E0002010BD002100E0491C8142FCD3FA
:10212000704738B5002000900024002500BF312002
:10213000FFF7D5FF05460098401C00900098B0F5C9
:10214000405F01D0002DF2D041F28830FFF7E3FF6D
:102150003120FFF7C4FF08B1012400E0002420462D
:1021600038BD01460020B14A106820F0FE0040EA68
:1021700081001060704700215A22AC4B30331A7036
:10218000AA4A126822F47F4141EA0021A74A11605D
:102190000022A64B83F830207047A849086070479A
:1021A00010B503460020A14C6068A54C204043EACE
:1021B0000104144320439D4C606010BD9F49086694
:1021C000704701460020994A506820F003000843F8
:1021D000506070479548406800F00C007047014619
:1021E0000020924A506820F0F00008435060704789
:1021F000014600208D4A506820F4E060084350609A
:10220000704701460020894A506820F4605040EA37
:10221000C1005060704729B1844A527A0243834B0F
:102220005A7204E0814A527A8243804B5A72704754
:10223000014600207D4A506820F00C600843506041
:10224000704701460020794A50687E4A1040084392
:10225000764A506070470021744A20321170734AE8
:1022600082F82010012802D004280AD104E00121BC
:102270006E4A2032117005E005216C4A203211703F
:1022800000E000BF00BF70476F49086070476749B2
:10229000096A0143654A116270476B494439086015
:1022A0007047F0B500220021002400235F4D6D68C7
:1022B00005F00C0222B1042A05D0082A3ED105E01F
:1022C000624D05603DE0614D05603AE0574D6D6837
:1022D0005F4E05EA0601554D6D6805F4803401F046
:1022E000C04535B901F47015B5F5701F01D0022550
:1022F00000E0012501F0C046C1F3834747EA566676
:10230000A9191CB9534D4D4305600BE0474D6D684D
:1023100005F400351DB14F4D4D43056002E04B4DB6
:102320004D430560414D6D6805F000452DB94A4E9D
:102330000568B54201D93546056002E0434D0560A8
:1023400000BF00BF394D6D68C5F30212374D6D688F
:1023500005F0800515B1414DAD5C00E000252B4630
:102360000568DD404560314D6D68C5F301222F4D94
:102370006D6805F4806515B1384DAD5C00E0002551
:102380002B464568DD408560284D6D68C5F3C12248
:10239000264D6D6805F4005515B1304DAD5C00E07B
:1023A00000252B464568DD40C560204D6D68C5F3AE
:1023B00081321E4D6D6805F080550DB142F004026A
:1023C000274DAB5CC568B5FBF3F50561F0BD29B1E0
:1023D000164A52690243154B5A6104E0134A526986
:1023E0008243124B5A61704729B1104A92690243E5
:1023F0000E4B9A6104E00D4A926982430B4B9A613D
:10240000704729B1094AD2690243084BDA6104E0F6
:10241000064AD2698243054BDA61704729B1034A03
:10242000926A0243014B9A6221E01BE000100240D5
:102430000000FFE8FFFFF6FE00FFFEFE0000424244
:10244000FFFFC01FFF3FFFEF8004424200127A00EF
:1024500000003C6000093D0000A24A04A0000020EA
:10246000A8000020614A926A8243604B9A627047DA
:1024700029B15E4AD26802435C4BDA6004E05B4AF1
:10248000D2688243594BDA60704729B1574A1269C2
:102490000243564B1A6104E0544A12698243534B7B
:1024A0001A6170475249086070475249C8647047C2
:1024B00010B5024600204D4B1B6B23F070434B4C74
:1024C000236323461B6B0B432363130F5BB9234624
:1024D0001B6B23F4803323632346586820F0E060AD
:1024E0001043586017E00123B3EB127F13D13F4B29
:1024F0001B6B23F480333D4C236323461B6B43F457
:10250000803323632346586820F0E06022F0704354
:1025100018432346586010BD3448406A40F080702C
:1025200032494862704701460020304A92680A40AA
:102530000AB1012000E0002070472C4988727047E2
:10254000012806D12949496D41F03001274A5165DA
:1025500005E02649496D21F03001244A5165704754
:1025600001280BD12149096B41F000711F4A116309
:102570001146496D41F4807151650AE01B49096BB0
:1025800021F00071194A11631146496D21F48071DF
:10259000516570471549496D21F44051134A516501
:1025A0001146496D014351657047012806D10F4915
:1025B000C96D41F001010D4AD16505E00B49C96DB6
:1025C00021F00101094AD1657047012806D1074968
:1025D000096D41F48031054A116505E00349096D33
:1025E00021F48031014A116570470000001002405B
:1025F000400442420000424210B50446FB48844277
:1026000009D101218803FFF733FF00214FF48040F7
:10261000FFF72EFF32E0F648844209D10121480439
:10262000FFF733FF00214FF40030FFF72EFF25E0C6
:10263000F048844209D101218804FFF726FF0021D8
:102640004FF48020FFF721FF18E0EB48844209D1C6
:102650000121C804FFF719FF00214FF40020FFF704
:1026600014FF0BE0E548844208D101210805FFF77B
:102670000CFF00214FF48010FFF707FF10BD2DE97C
:10268000F04786B005460E460024A24600BFA1468C
:102690000027B08900B100BF2F462C8A4CF6FF708E
:1026A0000440F08804432C82AC894EF6F3100440B9
:1026B000B08831890843718908430443AC81AC8AEE
:1026C0004FF6FF400440B0890443AC8201A8FFF7F5
:1026D000E8FDC648874202D1DDF810A001E0DDF830
:1026E0000CA0A88900F4004040B10AEBCA0000EB3E
:1026F0000A1031684900B0FBF1F807E00AEBCA00A4
:1027000000EB0A1031688900B0FBF1F86420B8FBD7
:10271000F0F004012009642101FB1089A88900F46C
:10272000004040B1322000EBC900B0FBF1F000F0F6
:102730000700044308E0322000EB09106421B0FBDD
:10274000F1F000F00F0004432C8106B0BDE8F087E3
:102750004FF41651016000218180C18001810C215C
:10276000418100218181704710B502460020108A06
:102770004FF2FF0318400B884C8823438C88234377
:10278000CC8823431843108210BD00210180418072
:102790008180C180704721B1828942F400528281D8
:1027A00004E082894DF6FF731A4082817047F0B5CC
:1027B0000346002400260025002040F66A17B9428F
:1027C00000D100BF1846C1F3421401F01F060127D3
:1027D00007FA06F5012C01D10C3004E0022C01D1DE
:1027E000103000E014301AB107682F43076002E090
:1027F0000768AF430760F0BD1AB1838A0B43838239
:1028000002E0838A8B4383827047028A4FF6F0731B
:102810001A400282028A0A430282704782894FF27A
:10282000FF731A40828182890A438281704721B1F5
:10283000828942F00202828104E082894FF6FD73B0
:102840001A4082817047028A4FF6DF731A40028273
:10285000028A0A430282704721B1028A42F480420E
:10286000028204E0028A4BF6FF731A40028270472C
:10287000C1F308028280704701468888C0F30800CF
:102880007047818941F0010181817047028BD2B28A
:102890000283028B42EA012202837047028B02F418
:1028A0007F420283028B0A430283704721B1828AEE
:1028B00042F02002828204E0828A4FF6DF731A40DF
:1028C0008282704721B1828A42F01002828204E043
:1028D000828A4FF6EF731A408282704721B1828A52
:1028E00042F00802828204E0828A4FF6F7731A40AF
:1028F0008282704721B1828942F40042828103E0E2
:102900008289C2F30E028281704721B1828A42F429
:102910000062828204E0828A4FF2FF731A40828250
:102920007047828A4FF6FB731A408282828A0A437A
:102930008282704721B1828A42F00202828204E0E0
:10294000828A4FF6FD731A40828270470246002049
:10295000B1F5007F00D100BF13880B400BB10120FF
:1029600000E00020704701F40072B2F5007F00D152
:1029700000BFCA430280704770B50246002400239E
:102980000025002040F66A16B14200D100BFC1F315
:10299000421501F01F03012606FA03F3012D02D1AF
:1029A0009689334006E0022D02D1168A334001E0B9
:1029B000968A33400C12012606FA04F41688344035
:1029C00013B10CB1012000E0002070BD10B5002251
:1029D000002340F66A14A14200D100BF0A1201246C
:1029E0009440A3B2DC43048010BD000000380140D5
:1029F0000044004000480040004C004000500040AF
:102A000031490143314A1160704770B500210023FC
:102A10000F22C47804B32D4C246804F4E064C4F598
:102A2000E064210AC1F10403CA40447804FA03F1C6
:102A30008478144021430901254C0678A155047877
:102A400004F01F050124AC4005786D11AD0005F1BF
:102A5000E025C5F8004109E0047804F01F050124D1
:102A6000AC401C4D0678761145F8264070BD1A4AD8
:102A70000A400243154B1B1F1A60704739B1134AB5
:102A8000121D12680243114B1B1D1A6006E00F4A0B
:102A9000121D126882430D4B1B1D1A6070470428DB
:102AA00008D14FF0E021096941F004014FF0E02224
:102AB000116107E04FF0E021096921F004014FF0B6
:102AC000E0221161704700000000FA050CED00E003
:102AD00000E400E080E100E080FFFF1FD2B201E0EF
:102AE00000F8012B491EFBD270470022F6E710B513
:102AF00013460A4604461946FFF7F0FF204610BD6C
:102B0000064C074D06E0E06840F0010394E807003A
:102B100098471034AC42F6D3FDF738FB742B00080D
:102B2000942B0008014A024900F013B8150B000865
:102B3000B000002002E008C8121F08C1002AFAD124
:102B400070477047002001E001C1121F002AFBD12D
:102B500070472DE9F04116460F460446002503E074
:102B60003946B047641C6D1C20780028F8D12846EF
:102B7000BDE8F081942B000800000020B4000000A4
:102B8000342B0008482C0008B40000201404000076
:102B9000442B00080102030405060708090A0B0C70
:102BA0000D0E0F101213141500000000000000009D
:102BB0000000000000000000000000000000000015
:102BC0000000000000000000000000000000000005
:102BD00010540040000000000000000000140140FC
:102BE000001401400014014000000020004000805B
:102BF0000000000020000000200000002000000075
:102C00000008014000100140010000200400000005
:102C100010000000000000000000000001000000A3
:102C2000001C4E0E00000000000000000102030422
:102C3000060708090102030406070809020406083A
:082C4000020C08100000000066
:040000050800018569
:00000001FF
